{
  "abi": [
    {
      "type": "constructor",
      "inputs": [
        {
          "name": "anEntryPoint",
          "type": "address",
          "internalType": "contract IEntryPoint"
        }
      ],
      "stateMutability": "nonpayable"
    },
    {
      "type": "receive",
      "stateMutability": "payable"
    },
    {
      "type": "function",
      "name": "NAME",
      "inputs": [],
      "outputs": [
        {
          "name": "",
          "type": "string",
          "internalType": "string"
        }
      ],
      "stateMutability": "view"
    },
    {
      "type": "function",
      "name": "SET_IMAGE_HASH_TYPE_HASH",
      "inputs": [],
      "outputs": [
        {
          "name": "",
          "type": "bytes32",
          "internalType": "bytes32"
        }
      ],
      "stateMutability": "view"
    },
    {
      "type": "function",
      "name": "UPGRADE_INTERFACE_VERSION",
      "inputs": [],
      "outputs": [
        {
          "name": "",
          "type": "string",
          "internalType": "string"
        }
      ],
      "stateMutability": "view"
    },
    {
      "type": "function",
      "name": "VERSION",
      "inputs": [],
      "outputs": [
        {
          "name": "",
          "type": "string",
          "internalType": "string"
        }
      ],
      "stateMutability": "view"
    },
    {
      "type": "function",
      "name": "entryPoint",
      "inputs": [],
      "outputs": [
        {
          "name": "",
          "type": "address",
          "internalType": "contract IEntryPoint"
        }
      ],
      "stateMutability": "view"
    },
    {
      "type": "function",
      "name": "execute",
      "inputs": [
        {
          "name": "dest",
          "type": "address",
          "internalType": "address"
        },
        {
          "name": "value",
          "type": "uint256",
          "internalType": "uint256"
        },
        {
          "name": "func",
          "type": "bytes",
          "internalType": "bytes"
        }
      ],
      "outputs": [],
      "stateMutability": "nonpayable"
    },
    {
      "type": "function",
      "name": "executeBatch",
      "inputs": [
        {
          "name": "dest",
          "type": "address[]",
          "internalType": "address[]"
        },
        {
          "name": "value",
          "type": "uint256[]",
          "internalType": "uint256[]"
        },
        {
          "name": "func",
          "type": "bytes[]",
          "internalType": "bytes[]"
        }
      ],
      "outputs": [],
      "stateMutability": "nonpayable"
    },
    {
      "type": "function",
      "name": "getNonce",
      "inputs": [],
      "outputs": [
        {
          "name": "",
          "type": "uint256",
          "internalType": "uint256"
        }
      ],
      "stateMutability": "view"
    },
    {
      "type": "function",
      "name": "imageHash",
      "inputs": [],
      "outputs": [
        {
          "name": "",
          "type": "bytes32",
          "internalType": "bytes32"
        }
      ],
      "stateMutability": "view"
    },
    {
      "type": "function",
      "name": "initialize",
      "inputs": [
        {
          "name": "imageHash",
          "type": "bytes32",
          "internalType": "bytes32"
        }
      ],
      "outputs": [],
      "stateMutability": "nonpayable"
    },
    {
      "type": "function",
      "name": "isValidSignature",
      "inputs": [
        {
          "name": "hash",
          "type": "bytes32",
          "internalType": "bytes32"
        },
        {
          "name": "signatures",
          "type": "bytes",
          "internalType": "bytes"
        }
      ],
      "outputs": [
        {
          "name": "",
          "type": "bytes4",
          "internalType": "bytes4"
        }
      ],
      "stateMutability": "view"
    },
    {
      "type": "function",
      "name": "isValidSignature",
      "inputs": [
        {
          "name": "_data",
          "type": "bytes",
          "internalType": "bytes"
        },
        {
          "name": "_signatures",
          "type": "bytes",
          "internalType": "bytes"
        }
      ],
      "outputs": [
        {
          "name": "",
          "type": "bytes4",
          "internalType": "bytes4"
        }
      ],
      "stateMutability": "view"
    },
    {
      "type": "function",
      "name": "onERC1155BatchReceived",
      "inputs": [
        {
          "name": "",
          "type": "address",
          "internalType": "address"
        },
        {
          "name": "",
          "type": "address",
          "internalType": "address"
        },
        {
          "name": "",
          "type": "uint256[]",
          "internalType": "uint256[]"
        },
        {
          "name": "",
          "type": "uint256[]",
          "internalType": "uint256[]"
        },
        {
          "name": "",
          "type": "bytes",
          "internalType": "bytes"
        }
      ],
      "outputs": [
        {
          "name": "",
          "type": "bytes4",
          "internalType": "bytes4"
        }
      ],
      "stateMutability": "pure"
    },
    {
      "type": "function",
      "name": "onERC1155Received",
      "inputs": [
        {
          "name": "",
          "type": "address",
          "internalType": "address"
        },
        {
          "name": "",
          "type": "address",
          "internalType": "address"
        },
        {
          "name": "",
          "type": "uint256",
          "internalType": "uint256"
        },
        {
          "name": "",
          "type": "uint256",
          "internalType": "uint256"
        },
        {
          "name": "",
          "type": "bytes",
          "internalType": "bytes"
        }
      ],
      "outputs": [
        {
          "name": "",
          "type": "bytes4",
          "internalType": "bytes4"
        }
      ],
      "stateMutability": "pure"
    },
    {
      "type": "function",
      "name": "onERC721Received",
      "inputs": [
        {
          "name": "",
          "type": "address",
          "internalType": "address"
        },
        {
          "name": "",
          "type": "address",
          "internalType": "address"
        },
        {
          "name": "",
          "type": "uint256",
          "internalType": "uint256"
        },
        {
          "name": "",
          "type": "bytes",
          "internalType": "bytes"
        }
      ],
      "outputs": [
        {
          "name": "",
          "type": "bytes4",
          "internalType": "bytes4"
        }
      ],
      "stateMutability": "pure"
    },
    {
      "type": "function",
      "name": "proxiableUUID",
      "inputs": [],
      "outputs": [
        {
          "name": "",
          "type": "bytes32",
          "internalType": "bytes32"
        }
      ],
      "stateMutability": "view"
    },
    {
      "type": "function",
      "name": "signatureRecovery",
      "inputs": [
        {
          "name": "_digest",
          "type": "bytes32",
          "internalType": "bytes32"
        },
        {
          "name": "_signature",
          "type": "bytes",
          "internalType": "bytes"
        }
      ],
      "outputs": [
        {
          "name": "threshold",
          "type": "uint256",
          "internalType": "uint256"
        },
        {
          "name": "weight",
          "type": "uint256",
          "internalType": "uint256"
        },
        {
          "name": "imageHash",
          "type": "bytes32",
          "internalType": "bytes32"
        },
        {
          "name": "subdigest",
          "type": "bytes32",
          "internalType": "bytes32"
        },
        {
          "name": "checkpoint",
          "type": "uint256",
          "internalType": "uint256"
        }
      ],
      "stateMutability": "view"
    },
    {
      "type": "function",
      "name": "supportsInterface",
      "inputs": [
        {
          "name": "interfaceId",
          "type": "bytes4",
          "internalType": "bytes4"
        }
      ],
      "outputs": [
        {
          "name": "",
          "type": "bool",
          "internalType": "bool"
        }
      ],
      "stateMutability": "pure"
    },
    {
      "type": "function",
      "name": "updateImageHash",
      "inputs": [
        {
          "name": "_imageHash",
          "type": "bytes32",
          "internalType": "bytes32"
        }
      ],
      "outputs": [],
      "stateMutability": "nonpayable"
    },
    {
      "type": "function",
      "name": "upgradeToAndCall",
      "inputs": [
        {
          "name": "newImplementation",
          "type": "address",
          "internalType": "address"
        },
        {
          "name": "data",
          "type": "bytes",
          "internalType": "bytes"
        }
      ],
      "outputs": [],
      "stateMutability": "payable"
    },
    {
      "type": "function",
      "name": "validateUserOp",
      "inputs": [
        {
          "name": "userOp",
          "type": "tuple",
          "internalType": "struct PackedUserOperation",
          "components": [
            {
              "name": "sender",
              "type": "address",
              "internalType": "address"
            },
            {
              "name": "nonce",
              "type": "uint256",
              "internalType": "uint256"
            },
            {
              "name": "initCode",
              "type": "bytes",
              "internalType": "bytes"
            },
            {
              "name": "callData",
              "type": "bytes",
              "internalType": "bytes"
            },
            {
              "name": "accountGasLimits",
              "type": "bytes32",
              "internalType": "bytes32"
            },
            {
              "name": "preVerificationGas",
              "type": "uint256",
              "internalType": "uint256"
            },
            {
              "name": "gasFees",
              "type": "bytes32",
              "internalType": "bytes32"
            },
            {
              "name": "paymasterAndData",
              "type": "bytes",
              "internalType": "bytes"
            },
            {
              "name": "signature",
              "type": "bytes",
              "internalType": "bytes"
            }
          ]
        },
        {
          "name": "userOpHash",
          "type": "bytes32",
          "internalType": "bytes32"
        },
        {
          "name": "missingAccountFunds",
          "type": "uint256",
          "internalType": "uint256"
        }
      ],
      "outputs": [
        {
          "name": "validationData",
          "type": "uint256",
          "internalType": "uint256"
        }
      ],
      "stateMutability": "nonpayable"
    },
    {
      "type": "event",
      "name": "ImageHashUpdated",
      "inputs": [
        {
          "name": "newImageHash",
          "type": "bytes32",
          "indexed": false,
          "internalType": "bytes32"
        }
      ],
      "anonymous": false
    },
    {
      "type": "event",
      "name": "Initialized",
      "inputs": [
        {
          "name": "version",
          "type": "uint64",
          "indexed": false,
          "internalType": "uint64"
        }
      ],
      "anonymous": false
    },
    {
      "type": "event",
      "name": "LightWalletInitialized",
      "inputs": [
        {
          "name": "entryPoint",
          "type": "address",
          "indexed": true,
          "internalType": "contract IEntryPoint"
        },
        {
          "name": "hash",
          "type": "bytes32",
          "indexed": true,
          "internalType": "bytes32"
        }
      ],
      "anonymous": false
    },
    {
      "type": "event",
      "name": "Upgraded",
      "inputs": [
        {
          "name": "implementation",
          "type": "address",
          "indexed": true,
          "internalType": "address"
        }
      ],
      "anonymous": false
    },
    {
      "type": "error",
      "name": "AddressEmptyCode",
      "inputs": [
        {
          "name": "target",
          "type": "address",
          "internalType": "address"
        }
      ]
    },
    {
      "type": "error",
      "name": "ERC1967InvalidImplementation",
      "inputs": [
        {
          "name": "implementation",
          "type": "address",
          "internalType": "address"
        }
      ]
    },
    {
      "type": "error",
      "name": "ERC1967NonPayable",
      "inputs": []
    },
    {
      "type": "error",
      "name": "EmptySignature",
      "inputs": []
    },
    {
      "type": "error",
      "name": "FailedInnerCall",
      "inputs": []
    },
    {
      "type": "error",
      "name": "ImageHashIsZero",
      "inputs": []
    },
    {
      "type": "error",
      "name": "InvalidInitialization",
      "inputs": []
    },
    {
      "type": "error",
      "name": "InvalidMerkleProof",
      "inputs": [
        {
          "name": "root",
          "type": "bytes32",
          "internalType": "bytes32"
        },
        {
          "name": "leaf",
          "type": "bytes32",
          "internalType": "bytes32"
        }
      ]
    },
    {
      "type": "error",
      "name": "InvalidNestedSignature",
      "inputs": [
        {
          "name": "_hash",
          "type": "bytes32",
          "internalType": "bytes32"
        },
        {
          "name": "_addr",
          "type": "address",
          "internalType": "address"
        },
        {
          "name": "_signature",
          "type": "bytes",
          "internalType": "bytes"
        }
      ]
    },
    {
      "type": "error",
      "name": "InvalidSValue",
      "inputs": [
        {
          "name": "_signature",
          "type": "bytes",
          "internalType": "bytes"
        },
        {
          "name": "_s",
          "type": "bytes32",
          "internalType": "bytes32"
        }
      ]
    },
    {
      "type": "error",
      "name": "InvalidSignatureFlag",
      "inputs": [
        {
          "name": "_flag",
          "type": "uint256",
          "internalType": "uint256"
        }
      ]
    },
    {
      "type": "error",
      "name": "InvalidSignatureLength",
      "inputs": [
        {
          "name": "_signature",
          "type": "bytes",
          "internalType": "bytes"
        }
      ]
    },
    {
      "type": "error",
      "name": "InvalidSignatureType",
      "inputs": [
        {
          "name": "_type",
          "type": "bytes1",
          "internalType": "bytes1"
        }
      ]
    },
    {
      "type": "error",
      "name": "InvalidVValue",
      "inputs": [
        {
          "name": "_signature",
          "type": "bytes",
          "internalType": "bytes"
        },
        {
          "name": "_v",
          "type": "uint256",
          "internalType": "uint256"
        }
      ]
    },
    {
      "type": "error",
      "name": "LowWeightChainedSignature",
      "inputs": [
        {
          "name": "_signature",
          "type": "bytes",
          "internalType": "bytes"
        },
        {
          "name": "threshold",
          "type": "uint256",
          "internalType": "uint256"
        },
        {
          "name": "_weight",
          "type": "uint256",
          "internalType": "uint256"
        }
      ]
    },
    {
      "type": "error",
      "name": "NotInitializing",
      "inputs": []
    },
    {
      "type": "error",
      "name": "OnlySelfAuth",
      "inputs": [
        {
          "name": "_sender",
          "type": "address",
          "internalType": "address"
        },
        {
          "name": "_self",
          "type": "address",
          "internalType": "address"
        }
      ]
    },
    {
      "type": "error",
      "name": "SignerIsAddress0",
      "inputs": [
        {
          "name": "_signature",
          "type": "bytes",
          "internalType": "bytes"
        }
      ]
    },
    {
      "type": "error",
      "name": "UUPSUnauthorizedCallContext",
      "inputs": []
    },
    {
      "type": "error",
      "name": "UUPSUnsupportedProxiableUUID",
      "inputs": [
        {
          "name": "slot",
          "type": "bytes32",
          "internalType": "bytes32"
        }
      ]
    },
    {
      "type": "error",
      "name": "UnsupportedSignatureType",
      "inputs": [
        {
          "name": "_signature",
          "type": "bytes",
          "internalType": "bytes"
        },
        {
          "name": "_type",
          "type": "uint256",
          "internalType": "uint256"
        },
        {
          "name": "_recoverMode",
          "type": "bool",
          "internalType": "bool"
        }
      ]
    },
    {
      "type": "error",
      "name": "WrongChainedCheckpointOrder",
      "inputs": [
        {
          "name": "_current",
          "type": "uint256",
          "internalType": "uint256"
        },
        {
          "name": "_prev",
          "type": "uint256",
          "internalType": "uint256"
        }
      ]
    }
  ],
  "bytecode": {
    "object": "0x60c060405230608052348015610013575f5ffd5b506040516130e43803806130e4833981016040819052610032916100ff565b6001600160a01b03811660a05261004761004d565b5061012c565b7ff0c57e16840df040f15088dc2f81fe391c3923bec73e23a9662efc9c229c6a00805468010000000000000000900460ff161561009d5760405163f92ee8a960e01b815260040160405180910390fd5b80546001600160401b03908116146100fc5780546001600160401b0319166001600160401b0390811782556040519081527fc7f505b2f371ae2175ee4913f4499e1f2633a7b5936321eed1cdaeb6115181d29060200160405180910390a15b50565b5f6020828403121561010f575f5ffd5b81516001600160a01b0381168114610125575f5ffd5b9392505050565b60805160a051612f746101705f395f818161045b01528181610c2f01528181610e26015261185101525f818161126d0152818161129601526114f00152612f745ff3fe608060405260043610610165575f3560e01c806357c56d6b116100c6578063b0d691fe1161007c578063d087d28811610057578063d087d288146104eb578063f23a6e61146104ff578063ffa1ad7414610544575f5ffd5b8063b0d691fe14610435578063b61d27f614610485578063bc197c81146104a4575f5ffd5b80639498bd71116100ac5780639498bd7114610379578063a3f4df7e14610398578063ad3cb1cc146103ed575f5ffd5b806357c56d6b146102ff578063853c506814610332575f5ffd5b8063295614261161011b5780634f1ef286116101015780634f1ef286146102c457806351605d80146102d757806352d1902d146102eb575f5ffd5b8063295614261461028457806347e1da2a146102a5575f5ffd5b80631626ba7e1161014b5780631626ba7e1461021957806319822f7c1461023857806320c13b0b14610265575f5ffd5b806301ffc9a714610170578063150b7a02146101a4575f5ffd5b3661016c57005b5f5ffd5b34801561017b575f5ffd5b5061018f61018a3660046125be565b61058c565b60405190151581526020015b60405180910390f35b3480156101af575f5ffd5b506101e86101be366004612646565b7f150b7a020000000000000000000000000000000000000000000000000000000095945050505050565b6040517fffffffff00000000000000000000000000000000000000000000000000000000909116815260200161019b565b348015610224575f5ffd5b506101e86102333660046126b0565b61059c565b348015610243575f5ffd5b506102576102523660046126f8565b6105b2565b60405190815260200161019b565b348015610270575f5ffd5b506101e861027f366004612747565b6105d0565b34801561028f575f5ffd5b506102a361029e3660046127b3565b610633565b005b3480156102b0575f5ffd5b506102a36102bf36600461280b565b610685565b6102a36102d23660046129b0565b610822565b3480156102e2575f5ffd5b50610257610841565b3480156102f6575f5ffd5b5061025761086f565b34801561030a575f5ffd5b506102577f8713a7c4465f6fbee2b6e9d6646d1d9f83fec929edfc4baf661f3c865bdd04d181565b34801561033d575f5ffd5b5061035161034c3660046126b0565b61089d565b604080519586526020860194909452928401919091526060830152608082015260a00161019b565b348015610384575f5ffd5b506102a36103933660046127b3565b610a61565b3480156103a3575f5ffd5b506103e06040518060400160405280600b81526020017f4c6967687457616c6c657400000000000000000000000000000000000000000081525081565b60405161019b91906129fb565b3480156103f8575f5ffd5b506103e06040518060400160405280600581526020017f352e302e3000000000000000000000000000000000000000000000000000000081525081565b348015610440575f5ffd5b5060405173ffffffffffffffffffffffffffffffffffffffff7f000000000000000000000000000000000000000000000000000000000000000016815260200161019b565b348015610490575f5ffd5b506102a361049f366004612a4e565b610bde565b3480156104af575f5ffd5b506101e86104be366004612a8c565b7fbc197c810000000000000000000000000000000000000000000000000000000098975050505050505050565b3480156104f6575f5ffd5b50610257610c2c565b34801561050a575f5ffd5b506101e8610519366004612b4b565b7ff23a6e61000000000000000000000000000000000000000000000000000000009695505050505050565b34801561054f575f5ffd5b506103e06040518060400160405280600581526020017f302e342e3000000000000000000000000000000000000000000000000000000081525081565b5f61059682610ce2565b92915050565b5f6105a8848484610dc5565b90505b9392505050565b5f6105bb610e0e565b6105c58484610eaf565b90506105ab82611097565b5f5f6105f486866040516105e5929190612bac565b6040518091039020858561110b565b509050801561062657507f20c13b0b00000000000000000000000000000000000000000000000000000000905061062b565b505f90505b949350505050565b333014610679576040517fe12588940000000000000000000000000000000000000000000000000000000081523360048201523060248201526044015b60405180910390fd5b61068281611146565b50565b61068d610e0e565b84811480156106a357508215806106a357508281145b610709576040517f08c379a000000000000000000000000000000000000000000000000000000000815260206004820152601360248201527f77726f6e67206172726179206c656e67746873000000000000000000000000006044820152606401610670565b5f8390036107b1575f5b858110156107ab576107a387878381811061073057610730612bbb565b90506020020160208101906107459190612be8565b5f85858581811061075857610758612bbb565b905060200281019061076a9190612c01565b8080601f0160208091040260200160405190810160405280939291908181526020018383808284375f920191909152506111dc92505050565b600101610713565b5061081a565b5f5b85811015610818576108108787838181106107d0576107d0612bbb565b90506020020160208101906107e59190612be8565b8686848181106107f7576107f7612bbb565b9050602002013585858581811061075857610758612bbb565b6001016107b3565b505b505050505050565b61082a611255565b61083382611359565b61083d828261139a565b5050565b5f61086a7fea7157fa25e3aa17d0ae2d5280fa4e24d421c61842aa85e45194e1145aa72bf85490565b905090565b5f6108786114d8565b507f360894a13ba1a3210667c828492db98dca3e2076cc3735a920a3ca505d382bbc90565b5f5f5f5f5f5f87875f8181106108b5576108b5612bbb565b909101357fff0000000000000000000000000000000000000000000000000000000000000016915081905061090b576108ed89611547565b92506108fa8389896115cb565b92985090965094509150610a569050565b7fff000000000000000000000000000000000000000000000000000000000000008181160161094a5761093d89611547565b92506108fa83898961161a565b7ffe000000000000000000000000000000000000000000000000000000000000007fff0000000000000000000000000000000000000000000000000000000000000082160161099c5761093d89611645565b7ffd000000000000000000000000000000000000000000000000000000000000007fff00000000000000000000000000000000000000000000000000000000000000821601610a00576109f08989896116b1565b9550955095509550955050610a56565b6040517f6085cd820000000000000000000000000000000000000000000000000000000081527fff0000000000000000000000000000000000000000000000000000000000000082166004820152602401610670565b939792965093509350565b7ff0c57e16840df040f15088dc2f81fe391c3923bec73e23a9662efc9c229c6a00805468010000000000000000810460ff16159067ffffffffffffffff165f81158015610aab5750825b90505f8267ffffffffffffffff166001148015610ac75750303b155b905081158015610ad5575080155b15610b0c576040517ff92ee8a900000000000000000000000000000000000000000000000000000000815260040160405180910390fd5b84547fffffffffffffffffffffffffffffffffffffffffffffffff00000000000000001660011785558315610b6d5784547fffffffffffffffffffffffffffffffffffffffffffffff00ffffffffffffffff16680100000000000000001785555b610b768661182c565b831561081a5784547fffffffffffffffffffffffffffffffffffffffffffffff00ffffffffffffffff168555604051600181527fc7f505b2f371ae2175ee4913f4499e1f2633a7b5936321eed1cdaeb6115181d29060200160405180910390a1505050505050565b610be6610e0e565b610c26848484848080601f0160208091040260200160405190810160405280939291908181526020018383808284375f920191909152506111dc92505050565b50505050565b5f7f00000000000000000000000000000000000000000000000000000000000000006040517f35567e1a0000000000000000000000000000000000000000000000000000000081523060048201525f602482015273ffffffffffffffffffffffffffffffffffffffff91909116906335567e1a90604401602060405180830381865afa158015610cbe573d5f5f3e3d5ffd5b505050506040513d601f19601f8201168201806040525081019061086a9190612c62565b5f7fffffffff0000000000000000000000000000000000000000000000000000000082167f150b7a02000000000000000000000000000000000000000000000000000000001480610d7457507fffffffff0000000000000000000000000000000000000000000000000000000082167f4e2312e000000000000000000000000000000000000000000000000000000000145b8061059657507fffffffff0000000000000000000000000000000000000000000000000000000082167f01ffc9a7000000000000000000000000000000000000000000000000000000001492915050565b5f5f610dd285858561110b565b5090508015610e0457507f1626ba7e0000000000000000000000000000000000000000000000000000000090506105ab565b505f949350505050565b3373ffffffffffffffffffffffffffffffffffffffff7f00000000000000000000000000000000000000000000000000000000000000001614610ead576040517f08c379a000000000000000000000000000000000000000000000000000000000815260206004820152601c60248201527f6163636f756e743a206e6f742066726f6d20456e747279506f696e74000000006044820152606401610670565b565b5f80610ebf610100850185612c01565b5f818110610ecf57610ecf612bbb565b7fff000000000000000000000000000000000000000000000000000000000000009201359182169250507f030000000000000000000000000000000000000000000000000000000000000016819003610f57575f610f3a84610f35610100880188612c01565b61110b565b50905080610f4d57600192505050610596565b5f92505050610596565b7fff0000000000000000000000000000000000000000000000000000000000000081167f04000000000000000000000000000000000000000000000000000000000000000361108d575f8080610fb1610100880188612c01565b610fbf916001908290612c79565b810190610fcc9190612ca0565b925092509250610fdd82848861189a565b61101d576040517faab788dc0000000000000000000000000000000000000000000000000000000081526004810184905260248101879052604401610670565b5f8251602061102c9190612dad565b6110379060a1612dc4565b90505f6110688561104c6101008c018c612c01565b859087518761105b9190612dc4565b92610f3593929190612c79565b5090508061107f5760019650505050505050610596565b5f9650505050505050610596565b5060019392505050565b8015610682576040515f9033907fffffffffffffffffffffffffffffffffffffffffffffffffffffffffffffffff90849084818181858888f193505050503d805f81146110ff576040519150601f19603f3d011682016040523d82523d5f602084013e611104565b606091505b5050505050565b5f5f5f5f5f61111b88888861089d565b509650919450925090508282108015906111395750611139816118af565b9450505050935093915050565b8061117d576040517f4294d12700000000000000000000000000000000000000000000000000000000815260040160405180910390fd5b6111a67fea7157fa25e3aa17d0ae2d5280fa4e24d421c61842aa85e45194e1145aa72bf8829055565b6040518181527f307ed6bd941ee9fc80f369c94af5fa11e25bab5102a6140191756c5474a30bfa9060200160405180910390a150565b5f5f8473ffffffffffffffffffffffffffffffffffffffff1684846040516112049190612dd7565b5f6040518083038185875af1925050503d805f811461123e576040519150601f19603f3d011682016040523d82523d5f602084013e611243565b606091505b50915091508161110457805160208201fd5b3073ffffffffffffffffffffffffffffffffffffffff7f000000000000000000000000000000000000000000000000000000000000000016148061132257507f000000000000000000000000000000000000000000000000000000000000000073ffffffffffffffffffffffffffffffffffffffff166113097f360894a13ba1a3210667c828492db98dca3e2076cc3735a920a3ca505d382bbc5473ffffffffffffffffffffffffffffffffffffffff1690565b73ffffffffffffffffffffffffffffffffffffffff1614155b15610ead576040517fe07c8dba00000000000000000000000000000000000000000000000000000000815260040160405180910390fd5b333014610682576040517fe1258894000000000000000000000000000000000000000000000000000000008152336004820152306024820152604401610670565b8173ffffffffffffffffffffffffffffffffffffffff166352d1902d6040518163ffffffff1660e01b8152600401602060405180830381865afa92505050801561141f575060408051601f3d9081017fffffffffffffffffffffffffffffffffffffffffffffffffffffffffffffffe016820190925261141c91810190612c62565b60015b61146d576040517f4c9c8ce300000000000000000000000000000000000000000000000000000000815273ffffffffffffffffffffffffffffffffffffffff83166004820152602401610670565b7f360894a13ba1a3210667c828492db98dca3e2076cc3735a920a3ca505d382bbc81146114c9576040517faa1d49a400000000000000000000000000000000000000000000000000000000815260048101829052602401610670565b6114d383836118e1565b505050565b3073ffffffffffffffffffffffffffffffffffffffff7f00000000000000000000000000000000000000000000000000000000000000001614610ead576040517fe07c8dba00000000000000000000000000000000000000000000000000000000815260040160405180910390fd5b6040517f190100000000000000000000000000000000000000000000000000000000000060208201524660228201527fffffffffffffffffffffffffffffffffffffffff0000000000000000000000003060601b166042820152605681018290525f906076015b604051602081830303815290604052805190602001209050919050565b5f8080806115e5876115e0876006818b612c79565b611943565b5f908152873560f01c6020818152604080842084526002909a013560e01c908190529890912090999198509695509350505050565b5f8080806116348761162f876001818b612c79565b6115cb565b935093509350935093509350935093565b6040517f190100000000000000000000000000000000000000000000000000000000000060208201525f602282018190527fffffffffffffffffffffffffffffffffffffffff0000000000000000000000003060601b16604283015260568201839052906076016115ae565b5f808080806004600188013560e81c826116cb8383612dc4565b90506116dd8b61034c83868d8f612c79565b939b5091995097509550935087871015611735576116fd81848b8d612c79565b89896040517fb006aba00000000000000000000000000000000000000000000000000000000081526004016106709493929190612e34565b8092505b8883101561181e5760038301928a013560e81c91506117588383612dc4565b90505f61177961176788611dc5565b8c8c8790869261034c93929190612c79565b939c50919a50985090915050888810156117d15761179982858c8e612c79565b8a8a6040517fb006aba00000000000000000000000000000000000000000000000000000000081526004016106709493929190612e34565b848110611814576040517f37daf62b0000000000000000000000000000000000000000000000000000000081526004810182905260248101869052604401610670565b9350915081611739565b505050939792965093509350565b61183581611146565b604051819073ffffffffffffffffffffffffffffffffffffffff7f000000000000000000000000000000000000000000000000000000000000000016907f6f2a6aac3f1c9fc5bb4eec9d305f0036888047b27e7ca599572afe083d9879e8905f90a350565b5f826118a68584611df8565b14949350505050565b5f81158015906105965750507fea7157fa25e3aa17d0ae2d5280fa4e24d421c61842aa85e45194e1145aa72bf8541490565b6118ea82611e3a565b60405173ffffffffffffffffffffffffffffffffffffffff8316907fbc7cd75a20ee27fd9adebab32041f755214dbc6bffa90cc0225b39da2e5c2d3b905f90a280511561193b576114d38282611f08565b61083d611f87565b5f5f5f5b83811015611dbc57600181019085013560f81c7fffffffffffffffffffffffffffffffffffffffffffffffffffffffffffffffff81016119e757601582019186013560f881901c9060581c73ffffffffffffffffffffffffffffffffffffffff81169074ff0000000000000000000000000000000000000000168117856119ce57806119dc565b5f8681526020829052604090205b955050505050611947565b80611a7b5760018201918681013560f81c906043015f611a128a611a0d84888c8e612c79565b611fbf565b60ff841697909701969194508491905060a083901b74ff00000000000000000000000000000000000000001673ffffffffffffffffffffffffffffffffffffffff82161786611a615780611a6f565b5f8781526020829052604090205b96505050505050611947565b60028103611b9f575f808784013560f881901c9060581c73ffffffffffffffffffffffffffffffffffffffff1660158601955090925090505f8885013560e81c600386018162ffffff16915080965081925050505f8186019050611af18b848c8c8a908692611aec93929190612c79565b61227c565b611b39578a83611b0383898d8f612c79565b6040517f9a9462320000000000000000000000000000000000000000000000000000000081526004016106709493929190612e5a565b60ff8416979097019694508460a084901b74ff00000000000000000000000000000000000000001673ffffffffffffffffffffffffffffffffffffffff84161787611b845780611b92565b5f8881526020829052604090205b9750505050505050611947565b60038103611bd157602082019186013583611bba5780611bc8565b5f8481526020829052604090205b93505050611947565b60048103611c1b576003808301928781013560e81c91908201015f80611bfd8b6115e085898d8f612c79565b5f988952602052604090972096909701965090935061194792505050565b60068103611d1d575f8287013560f81c60018401935060ff1690505f8784013560f01c60028501945061ffff1690505f8885013560e81c600386018162ffffff16915080965081925050505f81860190505f5f611c848d8d8d8b9087926115e093929190612c79565b93985088939092509050848210611c9a57988501985b604080517f53657175656e6365206e657374656420636f6e6669673a0a0000000000000000602080830191909152603882018490526058820188905260788083018a9052835180840390910181526098909201909252805191012089611d005780611d0e565b5f8a81526020829052604090205b99505050505050505050611947565b60058103611d87576020820191860135878103611d58577fffffffffffffffffffffffffffffffffffffffffffffffffffffffffffffffff94505b5f611d628261245d565b905084611d6f5780611d7d565b5f8581526020829052604090205b9450505050611947565b6040517fb2505f7c00000000000000000000000000000000000000000000000000000000815260048101829052602401610670565b50935093915050565b7f8713a7c4465f6fbee2b6e9d6646d1d9f83fec929edfc4baf661f3c865bdd04d15f908152602082905260408120610596565b5f81815b8451811015611e3257611e2882868381518110611e1b57611e1b612bbb565b6020026020010151612497565b9150600101611dfc565b509392505050565b8073ffffffffffffffffffffffffffffffffffffffff163b5f03611ea2576040517f4c9c8ce300000000000000000000000000000000000000000000000000000000815273ffffffffffffffffffffffffffffffffffffffff82166004820152602401610670565b7f360894a13ba1a3210667c828492db98dca3e2076cc3735a920a3ca505d382bbc80547fffffffffffffffffffffffff00000000000000000000000000000000000000001673ffffffffffffffffffffffffffffffffffffffff92909216919091179055565b60605f5f8473ffffffffffffffffffffffffffffffffffffffff1684604051611f319190612dd7565b5f60405180830381855af49150503d805f8114611f69576040519150601f19603f3d011682016040523d82523d5f602084013e611f6e565b606091505b5091509150611f7e8583836124c0565b95945050505050565b3415610ead576040517fb398979f00000000000000000000000000000000000000000000000000000000815260040160405180910390fd5b5f60428214611ffe5782826040517f2ee17a3d000000000000000000000000000000000000000000000000000000008152600401610670929190612e99565b5f61201661200d600185612eac565b85013560f81c90565b60ff169050604084013560f81c843560208601357f7fffffffffffffffffffffffffffffff5d576e7357a4501ddfe92f46681b20a081111561208a578686826040517fad4aac7600000000000000000000000000000000000000000000000000000000815260040161067093929190612ebf565b8260ff16601b141580156120a257508260ff16601c14155b156120df578686846040517fe578897e00000000000000000000000000000000000000000000000000000000815260040161067093929190612ee2565b6001840361214957604080515f8152602081018083528a905260ff851691810191909152606081018390526080810182905260019060a0015b6020604051602081039080840390855afa158015612138573d5f5f3e3d5ffd5b505050602060405103519450612220565b600284036121e5576040517f19457468657265756d205369676e6564204d6573736167653a0a3332000000006020820152603c8101899052600190605c01604080517fffffffffffffffffffffffffffffffffffffffffffffffffffffffffffffffe081840301815282825280516020918201205f84529083018083525260ff861690820152606081018490526080810183905260a001612118565b86868560016040517f9dfba8520000000000000000000000000000000000000000000000000000000081526004016106709493929190612f08565b73ffffffffffffffffffffffffffffffffffffffff85166122715786866040517f6c1719d2000000000000000000000000000000000000000000000000000000008152600401610670929190612e99565b505050509392505050565b5f8181036122b6576040517fac241e1100000000000000000000000000000000000000000000000000000000815260040160405180910390fd5b5f83836122c4600182612eac565b8181106122d3576122d3612bbb565b919091013560f81c91505060018114806122ed5750600281145b15612332578473ffffffffffffffffffffffffffffffffffffffff16612314878686611fbf565b73ffffffffffffffffffffffffffffffffffffffff16149150612454565b6003810361241a5773ffffffffffffffffffffffffffffffffffffffff8516631626ba7e87865f87612365600182612eac565b9261237293929190612c79565b6040518463ffffffff1660e01b815260040161239093929190612f33565b602060405180830381865afa1580156123ab573d5f5f3e3d5ffd5b505050506040513d601f19601f820116820180604052508101906123cf9190612f4c565b7fffffffff00000000000000000000000000000000000000000000000000000000167f1626ba7e00000000000000000000000000000000000000000000000000000000149150612454565b8383825f6040517f9dfba8520000000000000000000000000000000000000000000000000000000081526004016106709493929190612f08565b50949350505050565b6040517f53657175656e636520737461746963206469676573743a0a00000000000000006020820152603881018290525f906058016115ae565b5f8183106124b1575f8281526020849052604090206105ab565b505f9182526020526040902090565b6060826124d5576124d08261254f565b6105ab565b81511580156124f9575073ffffffffffffffffffffffffffffffffffffffff84163b155b15612548576040517f9996b31500000000000000000000000000000000000000000000000000000000815273ffffffffffffffffffffffffffffffffffffffff85166004820152602401610670565b50806105ab565b80511561255f5780518082602001fd5b6040517f1425ea4200000000000000000000000000000000000000000000000000000000815260040160405180910390fd5b7fffffffff0000000000000000000000000000000000000000000000000000000081168114610682575f5ffd5b5f602082840312156125ce575f5ffd5b81356105ab81612591565b803573ffffffffffffffffffffffffffffffffffffffff811681146125fc575f5ffd5b919050565b5f5f83601f840112612611575f5ffd5b50813567ffffffffffffffff811115612628575f5ffd5b60208301915083602082850101111561263f575f5ffd5b9250929050565b5f5f5f5f5f6080868803121561265a575f5ffd5b612663866125d9565b9450612671602087016125d9565b935060408601359250606086013567ffffffffffffffff811115612693575f5ffd5b61269f88828901612601565b969995985093965092949392505050565b5f5f5f604084860312156126c2575f5ffd5b83359250602084013567ffffffffffffffff8111156126df575f5ffd5b6126eb86828701612601565b9497909650939450505050565b5f5f5f6060848603121561270a575f5ffd5b833567ffffffffffffffff811115612720575f5ffd5b84016101208187031215612732575f5ffd5b95602085013595506040909401359392505050565b5f5f5f5f6040858703121561275a575f5ffd5b843567ffffffffffffffff811115612770575f5ffd5b61277c87828801612601565b909550935050602085013567ffffffffffffffff81111561279b575f5ffd5b6127a787828801612601565b95989497509550505050565b5f602082840312156127c3575f5ffd5b5035919050565b5f5f83601f8401126127da575f5ffd5b50813567ffffffffffffffff8111156127f1575f5ffd5b6020830191508360208260051b850101111561263f575f5ffd5b5f5f5f5f5f5f60608789031215612820575f5ffd5b863567ffffffffffffffff811115612836575f5ffd5b61284289828a016127ca565b909750955050602087013567ffffffffffffffff811115612861575f5ffd5b61286d89828a016127ca565b909550935050604087013567ffffffffffffffff81111561288c575f5ffd5b61289889828a016127ca565b979a9699509497509295939492505050565b7f4e487b71000000000000000000000000000000000000000000000000000000005f52604160045260245ffd5b604051601f82017fffffffffffffffffffffffffffffffffffffffffffffffffffffffffffffffe016810167ffffffffffffffff8111828210171561291e5761291e6128aa565b604052919050565b5f82601f830112612935575f5ffd5b813567ffffffffffffffff81111561294f5761294f6128aa565b61298060207fffffffffffffffffffffffffffffffffffffffffffffffffffffffffffffffe0601f840116016128d7565b818152846020838601011115612994575f5ffd5b816020850160208301375f918101602001919091529392505050565b5f5f604083850312156129c1575f5ffd5b6129ca836125d9565b9150602083013567ffffffffffffffff8111156129e5575f5ffd5b6129f185828601612926565b9150509250929050565b602081525f82518060208401528060208501604085015e5f6040828501015260407fffffffffffffffffffffffffffffffffffffffffffffffffffffffffffffffe0601f83011684010191505092915050565b5f5f5f5f60608587031215612a61575f5ffd5b612a6a856125d9565b935060208501359250604085013567ffffffffffffffff81111561279b575f5ffd5b5f5f5f5f5f5f5f5f60a0898b031215612aa3575f5ffd5b612aac896125d9565b9750612aba60208a016125d9565b9650604089013567ffffffffffffffff811115612ad5575f5ffd5b612ae18b828c016127ca565b909750955050606089013567ffffffffffffffff811115612b00575f5ffd5b612b0c8b828c016127ca565b909550935050608089013567ffffffffffffffff811115612b2b575f5ffd5b612b378b828c01612601565b999c989b5096995094979396929594505050565b5f5f5f5f5f5f60a08789031215612b60575f5ffd5b612b69876125d9565b9550612b77602088016125d9565b94506040870135935060608701359250608087013567ffffffffffffffff811115612ba0575f5ffd5b61289889828a01612601565b818382375f9101908152919050565b7f4e487b71000000000000000000000000000000000000000000000000000000005f52603260045260245ffd5b5f60208284031215612bf8575f5ffd5b6105ab826125d9565b5f5f83357fffffffffffffffffffffffffffffffffffffffffffffffffffffffffffffffe1843603018112612c34575f5ffd5b83018035915067ffffffffffffffff821115612c4e575f5ffd5b60200191503681900382131561263f575f5ffd5b5f60208284031215612c72575f5ffd5b5051919050565b5f5f85851115612c87575f5ffd5b83861115612c93575f5ffd5b5050820193919092039150565b5f5f5f60608486031215612cb2575f5ffd5b83359250602084013567ffffffffffffffff811115612ccf575f5ffd5b8401601f81018613612cdf575f5ffd5b803567ffffffffffffffff811115612cf957612cf96128aa565b8060051b612d09602082016128d7565b91825260208184018101929081019089841115612d24575f5ffd5b6020850194505b83851015612d4a57843580835260209586019590935090910190612d2b565b95505050506040850135905067ffffffffffffffff811115612d6a575f5ffd5b612d7686828701612926565b9150509250925092565b7f4e487b71000000000000000000000000000000000000000000000000000000005f52601160045260245ffd5b808202811582820484141761059657610596612d80565b8082018082111561059657610596612d80565b5f82518060208501845e5f920191825250919050565b81835281816020850137505f602082840101525f60207fffffffffffffffffffffffffffffffffffffffffffffffffffffffffffffffe0601f840116840101905092915050565b606081525f612e47606083018688612ded565b6020830194909452506040015292915050565b84815273ffffffffffffffffffffffffffffffffffffffff84166020820152606060408201525f612e8f606083018486612ded565b9695505050505050565b602081525f6105a8602083018486612ded565b8181038181111561059657610596612d80565b604081525f612ed2604083018587612ded565b9050826020830152949350505050565b604081525f612ef5604083018587612ded565b905060ff83166020830152949350505050565b606081525f612f1b606083018688612ded565b60208301949094525090151560409091015292915050565b838152604060208201525f611f7e604083018486612ded565b5f60208284031215612f5c575f5ffd5b81516105ab8161259156fea164736f6c634300081b000a",
    "linkReferences": {}
  },
  "methodIdentifiers": {
    "NAME()": "a3f4df7e",
    "SET_IMAGE_HASH_TYPE_HASH()": "57c56d6b",
    "UPGRADE_INTERFACE_VERSION()": "ad3cb1cc",
    "VERSION()": "ffa1ad74",
    "entryPoint()": "b0d691fe",
    "execute(address,uint256,bytes)": "b61d27f6",
    "executeBatch(address[],uint256[],bytes[])": "47e1da2a",
    "getNonce()": "d087d288",
    "imageHash()": "51605d80",
    "initialize(bytes32)": "9498bd71",
    "isValidSignature(bytes,bytes)": "20c13b0b",
    "isValidSignature(bytes32,bytes)": "1626ba7e",
    "onERC1155BatchReceived(address,address,uint256[],uint256[],bytes)": "bc197c81",
    "onERC1155Received(address,address,uint256,uint256,bytes)": "f23a6e61",
    "onERC721Received(address,address,uint256,bytes)": "150b7a02",
    "proxiableUUID()": "52d1902d",
    "signatureRecovery(bytes32,bytes)": "853c5068",
    "supportsInterface(bytes4)": "01ffc9a7",
    "updateImageHash(bytes32)": "29561426",
    "upgradeToAndCall(address,bytes)": "4f1ef286",
    "validateUserOp((address,uint256,bytes,bytes,bytes32,uint256,bytes32,bytes,bytes),bytes32,uint256)": "19822f7c"
  },
  "id": 0
}