{"abi":[{"type":"constructor","inputs":[{"name":"_multicallAddress","type":"address","internalType":"address"}],"stateMutability":"nonpayable"},{"type":"function","name":"NAME","inputs":[],"outputs":[{"name":"","type":"string","internalType":"string"}],"stateMutability":"view"},{"type":"function","name":"VERSION","inputs":[],"outputs":[{"name":"","type":"string","internalType":"string"}],"stateMutability":"view"},{"type":"function","name":"checkBalance","inputs":[{"name":"account","type":"address","internalType":"address"},{"name":"tokenAddress","type":"address","internalType":"address"},{"name":"requiredBalance","type":"uint256","internalType":"uint256"}],"outputs":[{"name":"success","type":"bool","internalType":"bool"}],"stateMutability":"view"},{"type":"function","name":"multicallAddress","inputs":[],"outputs":[{"name":"","type":"address","internalType":"address"}],"stateMutability":"view"},{"type":"function","name":"processLightOperation","inputs":[{"name":"operation","type":"tuple","internalType":"struct LightDAG.LightOperation","components":[{"name":"id","type":"bytes32","internalType":"bytes32"},{"name":"chainId","type":"uint256","internalType":"uint256"},{"name":"conditionData","type":"bytes[]","internalType":"bytes[]"},{"name":"dependencies","type":"bytes32[]","internalType":"bytes32[]"}]}],"outputs":[{"name":"success","type":"bool","internalType":"bool"}],"stateMutability":"view"},{"type":"event","name":"OperationCalled","inputs":[{"name":"operation","type":"bytes32","indexed":true,"internalType":"bytes32"},{"name":"caller","type":"address","indexed":true,"internalType":"address"},{"name":"conditionData","type":"bytes[]","indexed":false,"internalType":"bytes[]"},{"name":"dependencies","type":"bytes32[]","indexed":false,"internalType":"bytes32[]"},{"name":"fallbackOperation","type":"bytes32","indexed":false,"internalType":"bytes32"}],"anonymous":false},{"type":"event","name":"OperationRootCalled","inputs":[{"name":"root","type":"bytes32","indexed":true,"internalType":"bytes32"},{"name":"caller","type":"address","indexed":true,"internalType":"address"}],"anonymous":false}],"bytecode":{"object":"0x60a060405234801561001057600080fd5b50604051610c56380380610c5683398101604081905261002f9161009a565b6001600160a01b0381166100895760405162461bcd60e51b815260206004820152601960248201527f496e76616c6964204d756c746963616c6c206164647265737300000000000000604482015260640160405180910390fd5b6001600160a01b03166080526100ca565b6000602082840312156100ac57600080fd5b81516001600160a01b03811681146100c357600080fd5b9392505050565b608051610b6b6100eb60003960008181609801526102cc0152610b6b6000f3fe608060405234801561001057600080fd5b50600436106100665760003560e01c8063a3f4df7e11610050578063a3f4df7e146100df578063d8c74fe614610128578063ffa1ad741461013b57600080fd5b8062e18e661461006b5780630817860414610093575b600080fd5b61007e61007936600461052d565b610177565b60405190151581526020015b60405180910390f35b6100ba7f000000000000000000000000000000000000000000000000000000000000000081565b60405173ffffffffffffffffffffffffffffffffffffffff909116815260200161008a565b61011b6040518060400160405280600881526020017f4c6967687444414700000000000000000000000000000000000000000000000081525081565b60405161008a91906105dc565b61007e610136366004610774565b610251565b61011b6040518060400160405280600581526020017f302e312e3000000000000000000000000000000000000000000000000000000081525081565b60008073ffffffffffffffffffffffffffffffffffffffff84166101b3575073ffffffffffffffffffffffffffffffffffffffff841631610246565b6040517f70a0823100000000000000000000000000000000000000000000000000000000815273ffffffffffffffffffffffffffffffffffffffff86811660048301528516906370a0823190602401602060405180830381865afa15801561021f573d6000803e3d6000fd5b505050506040513d601f19601f8201168201806040525081019061024391906108e2565b90505b909111159392505050565b6000468260200151146102c4576040517f08c379a000000000000000000000000000000000000000000000000000000000815260206004820152601060248201527f496e76616c696420636861696e20494400000000000000000000000000000000604482015260640160405180910390fd5b6040820151517f00000000000000000000000000000000000000000000000000000000000000009060009067ffffffffffffffff811115610307576103076105f6565b60405190808252806020026020018201604052801561034d57816020015b6040805180820190915260008152606060208201528152602001906001900390816103255790505b50905060005b8460400151518110156103ea5760008086604001518381518110610379576103796108fb565b60200260200101518060200190518101906103949190610977565b9150915060405180604001604052808373ffffffffffffffffffffffffffffffffffffffff168152602001828152508484815181106103d5576103d56108fb565b60209081029190910101525050600101610353565b506040517f252dba4200000000000000000000000000000000000000000000000000000000815260009073ffffffffffffffffffffffffffffffffffffffff84169063252dba42906104409085906004016109c8565b600060405180830381865afa15801561045d573d6000803e3d6000fd5b505050506040513d6000823e601f3d9081017fffffffffffffffffffffffffffffffffffffffffffffffffffffffffffffffe01682016040526104a39190810190610a78565b9150506001935060005b81518110156104ff5760008282815181106104ca576104ca6108fb565b60200260200101518060200190518101906104e59190610b3c565b9050806104f65760009550506104ff565b506001016104ad565b50505050919050565b73ffffffffffffffffffffffffffffffffffffffff8116811461052a57600080fd5b50565b60008060006060848603121561054257600080fd5b833561054d81610508565b9250602084013561055d81610508565b929592945050506040919091013590565b60005b83811015610589578181015183820152602001610571565b50506000910152565b600081518084526105aa81602086016020860161056e565b601f017fffffffffffffffffffffffffffffffffffffffffffffffffffffffffffffffe0169290920160200192915050565b6020815260006105ef6020830184610592565b9392505050565b7f4e487b7100000000000000000000000000000000000000000000000000000000600052604160045260246000fd5b6040516080810167ffffffffffffffff81118282101715610648576106486105f6565b60405290565b604051601f82017fffffffffffffffffffffffffffffffffffffffffffffffffffffffffffffffe016810167ffffffffffffffff81118282101715610695576106956105f6565b604052919050565b600067ffffffffffffffff8211156106b7576106b76105f6565b5060051b60200190565b600067ffffffffffffffff8211156106db576106db6105f6565b50601f017fffffffffffffffffffffffffffffffffffffffffffffffffffffffffffffffe01660200190565b600082601f83011261071857600080fd5b813561072b6107268261069d565b61064e565b8082825260208201915060208360051b86010192508583111561074d57600080fd5b602085015b8381101561076a578035835260209283019201610752565b5095945050505050565b60006020828403121561078657600080fd5b813567ffffffffffffffff81111561079d57600080fd5b8201608081850312156107af57600080fd5b6107b7610625565b8135815260208083013590820152604082013567ffffffffffffffff8111156107df57600080fd5b8201601f810186136107f057600080fd5b80356107fe6107268261069d565b8082825260208201915060208360051b85010192508883111561082057600080fd5b602084015b838110156108a557803567ffffffffffffffff81111561084457600080fd5b8501603f81018b1361085557600080fd5b6020810135610866610726826106c1565b8181526040838301018d101561087b57600080fd5b81604084016020830137600060208383010152808652505050602083019250602081019050610825565b506040850152505050606082013567ffffffffffffffff8111156108c857600080fd5b6108d486828501610707565b606083015250949350505050565b6000602082840312156108f457600080fd5b5051919050565b7f4e487b7100000000000000000000000000000000000000000000000000000000600052603260045260246000fd5b600082601f83011261093b57600080fd5b8151610949610726826106c1565b81815284602083860101111561095e57600080fd5b61096f82602083016020870161056e565b949350505050565b6000806040838503121561098a57600080fd5b825161099581610508565b602084015190925067ffffffffffffffff8111156109b257600080fd5b6109be8582860161092a565b9150509250929050565b6000602082016020835280845180835260408501915060408160051b86010192506020860160005b82811015610a6c577fffffffffffffffffffffffffffffffffffffffffffffffffffffffffffffffc0878603018452815173ffffffffffffffffffffffffffffffffffffffff81511686526020810151905060406020870152610a566040870182610592565b95505060209384019391909101906001016109f0565b50929695505050505050565b60008060408385031215610a8b57600080fd5b8251602084015190925067ffffffffffffffff811115610aaa57600080fd5b8301601f81018513610abb57600080fd5b8051610ac96107268261069d565b8082825260208201915060208360051b850101925087831115610aeb57600080fd5b602084015b83811015610b2d57805167ffffffffffffffff811115610b0f57600080fd5b610b1e8a60208389010161092a565b84525060209283019201610af0565b50809450505050509250929050565b600060208284031215610b4e57600080fd5b815180151581146105ef57600080fdfea164736f6c634300081b000a","linkReferences":{}},"methodIdentifiers":{"NAME()":"a3f4df7e","VERSION()":"ffa1ad74","checkBalance(address,address,uint256)":"00e18e66","multicallAddress()":"08178604","processLightOperation((bytes32,uint256,bytes[],bytes32[]))":"d8c74fe6"},"id":0}