{
  "abi": [
    {
      "type": "function",
      "name": "NAME",
      "inputs": [],
      "outputs": [
        {
          "name": "",
          "type": "string",
          "internalType": "string"
        }
      ],
      "stateMutability": "view"
    },
    {
      "type": "function",
      "name": "VERSION",
      "inputs": [],
      "outputs": [
        {
          "name": "",
          "type": "string",
          "internalType": "string"
        }
      ],
      "stateMutability": "view"
    },
    {
      "type": "function",
      "name": "callOperationRoot",
      "inputs": [
        {
          "name": "operationRoot",
          "type": "tuple",
          "internalType": "struct LightDAG.OperationRoot",
          "components": [
            {
              "name": "root",
              "type": "bytes32",
              "internalType": "bytes32"
            },
            {
              "name": "operations",
              "type": "tuple[]",
              "internalType": "struct LightDAG.Operation[]",
              "components": [
                {
                  "name": "hash",
                  "type": "bytes32",
                  "internalType": "bytes32"
                },
                {
                  "name": "conditionData",
                  "type": "bytes[]",
                  "internalType": "bytes[]"
                },
                {
                  "name": "dependencies",
                  "type": "bytes32[]",
                  "internalType": "bytes32[]"
                },
                {
                  "name": "fallbackOperation",
                  "type": "bytes32",
                  "internalType": "bytes32"
                }
              ]
            }
          ]
        }
      ],
      "outputs": [],
      "stateMutability": "nonpayable"
    },
    {
      "type": "event",
      "name": "OperationCalled",
      "inputs": [
        {
          "name": "operation",
          "type": "bytes32",
          "indexed": true,
          "internalType": "bytes32"
        },
        {
          "name": "caller",
          "type": "address",
          "indexed": true,
          "internalType": "address"
        },
        {
          "name": "conditionData",
          "type": "bytes[]",
          "indexed": false,
          "internalType": "bytes[]"
        },
        {
          "name": "dependencies",
          "type": "bytes32[]",
          "indexed": false,
          "internalType": "bytes32[]"
        },
        {
          "name": "fallbackOperation",
          "type": "bytes32",
          "indexed": false,
          "internalType": "bytes32"
        }
      ],
      "anonymous": false
    },
    {
      "type": "event",
      "name": "OperationRootCalled",
      "inputs": [
        {
          "name": "root",
          "type": "bytes32",
          "indexed": true,
          "internalType": "bytes32"
        },
        {
          "name": "caller",
          "type": "address",
          "indexed": true,
          "internalType": "address"
        }
      ],
      "anonymous": false
    }
  ],
  "bytecode": {
    "object": "0x6080604052348015600e575f5ffd5b506107e08061001c5f395ff3fe608060405234801561000f575f5ffd5b506004361061003f575f3560e01c806376a9140814610043578063a3f4df7e14610058578063ffa1ad74146100aa575b5f5ffd5b6100566100513660046103eb565b6100e6565b005b6100946040518060400160405280600881526020017f4c6967687444414700000000000000000000000000000000000000000000000081525081565b6040516100a191906106c6565b60405180910390f35b6100946040518060400160405280600581526020017f302e312e3000000000000000000000000000000000000000000000000000000081525081565b8051610178576040517f08c379a000000000000000000000000000000000000000000000000000000000815260206004820152602160248201527f4c696768744441473a204f7065726174696f6e20726f6f7420697320656d707460448201527f7900000000000000000000000000000000000000000000000000000000000000606482015260840160405180910390fd5b80516040513391907ff95dd2a06a22e482ba3fe223c3feffb28e2e77786e4908143fb6c04f70595404905f90a35f5b816020015151811015610292573373ffffffffffffffffffffffffffffffffffffffff16826020015182815181106101e1576101e16106df565b60200260200101515f01517f374a0b1be17c1252cdb48db98472ffe0646a4557067d3b6a29ff740c380497c584602001518481518110610223576102236106df565b60200260200101516020015185602001518581518110610245576102456106df565b60200260200101516040015186602001518681518110610267576102676106df565b6020026020010151606001516040516102829392919061070c565b60405180910390a36001016101a7565b5050565b7f4e487b71000000000000000000000000000000000000000000000000000000005f52604160045260245ffd5b6040805190810167ffffffffffffffff811182821017156102e6576102e6610296565b60405290565b6040516080810167ffffffffffffffff811182821017156102e6576102e6610296565b604051601f82017fffffffffffffffffffffffffffffffffffffffffffffffffffffffffffffffe016810167ffffffffffffffff8111828210171561035657610356610296565b604052919050565b5f67ffffffffffffffff82111561037757610377610296565b5060051b60200190565b5f82601f830112610390575f5ffd5b81356103a361039e8261035e565b61030f565b8082825260208201915060208360051b8601019250858311156103c4575f5ffd5b602085015b838110156103e15780358352602092830192016103c9565b5095945050505050565b5f602082840312156103fb575f5ffd5b67ffffffffffffffff82351115610410575f5ffd5b8135820160408185031215610423575f5ffd5b61042b6102c3565b8135815267ffffffffffffffff60208301351115610447575f5ffd5b60208201358201915084601f83011261045e575f5ffd5b61046b61039e833561035e565b82358082526020808301929160051b850101871015610488575f5ffd5b602084015b6020853560051b86010181101561066b5767ffffffffffffffff813511156104b3575f5ffd5b8035850160807fffffffffffffffffffffffffffffffffffffffffffffffffffffffffffffffe0828b030112156104e8575f5ffd5b6104f06102ec565b6020820135815267ffffffffffffffff6040830135111561050f575f5ffd5b602060408301358301018a601f820112610527575f5ffd5b61053461039e823561035e565b81358082526020808301929160051b8401018d1015610551575f5ffd5b602083015b6020843560051b8501018110156106195767ffffffffffffffff8135111561057c575f5ffd5b8d603f82358601011261058d575f5ffd5b602081358501013567ffffffffffffffff8111156105ad576105ad610296565b6105de60207fffffffffffffffffffffffffffffffffffffffffffffffffffffffffffffffe0601f8401160161030f565b8181528f6020808486358a0101010111156105f7575f5ffd5b816040843588010160208301375f602092820183015284529283019201610556565b506020840152505067ffffffffffffffff60608301351115610639575f5ffd5b61064c8a60206060850135850101610381565b604082015260809190910135606082015283526020928301920161048d565b50602083015250949350505050565b5f81518084528060208401602086015e5f6020828601015260207fffffffffffffffffffffffffffffffffffffffffffffffffffffffffffffffe0601f83011685010191505092915050565b602081525f6106d8602083018461067a565b9392505050565b7f4e487b71000000000000000000000000000000000000000000000000000000005f52603260045260245ffd5b5f606082016060835280865180835260808501915060808160051b8601019250602088015f5b82811015610781577fffffffffffffffffffffffffffffffffffffffffffffffffffffffffffffff8087860301845261076c85835161067a565b94506020938401939190910190600101610732565b5050505082810360208401528085518083526020830191506020870192505f5b818110156107bf5783518352602093840193909201916001016107a1565b50506040939093019390935250939250505056fea164736f6c634300081b000a",
    "linkReferences": {}
  },
  "methodIdentifiers": {
    "NAME()": "a3f4df7e",
    "VERSION()": "ffa1ad74",
    "callOperationRoot((bytes32,(bytes32,bytes[],bytes32[],bytes32)[]))": "76a91408"
  },
  "id": 0
}