{
  "abi": [
    {
      "type": "constructor",
      "inputs": [
        {
          "name": "owner_",
          "type": "address",
          "internalType": "address"
        },
        {
          "name": "maxWithdrawDenominator_",
          "type": "uint256",
          "internalType": "uint256"
        }
      ],
      "stateMutability": "nonpayable"
    },
    {
      "type": "receive",
      "stateMutability": "payable"
    },
    {
      "type": "function",
      "name": "NAME",
      "inputs": [],
      "outputs": [
        {
          "name": "",
          "type": "string",
          "internalType": "string"
        }
      ],
      "stateMutability": "view"
    },
    {
      "type": "function",
      "name": "VERSION",
      "inputs": [],
      "outputs": [
        {
          "name": "",
          "type": "string",
          "internalType": "string"
        }
      ],
      "stateMutability": "view"
    },
    {
      "type": "function",
      "name": "cancelOwnershipHandover",
      "inputs": [],
      "outputs": [],
      "stateMutability": "payable"
    },
    {
      "type": "function",
      "name": "completeOwnershipHandover",
      "inputs": [
        {
          "name": "pendingOwner",
          "type": "address",
          "internalType": "address"
        }
      ],
      "outputs": [],
      "stateMutability": "payable"
    },
    {
      "type": "function",
      "name": "entryPoint",
      "inputs": [],
      "outputs": [
        {
          "name": "",
          "type": "address",
          "internalType": "address"
        }
      ],
      "stateMutability": "pure"
    },
    {
      "type": "function",
      "name": "entryPointAddStake",
      "inputs": [
        {
          "name": "amount",
          "type": "uint256",
          "internalType": "uint256"
        },
        {
          "name": "unstakeDelaySeconds",
          "type": "uint32",
          "internalType": "uint32"
        }
      ],
      "outputs": [],
      "stateMutability": "payable"
    },
    {
      "type": "function",
      "name": "entryPointDeposit",
      "inputs": [
        {
          "name": "amount",
          "type": "uint256",
          "internalType": "uint256"
        }
      ],
      "outputs": [],
      "stateMutability": "payable"
    },
    {
      "type": "function",
      "name": "entryPointUnlockStake",
      "inputs": [],
      "outputs": [],
      "stateMutability": "nonpayable"
    },
    {
      "type": "function",
      "name": "entryPointWithdraw",
      "inputs": [
        {
          "name": "to",
          "type": "address",
          "internalType": "address payable"
        },
        {
          "name": "amount",
          "type": "uint256",
          "internalType": "uint256"
        }
      ],
      "outputs": [],
      "stateMutability": "nonpayable"
    },
    {
      "type": "function",
      "name": "entryPointWithdrawStake",
      "inputs": [
        {
          "name": "to",
          "type": "address",
          "internalType": "address payable"
        }
      ],
      "outputs": [],
      "stateMutability": "nonpayable"
    },
    {
      "type": "function",
      "name": "getHash",
      "inputs": [
        {
          "name": "account",
          "type": "address",
          "internalType": "address"
        },
        {
          "name": "withdrawRequest",
          "type": "tuple",
          "internalType": "struct MagicSpend.WithdrawRequest",
          "components": [
            {
              "name": "signature",
              "type": "bytes",
              "internalType": "bytes"
            },
            {
              "name": "asset",
              "type": "address",
              "internalType": "address"
            },
            {
              "name": "amount",
              "type": "uint256",
              "internalType": "uint256"
            },
            {
              "name": "nonce",
              "type": "uint256",
              "internalType": "uint256"
            },
            {
              "name": "expiry",
              "type": "uint48",
              "internalType": "uint48"
            }
          ]
        }
      ],
      "outputs": [
        {
          "name": "",
          "type": "bytes32",
          "internalType": "bytes32"
        }
      ],
      "stateMutability": "view"
    },
    {
      "type": "function",
      "name": "isValidWithdrawSignature",
      "inputs": [
        {
          "name": "account",
          "type": "address",
          "internalType": "address"
        },
        {
          "name": "withdrawRequest",
          "type": "tuple",
          "internalType": "struct MagicSpend.WithdrawRequest",
          "components": [
            {
              "name": "signature",
              "type": "bytes",
              "internalType": "bytes"
            },
            {
              "name": "asset",
              "type": "address",
              "internalType": "address"
            },
            {
              "name": "amount",
              "type": "uint256",
              "internalType": "uint256"
            },
            {
              "name": "nonce",
              "type": "uint256",
              "internalType": "uint256"
            },
            {
              "name": "expiry",
              "type": "uint48",
              "internalType": "uint48"
            }
          ]
        }
      ],
      "outputs": [
        {
          "name": "",
          "type": "bool",
          "internalType": "bool"
        }
      ],
      "stateMutability": "view"
    },
    {
      "type": "function",
      "name": "maxWithdrawDenominator",
      "inputs": [],
      "outputs": [
        {
          "name": "",
          "type": "uint256",
          "internalType": "uint256"
        }
      ],
      "stateMutability": "view"
    },
    {
      "type": "function",
      "name": "nonceUsed",
      "inputs": [
        {
          "name": "account",
          "type": "address",
          "internalType": "address"
        },
        {
          "name": "nonce",
          "type": "uint256",
          "internalType": "uint256"
        }
      ],
      "outputs": [
        {
          "name": "",
          "type": "bool",
          "internalType": "bool"
        }
      ],
      "stateMutability": "view"
    },
    {
      "type": "function",
      "name": "owner",
      "inputs": [],
      "outputs": [
        {
          "name": "result",
          "type": "address",
          "internalType": "address"
        }
      ],
      "stateMutability": "view"
    },
    {
      "type": "function",
      "name": "ownerWithdraw",
      "inputs": [
        {
          "name": "asset",
          "type": "address",
          "internalType": "address"
        },
        {
          "name": "to",
          "type": "address",
          "internalType": "address"
        },
        {
          "name": "amount",
          "type": "uint256",
          "internalType": "uint256"
        }
      ],
      "outputs": [],
      "stateMutability": "nonpayable"
    },
    {
      "type": "function",
      "name": "ownershipHandoverExpiresAt",
      "inputs": [
        {
          "name": "pendingOwner",
          "type": "address",
          "internalType": "address"
        }
      ],
      "outputs": [
        {
          "name": "result",
          "type": "uint256",
          "internalType": "uint256"
        }
      ],
      "stateMutability": "view"
    },
    {
      "type": "function",
      "name": "postOp",
      "inputs": [
        {
          "name": "mode",
          "type": "uint8",
          "internalType": "enum IPaymaster.PostOpMode"
        },
        {
          "name": "context",
          "type": "bytes",
          "internalType": "bytes"
        },
        {
          "name": "actualGasCost",
          "type": "uint256",
          "internalType": "uint256"
        },
        {
          "name": "actualUserOpFeePerGas",
          "type": "uint256",
          "internalType": "uint256"
        }
      ],
      "outputs": [],
      "stateMutability": "nonpayable"
    },
    {
      "type": "function",
      "name": "renounceOwnership",
      "inputs": [],
      "outputs": [],
      "stateMutability": "payable"
    },
    {
      "type": "function",
      "name": "requestOwnershipHandover",
      "inputs": [],
      "outputs": [],
      "stateMutability": "payable"
    },
    {
      "type": "function",
      "name": "setMaxWithdrawDenominator",
      "inputs": [
        {
          "name": "newDenominator",
          "type": "uint256",
          "internalType": "uint256"
        }
      ],
      "outputs": [],
      "stateMutability": "nonpayable"
    },
    {
      "type": "function",
      "name": "transferOwnership",
      "inputs": [
        {
          "name": "newOwner",
          "type": "address",
          "internalType": "address"
        }
      ],
      "outputs": [],
      "stateMutability": "payable"
    },
    {
      "type": "function",
      "name": "validatePaymasterUserOp",
      "inputs": [
        {
          "name": "userOp",
          "type": "tuple",
          "internalType": "struct PackedUserOperation",
          "components": [
            {
              "name": "sender",
              "type": "address",
              "internalType": "address"
            },
            {
              "name": "nonce",
              "type": "uint256",
              "internalType": "uint256"
            },
            {
              "name": "initCode",
              "type": "bytes",
              "internalType": "bytes"
            },
            {
              "name": "callData",
              "type": "bytes",
              "internalType": "bytes"
            },
            {
              "name": "accountGasLimits",
              "type": "bytes32",
              "internalType": "bytes32"
            },
            {
              "name": "preVerificationGas",
              "type": "uint256",
              "internalType": "uint256"
            },
            {
              "name": "gasFees",
              "type": "bytes32",
              "internalType": "bytes32"
            },
            {
              "name": "paymasterAndData",
              "type": "bytes",
              "internalType": "bytes"
            },
            {
              "name": "signature",
              "type": "bytes",
              "internalType": "bytes"
            }
          ]
        },
        {
          "name": "",
          "type": "bytes32",
          "internalType": "bytes32"
        },
        {
          "name": "maxCost",
          "type": "uint256",
          "internalType": "uint256"
        }
      ],
      "outputs": [
        {
          "name": "context",
          "type": "bytes",
          "internalType": "bytes"
        },
        {
          "name": "validationData",
          "type": "uint256",
          "internalType": "uint256"
        }
      ],
      "stateMutability": "nonpayable"
    },
    {
      "type": "function",
      "name": "withdraw",
      "inputs": [
        {
          "name": "withdrawRequest",
          "type": "tuple",
          "internalType": "struct MagicSpend.WithdrawRequest",
          "components": [
            {
              "name": "signature",
              "type": "bytes",
              "internalType": "bytes"
            },
            {
              "name": "asset",
              "type": "address",
              "internalType": "address"
            },
            {
              "name": "amount",
              "type": "uint256",
              "internalType": "uint256"
            },
            {
              "name": "nonce",
              "type": "uint256",
              "internalType": "uint256"
            },
            {
              "name": "expiry",
              "type": "uint48",
              "internalType": "uint48"
            }
          ]
        }
      ],
      "outputs": [],
      "stateMutability": "nonpayable"
    },
    {
      "type": "function",
      "name": "withdrawGasExcess",
      "inputs": [],
      "outputs": [],
      "stateMutability": "nonpayable"
    },
    {
      "type": "event",
      "name": "MagicSpendWithdrawal",
      "inputs": [
        {
          "name": "account",
          "type": "address",
          "indexed": true,
          "internalType": "address"
        },
        {
          "name": "asset",
          "type": "address",
          "indexed": true,
          "internalType": "address"
        },
        {
          "name": "amount",
          "type": "uint256",
          "indexed": false,
          "internalType": "uint256"
        },
        {
          "name": "nonce",
          "type": "uint256",
          "indexed": false,
          "internalType": "uint256"
        }
      ],
      "anonymous": false
    },
    {
      "type": "event",
      "name": "MaxWithdrawDenominatorSet",
      "inputs": [
        {
          "name": "newDenominator",
          "type": "uint256",
          "indexed": false,
          "internalType": "uint256"
        }
      ],
      "anonymous": false
    },
    {
      "type": "event",
      "name": "OwnershipHandoverCanceled",
      "inputs": [
        {
          "name": "pendingOwner",
          "type": "address",
          "indexed": true,
          "internalType": "address"
        }
      ],
      "anonymous": false
    },
    {
      "type": "event",
      "name": "OwnershipHandoverRequested",
      "inputs": [
        {
          "name": "pendingOwner",
          "type": "address",
          "indexed": true,
          "internalType": "address"
        }
      ],
      "anonymous": false
    },
    {
      "type": "event",
      "name": "OwnershipTransferred",
      "inputs": [
        {
          "name": "oldOwner",
          "type": "address",
          "indexed": true,
          "internalType": "address"
        },
        {
          "name": "newOwner",
          "type": "address",
          "indexed": true,
          "internalType": "address"
        }
      ],
      "anonymous": false
    },
    {
      "type": "error",
      "name": "AlreadyInitialized",
      "inputs": []
    },
    {
      "type": "error",
      "name": "Expired",
      "inputs": []
    },
    {
      "type": "error",
      "name": "InvalidNonce",
      "inputs": [
        {
          "name": "nonce",
          "type": "uint256",
          "internalType": "uint256"
        }
      ]
    },
    {
      "type": "error",
      "name": "InvalidSignature",
      "inputs": []
    },
    {
      "type": "error",
      "name": "NewOwnerIsZeroAddress",
      "inputs": []
    },
    {
      "type": "error",
      "name": "NoExcess",
      "inputs": []
    },
    {
      "type": "error",
      "name": "NoHandoverRequest",
      "inputs": []
    },
    {
      "type": "error",
      "name": "RequestLessThanGasMaxCost",
      "inputs": [
        {
          "name": "requested",
          "type": "uint256",
          "internalType": "uint256"
        },
        {
          "name": "maxCost",
          "type": "uint256",
          "internalType": "uint256"
        }
      ]
    },
    {
      "type": "error",
      "name": "Unauthorized",
      "inputs": []
    },
    {
      "type": "error",
      "name": "UnexpectedPostOpRevertedMode",
      "inputs": []
    },
    {
      "type": "error",
      "name": "UnsupportedPaymasterAsset",
      "inputs": [
        {
          "name": "asset",
          "type": "address",
          "internalType": "address"
        }
      ]
    },
    {
      "type": "error",
      "name": "WithdrawTooLarge",
      "inputs": [
        {
          "name": "requestedAmount",
          "type": "uint256",
          "internalType": "uint256"
        },
        {
          "name": "maxAllowed",
          "type": "uint256",
          "internalType": "uint256"
        }
      ]
    }
  ],
  "bytecode": {
    "object": "0x608060405234801561000f575f5ffd5b506040516119f63803806119f683398101604081905261002e916100c0565b81816100398261004b565b61004281610086565b505050506100f7565b6001600160a01b0316638b78c6d819819055805f7f8be0079c531659141344cd1fd0a4f28419497f9722a3daafe3b4186f6b6457e08180a350565b5f8190556040518181527f8e50f7d01ef1d2915d3115fc0152c6a85cb0c84de7e57611c0b0f8063bb858e19060200160405180910390a150565b5f5f604083850312156100d1575f5ffd5b82516001600160a01b03811681146100e7575f5ffd5b6020939093015192949293505050565b6118f2806101045f395ff3fe608060405260043610610191575f3560e01c80637c8d4949116100dc578063d833caee11610087578063f04e283e11610062578063f04e283e1461047f578063f2fde38b14610492578063fee81cf4146104a5578063ffa1ad74146104d6575f5ffd5b8063d833caee14610422578063ebdbc67814610441578063edceadb614610460575f5ffd5b8063a3f4df7e116100b7578063a3f4df7e14610393578063b0d691fe146103e8578063b175512b1461040e575f5ffd5b80637c8d49491461030d57806388202489146103205780638da5cb5b1461033f575f5ffd5b80634d2b3f061161013c5780635b34b272116101175780635b34b272146102d3578063715018a6146102e65780637c627b21146102ee575f5ffd5b80634d2b3f061461028a57806352b7512c1461029e57806354d1f13d146102cb575f5ffd5b8063256929621161016c57806325692962146102365780632bcaa0e21461023e57806334b5a0771461025d575f5ffd5b8063056819be1461019c5780630acf2ac8146101d05780631647795e146101e6575f5ffd5b3661019857005b5f5ffd5b3480156101a7575f5ffd5b506101bb6101b63660046114c2565b61051e565b60405190151581526020015b60405180910390f35b3480156101db575f5ffd5b506101e4610564565b005b3480156101f1575f5ffd5b506101bb61020036600461150f565b5f90815260026020908152604080832073ffffffffffffffffffffffffffffffffffffffff949094168352929052205460ff1690565b6101e46105cb565b348015610249575f5ffd5b506101e4610258366004611539565b610618565b348015610268575f5ffd5b5061027c6102773660046114c2565b610630565b6040519081526020016101c7565b348015610295575f5ffd5b5061027c5f5481565b3480156102a9575f5ffd5b506102bd6102b8366004611577565b6106bc565b6040516101c7929190611612565b6101e461090c565b6101e46102e1366004611633565b610945565b6101e46109eb565b3480156102f9575f5ffd5b506101e4610308366004611669565b6109fe565b6101e461031b3660046116fd565b610b27565b34801561032b575f5ffd5b506101e461033a36600461150f565b610b4d565b34801561034a575f5ffd5b507fffffffffffffffffffffffffffffffffffffffffffffffffffffffff74873927545b60405173ffffffffffffffffffffffffffffffffffffffff90911681526020016101c7565b34801561039e575f5ffd5b506103db6040518060400160405280600e81526020017f4c696768745061796d617374657200000000000000000000000000000000000081525081565b6040516101c79190611714565b3480156103f3575f5ffd5b50735ff137d4b0fdcd49dca30c7cf57e578a026d278961036e565b348015610419575f5ffd5b506101e4610bf3565b34801561042d575f5ffd5b506101e461043c366004611726565b610c6c565b34801561044c575f5ffd5b506101e461045b3660046116fd565b610d0f565b34801561046b575f5ffd5b506101e461047a366004611760565b610d20565b6101e461048d366004611760565b610dbe565b6101e46104a0366004611760565b610df8565b3480156104b0575f5ffd5b5061027c6104bf366004611760565b63389a75e1600c9081525f91909152602090205490565b3480156104e1575f5ffd5b506103db6040518060400160405280600581526020017f302e332e3000000000000000000000000000000000000000000000000000000081525081565b5f61055b61054a7fffffffffffffffffffffffffffffffffffffffffffffffffffffffff748739275490565b6105548585610630565b8451610e1e565b90505b92915050565b335f90815260016020526040812054908190036105ad576040517f6c163b7e00000000000000000000000000000000000000000000000000000000815260040160405180910390fd5b335f8181526001602052604081208190556105c89183610f29565b50565b5f6202a30067ffffffffffffffff164201905063389a75e1600c52335f52806020600c2055337fdbf36a107da19e49527a7176a1babf963b4b0ff8cde35ee35d6cd8f1f9ac7e1d5f5fa250565b610620610f59565b61062b838383610f29565b505050565b6020808201516040808401516060808601516080808801518551309881019890985273ffffffffffffffffffffffffffffffffffffffff808b16968901969096524693880193909352939094169285019290925260a084015260c083019190915265ffffffffffff1660e08201525f9061055b9061010001604051602081830303815290604052610f8e565b60605f33735ff137d4b0fdcd49dca30c7cf57e578a026d27891461070c576040517f82b4290000000000000000000000000000000000000000000000000000000000815260040160405180910390fd5b5f61071a60e087018761177b565b6107289160149082906117e3565b8101906107359190611726565b604081015190915084811015610786576040517f7582f47200000000000000000000000000000000000000000000000000000000815260048101829052602481018690526044015b60405180910390fd5b602082015173ffffffffffffffffffffffffffffffffffffffff16156107f65760208201516040517f140e116500000000000000000000000000000000000000000000000000000000815273ffffffffffffffffffffffffffffffffffffffff909116600482015260240161077d565b61080c6108066020890189611760565b83610ff7565b5f61082361081d60208a018a611760565b8461051e565b15905060a0836080015165ffffffffffff16901b81610842575f610845565b60015b60ff161793506108558683611837565b60015f61086560208c018c611760565b73ffffffffffffffffffffffffffffffffffffffff1673ffffffffffffffffffffffffffffffffffffffff1681526020019081526020015f205f8282546108ac919061184a565b909155508690506108c060208a018a611760565b6040516020016108f092919091825273ffffffffffffffffffffffffffffffffffffffff16602082015260400190565b6040516020818303038152906040529450505050935093915050565b63389a75e1600c52335f525f6020600c2055337ffa7b8eab7da67f412cc9575ed43464468f9bfbae89d1675917346ca6d8fe3c925f5fa2565b61094d610f59565b735ff137d4b0fdcd49dca30c7cf57e578a026d27896040517f0396cb6000000000000000000000000000000000000000000000000000000000815263ffffffff8316600482015273ffffffffffffffffffffffffffffffffffffffff9190911690630396cb609084906024015f604051808303818588803b1580156109d0575f5ffd5b505af11580156109e2573d5f5f3e3d5ffd5b50505050505050565b6109f3610f59565b6109fc5f6111a3565b565b33735ff137d4b0fdcd49dca30c7cf57e578a026d278914610a4b576040517f82b4290000000000000000000000000000000000000000000000000000000000815260040160405180910390fd5b6002856002811115610a5f57610a5f61185d565b03610a96576040517fef88ac6000000000000000000000000000000000000000000000000000000000815260040160405180910390fd5b5f80610aa48587018761188a565b90925090505f610ab48584611837565b73ffffffffffffffffffffffffffffffffffffffff83165f90815260016020526040902054610ae3919061184a565b73ffffffffffffffffffffffffffffffffffffffff83165f9081526001602052604081205590508015610b1d57610b1d82826108fc611208565b5050505050505050565b610b2f610f59565b6105c8735ff137d4b0fdcd49dca30c7cf57e578a026d278982611244565b610b55610f59565b735ff137d4b0fdcd49dca30c7cf57e578a026d27896040517f205c287800000000000000000000000000000000000000000000000000000000815273ffffffffffffffffffffffffffffffffffffffff848116600483015260248201849052919091169063205c2878906044015f604051808303815f87803b158015610bd9575f5ffd5b505af1158015610beb573d5f5f3e3d5ffd5b505050505050565b610bfb610f59565b735ff137d4b0fdcd49dca30c7cf57e578a026d278973ffffffffffffffffffffffffffffffffffffffff1663bb9fe6bf6040518163ffffffff1660e01b81526004015f604051808303815f87803b158015610c54575f5ffd5b505af1158015610c66573d5f5f3e3d5ffd5b50505050565b806080015165ffffffffffff16421115610cb2576040517f203d82d800000000000000000000000000000000000000000000000000000000815260040160405180910390fd5b610cbc338261051e565b610cf2576040517f8baa579f00000000000000000000000000000000000000000000000000000000815260040160405180910390fd5b610cfc3382610ff7565b6105c88160200151338360400151610f29565b610d17610f59565b6105c881611261565b610d28610f59565b735ff137d4b0fdcd49dca30c7cf57e578a026d27896040517fc23a5cea00000000000000000000000000000000000000000000000000000000815273ffffffffffffffffffffffffffffffffffffffff8381166004830152919091169063c23a5cea906024015f604051808303815f87803b158015610da5575f5ffd5b505af1158015610db7573d5f5f3e3d5ffd5b5050505050565b610dc6610f59565b63389a75e1600c52805f526020600c208054421115610dec57636f5e88185f526004601cfd5b5f90556105c8816111a3565b610e00610f59565b8060601b610e1557637448fbae5f526004601cfd5b6105c8816111a3565b73ffffffffffffffffffffffffffffffffffffffff909216915f8315610f2257604051835f5260208301516040526040835103610e97576040830151601b8160ff1c016020528060011b60011c606052506020600160805f60015afa805186183d1517610e9557505f606052604052506001610f22565b505b6041835103610eda5760608301515f1a60205260408301516060526020600160805f60015afa805186183d1517610ed857505f606052604052506001610f22565b505b5f60605280604052631626ba7e60e01b808252846004830152602482016040815284516020018060448501828860045afa505060208160443d01858a5afa9051909114169150505b9392505050565b73ffffffffffffffffffffffffffffffffffffffff8316610f4e5761062b8282611244565b61062b83838361129b565b7fffffffffffffffffffffffffffffffffffffffffffffffffffffffff748739275433146109fc576382b429005f526004601cfd5b5f815160207f19457468657265756d205369676e6564204d6573736167653a0a00000000000081525f5f52815b600182039150600a81066030018253600a900480610fbb5750603a03602081113d3d3e80515f5117845281810160209190910384012092525090565b60608101515f90815260026020908152604080832073ffffffffffffffffffffffffffffffffffffffff8616845290915290205460ff161561106d5780606001516040517fb1373a6c00000000000000000000000000000000000000000000000000000000815260040161077d91815260200190565b5f805461107a90476118ad565b602083015190915073ffffffffffffffffffffffffffffffffffffffff161580156110a85750808260400151115b156110f0578160400151816040517f4c36206400000000000000000000000000000000000000000000000000000000815260040161077d929190918252602082015260400190565b6060820180515f90815260026020908152604080832073ffffffffffffffffffffffffffffffffffffffff8089168086529184529382902080547fffffffffffffffffffffffffffffffffffffffffffffffffffffffffffffff0016600117905591860151818701519451915193169391927f8e7cffd3059dabab9850e8d5537f8a291f7c5ed69254d02609751c9afdaaeb1d9261119692908252602082015260400190565b60405180910390a3505050565b7fffffffffffffffffffffffffffffffffffffffffffffffffffffffff74873927805473ffffffffffffffffffffffffffffffffffffffff9092169182907f8be0079c531659141344cd1fd0a4f28419497f9722a3daafe3b4186f6b6457e05f80a355565b8147101561121d5763b12d13eb5f526004601cfd5b5f385f38858786f161062b57825f526073600b5360ff6020536016600b83f061062b573838fd5b5f385f3884865af161125d5763b12d13eb5f526004601cfd5b5050565b5f8190556040518181527f8e50f7d01ef1d2915d3115fc0152c6a85cb0c84de7e57611c0b0f8063bb858e19060200160405180910390a150565b81601452806034526fa9059cbb0000000000000000000000005f5260205f604460105f875af13d1560015f511417166112db576390b8ec185f526004601cfd5b5f603452505050565b73ffffffffffffffffffffffffffffffffffffffff811681146105c8575f5ffd5b8035611310816112e4565b919050565b7f4e487b71000000000000000000000000000000000000000000000000000000005f52604160045260245ffd5b60405160a0810167ffffffffffffffff8111828210171561136557611365611315565b60405290565b604051601f82017fffffffffffffffffffffffffffffffffffffffffffffffffffffffffffffffe016810167ffffffffffffffff811182821017156113b2576113b2611315565b604052919050565b803565ffffffffffff81168114611310575f5ffd5b5f60a082840312156113df575f5ffd5b6113e7611342565b9050813567ffffffffffffffff8111156113ff575f5ffd5b8201601f8101841361140f575f5ffd5b803567ffffffffffffffff81111561142957611429611315565b61145a60207fffffffffffffffffffffffffffffffffffffffffffffffffffffffffffffffe0601f8401160161136b565b81815285602083850101111561146e575f5ffd5b816020840160208301375f6020838301015280845250505061149260208301611305565b602082015260408281013590820152606080830135908201526114b7608083016113ba565b608082015292915050565b5f5f604083850312156114d3575f5ffd5b82356114de816112e4565b9150602083013567ffffffffffffffff8111156114f9575f5ffd5b611505858286016113cf565b9150509250929050565b5f5f60408385031215611520575f5ffd5b823561152b816112e4565b946020939093013593505050565b5f5f5f6060848603121561154b575f5ffd5b8335611556816112e4565b92506020840135611566816112e4565b929592945050506040919091013590565b5f5f5f60608486031215611589575f5ffd5b833567ffffffffffffffff81111561159f575f5ffd5b840161012081870312156115b1575f5ffd5b95602085013595506040909401359392505050565b5f81518084528060208401602086015e5f6020828601015260207fffffffffffffffffffffffffffffffffffffffffffffffffffffffffffffffe0601f83011685010191505092915050565b604081525f61162460408301856115c6565b90508260208301529392505050565b5f5f60408385031215611644575f5ffd5b82359150602083013563ffffffff8116811461165e575f5ffd5b809150509250929050565b5f5f5f5f5f6080868803121561167d575f5ffd5b85356003811061168b575f5ffd5b9450602086013567ffffffffffffffff8111156116a6575f5ffd5b8601601f810188136116b6575f5ffd5b803567ffffffffffffffff8111156116cc575f5ffd5b8860208284010111156116dd575f5ffd5b959860209190910197509495604081013595606090910135945092505050565b5f6020828403121561170d575f5ffd5b5035919050565b602081525f61055b60208301846115c6565b5f60208284031215611736575f5ffd5b813567ffffffffffffffff81111561174c575f5ffd5b611758848285016113cf565b949350505050565b5f60208284031215611770575f5ffd5b8135610f22816112e4565b5f5f83357fffffffffffffffffffffffffffffffffffffffffffffffffffffffffffffffe18436030181126117ae575f5ffd5b83018035915067ffffffffffffffff8211156117c8575f5ffd5b6020019150368190038213156117dc575f5ffd5b9250929050565b5f5f858511156117f1575f5ffd5b838611156117fd575f5ffd5b5050820193919092039150565b7f4e487b71000000000000000000000000000000000000000000000000000000005f52601160045260245ffd5b8181038181111561055e5761055e61180a565b8082018082111561055e5761055e61180a565b7f4e487b71000000000000000000000000000000000000000000000000000000005f52602160045260245ffd5b5f5f6040838503121561189b575f5ffd5b82359150602083013561165e816112e4565b5f826118e0577f4e487b71000000000000000000000000000000000000000000000000000000005f52601260045260245ffd5b50049056fea164736f6c634300081b000a",
    "linkReferences": {}
  },
  "methodIdentifiers": {
    "NAME()": "a3f4df7e",
    "VERSION()": "ffa1ad74",
    "cancelOwnershipHandover()": "54d1f13d",
    "completeOwnershipHandover(address)": "f04e283e",
    "entryPoint()": "b0d691fe",
    "entryPointAddStake(uint256,uint32)": "5b34b272",
    "entryPointDeposit(uint256)": "7c8d4949",
    "entryPointUnlockStake()": "b175512b",
    "entryPointWithdraw(address,uint256)": "88202489",
    "entryPointWithdrawStake(address)": "edceadb6",
    "getHash(address,(bytes,address,uint256,uint256,uint48))": "34b5a077",
    "isValidWithdrawSignature(address,(bytes,address,uint256,uint256,uint48))": "056819be",
    "maxWithdrawDenominator()": "4d2b3f06",
    "nonceUsed(address,uint256)": "1647795e",
    "owner()": "8da5cb5b",
    "ownerWithdraw(address,address,uint256)": "2bcaa0e2",
    "ownershipHandoverExpiresAt(address)": "fee81cf4",
    "postOp(uint8,bytes,uint256,uint256)": "7c627b21",
    "renounceOwnership()": "715018a6",
    "requestOwnershipHandover()": "25692962",
    "setMaxWithdrawDenominator(uint256)": "ebdbc678",
    "transferOwnership(address)": "f2fde38b",
    "validatePaymasterUserOp((address,uint256,bytes,bytes,bytes32,uint256,bytes32,bytes,bytes),bytes32,uint256)": "52b7512c",
    "withdraw((bytes,address,uint256,uint256,uint48))": "d833caee",
    "withdrawGasExcess()": "0acf2ac8"
  },
  "id": 0
}