{
  "abi": [
    {
      "type": "constructor",
      "inputs": [
        {
          "name": "owner_",
          "type": "address",
          "internalType": "address"
        },
        {
          "name": "maxWithdrawDenominator_",
          "type": "uint256",
          "internalType": "uint256"
        }
      ],
      "stateMutability": "nonpayable"
    },
    {
      "type": "receive",
      "stateMutability": "payable"
    },
    {
      "type": "function",
      "name": "MIN_DELAY",
      "inputs": [],
      "outputs": [
        {
          "name": "",
          "type": "uint256",
          "internalType": "uint256"
        }
      ],
      "stateMutability": "view"
    },
    {
      "type": "function",
      "name": "NAME",
      "inputs": [],
      "outputs": [
        {
          "name": "",
          "type": "string",
          "internalType": "string"
        }
      ],
      "stateMutability": "view"
    },
    {
      "type": "function",
      "name": "VERSION",
      "inputs": [],
      "outputs": [
        {
          "name": "",
          "type": "string",
          "internalType": "string"
        }
      ],
      "stateMutability": "view"
    },
    {
      "type": "function",
      "name": "cancelOwnershipHandover",
      "inputs": [],
      "outputs": [],
      "stateMutability": "payable"
    },
    {
      "type": "function",
      "name": "completeOwnershipHandover",
      "inputs": [
        {
          "name": "pendingOwner",
          "type": "address",
          "internalType": "address"
        }
      ],
      "outputs": [],
      "stateMutability": "payable"
    },
    {
      "type": "function",
      "name": "entryPoint",
      "inputs": [],
      "outputs": [
        {
          "name": "",
          "type": "address",
          "internalType": "address"
        }
      ],
      "stateMutability": "pure"
    },
    {
      "type": "function",
      "name": "entryPointAddStake",
      "inputs": [
        {
          "name": "amount",
          "type": "uint256",
          "internalType": "uint256"
        },
        {
          "name": "unstakeDelaySeconds",
          "type": "uint32",
          "internalType": "uint32"
        }
      ],
      "outputs": [],
      "stateMutability": "payable"
    },
    {
      "type": "function",
      "name": "entryPointDeposit",
      "inputs": [
        {
          "name": "amount",
          "type": "uint256",
          "internalType": "uint256"
        }
      ],
      "outputs": [],
      "stateMutability": "payable"
    },
    {
      "type": "function",
      "name": "entryPointUnlockStake",
      "inputs": [],
      "outputs": [],
      "stateMutability": "nonpayable"
    },
    {
      "type": "function",
      "name": "entryPointWithdraw",
      "inputs": [
        {
          "name": "to",
          "type": "address",
          "internalType": "address payable"
        },
        {
          "name": "amount",
          "type": "uint256",
          "internalType": "uint256"
        }
      ],
      "outputs": [],
      "stateMutability": "nonpayable"
    },
    {
      "type": "function",
      "name": "entryPointWithdrawStake",
      "inputs": [
        {
          "name": "to",
          "type": "address",
          "internalType": "address payable"
        }
      ],
      "outputs": [],
      "stateMutability": "nonpayable"
    },
    {
      "type": "function",
      "name": "getHash",
      "inputs": [
        {
          "name": "account",
          "type": "address",
          "internalType": "address"
        },
        {
          "name": "withdrawRequest",
          "type": "tuple",
          "internalType": "struct MagicSpend.WithdrawRequest",
          "components": [
            {
              "name": "signature",
              "type": "bytes",
              "internalType": "bytes"
            },
            {
              "name": "asset",
              "type": "address",
              "internalType": "address"
            },
            {
              "name": "amount",
              "type": "uint256",
              "internalType": "uint256"
            },
            {
              "name": "nonce",
              "type": "uint256",
              "internalType": "uint256"
            },
            {
              "name": "expiry",
              "type": "uint48",
              "internalType": "uint48"
            }
          ]
        }
      ],
      "outputs": [
        {
          "name": "",
          "type": "bytes32",
          "internalType": "bytes32"
        }
      ],
      "stateMutability": "view"
    },
    {
      "type": "function",
      "name": "isValidWithdrawSignature",
      "inputs": [
        {
          "name": "account",
          "type": "address",
          "internalType": "address"
        },
        {
          "name": "withdrawRequest",
          "type": "tuple",
          "internalType": "struct MagicSpend.WithdrawRequest",
          "components": [
            {
              "name": "signature",
              "type": "bytes",
              "internalType": "bytes"
            },
            {
              "name": "asset",
              "type": "address",
              "internalType": "address"
            },
            {
              "name": "amount",
              "type": "uint256",
              "internalType": "uint256"
            },
            {
              "name": "nonce",
              "type": "uint256",
              "internalType": "uint256"
            },
            {
              "name": "expiry",
              "type": "uint48",
              "internalType": "uint48"
            }
          ]
        }
      ],
      "outputs": [
        {
          "name": "",
          "type": "bool",
          "internalType": "bool"
        }
      ],
      "stateMutability": "view"
    },
    {
      "type": "function",
      "name": "maxWithdrawDenominator",
      "inputs": [],
      "outputs": [
        {
          "name": "",
          "type": "uint256",
          "internalType": "uint256"
        }
      ],
      "stateMutability": "view"
    },
    {
      "type": "function",
      "name": "nonceUsed",
      "inputs": [
        {
          "name": "account",
          "type": "address",
          "internalType": "address"
        },
        {
          "name": "nonce",
          "type": "uint256",
          "internalType": "uint256"
        }
      ],
      "outputs": [
        {
          "name": "",
          "type": "bool",
          "internalType": "bool"
        }
      ],
      "stateMutability": "view"
    },
    {
      "type": "function",
      "name": "owner",
      "inputs": [],
      "outputs": [
        {
          "name": "result",
          "type": "address",
          "internalType": "address"
        }
      ],
      "stateMutability": "view"
    },
    {
      "type": "function",
      "name": "ownerWithdraw",
      "inputs": [
        {
          "name": "asset",
          "type": "address",
          "internalType": "address"
        },
        {
          "name": "to",
          "type": "address",
          "internalType": "address"
        },
        {
          "name": "amount",
          "type": "uint256",
          "internalType": "uint256"
        }
      ],
      "outputs": [],
      "stateMutability": "nonpayable"
    },
    {
      "type": "function",
      "name": "ownershipHandoverExpiresAt",
      "inputs": [
        {
          "name": "pendingOwner",
          "type": "address",
          "internalType": "address"
        }
      ],
      "outputs": [
        {
          "name": "result",
          "type": "uint256",
          "internalType": "uint256"
        }
      ],
      "stateMutability": "view"
    },
    {
      "type": "function",
      "name": "postOp",
      "inputs": [
        {
          "name": "mode",
          "type": "uint8",
          "internalType": "enum IPaymaster.PostOpMode"
        },
        {
          "name": "context",
          "type": "bytes",
          "internalType": "bytes"
        },
        {
          "name": "actualGasCost",
          "type": "uint256",
          "internalType": "uint256"
        },
        {
          "name": "actualUserOpFeePerGas",
          "type": "uint256",
          "internalType": "uint256"
        }
      ],
      "outputs": [],
      "stateMutability": "nonpayable"
    },
    {
      "type": "function",
      "name": "renounceOwnership",
      "inputs": [],
      "outputs": [],
      "stateMutability": "payable"
    },
    {
      "type": "function",
      "name": "requestOwnershipHandover",
      "inputs": [],
      "outputs": [],
      "stateMutability": "payable"
    },
    {
      "type": "function",
      "name": "setMaxWithdrawDenominator",
      "inputs": [
        {
          "name": "newDenominator",
          "type": "uint256",
          "internalType": "uint256"
        }
      ],
      "outputs": [],
      "stateMutability": "nonpayable"
    },
    {
      "type": "function",
      "name": "transferOwnership",
      "inputs": [
        {
          "name": "newOwner",
          "type": "address",
          "internalType": "address"
        }
      ],
      "outputs": [],
      "stateMutability": "payable"
    },
    {
      "type": "function",
      "name": "validatePaymasterUserOp",
      "inputs": [
        {
          "name": "userOp",
          "type": "tuple",
          "internalType": "struct PackedUserOperation",
          "components": [
            {
              "name": "sender",
              "type": "address",
              "internalType": "address"
            },
            {
              "name": "nonce",
              "type": "uint256",
              "internalType": "uint256"
            },
            {
              "name": "initCode",
              "type": "bytes",
              "internalType": "bytes"
            },
            {
              "name": "callData",
              "type": "bytes",
              "internalType": "bytes"
            },
            {
              "name": "accountGasLimits",
              "type": "bytes32",
              "internalType": "bytes32"
            },
            {
              "name": "preVerificationGas",
              "type": "uint256",
              "internalType": "uint256"
            },
            {
              "name": "gasFees",
              "type": "bytes32",
              "internalType": "bytes32"
            },
            {
              "name": "paymasterAndData",
              "type": "bytes",
              "internalType": "bytes"
            },
            {
              "name": "signature",
              "type": "bytes",
              "internalType": "bytes"
            }
          ]
        },
        {
          "name": "",
          "type": "bytes32",
          "internalType": "bytes32"
        },
        {
          "name": "maxCost",
          "type": "uint256",
          "internalType": "uint256"
        }
      ],
      "outputs": [
        {
          "name": "context",
          "type": "bytes",
          "internalType": "bytes"
        },
        {
          "name": "validationData",
          "type": "uint256",
          "internalType": "uint256"
        }
      ],
      "stateMutability": "nonpayable"
    },
    {
      "type": "function",
      "name": "withdraw",
      "inputs": [
        {
          "name": "withdrawRequest",
          "type": "tuple",
          "internalType": "struct MagicSpend.WithdrawRequest",
          "components": [
            {
              "name": "signature",
              "type": "bytes",
              "internalType": "bytes"
            },
            {
              "name": "asset",
              "type": "address",
              "internalType": "address"
            },
            {
              "name": "amount",
              "type": "uint256",
              "internalType": "uint256"
            },
            {
              "name": "nonce",
              "type": "uint256",
              "internalType": "uint256"
            },
            {
              "name": "expiry",
              "type": "uint48",
              "internalType": "uint48"
            }
          ]
        }
      ],
      "outputs": [],
      "stateMutability": "nonpayable"
    },
    {
      "type": "function",
      "name": "withdrawGasExcess",
      "inputs": [],
      "outputs": [],
      "stateMutability": "nonpayable"
    },
    {
      "type": "event",
      "name": "MagicSpendWithdrawal",
      "inputs": [
        {
          "name": "account",
          "type": "address",
          "indexed": true,
          "internalType": "address"
        },
        {
          "name": "asset",
          "type": "address",
          "indexed": true,
          "internalType": "address"
        },
        {
          "name": "amount",
          "type": "uint256",
          "indexed": false,
          "internalType": "uint256"
        },
        {
          "name": "nonce",
          "type": "uint256",
          "indexed": false,
          "internalType": "uint256"
        }
      ],
      "anonymous": false
    },
    {
      "type": "event",
      "name": "MaxWithdrawDenominatorSet",
      "inputs": [
        {
          "name": "newDenominator",
          "type": "uint256",
          "indexed": false,
          "internalType": "uint256"
        }
      ],
      "anonymous": false
    },
    {
      "type": "event",
      "name": "OwnershipHandoverCanceled",
      "inputs": [
        {
          "name": "pendingOwner",
          "type": "address",
          "indexed": true,
          "internalType": "address"
        }
      ],
      "anonymous": false
    },
    {
      "type": "event",
      "name": "OwnershipHandoverRequested",
      "inputs": [
        {
          "name": "pendingOwner",
          "type": "address",
          "indexed": true,
          "internalType": "address"
        }
      ],
      "anonymous": false
    },
    {
      "type": "event",
      "name": "OwnershipTransferred",
      "inputs": [
        {
          "name": "oldOwner",
          "type": "address",
          "indexed": true,
          "internalType": "address"
        },
        {
          "name": "newOwner",
          "type": "address",
          "indexed": true,
          "internalType": "address"
        }
      ],
      "anonymous": false
    },
    {
      "type": "error",
      "name": "AlreadyInitialized",
      "inputs": []
    },
    {
      "type": "error",
      "name": "Expired",
      "inputs": []
    },
    {
      "type": "error",
      "name": "InvalidNonce",
      "inputs": [
        {
          "name": "nonce",
          "type": "uint256",
          "internalType": "uint256"
        }
      ]
    },
    {
      "type": "error",
      "name": "InvalidSignature",
      "inputs": []
    },
    {
      "type": "error",
      "name": "NewOwnerIsZeroAddress",
      "inputs": []
    },
    {
      "type": "error",
      "name": "NoExcess",
      "inputs": []
    },
    {
      "type": "error",
      "name": "NoHandoverRequest",
      "inputs": []
    },
    {
      "type": "error",
      "name": "RequestLessThanGasMaxCost",
      "inputs": [
        {
          "name": "requested",
          "type": "uint256",
          "internalType": "uint256"
        },
        {
          "name": "maxCost",
          "type": "uint256",
          "internalType": "uint256"
        }
      ]
    },
    {
      "type": "error",
      "name": "Unauthorized",
      "inputs": []
    },
    {
      "type": "error",
      "name": "UnexpectedPostOpRevertedMode",
      "inputs": []
    },
    {
      "type": "error",
      "name": "UnsupportedPaymasterAsset",
      "inputs": [
        {
          "name": "asset",
          "type": "address",
          "internalType": "address"
        }
      ]
    },
    {
      "type": "error",
      "name": "WithdrawTooLarge",
      "inputs": [
        {
          "name": "requestedAmount",
          "type": "uint256",
          "internalType": "uint256"
        },
        {
          "name": "maxAllowed",
          "type": "uint256",
          "internalType": "uint256"
        }
      ]
    }
  ],
  "bytecode": {
    "object": "0x60a060405261012c60805234801561001657600080fd5b50604051611b0d380380611b0d833981016040819052610035916100c9565b818161004082610052565b6100498161008e565b50505050610103565b6001600160a01b0316638b78c6d8198190558060007f8be0079c531659141344cd1fd0a4f28419497f9722a3daafe3b4186f6b6457e08180a350565b60008190556040518181527f8e50f7d01ef1d2915d3115fc0152c6a85cb0c84de7e57611c0b0f8063bb858e19060200160405180910390a150565b600080604083850312156100dc57600080fd5b82516001600160a01b03811681146100f357600080fd5b6020939093015192949293505050565b6080516119ef61011e60003960006103c601526119ef6000f3fe6080604052600436106101a55760003560e01c806388202489116100e1578063d833caee1161008a578063f04e283e11610064578063f04e283e146104da578063f2fde38b146104ed578063fee81cf414610500578063ffa1ad741461053357600080fd5b8063d833caee1461047a578063ebdbc6781461049a578063edceadb6146104ba57600080fd5b8063a3f4df7e116100bb578063a3f4df7e146103e8578063b0d691fe1461043e578063b175512b1461046557600080fd5b8063882024891461033f5780638da5cb5b1461035f5780639f81aed7146103b457600080fd5b80634d2b3f061161014e5780635b34b272116101285780635b34b272146102f1578063715018a6146103045780637c627b211461030c5780637c8d49491461032c57600080fd5b80634d2b3f06146102a557806352b7512c146102bb57806354d1f13d146102e957600080fd5b8063256929621161017f578063256929621461024f5780632bcaa0e21461025757806334b5a0771461027757600080fd5b8063056819be146101b15780630acf2ac8146101e65780631647795e146101fd57600080fd5b366101ac57005b600080fd5b3480156101bd57600080fd5b506101d16101cc366004611575565b61057c565b60405190151581526020015b60405180910390f35b3480156101f257600080fd5b506101fb6105c3565b005b34801561020957600080fd5b506101d16102183660046115c5565b600090815260026020908152604080832073ffffffffffffffffffffffffffffffffffffffff949094168352929052205460ff1690565b6101fb61062c565b34801561026357600080fd5b506101fb6102723660046115f1565b61067c565b34801561028357600080fd5b50610297610292366004611575565b610694565b6040519081526020016101dd565b3480156102b157600080fd5b5061029760005481565b3480156102c757600080fd5b506102db6102d6366004611632565b610721565b6040516101dd9291906116ea565b6101fb610978565b6101fb6102ff36600461170c565b6109b4565b6101fb610a5e565b34801561031857600080fd5b506101fb610327366004611745565b610a72565b6101fb61033a3660046117e2565b610b9f565b34801561034b57600080fd5b506101fb61035a3660046115c5565b610bc5565b34801561036b57600080fd5b507fffffffffffffffffffffffffffffffffffffffffffffffffffffffff74873927545b60405173ffffffffffffffffffffffffffffffffffffffff90911681526020016101dd565b3480156103c057600080fd5b506102977f000000000000000000000000000000000000000000000000000000000000000081565b3480156103f457600080fd5b506104316040518060400160405280600e81526020017f4c696768745061796d617374657200000000000000000000000000000000000081525081565b6040516101dd91906117fb565b34801561044a57600080fd5b50735ff137d4b0fdcd49dca30c7cf57e578a026d278961038f565b34801561047157600080fd5b506101fb610c70565b34801561048657600080fd5b506101fb61049536600461180e565b610cee565b3480156104a657600080fd5b506101fb6104b53660046117e2565b610d91565b3480156104c657600080fd5b506101fb6104d536600461184b565b610da2565b6101fb6104e836600461184b565b610e45565b6101fb6104fb36600461184b565b610e82565b34801561050c57600080fd5b5061029761051b36600461184b565b63389a75e1600c908152600091909152602090205490565b34801561053f57600080fd5b506104316040518060400160405280600581526020017f302e312e3000000000000000000000000000000000000000000000000000000081525081565b60006105ba6105a97fffffffffffffffffffffffffffffffffffffffffffffffffffffffff748739275490565b6105b38585610694565b8451610ea9565b90505b92915050565b336000908152600160205260408120549081900361060d576040517f6c163b7e00000000000000000000000000000000000000000000000000000000815260040160405180910390fd5b3360008181526001602052604081208190556106299183610fbc565b50565b60006202a30067ffffffffffffffff164201905063389a75e1600c5233600052806020600c2055337fdbf36a107da19e49527a7176a1babf963b4b0ff8cde35ee35d6cd8f1f9ac7e1d600080a250565b610684610fec565b61068f838383610fbc565b505050565b6020808201516040808401516060808601516080808801518551309881019890985273ffffffffffffffffffffffffffffffffffffffff808b16968901969096524693880193909352939094169285019290925260a084015260c083019190915265ffffffffffff1660e08201526000906105ba9061010001604051602081830303815290604052611022565b6060600033735ff137d4b0fdcd49dca30c7cf57e578a026d278914610772576040517f82b4290000000000000000000000000000000000000000000000000000000000815260040160405180910390fd5b600061078160e0870187611868565b61078f9160149082906118d4565b81019061079c919061180e565b6040810151909150848110156107ed576040517f7582f47200000000000000000000000000000000000000000000000000000000815260048101829052602481018690526044015b60405180910390fd5b602082015173ffffffffffffffffffffffffffffffffffffffff161561085d5760208201516040517f140e116500000000000000000000000000000000000000000000000000000000815273ffffffffffffffffffffffffffffffffffffffff90911660048201526024016107e4565b61087361086d602089018961184b565b8361108e565b600061088b61088560208a018a61184b565b8461057c565b15905060a0836080015165ffffffffffff16901b816108ab5760006108ae565b60015b60ff161793506108be868361192d565b600160006108cf60208c018c61184b565b73ffffffffffffffffffffffffffffffffffffffff1673ffffffffffffffffffffffffffffffffffffffff16815260200190815260200160002060008282546109189190611940565b9091555086905061092c60208a018a61184b565b60405160200161095c92919091825273ffffffffffffffffffffffffffffffffffffffff16602082015260400190565b6040516020818303038152906040529450505050935093915050565b63389a75e1600c523360005260006020600c2055337ffa7b8eab7da67f412cc9575ed43464468f9bfbae89d1675917346ca6d8fe3c92600080a2565b6109bc610fec565b735ff137d4b0fdcd49dca30c7cf57e578a026d27896040517f0396cb6000000000000000000000000000000000000000000000000000000000815263ffffffff8316600482015273ffffffffffffffffffffffffffffffffffffffff9190911690630396cb609084906024016000604051808303818588803b158015610a4157600080fd5b505af1158015610a55573d6000803e3d6000fd5b50505050505050565b610a66610fec565b610a70600061123d565b565b33735ff137d4b0fdcd49dca30c7cf57e578a026d278914610abf576040517f82b4290000000000000000000000000000000000000000000000000000000000815260040160405180910390fd5b6002856002811115610ad357610ad3611953565b03610b0a576040517fef88ac6000000000000000000000000000000000000000000000000000000000815260040160405180910390fd5b600080610b1985870187611982565b90925090506000610b2a858461192d565b73ffffffffffffffffffffffffffffffffffffffff8316600090815260016020526040902054610b5a9190611940565b73ffffffffffffffffffffffffffffffffffffffff831660009081526001602052604081205590508015610b9557610b9582826108fc6112a3565b5050505050505050565b610ba7610fec565b610629735ff137d4b0fdcd49dca30c7cf57e578a026d2789826112e3565b610bcd610fec565b735ff137d4b0fdcd49dca30c7cf57e578a026d27896040517f205c287800000000000000000000000000000000000000000000000000000000815273ffffffffffffffffffffffffffffffffffffffff848116600483015260248201849052919091169063205c287890604401600060405180830381600087803b158015610c5457600080fd5b505af1158015610c68573d6000803e3d6000fd5b505050505050565b610c78610fec565b735ff137d4b0fdcd49dca30c7cf57e578a026d278973ffffffffffffffffffffffffffffffffffffffff1663bb9fe6bf6040518163ffffffff1660e01b8152600401600060405180830381600087803b158015610cd457600080fd5b505af1158015610ce8573d6000803e3d6000fd5b50505050565b806080015165ffffffffffff16421115610d34576040517f203d82d800000000000000000000000000000000000000000000000000000000815260040160405180910390fd5b610d3e338261057c565b610d74576040517f8baa579f00000000000000000000000000000000000000000000000000000000815260040160405180910390fd5b610d7e338261108e565b6106298160200151338360400151610fbc565b610d99610fec565b61062981611303565b610daa610fec565b735ff137d4b0fdcd49dca30c7cf57e578a026d27896040517fc23a5cea00000000000000000000000000000000000000000000000000000000815273ffffffffffffffffffffffffffffffffffffffff8381166004830152919091169063c23a5cea90602401600060405180830381600087803b158015610e2a57600080fd5b505af1158015610e3e573d6000803e3d6000fd5b5050505050565b610e4d610fec565b63389a75e1600c52806000526020600c208054421115610e7557636f5e88186000526004601cfd5b600090556106298161123d565b610e8a610fec565b8060601b610ea057637448fbae6000526004601cfd5b6106298161123d565b73ffffffffffffffffffffffffffffffffffffffff9092169160008315610fb5576040518360005260208301516040526040835103610f26576040830151601b8160ff1c016020528060011b60011c60605250602060016080600060015afa805186183d1517610f2457506000606052604052506001610fb5565b505b6041835103610f6c57606083015160001a6020526040830151606052602060016080600060015afa805186183d1517610f6a57506000606052604052506001610fb5565b505b600060605280604052631626ba7e60e01b808252846004830152602482016040815284516020018060448501828860045afa505060208160443d01858a5afa9051909114169150505b9392505050565b73ffffffffffffffffffffffffffffffffffffffff8316610fe15761068f82826112e3565b61068f83838361133e565b7fffffffffffffffffffffffffffffffffffffffffffffffffffffffff74873927543314610a70576382b429006000526004601cfd5b6000815160207f19457468657265756d205369676e6564204d6573736167653a0a000000000000815260008052815b600182039150600a81066030018253600a9004806110515750603a03602081113d3d3e805160005117845281810160209190910384012092525090565b6060810151600090815260026020908152604080832073ffffffffffffffffffffffffffffffffffffffff8616845290915290205460ff16156111055780606001516040517fb1373a6c0000000000000000000000000000000000000000000000000000000081526004016107e491815260200190565b6000805461111390476119a7565b602083015190915073ffffffffffffffffffffffffffffffffffffffff161580156111415750808260400151115b15611189578160400151816040517f4c3620640000000000000000000000000000000000000000000000000000000081526004016107e4929190918252602082015260400190565b606082018051600090815260026020908152604080832073ffffffffffffffffffffffffffffffffffffffff8089168086529184529382902080547fffffffffffffffffffffffffffffffffffffffffffffffffffffffffffffff0016600117905591860151818701519451915193169391927f8e7cffd3059dabab9850e8d5537f8a291f7c5ed69254d02609751c9afdaaeb1d9261123092908252602082015260400190565b60405180910390a3505050565b7fffffffffffffffffffffffffffffffffffffffffffffffffffffffff74873927805473ffffffffffffffffffffffffffffffffffffffff9092169182907f8be0079c531659141344cd1fd0a4f28419497f9722a3daafe3b4186f6b6457e0600080a355565b814710156112b95763b12d13eb6000526004601cfd5b600038600038858786f161068f57826000526073600b5360ff6020536016600b83f061068f573838fd5b60003860003884865af16112ff5763b12d13eb6000526004601cfd5b5050565b60008190556040518181527f8e50f7d01ef1d2915d3115fc0152c6a85cb0c84de7e57611c0b0f8063bb858e19060200160405180910390a150565b81601452806034526fa9059cbb00000000000000000000000060005260206000604460106000875af13d156001600051141716611383576390b8ec186000526004601cfd5b6000603452505050565b73ffffffffffffffffffffffffffffffffffffffff8116811461062957600080fd5b80356113ba8161138d565b919050565b7f4e487b7100000000000000000000000000000000000000000000000000000000600052604160045260246000fd5b60405160a0810167ffffffffffffffff81118282101715611411576114116113bf565b60405290565b604051601f82017fffffffffffffffffffffffffffffffffffffffffffffffffffffffffffffffe016810167ffffffffffffffff8111828210171561145e5761145e6113bf565b604052919050565b803565ffffffffffff811681146113ba57600080fd5b600060a0828403121561148e57600080fd5b6114966113ee565b9050813567ffffffffffffffff8111156114af57600080fd5b8201601f810184136114c057600080fd5b803567ffffffffffffffff8111156114da576114da6113bf565b61150b60207fffffffffffffffffffffffffffffffffffffffffffffffffffffffffffffffe0601f84011601611417565b81815285602083850101111561152057600080fd5b81602084016020830137600060208383010152808452505050611545602083016113af565b6020820152604082810135908201526060808301359082015261156a60808301611466565b608082015292915050565b6000806040838503121561158857600080fd5b82356115938161138d565b9150602083013567ffffffffffffffff8111156115af57600080fd5b6115bb8582860161147c565b9150509250929050565b600080604083850312156115d857600080fd5b82356115e38161138d565b946020939093013593505050565b60008060006060848603121561160657600080fd5b83356116118161138d565b925060208401356116218161138d565b929592945050506040919091013590565b60008060006060848603121561164757600080fd5b833567ffffffffffffffff81111561165e57600080fd5b8401610120818703121561167157600080fd5b95602085013595506040909401359392505050565b6000815180845260005b818110156116ac57602081850181015186830182015201611690565b5060006020828601015260207fffffffffffffffffffffffffffffffffffffffffffffffffffffffffffffffe0601f83011685010191505092915050565b6040815260006116fd6040830185611686565b90508260208301529392505050565b6000806040838503121561171f57600080fd5b82359150602083013563ffffffff8116811461173a57600080fd5b809150509250929050565b60008060008060006080868803121561175d57600080fd5b85356003811061176c57600080fd5b9450602086013567ffffffffffffffff81111561178857600080fd5b8601601f8101881361179957600080fd5b803567ffffffffffffffff8111156117b057600080fd5b8860208284010111156117c257600080fd5b959860209190910197509495604081013595606090910135945092505050565b6000602082840312156117f457600080fd5b5035919050565b6020815260006105ba6020830184611686565b60006020828403121561182057600080fd5b813567ffffffffffffffff81111561183757600080fd5b6118438482850161147c565b949350505050565b60006020828403121561185d57600080fd5b8135610fb58161138d565b60008083357fffffffffffffffffffffffffffffffffffffffffffffffffffffffffffffffe184360301811261189d57600080fd5b83018035915067ffffffffffffffff8211156118b857600080fd5b6020019150368190038213156118cd57600080fd5b9250929050565b600080858511156118e457600080fd5b838611156118f157600080fd5b5050820193919092039150565b7f4e487b7100000000000000000000000000000000000000000000000000000000600052601160045260246000fd5b818103818111156105bd576105bd6118fe565b808201808211156105bd576105bd6118fe565b7f4e487b7100000000000000000000000000000000000000000000000000000000600052602160045260246000fd5b6000806040838503121561199557600080fd5b82359150602083013561173a8161138d565b6000826119dd577f4e487b7100000000000000000000000000000000000000000000000000000000600052601260045260246000fd5b50049056fea164736f6c634300081b000a",
    "linkReferences": {}
  },
  "methodIdentifiers": {
    "MIN_DELAY()": "9f81aed7",
    "NAME()": "a3f4df7e",
    "VERSION()": "ffa1ad74",
    "cancelOwnershipHandover()": "54d1f13d",
    "completeOwnershipHandover(address)": "f04e283e",
    "entryPoint()": "b0d691fe",
    "entryPointAddStake(uint256,uint32)": "5b34b272",
    "entryPointDeposit(uint256)": "7c8d4949",
    "entryPointUnlockStake()": "b175512b",
    "entryPointWithdraw(address,uint256)": "88202489",
    "entryPointWithdrawStake(address)": "edceadb6",
    "getHash(address,(bytes,address,uint256,uint256,uint48))": "34b5a077",
    "isValidWithdrawSignature(address,(bytes,address,uint256,uint256,uint48))": "056819be",
    "maxWithdrawDenominator()": "4d2b3f06",
    "nonceUsed(address,uint256)": "1647795e",
    "owner()": "8da5cb5b",
    "ownerWithdraw(address,address,uint256)": "2bcaa0e2",
    "ownershipHandoverExpiresAt(address)": "fee81cf4",
    "postOp(uint8,bytes,uint256,uint256)": "7c627b21",
    "renounceOwnership()": "715018a6",
    "requestOwnershipHandover()": "25692962",
    "setMaxWithdrawDenominator(uint256)": "ebdbc678",
    "transferOwnership(address)": "f2fde38b",
    "validatePaymasterUserOp((address,uint256,bytes,bytes,bytes32,uint256,bytes32,bytes,bytes),bytes32,uint256)": "52b7512c",
    "withdraw((bytes,address,uint256,uint256,uint48))": "d833caee",
    "withdrawGasExcess()": "0acf2ac8"
  },
  "id": 0
}