{"abi":[{"type":"constructor","inputs":[{"name":"entryPoint","type":"address","internalType":"address"}],"stateMutability":"nonpayable"},{"type":"receive","stateMutability":"payable"},{"type":"function","name":"NAME","inputs":[],"outputs":[{"name":"","type":"string","internalType":"string"}],"stateMutability":"view"},{"type":"function","name":"UPGRADE_INTERFACE_VERSION","inputs":[],"outputs":[{"name":"","type":"string","internalType":"string"}],"stateMutability":"view"},{"type":"function","name":"VERSION","inputs":[],"outputs":[{"name":"","type":"string","internalType":"string"}],"stateMutability":"view"},{"type":"function","name":"acceptOwnership","inputs":[],"outputs":[],"stateMutability":"nonpayable"},{"type":"function","name":"addSigner","inputs":[{"name":"signer_","type":"address","internalType":"address"}],"outputs":[],"stateMutability":"nonpayable"},{"type":"function","name":"entryPoint","inputs":[],"outputs":[{"name":"","type":"address","internalType":"address"}],"stateMutability":"view"},{"type":"function","name":"entryPointAddStake","inputs":[{"name":"amount","type":"uint256","internalType":"uint256"},{"name":"unstakeDelaySeconds","type":"uint32","internalType":"uint32"}],"outputs":[],"stateMutability":"payable"},{"type":"function","name":"entryPointDeposit","inputs":[{"name":"amount","type":"uint256","internalType":"uint256"}],"outputs":[],"stateMutability":"payable"},{"type":"function","name":"entryPointUnlockStake","inputs":[],"outputs":[],"stateMutability":"nonpayable"},{"type":"function","name":"entryPointWithdraw","inputs":[{"name":"to","type":"address","internalType":"address payable"},{"name":"amount","type":"uint256","internalType":"uint256"}],"outputs":[],"stateMutability":"nonpayable"},{"type":"function","name":"entryPointWithdrawStake","inputs":[{"name":"to","type":"address","internalType":"address payable"}],"outputs":[],"stateMutability":"nonpayable"},{"type":"function","name":"getHash","inputs":[{"name":"account","type":"address","internalType":"address"},{"name":"withdrawRequest","type":"tuple","internalType":"struct MagicSpend.WithdrawRequest","components":[{"name":"signature","type":"bytes","internalType":"bytes"},{"name":"asset","type":"address","internalType":"address"},{"name":"amount","type":"uint256","internalType":"uint256"},{"name":"nonce","type":"uint256","internalType":"uint256"},{"name":"expiry","type":"uint48","internalType":"uint48"}]}],"outputs":[{"name":"","type":"bytes32","internalType":"bytes32"}],"stateMutability":"view"},{"type":"function","name":"initialize","inputs":[{"name":"owner","type":"address","internalType":"address"},{"name":"initialMaxWithdrawDenominator","type":"uint256","internalType":"uint256"},{"name":"signer","type":"address","internalType":"address"}],"outputs":[],"stateMutability":"nonpayable"},{"type":"function","name":"isSigner","inputs":[{"name":"signer","type":"address","internalType":"address"}],"outputs":[{"name":"","type":"bool","internalType":"bool"}],"stateMutability":"view"},{"type":"function","name":"isValidWithdrawSignature","inputs":[{"name":"account","type":"address","internalType":"address"},{"name":"withdrawRequest","type":"tuple","internalType":"struct MagicSpend.WithdrawRequest","components":[{"name":"signature","type":"bytes","internalType":"bytes"},{"name":"asset","type":"address","internalType":"address"},{"name":"amount","type":"uint256","internalType":"uint256"},{"name":"nonce","type":"uint256","internalType":"uint256"},{"name":"expiry","type":"uint48","internalType":"uint48"}]}],"outputs":[{"name":"","type":"bool","internalType":"bool"}],"stateMutability":"view"},{"type":"function","name":"maxWithdrawDenominator","inputs":[],"outputs":[{"name":"","type":"uint256","internalType":"uint256"}],"stateMutability":"view"},{"type":"function","name":"nonceUsed","inputs":[{"name":"account","type":"address","internalType":"address"},{"name":"nonce","type":"uint256","internalType":"uint256"}],"outputs":[{"name":"","type":"bool","internalType":"bool"}],"stateMutability":"view"},{"type":"function","name":"owner","inputs":[],"outputs":[{"name":"","type":"address","internalType":"address"}],"stateMutability":"view"},{"type":"function","name":"ownerWithdraw","inputs":[{"name":"asset","type":"address","internalType":"address"},{"name":"to","type":"address","internalType":"address"},{"name":"amount","type":"uint256","internalType":"uint256"}],"outputs":[],"stateMutability":"nonpayable"},{"type":"function","name":"pendingOwner","inputs":[],"outputs":[{"name":"","type":"address","internalType":"address"}],"stateMutability":"view"},{"type":"function","name":"postOp","inputs":[{"name":"mode","type":"uint8","internalType":"enum IPaymaster.PostOpMode"},{"name":"context","type":"bytes","internalType":"bytes"},{"name":"actualGasCost","type":"uint256","internalType":"uint256"},{"name":"","type":"uint256","internalType":"uint256"}],"outputs":[],"stateMutability":"nonpayable"},{"type":"function","name":"proxiableUUID","inputs":[],"outputs":[{"name":"","type":"bytes32","internalType":"bytes32"}],"stateMutability":"view"},{"type":"function","name":"removeSigner","inputs":[{"name":"signer_","type":"address","internalType":"address"}],"outputs":[],"stateMutability":"nonpayable"},{"type":"function","name":"renounceOwnership","inputs":[],"outputs":[],"stateMutability":"nonpayable"},{"type":"function","name":"setMaxWithdrawDenominator","inputs":[{"name":"newDenominator","type":"uint256","internalType":"uint256"}],"outputs":[],"stateMutability":"nonpayable"},{"type":"function","name":"transferOwnership","inputs":[{"name":"newOwner","type":"address","internalType":"address"}],"outputs":[],"stateMutability":"nonpayable"},{"type":"function","name":"upgradeToAndCall","inputs":[{"name":"newImplementation","type":"address","internalType":"address"},{"name":"data","type":"bytes","internalType":"bytes"}],"outputs":[],"stateMutability":"payable"},{"type":"function","name":"validatePaymasterUserOp","inputs":[{"name":"userOp","type":"tuple","internalType":"struct PackedUserOperation","components":[{"name":"sender","type":"address","internalType":"address"},{"name":"nonce","type":"uint256","internalType":"uint256"},{"name":"initCode","type":"bytes","internalType":"bytes"},{"name":"callData","type":"bytes","internalType":"bytes"},{"name":"accountGasLimits","type":"bytes32","internalType":"bytes32"},{"name":"preVerificationGas","type":"uint256","internalType":"uint256"},{"name":"gasFees","type":"bytes32","internalType":"bytes32"},{"name":"paymasterAndData","type":"bytes","internalType":"bytes"},{"name":"signature","type":"bytes","internalType":"bytes"}]},{"name":"","type":"bytes32","internalType":"bytes32"},{"name":"maxCost","type":"uint256","internalType":"uint256"}],"outputs":[{"name":"context","type":"bytes","internalType":"bytes"},{"name":"validationData","type":"uint256","internalType":"uint256"}],"stateMutability":"nonpayable"},{"type":"function","name":"withdraw","inputs":[{"name":"withdrawRequest","type":"tuple","internalType":"struct MagicSpend.WithdrawRequest","components":[{"name":"signature","type":"bytes","internalType":"bytes"},{"name":"asset","type":"address","internalType":"address"},{"name":"amount","type":"uint256","internalType":"uint256"},{"name":"nonce","type":"uint256","internalType":"uint256"},{"name":"expiry","type":"uint48","internalType":"uint48"}]}],"outputs":[],"stateMutability":"nonpayable"},{"type":"function","name":"withdrawGasExcess","inputs":[],"outputs":[],"stateMutability":"nonpayable"},{"type":"event","name":"Initialized","inputs":[{"name":"version","type":"uint64","indexed":false,"internalType":"uint64"}],"anonymous":false},{"type":"event","name":"MagicSpendWithdrawal","inputs":[{"name":"account","type":"address","indexed":true,"internalType":"address"},{"name":"asset","type":"address","indexed":true,"internalType":"address"},{"name":"amount","type":"uint256","indexed":false,"internalType":"uint256"},{"name":"nonce","type":"uint256","indexed":false,"internalType":"uint256"}],"anonymous":false},{"type":"event","name":"MaxWithdrawDenominatorSet","inputs":[{"name":"newDenominator","type":"uint256","indexed":false,"internalType":"uint256"}],"anonymous":false},{"type":"event","name":"OwnershipTransferStarted","inputs":[{"name":"previousOwner","type":"address","indexed":true,"internalType":"address"},{"name":"newOwner","type":"address","indexed":true,"internalType":"address"}],"anonymous":false},{"type":"event","name":"OwnershipTransferred","inputs":[{"name":"previousOwner","type":"address","indexed":true,"internalType":"address"},{"name":"newOwner","type":"address","indexed":true,"internalType":"address"}],"anonymous":false},{"type":"event","name":"SignerSet","inputs":[{"name":"signer","type":"address","indexed":true,"internalType":"address"},{"name":"isValid","type":"bool","indexed":false,"internalType":"bool"}],"anonymous":false},{"type":"event","name":"Upgraded","inputs":[{"name":"implementation","type":"address","indexed":true,"internalType":"address"}],"anonymous":false},{"type":"error","name":"AddressEmptyCode","inputs":[{"name":"target","type":"address","internalType":"address"}]},{"type":"error","name":"ERC1967InvalidImplementation","inputs":[{"name":"implementation","type":"address","internalType":"address"}]},{"type":"error","name":"ERC1967NonPayable","inputs":[]},{"type":"error","name":"Expired","inputs":[]},{"type":"error","name":"FailedInnerCall","inputs":[]},{"type":"error","name":"InvalidInitialization","inputs":[]},{"type":"error","name":"InvalidNonce","inputs":[{"name":"nonce","type":"uint256","internalType":"uint256"}]},{"type":"error","name":"InvalidSignature","inputs":[]},{"type":"error","name":"NoExcess","inputs":[]},{"type":"error","name":"NotInitializing","inputs":[]},{"type":"error","name":"OwnableInvalidOwner","inputs":[{"name":"owner","type":"address","internalType":"address"}]},{"type":"error","name":"OwnableUnauthorizedAccount","inputs":[{"name":"account","type":"address","internalType":"address"}]},{"type":"error","name":"RequestLessThanGasMaxCost","inputs":[{"name":"requested","type":"uint256","internalType":"uint256"},{"name":"maxCost","type":"uint256","internalType":"uint256"}]},{"type":"error","name":"UUPSUnauthorizedCallContext","inputs":[]},{"type":"error","name":"UUPSUnsupportedProxiableUUID","inputs":[{"name":"slot","type":"bytes32","internalType":"bytes32"}]},{"type":"error","name":"Unauthorized","inputs":[]},{"type":"error","name":"UnexpectedPostOpRevertedMode","inputs":[]},{"type":"error","name":"UnsupportedPaymasterAsset","inputs":[{"name":"asset","type":"address","internalType":"address"}]},{"type":"error","name":"WithdrawTooLarge","inputs":[{"name":"requestedAmount","type":"uint256","internalType":"uint256"},{"name":"maxAllowed","type":"uint256","internalType":"uint256"}]}],"bytecode":{"object":"0x60c06040523060805234801561001457600080fd5b5060405161274b38038061274b83398101604081905261003391610102565b6001600160a01b03811660a05280610049610050565b5050610132565b7ff0c57e16840df040f15088dc2f81fe391c3923bec73e23a9662efc9c229c6a00805468010000000000000000900460ff16156100a05760405163f92ee8a960e01b815260040160405180910390fd5b80546001600160401b03908116146100ff5780546001600160401b0319166001600160401b0390811782556040519081527fc7f505b2f371ae2175ee4913f4499e1f2633a7b5936321eed1cdaeb6115181d29060200160405180910390a15b50565b60006020828403121561011457600080fd5b81516001600160a01b038116811461012b57600080fd5b9392505050565b60805160a0516125b5610196600039600081816105130152818161081f01528181610ab501528181610c0501528181610d4901528181610d7801528181610e7101526111880152600081816115240152818161154d015261191801526125b56000f3fe6080604052600436106101d15760003560e01c80637df73e27116100f7578063c350a1b511610095578063ebdbc67811610064578063ebdbc678146105c1578063edceadb6146105e1578063f2fde38b14610601578063ffa1ad741461062157600080fd5b8063c350a1b51461054c578063d833caee1461056c578063e30c39781461058c578063eb12d61e146105a157600080fd5b8063a3f4df7e116100d1578063a3f4df7e14610465578063ad3cb1cc146104bb578063b0d691fe14610504578063b175512b1461053757600080fd5b80637df73e27146103c5578063882024891461040b5780638da5cb5b1461042b57600080fd5b80634f1ef2861161016f578063715018a61161013e578063715018a61461036857806379ba50971461037d5780637c627b21146103925780637c8d4949146103b257600080fd5b80634f1ef286146102ff57806352b7512c1461031257806352d1902d146103405780635b34b2721461035557600080fd5b80631647795e116101ab5780631647795e146102495780632bcaa0e21461029b57806334b5a077146102bb5780634d2b3f06146102e957600080fd5b8063056819be146101dd5780630acf2ac8146102125780630e316ab71461022957600080fd5b366101d857005b600080fd5b3480156101e957600080fd5b506101fd6101f8366004612074565b61066a565b60405190151581526020015b60405180910390f35b34801561021e57600080fd5b506102276106bc565b005b34801561023557600080fd5b506102276102443660046120c4565b610725565b34801561025557600080fd5b506101fd6102643660046120e1565b600090815260026020908152604080832073ffffffffffffffffffffffffffffffffffffffff949094168352929052205460ff1690565b3480156102a757600080fd5b506102276102b636600461210d565b610738565b3480156102c757600080fd5b506102db6102d6366004612074565b610750565b604051908152602001610209565b3480156102f557600080fd5b506102db60005481565b61022761030d36600461214e565b6107e4565b34801561031e57600080fd5b5061033261032d366004612194565b610803565b604051610209929190612256565b34801561034c57600080fd5b506102db610a7c565b610227610363366004612278565b610aab565b34801561037457600080fd5b50610227610b61565b34801561038957600080fd5b50610227610b75565b34801561039e57600080fd5b506102276103ad3660046122b1565b610bed565b6102276103c036600461234e565b610d3c565b3480156103d157600080fd5b506101fd6103e03660046120c4565b73ffffffffffffffffffffffffffffffffffffffff1660009081526003602052604090205460ff1690565b34801561041757600080fd5b506102276104263660046120e1565b610d6e565b34801561043757600080fd5b50610440610e25565b60405173ffffffffffffffffffffffffffffffffffffffff9091168152602001610209565b34801561047157600080fd5b506104ae6040518060400160405280600e81526020017f4c696768745061796d617374657200000000000000000000000000000000000081525081565b6040516102099190612367565b3480156104c757600080fd5b506104ae6040518060400160405280600581526020017f352e302e3000000000000000000000000000000000000000000000000000000081525081565b34801561051057600080fd5b507f0000000000000000000000000000000000000000000000000000000000000000610440565b34801561054357600080fd5b50610227610e67565b34801561055857600080fd5b5061022761056736600461237a565b610ef1565b34801561057857600080fd5b506102276105873660046123bc565b61108e565b34801561059857600080fd5b50610440611131565b3480156105ad57600080fd5b506102276105bc3660046120c4565b61115a565b3480156105cd57600080fd5b506102276105dc36600461234e565b61116d565b3480156105ed57600080fd5b506102276105fc3660046120c4565b61117e565b34801561060d57600080fd5b5061022761061c3660046120c4565b61122d565b34801561062d57600080fd5b506104ae6040518060400160405280600581526020017f302e312e3000000000000000000000000000000000000000000000000000000081525081565b6000806106778484610750565b905060006106898285600001516112e4565b73ffffffffffffffffffffffffffffffffffffffff1660009081526003602052604090205460ff16925050505b92915050565b3360009081526001602052604081205490819003610706576040517f6c163b7e00000000000000000000000000000000000000000000000000000000815260040160405180910390fd5b336000818152600160205260408120819055610722918361138e565b50565b61072d6113be565b610722816000611416565b6107406113be565b61074b83838361138e565b505050565b6020808201516040808401516060808601516080808801518551309881019890985273ffffffffffffffffffffffffffffffffffffffff808b16968901969096524693880193909352939094169285019290925260a084015260c083019190915265ffffffffffff1660e08201526000906107dd90610100016040516020818303038152906040526114a0565b9392505050565b6107ec61150c565b6107f582611610565b6107ff8282611618565b5050565b606060003373ffffffffffffffffffffffffffffffffffffffff7f00000000000000000000000000000000000000000000000000000000000000001614610876576040517f82b4290000000000000000000000000000000000000000000000000000000000815260040160405180910390fd5b600061088560e08701876123f9565b610893916034908290612465565b8101906108a091906123bc565b6040810151909150848110156108f1576040517f7582f47200000000000000000000000000000000000000000000000000000000815260048101829052602481018690526044015b60405180910390fd5b602082015173ffffffffffffffffffffffffffffffffffffffff16156109615760208201516040517f140e116500000000000000000000000000000000000000000000000000000000815273ffffffffffffffffffffffffffffffffffffffff90911660048201526024016108e8565b61097761097160208901896120c4565b83611751565b600061098f61098960208a018a6120c4565b8461066a565b15905060a0836080015165ffffffffffff16901b816109af5760006109b2565b60015b60ff161793506109c286836124be565b600160006109d360208c018c6120c4565b73ffffffffffffffffffffffffffffffffffffffff1673ffffffffffffffffffffffffffffffffffffffff1681526020019081526020016000206000828254610a1c91906124d1565b90915550869050610a3060208a018a6120c4565b604051602001610a6092919091825273ffffffffffffffffffffffffffffffffffffffff16602082015260400190565b6040516020818303038152906040529450505050935093915050565b6000610a86611900565b507f360894a13ba1a3210667c828492db98dca3e2076cc3735a920a3ca505d382bbc90565b610ab36113be565b7f00000000000000000000000000000000000000000000000000000000000000006040517f0396cb6000000000000000000000000000000000000000000000000000000000815263ffffffff8316600482015273ffffffffffffffffffffffffffffffffffffffff9190911690630396cb609084906024016000604051808303818588803b158015610b4457600080fd5b505af1158015610b58573d6000803e3d6000fd5b50505050505050565b610b696113be565b610b73600061196f565b565b3380610b7f611131565b73ffffffffffffffffffffffffffffffffffffffff1614610be4576040517f118cdaa700000000000000000000000000000000000000000000000000000000815273ffffffffffffffffffffffffffffffffffffffff821660048201526024016108e8565b6107228161196f565b3373ffffffffffffffffffffffffffffffffffffffff7f00000000000000000000000000000000000000000000000000000000000000001614610c5c576040517f82b4290000000000000000000000000000000000000000000000000000000000815260040160405180910390fd5b6002856002811115610c7057610c706124e4565b03610ca7576040517fef88ac6000000000000000000000000000000000000000000000000000000000815260040160405180910390fd5b600080610cb685870187612513565b90925090506000610cc785846124be565b73ffffffffffffffffffffffffffffffffffffffff8316600090815260016020526040902054610cf791906124d1565b73ffffffffffffffffffffffffffffffffffffffff831660009081526001602052604081205590508015610d3257610d3282826108fc6119bf565b5050505050505050565b610d446113be565b6107227f0000000000000000000000000000000000000000000000000000000000000000826119ff565b610d766113be565b7f00000000000000000000000000000000000000000000000000000000000000006040517f205c287800000000000000000000000000000000000000000000000000000000815273ffffffffffffffffffffffffffffffffffffffff848116600483015260248201849052919091169063205c287890604401600060405180830381600087803b158015610e0957600080fd5b505af1158015610e1d573d6000803e3d6000fd5b505050505050565b6000807f9016d09d72d40fdae2fd8ceac6b6234c7706214fd39c1cd1e609a0528c1993005b5473ffffffffffffffffffffffffffffffffffffffff1692915050565b610e6f6113be565b7f000000000000000000000000000000000000000000000000000000000000000073ffffffffffffffffffffffffffffffffffffffff1663bb9fe6bf6040518163ffffffff1660e01b8152600401600060405180830381600087803b158015610ed757600080fd5b505af1158015610eeb573d6000803e3d6000fd5b50505050565b7ff0c57e16840df040f15088dc2f81fe391c3923bec73e23a9662efc9c229c6a00805468010000000000000000810460ff16159067ffffffffffffffff16600081158015610f3c5750825b905060008267ffffffffffffffff166001148015610f595750303b155b905081158015610f67575080155b15610f9e576040517ff92ee8a900000000000000000000000000000000000000000000000000000000815260040160405180910390fd5b84547fffffffffffffffffffffffffffffffffffffffffffffffff00000000000000001660011785558315610fff5784547fffffffffffffffffffffffffffffffffffffffffffffff00ffffffffffffffff16680100000000000000001785555b611007611a1b565b61101088611a23565b61101987611a7b565b611024866001611416565b8315610d325784547fffffffffffffffffffffffffffffffffffffffffffffff00ffffffffffffffff168555604051600181527fc7f505b2f371ae2175ee4913f4499e1f2633a7b5936321eed1cdaeb6115181d29060200160405180910390a15050505050505050565b806080015165ffffffffffff164211156110d4576040517f203d82d800000000000000000000000000000000000000000000000000000000815260040160405180910390fd5b6110de338261066a565b611114576040517f8baa579f00000000000000000000000000000000000000000000000000000000815260040160405180910390fd5b61111e3382611751565b610722816020015133836040015161138e565b6000807f237e158222e3e6968b72b9db0d8043aacf074ad9f650f0d1606b4d82ee432c00610e4a565b6111626113be565b610722816001611416565b6111756113be565b61072281611a7b565b6111866113be565b7f00000000000000000000000000000000000000000000000000000000000000006040517fc23a5cea00000000000000000000000000000000000000000000000000000000815273ffffffffffffffffffffffffffffffffffffffff8381166004830152919091169063c23a5cea90602401600060405180830381600087803b15801561121257600080fd5b505af1158015611226573d6000803e3d6000fd5b5050505050565b6112356113be565b7f237e158222e3e6968b72b9db0d8043aacf074ad9f650f0d1606b4d82ee432c0080547fffffffffffffffffffffffff00000000000000000000000000000000000000001673ffffffffffffffffffffffffffffffffffffffff8316908117825561129e610e25565b73ffffffffffffffffffffffffffffffffffffffff167f38d16b8cac22d99fc7c124b9cd0de2d3fa1faef420bfe791d8c362d765e2270060405160405180910390a35050565b604051600190836000526020830151604052604083510361133957604083015160ff81901c601b016020527f7fffffffffffffffffffffffffffffffffffffffffffffffffffffffffffffff1660605261135f565b604183510361135a57606083015160001a602052604083015160605261135f565b600091505b6020600160806000855afa5191503d61138057638baa579f6000526004601cfd5b600060605260405292915050565b73ffffffffffffffffffffffffffffffffffffffff83166113b35761074b82826119ff565b61074b838383611ab6565b336113c7610e25565b73ffffffffffffffffffffffffffffffffffffffff1614610b73576040517f118cdaa70000000000000000000000000000000000000000000000000000000081523360048201526024016108e8565b73ffffffffffffffffffffffffffffffffffffffff821660008181526003602090815260409182902080547fffffffffffffffffffffffffffffffffffffffffffffffffffffffffffffff001685151590811790915591519182527ffc4acb499491cd850a8a21ab98c7f128850c0f0e5f1a875a62b7fa055c2ecf19910160405180910390a25050565b6000815160207f19457468657265756d205369676e6564204d6573736167653a0a000000000000815260008052815b600182039150600a81066030018253600a9004806114cf5750603a03602081113d3d3e805160005117845281810160209190910384012092525090565b3073ffffffffffffffffffffffffffffffffffffffff7f00000000000000000000000000000000000000000000000000000000000000001614806115d957507f000000000000000000000000000000000000000000000000000000000000000073ffffffffffffffffffffffffffffffffffffffff166115c07f360894a13ba1a3210667c828492db98dca3e2076cc3735a920a3ca505d382bbc5473ffffffffffffffffffffffffffffffffffffffff1690565b73ffffffffffffffffffffffffffffffffffffffff1614155b15610b73576040517fe07c8dba00000000000000000000000000000000000000000000000000000000815260040160405180910390fd5b6107226113be565b8173ffffffffffffffffffffffffffffffffffffffff166352d1902d6040518163ffffffff1660e01b8152600401602060405180830381865afa92505050801561169d575060408051601f3d9081017fffffffffffffffffffffffffffffffffffffffffffffffffffffffffffffffe016820190925261169a91810190612538565b60015b6116eb576040517f4c9c8ce300000000000000000000000000000000000000000000000000000000815273ffffffffffffffffffffffffffffffffffffffff831660048201526024016108e8565b7f360894a13ba1a3210667c828492db98dca3e2076cc3735a920a3ca505d382bbc8114611747576040517faa1d49a4000000000000000000000000000000000000000000000000000000008152600481018290526024016108e8565b61074b8383611b05565b6060810151600090815260026020908152604080832073ffffffffffffffffffffffffffffffffffffffff8616845290915290205460ff16156117c85780606001516040517fb1373a6c0000000000000000000000000000000000000000000000000000000081526004016108e891815260200190565b600080546117d69047612551565b602083015190915073ffffffffffffffffffffffffffffffffffffffff161580156118045750808260400151115b1561184c578160400151816040517f4c3620640000000000000000000000000000000000000000000000000000000081526004016108e8929190918252602082015260400190565b606082018051600090815260026020908152604080832073ffffffffffffffffffffffffffffffffffffffff8089168086529184529382902080547fffffffffffffffffffffffffffffffffffffffffffffffffffffffffffffff0016600117905591860151818701519451915193169391927f8e7cffd3059dabab9850e8d5537f8a291f7c5ed69254d02609751c9afdaaeb1d926118f392908252602082015260400190565b60405180910390a3505050565b3073ffffffffffffffffffffffffffffffffffffffff7f00000000000000000000000000000000000000000000000000000000000000001614610b73576040517fe07c8dba00000000000000000000000000000000000000000000000000000000815260040160405180910390fd5b7f237e158222e3e6968b72b9db0d8043aacf074ad9f650f0d1606b4d82ee432c0080547fffffffffffffffffffffffff00000000000000000000000000000000000000001681556107ff82611b68565b814710156119d55763b12d13eb6000526004601cfd5b600038600038858786f161074b57826000526073600b5360ff6020536016600b83f061074b573838fd5b60003860003884865af16107ff5763b12d13eb6000526004601cfd5b610b73611bfe565b611a2b611bfe565b73ffffffffffffffffffffffffffffffffffffffff8116610be4576040517f1e4fbdf7000000000000000000000000000000000000000000000000000000008152600060048201526024016108e8565b60008190556040518181527f8e50f7d01ef1d2915d3115fc0152c6a85cb0c84de7e57611c0b0f8063bb858e19060200160405180910390a150565b81601452806034526fa9059cbb00000000000000000000000060005260206000604460106000875af13d156001600051141716611afb576390b8ec186000526004601cfd5b6000603452505050565b611b0e82611c65565b60405173ffffffffffffffffffffffffffffffffffffffff8316907fbc7cd75a20ee27fd9adebab32041f755214dbc6bffa90cc0225b39da2e5c2d3b90600090a2805115611b605761074b8282611d34565b6107ff611db7565b7f9016d09d72d40fdae2fd8ceac6b6234c7706214fd39c1cd1e609a0528c19930080547fffffffffffffffffffffffff0000000000000000000000000000000000000000811673ffffffffffffffffffffffffffffffffffffffff848116918217845560405192169182907f8be0079c531659141344cd1fd0a4f28419497f9722a3daafe3b4186f6b6457e090600090a3505050565b7ff0c57e16840df040f15088dc2f81fe391c3923bec73e23a9662efc9c229c6a005468010000000000000000900460ff16610b73576040517fd7e6bcf800000000000000000000000000000000000000000000000000000000815260040160405180910390fd5b8073ffffffffffffffffffffffffffffffffffffffff163b600003611cce576040517f4c9c8ce300000000000000000000000000000000000000000000000000000000815273ffffffffffffffffffffffffffffffffffffffff821660048201526024016108e8565b7f360894a13ba1a3210667c828492db98dca3e2076cc3735a920a3ca505d382bbc80547fffffffffffffffffffffffff00000000000000000000000000000000000000001673ffffffffffffffffffffffffffffffffffffffff92909216919091179055565b60606000808473ffffffffffffffffffffffffffffffffffffffff1684604051611d5e919061258c565b600060405180830381855af49150503d8060008114611d99576040519150601f19603f3d011682016040523d82523d6000602084013e611d9e565b606091505b5091509150611dae858383611def565b95945050505050565b3415610b73576040517fb398979f00000000000000000000000000000000000000000000000000000000815260040160405180910390fd5b606082611e0457611dff82611e7e565b6107dd565b8151158015611e28575073ffffffffffffffffffffffffffffffffffffffff84163b155b15611e77576040517f9996b31500000000000000000000000000000000000000000000000000000000815273ffffffffffffffffffffffffffffffffffffffff851660048201526024016108e8565b5092915050565b805115611e8e5780518082602001fd5b6040517f1425ea4200000000000000000000000000000000000000000000000000000000815260040160405180910390fd5b73ffffffffffffffffffffffffffffffffffffffff8116811461072257600080fd5b7f4e487b7100000000000000000000000000000000000000000000000000000000600052604160045260246000fd5b60405160a0810167ffffffffffffffff81118282101715611f3457611f34611ee2565b60405290565b600082601f830112611f4b57600080fd5b813567ffffffffffffffff811115611f6557611f65611ee2565b604051601f82017fffffffffffffffffffffffffffffffffffffffffffffffffffffffffffffffe0908116603f0116810167ffffffffffffffff81118282101715611fb257611fb2611ee2565b604052818152838201602001851015611fca57600080fd5b816020850160208301376000918101602001919091529392505050565b600060a08284031215611ff957600080fd5b612001611f11565b9050813567ffffffffffffffff81111561201a57600080fd5b61202684828501611f3a565b825250602082013561203781611ec0565b60208201526040828101359082015260608083013590820152608082013565ffffffffffff8116811461206957600080fd5b608082015292915050565b6000806040838503121561208757600080fd5b823561209281611ec0565b9150602083013567ffffffffffffffff8111156120ae57600080fd5b6120ba85828601611fe7565b9150509250929050565b6000602082840312156120d657600080fd5b81356107dd81611ec0565b600080604083850312156120f457600080fd5b82356120ff81611ec0565b946020939093013593505050565b60008060006060848603121561212257600080fd5b833561212d81611ec0565b9250602084013561213d81611ec0565b929592945050506040919091013590565b6000806040838503121561216157600080fd5b823561216c81611ec0565b9150602083013567ffffffffffffffff81111561218857600080fd5b6120ba85828601611f3a565b6000806000606084860312156121a957600080fd5b833567ffffffffffffffff8111156121c057600080fd5b840161012081870312156121d357600080fd5b95602085013595506040909401359392505050565b60005b838110156122035781810151838201526020016121eb565b50506000910152565b600081518084526122248160208601602086016121e8565b601f017fffffffffffffffffffffffffffffffffffffffffffffffffffffffffffffffe0169290920160200192915050565b604081526000612269604083018561220c565b90508260208301529392505050565b6000806040838503121561228b57600080fd5b82359150602083013563ffffffff811681146122a657600080fd5b809150509250929050565b6000806000806000608086880312156122c957600080fd5b8535600381106122d857600080fd5b9450602086013567ffffffffffffffff8111156122f457600080fd5b8601601f8101881361230557600080fd5b803567ffffffffffffffff81111561231c57600080fd5b88602082840101111561232e57600080fd5b959860209190910197509495604081013595606090910135945092505050565b60006020828403121561236057600080fd5b5035919050565b6020815260006107dd602083018461220c565b60008060006060848603121561238f57600080fd5b833561239a81611ec0565b92506020840135915060408401356123b181611ec0565b809150509250925092565b6000602082840312156123ce57600080fd5b813567ffffffffffffffff8111156123e557600080fd5b6123f184828501611fe7565b949350505050565b60008083357fffffffffffffffffffffffffffffffffffffffffffffffffffffffffffffffe184360301811261242e57600080fd5b83018035915067ffffffffffffffff82111561244957600080fd5b60200191503681900382131561245e57600080fd5b9250929050565b6000808585111561247557600080fd5b8386111561248257600080fd5b5050820193919092039150565b7f4e487b7100000000000000000000000000000000000000000000000000000000600052601160045260246000fd5b818103818111156106b6576106b661248f565b808201808211156106b6576106b661248f565b7f4e487b7100000000000000000000000000000000000000000000000000000000600052602160045260246000fd5b6000806040838503121561252657600080fd5b8235915060208301356122a681611ec0565b60006020828403121561254a57600080fd5b5051919050565b600082612587577f4e487b7100000000000000000000000000000000000000000000000000000000600052601260045260246000fd5b500490565b6000825161259e8184602087016121e8565b919091019291505056fea164736f6c634300081b000a","linkReferences":{}},"methodIdentifiers":{"NAME()":"a3f4df7e","UPGRADE_INTERFACE_VERSION()":"ad3cb1cc","VERSION()":"ffa1ad74","acceptOwnership()":"79ba5097","addSigner(address)":"eb12d61e","entryPoint()":"b0d691fe","entryPointAddStake(uint256,uint32)":"5b34b272","entryPointDeposit(uint256)":"7c8d4949","entryPointUnlockStake()":"b175512b","entryPointWithdraw(address,uint256)":"88202489","entryPointWithdrawStake(address)":"edceadb6","getHash(address,(bytes,address,uint256,uint256,uint48))":"34b5a077","initialize(address,uint256,address)":"c350a1b5","isSigner(address)":"7df73e27","isValidWithdrawSignature(address,(bytes,address,uint256,uint256,uint48))":"056819be","maxWithdrawDenominator()":"4d2b3f06","nonceUsed(address,uint256)":"1647795e","owner()":"8da5cb5b","ownerWithdraw(address,address,uint256)":"2bcaa0e2","pendingOwner()":"e30c3978","postOp(uint8,bytes,uint256,uint256)":"7c627b21","proxiableUUID()":"52d1902d","removeSigner(address)":"0e316ab7","renounceOwnership()":"715018a6","setMaxWithdrawDenominator(uint256)":"ebdbc678","transferOwnership(address)":"f2fde38b","upgradeToAndCall(address,bytes)":"4f1ef286","validatePaymasterUserOp((address,uint256,bytes,bytes,bytes32,uint256,bytes32,bytes,bytes),bytes32,uint256)":"52b7512c","withdraw((bytes,address,uint256,uint256,uint48))":"d833caee","withdrawGasExcess()":"0acf2ac8"},"id":0}