{
  "abi": [
    {
      "type": "constructor",
      "inputs": [],
      "stateMutability": "nonpayable"
    },
    {
      "type": "receive",
      "stateMutability": "payable"
    },
    {
      "type": "function",
      "name": "NAME",
      "inputs": [],
      "outputs": [
        {
          "name": "",
          "type": "string",
          "internalType": "string"
        }
      ],
      "stateMutability": "view"
    },
    {
      "type": "function",
      "name": "UPGRADE_INTERFACE_VERSION",
      "inputs": [],
      "outputs": [
        {
          "name": "",
          "type": "string",
          "internalType": "string"
        }
      ],
      "stateMutability": "view"
    },
    {
      "type": "function",
      "name": "VERSION",
      "inputs": [],
      "outputs": [
        {
          "name": "",
          "type": "string",
          "internalType": "string"
        }
      ],
      "stateMutability": "view"
    },
    {
      "type": "function",
      "name": "acceptOwnership",
      "inputs": [],
      "outputs": [],
      "stateMutability": "nonpayable"
    },
    {
      "type": "function",
      "name": "addSigner",
      "inputs": [
        {
          "name": "signer_",
          "type": "address",
          "internalType": "address"
        }
      ],
      "outputs": [],
      "stateMutability": "nonpayable"
    },
    {
      "type": "function",
      "name": "entryPoint",
      "inputs": [],
      "outputs": [
        {
          "name": "",
          "type": "address",
          "internalType": "address"
        }
      ],
      "stateMutability": "pure"
    },
    {
      "type": "function",
      "name": "entryPointAddStake",
      "inputs": [
        {
          "name": "amount",
          "type": "uint256",
          "internalType": "uint256"
        },
        {
          "name": "unstakeDelaySeconds",
          "type": "uint32",
          "internalType": "uint32"
        }
      ],
      "outputs": [],
      "stateMutability": "payable"
    },
    {
      "type": "function",
      "name": "entryPointDeposit",
      "inputs": [
        {
          "name": "amount",
          "type": "uint256",
          "internalType": "uint256"
        }
      ],
      "outputs": [],
      "stateMutability": "payable"
    },
    {
      "type": "function",
      "name": "entryPointUnlockStake",
      "inputs": [],
      "outputs": [],
      "stateMutability": "nonpayable"
    },
    {
      "type": "function",
      "name": "entryPointWithdraw",
      "inputs": [
        {
          "name": "to",
          "type": "address",
          "internalType": "address payable"
        },
        {
          "name": "amount",
          "type": "uint256",
          "internalType": "uint256"
        }
      ],
      "outputs": [],
      "stateMutability": "nonpayable"
    },
    {
      "type": "function",
      "name": "entryPointWithdrawStake",
      "inputs": [
        {
          "name": "to",
          "type": "address",
          "internalType": "address payable"
        }
      ],
      "outputs": [],
      "stateMutability": "nonpayable"
    },
    {
      "type": "function",
      "name": "getHash",
      "inputs": [
        {
          "name": "account",
          "type": "address",
          "internalType": "address"
        },
        {
          "name": "withdrawRequest",
          "type": "tuple",
          "internalType": "struct MagicSpend.WithdrawRequest",
          "components": [
            {
              "name": "signature",
              "type": "bytes",
              "internalType": "bytes"
            },
            {
              "name": "asset",
              "type": "address",
              "internalType": "address"
            },
            {
              "name": "amount",
              "type": "uint256",
              "internalType": "uint256"
            },
            {
              "name": "nonce",
              "type": "uint256",
              "internalType": "uint256"
            },
            {
              "name": "expiry",
              "type": "uint48",
              "internalType": "uint48"
            }
          ]
        }
      ],
      "outputs": [
        {
          "name": "",
          "type": "bytes32",
          "internalType": "bytes32"
        }
      ],
      "stateMutability": "view"
    },
    {
      "type": "function",
      "name": "initialize",
      "inputs": [
        {
          "name": "owner_",
          "type": "address",
          "internalType": "address"
        },
        {
          "name": "maxWithdrawDenominator_",
          "type": "uint256",
          "internalType": "uint256"
        },
        {
          "name": "signer_",
          "type": "address",
          "internalType": "address"
        }
      ],
      "outputs": [],
      "stateMutability": "nonpayable"
    },
    {
      "type": "function",
      "name": "isValidWithdrawSignature",
      "inputs": [
        {
          "name": "account",
          "type": "address",
          "internalType": "address"
        },
        {
          "name": "withdrawRequest",
          "type": "tuple",
          "internalType": "struct MagicSpend.WithdrawRequest",
          "components": [
            {
              "name": "signature",
              "type": "bytes",
              "internalType": "bytes"
            },
            {
              "name": "asset",
              "type": "address",
              "internalType": "address"
            },
            {
              "name": "amount",
              "type": "uint256",
              "internalType": "uint256"
            },
            {
              "name": "nonce",
              "type": "uint256",
              "internalType": "uint256"
            },
            {
              "name": "expiry",
              "type": "uint48",
              "internalType": "uint48"
            }
          ]
        }
      ],
      "outputs": [
        {
          "name": "",
          "type": "bool",
          "internalType": "bool"
        }
      ],
      "stateMutability": "view"
    },
    {
      "type": "function",
      "name": "maxWithdrawDenominator",
      "inputs": [],
      "outputs": [
        {
          "name": "",
          "type": "uint256",
          "internalType": "uint256"
        }
      ],
      "stateMutability": "view"
    },
    {
      "type": "function",
      "name": "nonceUsed",
      "inputs": [
        {
          "name": "account",
          "type": "address",
          "internalType": "address"
        },
        {
          "name": "nonce",
          "type": "uint256",
          "internalType": "uint256"
        }
      ],
      "outputs": [
        {
          "name": "",
          "type": "bool",
          "internalType": "bool"
        }
      ],
      "stateMutability": "view"
    },
    {
      "type": "function",
      "name": "owner",
      "inputs": [],
      "outputs": [
        {
          "name": "",
          "type": "address",
          "internalType": "address"
        }
      ],
      "stateMutability": "view"
    },
    {
      "type": "function",
      "name": "ownerWithdraw",
      "inputs": [
        {
          "name": "asset",
          "type": "address",
          "internalType": "address"
        },
        {
          "name": "to",
          "type": "address",
          "internalType": "address"
        },
        {
          "name": "amount",
          "type": "uint256",
          "internalType": "uint256"
        }
      ],
      "outputs": [],
      "stateMutability": "nonpayable"
    },
    {
      "type": "function",
      "name": "pendingOwner",
      "inputs": [],
      "outputs": [
        {
          "name": "",
          "type": "address",
          "internalType": "address"
        }
      ],
      "stateMutability": "view"
    },
    {
      "type": "function",
      "name": "postOp",
      "inputs": [
        {
          "name": "mode",
          "type": "uint8",
          "internalType": "enum IPaymaster.PostOpMode"
        },
        {
          "name": "context",
          "type": "bytes",
          "internalType": "bytes"
        },
        {
          "name": "actualGasCost",
          "type": "uint256",
          "internalType": "uint256"
        },
        {
          "name": "",
          "type": "uint256",
          "internalType": "uint256"
        }
      ],
      "outputs": [],
      "stateMutability": "nonpayable"
    },
    {
      "type": "function",
      "name": "proxiableUUID",
      "inputs": [],
      "outputs": [
        {
          "name": "",
          "type": "bytes32",
          "internalType": "bytes32"
        }
      ],
      "stateMutability": "view"
    },
    {
      "type": "function",
      "name": "removeSigner",
      "inputs": [
        {
          "name": "signer_",
          "type": "address",
          "internalType": "address"
        }
      ],
      "outputs": [],
      "stateMutability": "nonpayable"
    },
    {
      "type": "function",
      "name": "renounceOwnership",
      "inputs": [],
      "outputs": [],
      "stateMutability": "nonpayable"
    },
    {
      "type": "function",
      "name": "setMaxWithdrawDenominator",
      "inputs": [
        {
          "name": "newDenominator",
          "type": "uint256",
          "internalType": "uint256"
        }
      ],
      "outputs": [],
      "stateMutability": "nonpayable"
    },
    {
      "type": "function",
      "name": "signers",
      "inputs": [
        {
          "name": "account",
          "type": "address",
          "internalType": "address"
        }
      ],
      "outputs": [
        {
          "name": "isValidSigner",
          "type": "bool",
          "internalType": "bool"
        }
      ],
      "stateMutability": "view"
    },
    {
      "type": "function",
      "name": "transferOwnership",
      "inputs": [
        {
          "name": "newOwner",
          "type": "address",
          "internalType": "address"
        }
      ],
      "outputs": [],
      "stateMutability": "nonpayable"
    },
    {
      "type": "function",
      "name": "upgradeToAndCall",
      "inputs": [
        {
          "name": "newImplementation",
          "type": "address",
          "internalType": "address"
        },
        {
          "name": "data",
          "type": "bytes",
          "internalType": "bytes"
        }
      ],
      "outputs": [],
      "stateMutability": "payable"
    },
    {
      "type": "function",
      "name": "validatePaymasterUserOp",
      "inputs": [
        {
          "name": "userOp",
          "type": "tuple",
          "internalType": "struct PackedUserOperation",
          "components": [
            {
              "name": "sender",
              "type": "address",
              "internalType": "address"
            },
            {
              "name": "nonce",
              "type": "uint256",
              "internalType": "uint256"
            },
            {
              "name": "initCode",
              "type": "bytes",
              "internalType": "bytes"
            },
            {
              "name": "callData",
              "type": "bytes",
              "internalType": "bytes"
            },
            {
              "name": "accountGasLimits",
              "type": "bytes32",
              "internalType": "bytes32"
            },
            {
              "name": "preVerificationGas",
              "type": "uint256",
              "internalType": "uint256"
            },
            {
              "name": "gasFees",
              "type": "bytes32",
              "internalType": "bytes32"
            },
            {
              "name": "paymasterAndData",
              "type": "bytes",
              "internalType": "bytes"
            },
            {
              "name": "signature",
              "type": "bytes",
              "internalType": "bytes"
            }
          ]
        },
        {
          "name": "",
          "type": "bytes32",
          "internalType": "bytes32"
        },
        {
          "name": "maxCost",
          "type": "uint256",
          "internalType": "uint256"
        }
      ],
      "outputs": [
        {
          "name": "context",
          "type": "bytes",
          "internalType": "bytes"
        },
        {
          "name": "validationData",
          "type": "uint256",
          "internalType": "uint256"
        }
      ],
      "stateMutability": "nonpayable"
    },
    {
      "type": "function",
      "name": "withdraw",
      "inputs": [
        {
          "name": "withdrawRequest",
          "type": "tuple",
          "internalType": "struct MagicSpend.WithdrawRequest",
          "components": [
            {
              "name": "signature",
              "type": "bytes",
              "internalType": "bytes"
            },
            {
              "name": "asset",
              "type": "address",
              "internalType": "address"
            },
            {
              "name": "amount",
              "type": "uint256",
              "internalType": "uint256"
            },
            {
              "name": "nonce",
              "type": "uint256",
              "internalType": "uint256"
            },
            {
              "name": "expiry",
              "type": "uint48",
              "internalType": "uint48"
            }
          ]
        }
      ],
      "outputs": [],
      "stateMutability": "nonpayable"
    },
    {
      "type": "function",
      "name": "withdrawGasExcess",
      "inputs": [],
      "outputs": [],
      "stateMutability": "nonpayable"
    },
    {
      "type": "event",
      "name": "Initialized",
      "inputs": [
        {
          "name": "version",
          "type": "uint64",
          "indexed": false,
          "internalType": "uint64"
        }
      ],
      "anonymous": false
    },
    {
      "type": "event",
      "name": "MagicSpendWithdrawal",
      "inputs": [
        {
          "name": "account",
          "type": "address",
          "indexed": true,
          "internalType": "address"
        },
        {
          "name": "asset",
          "type": "address",
          "indexed": true,
          "internalType": "address"
        },
        {
          "name": "amount",
          "type": "uint256",
          "indexed": false,
          "internalType": "uint256"
        },
        {
          "name": "nonce",
          "type": "uint256",
          "indexed": false,
          "internalType": "uint256"
        }
      ],
      "anonymous": false
    },
    {
      "type": "event",
      "name": "MaxWithdrawDenominatorSet",
      "inputs": [
        {
          "name": "newDenominator",
          "type": "uint256",
          "indexed": false,
          "internalType": "uint256"
        }
      ],
      "anonymous": false
    },
    {
      "type": "event",
      "name": "OwnershipTransferStarted",
      "inputs": [
        {
          "name": "previousOwner",
          "type": "address",
          "indexed": true,
          "internalType": "address"
        },
        {
          "name": "newOwner",
          "type": "address",
          "indexed": true,
          "internalType": "address"
        }
      ],
      "anonymous": false
    },
    {
      "type": "event",
      "name": "OwnershipTransferred",
      "inputs": [
        {
          "name": "previousOwner",
          "type": "address",
          "indexed": true,
          "internalType": "address"
        },
        {
          "name": "newOwner",
          "type": "address",
          "indexed": true,
          "internalType": "address"
        }
      ],
      "anonymous": false
    },
    {
      "type": "event",
      "name": "SignerAdded",
      "inputs": [
        {
          "name": "signer",
          "type": "address",
          "indexed": false,
          "internalType": "address"
        }
      ],
      "anonymous": false
    },
    {
      "type": "event",
      "name": "SignerRemoved",
      "inputs": [
        {
          "name": "signer",
          "type": "address",
          "indexed": false,
          "internalType": "address"
        }
      ],
      "anonymous": false
    },
    {
      "type": "event",
      "name": "Upgraded",
      "inputs": [
        {
          "name": "implementation",
          "type": "address",
          "indexed": true,
          "internalType": "address"
        }
      ],
      "anonymous": false
    },
    {
      "type": "error",
      "name": "AddressEmptyCode",
      "inputs": [
        {
          "name": "target",
          "type": "address",
          "internalType": "address"
        }
      ]
    },
    {
      "type": "error",
      "name": "ERC1967InvalidImplementation",
      "inputs": [
        {
          "name": "implementation",
          "type": "address",
          "internalType": "address"
        }
      ]
    },
    {
      "type": "error",
      "name": "ERC1967NonPayable",
      "inputs": []
    },
    {
      "type": "error",
      "name": "Expired",
      "inputs": []
    },
    {
      "type": "error",
      "name": "FailedInnerCall",
      "inputs": []
    },
    {
      "type": "error",
      "name": "InvalidInitialization",
      "inputs": []
    },
    {
      "type": "error",
      "name": "InvalidNonce",
      "inputs": [
        {
          "name": "nonce",
          "type": "uint256",
          "internalType": "uint256"
        }
      ]
    },
    {
      "type": "error",
      "name": "InvalidSignature",
      "inputs": []
    },
    {
      "type": "error",
      "name": "NoExcess",
      "inputs": []
    },
    {
      "type": "error",
      "name": "NotInitializing",
      "inputs": []
    },
    {
      "type": "error",
      "name": "OwnableInvalidOwner",
      "inputs": [
        {
          "name": "owner",
          "type": "address",
          "internalType": "address"
        }
      ]
    },
    {
      "type": "error",
      "name": "OwnableUnauthorizedAccount",
      "inputs": [
        {
          "name": "account",
          "type": "address",
          "internalType": "address"
        }
      ]
    },
    {
      "type": "error",
      "name": "RequestLessThanGasMaxCost",
      "inputs": [
        {
          "name": "requested",
          "type": "uint256",
          "internalType": "uint256"
        },
        {
          "name": "maxCost",
          "type": "uint256",
          "internalType": "uint256"
        }
      ]
    },
    {
      "type": "error",
      "name": "UUPSUnauthorizedCallContext",
      "inputs": []
    },
    {
      "type": "error",
      "name": "UUPSUnsupportedProxiableUUID",
      "inputs": [
        {
          "name": "slot",
          "type": "bytes32",
          "internalType": "bytes32"
        }
      ]
    },
    {
      "type": "error",
      "name": "Unauthorized",
      "inputs": []
    },
    {
      "type": "error",
      "name": "UnexpectedPostOpRevertedMode",
      "inputs": []
    },
    {
      "type": "error",
      "name": "UnsupportedPaymasterAsset",
      "inputs": [
        {
          "name": "asset",
          "type": "address",
          "internalType": "address"
        }
      ]
    },
    {
      "type": "error",
      "name": "WithdrawTooLarge",
      "inputs": [
        {
          "name": "requestedAmount",
          "type": "uint256",
          "internalType": "uint256"
        },
        {
          "name": "maxAllowed",
          "type": "uint256",
          "internalType": "uint256"
        }
      ]
    }
  ],
  "bytecode": {
    "object": "0x60a06040523060805234801561001457600080fd5b5061001d610022565b6100d4565b7ff0c57e16840df040f15088dc2f81fe391c3923bec73e23a9662efc9c229c6a00805468010000000000000000900460ff16156100725760405163f92ee8a960e01b815260040160405180910390fd5b80546001600160401b03908116146100d15780546001600160401b0319166001600160401b0390811782556040519081527fc7f505b2f371ae2175ee4913f4499e1f2633a7b5936321eed1cdaeb6115181d29060200160405180910390a15b50565b60805161254d6100fd600039600081816114c2015281816114eb01526118b6015261254d6000f3fe6080604052600436106101d15760003560e01c80637c8d4949116100f7578063c350a1b511610095578063ebdbc67811610064578063ebdbc6781461059b578063edceadb6146105bb578063f2fde38b146105db578063ffa1ad74146105fb57600080fd5b8063c350a1b514610526578063d833caee14610546578063e30c397814610566578063eb12d61e1461057b57600080fd5b8063a3f4df7e116100d1578063a3f4df7e1461044f578063ad3cb1cc146104a5578063b0d691fe146104ee578063b175512b1461051157600080fd5b80637c8d4949146103e257806388202489146103f55780638da5cb5b1461041557600080fd5b80634f1ef2861161016f578063715018a61161013e578063715018a614610368578063736c0d5b1461037d57806379ba5097146103ad5780637c627b21146103c257600080fd5b80634f1ef286146102ff57806352b7512c1461031257806352d1902d146103405780635b34b2721461035557600080fd5b80631647795e116101ab5780631647795e146102495780632bcaa0e21461029b57806334b5a077146102bb5780634d2b3f06146102e957600080fd5b8063056819be146101dd5780630acf2ac8146102125780630e316ab71461022957600080fd5b366101d857005b600080fd5b3480156101e957600080fd5b506101fd6101f836600461200c565b610644565b60405190151581526020015b60405180910390f35b34801561021e57600080fd5b50610227610696565b005b34801561023557600080fd5b5061022761024436600461205c565b6106ff565b34801561025557600080fd5b506101fd610264366004612079565b600090815260026020908152604080832073ffffffffffffffffffffffffffffffffffffffff949094168352929052205460ff1690565b3480156102a757600080fd5b506102276102b63660046120a5565b61078a565b3480156102c757600080fd5b506102db6102d636600461200c565b6107a2565b604051908152602001610209565b3480156102f557600080fd5b506102db60005481565b61022761030d3660046120e6565b610836565b34801561031e57600080fd5b5061033261032d36600461212c565b610855565b6040516102099291906121ee565b34801561034c57600080fd5b506102db610aa8565b610227610363366004612210565b610ad7565b34801561037457600080fd5b50610227610b7d565b34801561038957600080fd5b506101fd61039836600461205c565b60036020526000908152604090205460ff1681565b3480156103b957600080fd5b50610227610b91565b3480156103ce57600080fd5b506102276103dd366004612249565b610c09565b6102276103f03660046122e6565b610d32565b34801561040157600080fd5b50610227610410366004612079565b610d54565b34801561042157600080fd5b5061042a610dfb565b60405173ffffffffffffffffffffffffffffffffffffffff9091168152602001610209565b34801561045b57600080fd5b506104986040518060400160405280600e81526020017f4c696768745061796d617374657200000000000000000000000000000000000081525081565b60405161020991906122ff565b3480156104b157600080fd5b506104986040518060400160405280600581526020017f352e302e3000000000000000000000000000000000000000000000000000000081525081565b3480156104fa57600080fd5b506f71727de22e5e9d8baf0edac6f37da03261042a565b34801561051d57600080fd5b50610227610e3d565b34801561053257600080fd5b50610227610541366004612312565b610eb7565b34801561055257600080fd5b50610227610561366004612354565b611052565b34801561057257600080fd5b5061042a6110f5565b34801561058757600080fd5b5061022761059636600461205c565b61111e565b3480156105a757600080fd5b506102276105b63660046122e6565b6111a5565b3480156105c757600080fd5b506102276105d636600461205c565b6111b6565b3480156105e757600080fd5b506102276105f636600461205c565b611255565b34801561060757600080fd5b506104986040518060400160405280600581526020017f302e312e3000000000000000000000000000000000000000000000000000000081525081565b60008061065184846107a2565b9050600061066382856000015161130c565b73ffffffffffffffffffffffffffffffffffffffff1660009081526003602052604090205460ff16925050505b92915050565b33600090815260016020526040812054908190036106e0576040517f6c163b7e00000000000000000000000000000000000000000000000000000000815260040160405180910390fd5b3360008181526001602052604081208190556106fc91836113b6565b50565b6107076113e6565b73ffffffffffffffffffffffffffffffffffffffff811660008181526003602090815260409182902080547fffffffffffffffffffffffffffffffffffffffffffffffffffffffffffffff0016905590519182527f3525e22824a8a7df2c9a6029941c824cf95b6447f1e13d5128fd3826d35afe8b91015b60405180910390a150565b6107926113e6565b61079d8383836113b6565b505050565b6020808201516040808401516060808601516080808801518551309881019890985273ffffffffffffffffffffffffffffffffffffffff808b16968901969096524693880193909352939094169285019290925260a084015260c083019190915265ffffffffffff1660e082015260009061082f906101000160405160208183030381529060405261143e565b9392505050565b61083e6114aa565b610847826115ae565b61085182826115b6565b5050565b60606000336f71727de22e5e9d8baf0edac6f37da032146108a2576040517f82b4290000000000000000000000000000000000000000000000000000000000815260040160405180910390fd5b60006108b160e0870187612391565b6108bf9160149082906123fd565b8101906108cc9190612354565b60408101519091508481101561091d576040517f7582f47200000000000000000000000000000000000000000000000000000000815260048101829052602481018690526044015b60405180910390fd5b602082015173ffffffffffffffffffffffffffffffffffffffff161561098d5760208201516040517f140e116500000000000000000000000000000000000000000000000000000000815273ffffffffffffffffffffffffffffffffffffffff9091166004820152602401610914565b6109a361099d602089018961205c565b836116ef565b60006109bb6109b560208a018a61205c565b84610644565b15905060a0836080015165ffffffffffff16901b816109db5760006109de565b60015b60ff161793506109ee8683612456565b600160006109ff60208c018c61205c565b73ffffffffffffffffffffffffffffffffffffffff1673ffffffffffffffffffffffffffffffffffffffff1681526020019081526020016000206000828254610a489190612469565b90915550869050610a5c60208a018a61205c565b604051602001610a8c92919091825273ffffffffffffffffffffffffffffffffffffffff16602082015260400190565b6040516020818303038152906040529450505050935093915050565b6000610ab261189e565b507f360894a13ba1a3210667c828492db98dca3e2076cc3735a920a3ca505d382bbc90565b610adf6113e6565b6f71727de22e5e9d8baf0edac6f37da0326040517f0396cb6000000000000000000000000000000000000000000000000000000000815263ffffffff8316600482015273ffffffffffffffffffffffffffffffffffffffff9190911690630396cb609084906024016000604051808303818588803b158015610b6057600080fd5b505af1158015610b74573d6000803e3d6000fd5b50505050505050565b610b856113e6565b610b8f600061190d565b565b3380610b9b6110f5565b73ffffffffffffffffffffffffffffffffffffffff1614610c00576040517f118cdaa700000000000000000000000000000000000000000000000000000000815273ffffffffffffffffffffffffffffffffffffffff82166004820152602401610914565b6106fc8161190d565b336f71727de22e5e9d8baf0edac6f37da03214610c52576040517f82b4290000000000000000000000000000000000000000000000000000000000815260040160405180910390fd5b6002856002811115610c6657610c6661247c565b03610c9d576040517fef88ac6000000000000000000000000000000000000000000000000000000000815260040160405180910390fd5b600080610cac858701876124ab565b90925090506000610cbd8584612456565b73ffffffffffffffffffffffffffffffffffffffff8316600090815260016020526040902054610ced9190612469565b73ffffffffffffffffffffffffffffffffffffffff831660009081526001602052604081205590508015610d2857610d2882826108fc61195d565b5050505050505050565b610d3a6113e6565b6106fc6f71727de22e5e9d8baf0edac6f37da0328261199d565b610d5c6113e6565b6f71727de22e5e9d8baf0edac6f37da0326040517f205c287800000000000000000000000000000000000000000000000000000000815273ffffffffffffffffffffffffffffffffffffffff848116600483015260248201849052919091169063205c287890604401600060405180830381600087803b158015610ddf57600080fd5b505af1158015610df3573d6000803e3d6000fd5b505050505050565b6000807f9016d09d72d40fdae2fd8ceac6b6234c7706214fd39c1cd1e609a0528c1993005b5473ffffffffffffffffffffffffffffffffffffffff1692915050565b610e456113e6565b6f71727de22e5e9d8baf0edac6f37da03273ffffffffffffffffffffffffffffffffffffffff1663bb9fe6bf6040518163ffffffff1660e01b8152600401600060405180830381600087803b158015610e9d57600080fd5b505af1158015610eb1573d6000803e3d6000fd5b50505050565b7ff0c57e16840df040f15088dc2f81fe391c3923bec73e23a9662efc9c229c6a00805468010000000000000000810460ff16159067ffffffffffffffff16600081158015610f025750825b905060008267ffffffffffffffff166001148015610f1f5750303b155b905081158015610f2d575080155b15610f64576040517ff92ee8a900000000000000000000000000000000000000000000000000000000815260040160405180910390fd5b84547fffffffffffffffffffffffffffffffffffffffffffffffff00000000000000001660011785558315610fc55784547fffffffffffffffffffffffffffffffffffffffffffffff00ffffffffffffffff16680100000000000000001785555b610fcd6119b9565b610fd6886119c1565b610fdf87611a19565b610fe88661111e565b8315610d285784547fffffffffffffffffffffffffffffffffffffffffffffff00ffffffffffffffff168555604051600181527fc7f505b2f371ae2175ee4913f4499e1f2633a7b5936321eed1cdaeb6115181d29060200160405180910390a15050505050505050565b806080015165ffffffffffff16421115611098576040517f203d82d800000000000000000000000000000000000000000000000000000000815260040160405180910390fd5b6110a23382610644565b6110d8576040517f8baa579f00000000000000000000000000000000000000000000000000000000815260040160405180910390fd5b6110e233826116ef565b6106fc81602001513383604001516113b6565b6000807f237e158222e3e6968b72b9db0d8043aacf074ad9f650f0d1606b4d82ee432c00610e20565b6111266113e6565b73ffffffffffffffffffffffffffffffffffffffff811660008181526003602090815260409182902080547fffffffffffffffffffffffffffffffffffffffffffffffffffffffffffffff0016600117905590519182527f47d1c22a25bb3a5d4e481b9b1e6944c2eade3181a0a20b495ed61d35b5323f24910161077f565b6111ad6113e6565b6106fc81611a19565b6111be6113e6565b6f71727de22e5e9d8baf0edac6f37da0326040517fc23a5cea00000000000000000000000000000000000000000000000000000000815273ffffffffffffffffffffffffffffffffffffffff8381166004830152919091169063c23a5cea90602401600060405180830381600087803b15801561123a57600080fd5b505af115801561124e573d6000803e3d6000fd5b5050505050565b61125d6113e6565b7f237e158222e3e6968b72b9db0d8043aacf074ad9f650f0d1606b4d82ee432c0080547fffffffffffffffffffffffff00000000000000000000000000000000000000001673ffffffffffffffffffffffffffffffffffffffff831690811782556112c6610dfb565b73ffffffffffffffffffffffffffffffffffffffff167f38d16b8cac22d99fc7c124b9cd0de2d3fa1faef420bfe791d8c362d765e2270060405160405180910390a35050565b604051600190836000526020830151604052604083510361136157604083015160ff81901c601b016020527f7fffffffffffffffffffffffffffffffffffffffffffffffffffffffffffffff16606052611387565b604183510361138257606083015160001a6020526040830151606052611387565b600091505b6020600160806000855afa5191503d6113a857638baa579f6000526004601cfd5b600060605260405292915050565b73ffffffffffffffffffffffffffffffffffffffff83166113db5761079d828261199d565b61079d838383611a4e565b336113ef610dfb565b73ffffffffffffffffffffffffffffffffffffffff1614610b8f576040517f118cdaa7000000000000000000000000000000000000000000000000000000008152336004820152602401610914565b6000815160207f19457468657265756d205369676e6564204d6573736167653a0a000000000000815260008052815b600182039150600a81066030018253600a90048061146d5750603a03602081113d3d3e805160005117845281810160209190910384012092525090565b3073ffffffffffffffffffffffffffffffffffffffff7f000000000000000000000000000000000000000000000000000000000000000016148061157757507f000000000000000000000000000000000000000000000000000000000000000073ffffffffffffffffffffffffffffffffffffffff1661155e7f360894a13ba1a3210667c828492db98dca3e2076cc3735a920a3ca505d382bbc5473ffffffffffffffffffffffffffffffffffffffff1690565b73ffffffffffffffffffffffffffffffffffffffff1614155b15610b8f576040517fe07c8dba00000000000000000000000000000000000000000000000000000000815260040160405180910390fd5b6106fc6113e6565b8173ffffffffffffffffffffffffffffffffffffffff166352d1902d6040518163ffffffff1660e01b8152600401602060405180830381865afa92505050801561163b575060408051601f3d9081017fffffffffffffffffffffffffffffffffffffffffffffffffffffffffffffffe0168201909252611638918101906124d0565b60015b611689576040517f4c9c8ce300000000000000000000000000000000000000000000000000000000815273ffffffffffffffffffffffffffffffffffffffff83166004820152602401610914565b7f360894a13ba1a3210667c828492db98dca3e2076cc3735a920a3ca505d382bbc81146116e5576040517faa1d49a400000000000000000000000000000000000000000000000000000000815260048101829052602401610914565b61079d8383611a9d565b6060810151600090815260026020908152604080832073ffffffffffffffffffffffffffffffffffffffff8616845290915290205460ff16156117665780606001516040517fb1373a6c00000000000000000000000000000000000000000000000000000000815260040161091491815260200190565b6000805461177490476124e9565b602083015190915073ffffffffffffffffffffffffffffffffffffffff161580156117a25750808260400151115b156117ea578160400151816040517f4c362064000000000000000000000000000000000000000000000000000000008152600401610914929190918252602082015260400190565b606082018051600090815260026020908152604080832073ffffffffffffffffffffffffffffffffffffffff8089168086529184529382902080547fffffffffffffffffffffffffffffffffffffffffffffffffffffffffffffff0016600117905591860151818701519451915193169391927f8e7cffd3059dabab9850e8d5537f8a291f7c5ed69254d02609751c9afdaaeb1d9261189192908252602082015260400190565b60405180910390a3505050565b3073ffffffffffffffffffffffffffffffffffffffff7f00000000000000000000000000000000000000000000000000000000000000001614610b8f576040517fe07c8dba00000000000000000000000000000000000000000000000000000000815260040160405180910390fd5b7f237e158222e3e6968b72b9db0d8043aacf074ad9f650f0d1606b4d82ee432c0080547fffffffffffffffffffffffff000000000000000000000000000000000000000016815561085182611b00565b814710156119735763b12d13eb6000526004601cfd5b600038600038858786f161079d57826000526073600b5360ff6020536016600b83f061079d573838fd5b60003860003884865af16108515763b12d13eb6000526004601cfd5b610b8f611b96565b6119c9611b96565b73ffffffffffffffffffffffffffffffffffffffff8116610c00576040517f1e4fbdf700000000000000000000000000000000000000000000000000000000815260006004820152602401610914565b60008190556040518181527f8e50f7d01ef1d2915d3115fc0152c6a85cb0c84de7e57611c0b0f8063bb858e19060200161077f565b81601452806034526fa9059cbb00000000000000000000000060005260206000604460106000875af13d156001600051141716611a93576390b8ec186000526004601cfd5b6000603452505050565b611aa682611bfd565b60405173ffffffffffffffffffffffffffffffffffffffff8316907fbc7cd75a20ee27fd9adebab32041f755214dbc6bffa90cc0225b39da2e5c2d3b90600090a2805115611af85761079d8282611ccc565b610851611d4f565b7f9016d09d72d40fdae2fd8ceac6b6234c7706214fd39c1cd1e609a0528c19930080547fffffffffffffffffffffffff0000000000000000000000000000000000000000811673ffffffffffffffffffffffffffffffffffffffff848116918217845560405192169182907f8be0079c531659141344cd1fd0a4f28419497f9722a3daafe3b4186f6b6457e090600090a3505050565b7ff0c57e16840df040f15088dc2f81fe391c3923bec73e23a9662efc9c229c6a005468010000000000000000900460ff16610b8f576040517fd7e6bcf800000000000000000000000000000000000000000000000000000000815260040160405180910390fd5b8073ffffffffffffffffffffffffffffffffffffffff163b600003611c66576040517f4c9c8ce300000000000000000000000000000000000000000000000000000000815273ffffffffffffffffffffffffffffffffffffffff82166004820152602401610914565b7f360894a13ba1a3210667c828492db98dca3e2076cc3735a920a3ca505d382bbc80547fffffffffffffffffffffffff00000000000000000000000000000000000000001673ffffffffffffffffffffffffffffffffffffffff92909216919091179055565b60606000808473ffffffffffffffffffffffffffffffffffffffff1684604051611cf69190612524565b600060405180830381855af49150503d8060008114611d31576040519150601f19603f3d011682016040523d82523d6000602084013e611d36565b606091505b5091509150611d46858383611d87565b95945050505050565b3415610b8f576040517fb398979f00000000000000000000000000000000000000000000000000000000815260040160405180910390fd5b606082611d9c57611d9782611e16565b61082f565b8151158015611dc0575073ffffffffffffffffffffffffffffffffffffffff84163b155b15611e0f576040517f9996b31500000000000000000000000000000000000000000000000000000000815273ffffffffffffffffffffffffffffffffffffffff85166004820152602401610914565b5092915050565b805115611e265780518082602001fd5b6040517f1425ea4200000000000000000000000000000000000000000000000000000000815260040160405180910390fd5b73ffffffffffffffffffffffffffffffffffffffff811681146106fc57600080fd5b7f4e487b7100000000000000000000000000000000000000000000000000000000600052604160045260246000fd5b60405160a0810167ffffffffffffffff81118282101715611ecc57611ecc611e7a565b60405290565b600082601f830112611ee357600080fd5b813567ffffffffffffffff811115611efd57611efd611e7a565b604051601f82017fffffffffffffffffffffffffffffffffffffffffffffffffffffffffffffffe0908116603f0116810167ffffffffffffffff81118282101715611f4a57611f4a611e7a565b604052818152838201602001851015611f6257600080fd5b816020850160208301376000918101602001919091529392505050565b600060a08284031215611f9157600080fd5b611f99611ea9565b9050813567ffffffffffffffff811115611fb257600080fd5b611fbe84828501611ed2565b8252506020820135611fcf81611e58565b60208201526040828101359082015260608083013590820152608082013565ffffffffffff8116811461200157600080fd5b608082015292915050565b6000806040838503121561201f57600080fd5b823561202a81611e58565b9150602083013567ffffffffffffffff81111561204657600080fd5b61205285828601611f7f565b9150509250929050565b60006020828403121561206e57600080fd5b813561082f81611e58565b6000806040838503121561208c57600080fd5b823561209781611e58565b946020939093013593505050565b6000806000606084860312156120ba57600080fd5b83356120c581611e58565b925060208401356120d581611e58565b929592945050506040919091013590565b600080604083850312156120f957600080fd5b823561210481611e58565b9150602083013567ffffffffffffffff81111561212057600080fd5b61205285828601611ed2565b60008060006060848603121561214157600080fd5b833567ffffffffffffffff81111561215857600080fd5b8401610120818703121561216b57600080fd5b95602085013595506040909401359392505050565b60005b8381101561219b578181015183820152602001612183565b50506000910152565b600081518084526121bc816020860160208601612180565b601f017fffffffffffffffffffffffffffffffffffffffffffffffffffffffffffffffe0169290920160200192915050565b60408152600061220160408301856121a4565b90508260208301529392505050565b6000806040838503121561222357600080fd5b82359150602083013563ffffffff8116811461223e57600080fd5b809150509250929050565b60008060008060006080868803121561226157600080fd5b85356003811061227057600080fd5b9450602086013567ffffffffffffffff81111561228c57600080fd5b8601601f8101881361229d57600080fd5b803567ffffffffffffffff8111156122b457600080fd5b8860208284010111156122c657600080fd5b959860209190910197509495604081013595606090910135945092505050565b6000602082840312156122f857600080fd5b5035919050565b60208152600061082f60208301846121a4565b60008060006060848603121561232757600080fd5b833561233281611e58565b925060208401359150604084013561234981611e58565b809150509250925092565b60006020828403121561236657600080fd5b813567ffffffffffffffff81111561237d57600080fd5b61238984828501611f7f565b949350505050565b60008083357fffffffffffffffffffffffffffffffffffffffffffffffffffffffffffffffe18436030181126123c657600080fd5b83018035915067ffffffffffffffff8211156123e157600080fd5b6020019150368190038213156123f657600080fd5b9250929050565b6000808585111561240d57600080fd5b8386111561241a57600080fd5b5050820193919092039150565b7f4e487b7100000000000000000000000000000000000000000000000000000000600052601160045260246000fd5b8181038181111561069057610690612427565b8082018082111561069057610690612427565b7f4e487b7100000000000000000000000000000000000000000000000000000000600052602160045260246000fd5b600080604083850312156124be57600080fd5b82359150602083013561223e81611e58565b6000602082840312156124e257600080fd5b5051919050565b60008261251f577f4e487b7100000000000000000000000000000000000000000000000000000000600052601260045260246000fd5b500490565b60008251612536818460208701612180565b919091019291505056fea164736f6c634300081b000a",
    "linkReferences": {}
  },
  "methodIdentifiers": {
    "NAME()": "a3f4df7e",
    "UPGRADE_INTERFACE_VERSION()": "ad3cb1cc",
    "VERSION()": "ffa1ad74",
    "acceptOwnership()": "79ba5097",
    "addSigner(address)": "eb12d61e",
    "entryPoint()": "b0d691fe",
    "entryPointAddStake(uint256,uint32)": "5b34b272",
    "entryPointDeposit(uint256)": "7c8d4949",
    "entryPointUnlockStake()": "b175512b",
    "entryPointWithdraw(address,uint256)": "88202489",
    "entryPointWithdrawStake(address)": "edceadb6",
    "getHash(address,(bytes,address,uint256,uint256,uint48))": "34b5a077",
    "initialize(address,uint256,address)": "c350a1b5",
    "isValidWithdrawSignature(address,(bytes,address,uint256,uint256,uint48))": "056819be",
    "maxWithdrawDenominator()": "4d2b3f06",
    "nonceUsed(address,uint256)": "1647795e",
    "owner()": "8da5cb5b",
    "ownerWithdraw(address,address,uint256)": "2bcaa0e2",
    "pendingOwner()": "e30c3978",
    "postOp(uint8,bytes,uint256,uint256)": "7c627b21",
    "proxiableUUID()": "52d1902d",
    "removeSigner(address)": "0e316ab7",
    "renounceOwnership()": "715018a6",
    "setMaxWithdrawDenominator(uint256)": "ebdbc678",
    "signers(address)": "736c0d5b",
    "transferOwnership(address)": "f2fde38b",
    "upgradeToAndCall(address,bytes)": "4f1ef286",
    "validatePaymasterUserOp((address,uint256,bytes,bytes,bytes32,uint256,bytes32,bytes,bytes),bytes32,uint256)": "52b7512c",
    "withdraw((bytes,address,uint256,uint256,uint48))": "d833caee",
    "withdrawGasExcess()": "0acf2ac8"
  },
  "id": 0
}