{
  "abi": [
    {
      "type": "constructor",
      "inputs": [],
      "stateMutability": "nonpayable"
    },
    {
      "type": "receive",
      "stateMutability": "payable"
    },
    {
      "type": "function",
      "name": "CANCELLER_ROLE",
      "inputs": [],
      "outputs": [
        {
          "name": "",
          "type": "bytes32",
          "internalType": "bytes32"
        }
      ],
      "stateMutability": "view"
    },
    {
      "type": "function",
      "name": "DEFAULT_ADMIN_ROLE",
      "inputs": [],
      "outputs": [
        {
          "name": "",
          "type": "bytes32",
          "internalType": "bytes32"
        }
      ],
      "stateMutability": "view"
    },
    {
      "type": "function",
      "name": "EXECUTOR_ROLE",
      "inputs": [],
      "outputs": [
        {
          "name": "",
          "type": "bytes32",
          "internalType": "bytes32"
        }
      ],
      "stateMutability": "view"
    },
    {
      "type": "function",
      "name": "NAME",
      "inputs": [],
      "outputs": [
        {
          "name": "",
          "type": "string",
          "internalType": "string"
        }
      ],
      "stateMutability": "view"
    },
    {
      "type": "function",
      "name": "PROPOSER_ROLE",
      "inputs": [],
      "outputs": [
        {
          "name": "",
          "type": "bytes32",
          "internalType": "bytes32"
        }
      ],
      "stateMutability": "view"
    },
    {
      "type": "function",
      "name": "UPGRADE_INTERFACE_VERSION",
      "inputs": [],
      "outputs": [
        {
          "name": "",
          "type": "string",
          "internalType": "string"
        }
      ],
      "stateMutability": "view"
    },
    {
      "type": "function",
      "name": "VERSION",
      "inputs": [],
      "outputs": [
        {
          "name": "",
          "type": "string",
          "internalType": "string"
        }
      ],
      "stateMutability": "view"
    },
    {
      "type": "function",
      "name": "cancel",
      "inputs": [
        {
          "name": "id",
          "type": "bytes32",
          "internalType": "bytes32"
        }
      ],
      "outputs": [],
      "stateMutability": "nonpayable"
    },
    {
      "type": "function",
      "name": "execute",
      "inputs": [
        {
          "name": "target",
          "type": "address",
          "internalType": "address"
        },
        {
          "name": "value",
          "type": "uint256",
          "internalType": "uint256"
        },
        {
          "name": "payload",
          "type": "bytes",
          "internalType": "bytes"
        },
        {
          "name": "predecessor",
          "type": "bytes32",
          "internalType": "bytes32"
        },
        {
          "name": "salt",
          "type": "bytes32",
          "internalType": "bytes32"
        }
      ],
      "outputs": [],
      "stateMutability": "payable"
    },
    {
      "type": "function",
      "name": "executeBatch",
      "inputs": [
        {
          "name": "targets",
          "type": "address[]",
          "internalType": "address[]"
        },
        {
          "name": "values",
          "type": "uint256[]",
          "internalType": "uint256[]"
        },
        {
          "name": "payloads",
          "type": "bytes[]",
          "internalType": "bytes[]"
        },
        {
          "name": "predecessor",
          "type": "bytes32",
          "internalType": "bytes32"
        },
        {
          "name": "salt",
          "type": "bytes32",
          "internalType": "bytes32"
        }
      ],
      "outputs": [],
      "stateMutability": "payable"
    },
    {
      "type": "function",
      "name": "getMinDelay",
      "inputs": [],
      "outputs": [
        {
          "name": "",
          "type": "uint256",
          "internalType": "uint256"
        }
      ],
      "stateMutability": "view"
    },
    {
      "type": "function",
      "name": "getOperationState",
      "inputs": [
        {
          "name": "id",
          "type": "bytes32",
          "internalType": "bytes32"
        }
      ],
      "outputs": [
        {
          "name": "",
          "type": "uint8",
          "internalType": "enum TimelockControllerUpgradeable.OperationState"
        }
      ],
      "stateMutability": "view"
    },
    {
      "type": "function",
      "name": "getRoleAdmin",
      "inputs": [
        {
          "name": "role",
          "type": "bytes32",
          "internalType": "bytes32"
        }
      ],
      "outputs": [
        {
          "name": "",
          "type": "bytes32",
          "internalType": "bytes32"
        }
      ],
      "stateMutability": "view"
    },
    {
      "type": "function",
      "name": "getTimestamp",
      "inputs": [
        {
          "name": "id",
          "type": "bytes32",
          "internalType": "bytes32"
        }
      ],
      "outputs": [
        {
          "name": "",
          "type": "uint256",
          "internalType": "uint256"
        }
      ],
      "stateMutability": "view"
    },
    {
      "type": "function",
      "name": "grantRole",
      "inputs": [
        {
          "name": "role",
          "type": "bytes32",
          "internalType": "bytes32"
        },
        {
          "name": "account",
          "type": "address",
          "internalType": "address"
        }
      ],
      "outputs": [],
      "stateMutability": "nonpayable"
    },
    {
      "type": "function",
      "name": "hasRole",
      "inputs": [
        {
          "name": "role",
          "type": "bytes32",
          "internalType": "bytes32"
        },
        {
          "name": "account",
          "type": "address",
          "internalType": "address"
        }
      ],
      "outputs": [
        {
          "name": "",
          "type": "bool",
          "internalType": "bool"
        }
      ],
      "stateMutability": "view"
    },
    {
      "type": "function",
      "name": "hashOperation",
      "inputs": [
        {
          "name": "target",
          "type": "address",
          "internalType": "address"
        },
        {
          "name": "value",
          "type": "uint256",
          "internalType": "uint256"
        },
        {
          "name": "data",
          "type": "bytes",
          "internalType": "bytes"
        },
        {
          "name": "predecessor",
          "type": "bytes32",
          "internalType": "bytes32"
        },
        {
          "name": "salt",
          "type": "bytes32",
          "internalType": "bytes32"
        }
      ],
      "outputs": [
        {
          "name": "",
          "type": "bytes32",
          "internalType": "bytes32"
        }
      ],
      "stateMutability": "pure"
    },
    {
      "type": "function",
      "name": "hashOperationBatch",
      "inputs": [
        {
          "name": "targets",
          "type": "address[]",
          "internalType": "address[]"
        },
        {
          "name": "values",
          "type": "uint256[]",
          "internalType": "uint256[]"
        },
        {
          "name": "payloads",
          "type": "bytes[]",
          "internalType": "bytes[]"
        },
        {
          "name": "predecessor",
          "type": "bytes32",
          "internalType": "bytes32"
        },
        {
          "name": "salt",
          "type": "bytes32",
          "internalType": "bytes32"
        }
      ],
      "outputs": [
        {
          "name": "",
          "type": "bytes32",
          "internalType": "bytes32"
        }
      ],
      "stateMutability": "pure"
    },
    {
      "type": "function",
      "name": "initialize",
      "inputs": [
        {
          "name": "minDelay",
          "type": "uint256",
          "internalType": "uint256"
        },
        {
          "name": "proposers",
          "type": "address[]",
          "internalType": "address[]"
        },
        {
          "name": "executors",
          "type": "address[]",
          "internalType": "address[]"
        },
        {
          "name": "admin",
          "type": "address",
          "internalType": "address"
        }
      ],
      "outputs": [],
      "stateMutability": "nonpayable"
    },
    {
      "type": "function",
      "name": "isOperation",
      "inputs": [
        {
          "name": "id",
          "type": "bytes32",
          "internalType": "bytes32"
        }
      ],
      "outputs": [
        {
          "name": "",
          "type": "bool",
          "internalType": "bool"
        }
      ],
      "stateMutability": "view"
    },
    {
      "type": "function",
      "name": "isOperationDone",
      "inputs": [
        {
          "name": "id",
          "type": "bytes32",
          "internalType": "bytes32"
        }
      ],
      "outputs": [
        {
          "name": "",
          "type": "bool",
          "internalType": "bool"
        }
      ],
      "stateMutability": "view"
    },
    {
      "type": "function",
      "name": "isOperationPending",
      "inputs": [
        {
          "name": "id",
          "type": "bytes32",
          "internalType": "bytes32"
        }
      ],
      "outputs": [
        {
          "name": "",
          "type": "bool",
          "internalType": "bool"
        }
      ],
      "stateMutability": "view"
    },
    {
      "type": "function",
      "name": "isOperationReady",
      "inputs": [
        {
          "name": "id",
          "type": "bytes32",
          "internalType": "bytes32"
        }
      ],
      "outputs": [
        {
          "name": "",
          "type": "bool",
          "internalType": "bool"
        }
      ],
      "stateMutability": "view"
    },
    {
      "type": "function",
      "name": "onERC1155BatchReceived",
      "inputs": [
        {
          "name": "",
          "type": "address",
          "internalType": "address"
        },
        {
          "name": "",
          "type": "address",
          "internalType": "address"
        },
        {
          "name": "",
          "type": "uint256[]",
          "internalType": "uint256[]"
        },
        {
          "name": "",
          "type": "uint256[]",
          "internalType": "uint256[]"
        },
        {
          "name": "",
          "type": "bytes",
          "internalType": "bytes"
        }
      ],
      "outputs": [
        {
          "name": "",
          "type": "bytes4",
          "internalType": "bytes4"
        }
      ],
      "stateMutability": "nonpayable"
    },
    {
      "type": "function",
      "name": "onERC1155Received",
      "inputs": [
        {
          "name": "",
          "type": "address",
          "internalType": "address"
        },
        {
          "name": "",
          "type": "address",
          "internalType": "address"
        },
        {
          "name": "",
          "type": "uint256",
          "internalType": "uint256"
        },
        {
          "name": "",
          "type": "uint256",
          "internalType": "uint256"
        },
        {
          "name": "",
          "type": "bytes",
          "internalType": "bytes"
        }
      ],
      "outputs": [
        {
          "name": "",
          "type": "bytes4",
          "internalType": "bytes4"
        }
      ],
      "stateMutability": "nonpayable"
    },
    {
      "type": "function",
      "name": "onERC721Received",
      "inputs": [
        {
          "name": "",
          "type": "address",
          "internalType": "address"
        },
        {
          "name": "",
          "type": "address",
          "internalType": "address"
        },
        {
          "name": "",
          "type": "uint256",
          "internalType": "uint256"
        },
        {
          "name": "",
          "type": "bytes",
          "internalType": "bytes"
        }
      ],
      "outputs": [
        {
          "name": "",
          "type": "bytes4",
          "internalType": "bytes4"
        }
      ],
      "stateMutability": "nonpayable"
    },
    {
      "type": "function",
      "name": "proxiableUUID",
      "inputs": [],
      "outputs": [
        {
          "name": "",
          "type": "bytes32",
          "internalType": "bytes32"
        }
      ],
      "stateMutability": "view"
    },
    {
      "type": "function",
      "name": "renounceRole",
      "inputs": [
        {
          "name": "role",
          "type": "bytes32",
          "internalType": "bytes32"
        },
        {
          "name": "callerConfirmation",
          "type": "address",
          "internalType": "address"
        }
      ],
      "outputs": [],
      "stateMutability": "nonpayable"
    },
    {
      "type": "function",
      "name": "revokeRole",
      "inputs": [
        {
          "name": "role",
          "type": "bytes32",
          "internalType": "bytes32"
        },
        {
          "name": "account",
          "type": "address",
          "internalType": "address"
        }
      ],
      "outputs": [],
      "stateMutability": "nonpayable"
    },
    {
      "type": "function",
      "name": "schedule",
      "inputs": [
        {
          "name": "target",
          "type": "address",
          "internalType": "address"
        },
        {
          "name": "value",
          "type": "uint256",
          "internalType": "uint256"
        },
        {
          "name": "data",
          "type": "bytes",
          "internalType": "bytes"
        },
        {
          "name": "predecessor",
          "type": "bytes32",
          "internalType": "bytes32"
        },
        {
          "name": "salt",
          "type": "bytes32",
          "internalType": "bytes32"
        },
        {
          "name": "delay",
          "type": "uint256",
          "internalType": "uint256"
        }
      ],
      "outputs": [],
      "stateMutability": "nonpayable"
    },
    {
      "type": "function",
      "name": "scheduleBatch",
      "inputs": [
        {
          "name": "targets",
          "type": "address[]",
          "internalType": "address[]"
        },
        {
          "name": "values",
          "type": "uint256[]",
          "internalType": "uint256[]"
        },
        {
          "name": "payloads",
          "type": "bytes[]",
          "internalType": "bytes[]"
        },
        {
          "name": "predecessor",
          "type": "bytes32",
          "internalType": "bytes32"
        },
        {
          "name": "salt",
          "type": "bytes32",
          "internalType": "bytes32"
        },
        {
          "name": "delay",
          "type": "uint256",
          "internalType": "uint256"
        }
      ],
      "outputs": [],
      "stateMutability": "nonpayable"
    },
    {
      "type": "function",
      "name": "supportsInterface",
      "inputs": [
        {
          "name": "interfaceId",
          "type": "bytes4",
          "internalType": "bytes4"
        }
      ],
      "outputs": [
        {
          "name": "",
          "type": "bool",
          "internalType": "bool"
        }
      ],
      "stateMutability": "view"
    },
    {
      "type": "function",
      "name": "updateDelay",
      "inputs": [
        {
          "name": "newDelay",
          "type": "uint256",
          "internalType": "uint256"
        }
      ],
      "outputs": [],
      "stateMutability": "nonpayable"
    },
    {
      "type": "function",
      "name": "upgradeToAndCall",
      "inputs": [
        {
          "name": "newImplementation",
          "type": "address",
          "internalType": "address"
        },
        {
          "name": "data",
          "type": "bytes",
          "internalType": "bytes"
        }
      ],
      "outputs": [],
      "stateMutability": "payable"
    },
    {
      "type": "event",
      "name": "CallExecuted",
      "inputs": [
        {
          "name": "id",
          "type": "bytes32",
          "indexed": true,
          "internalType": "bytes32"
        },
        {
          "name": "index",
          "type": "uint256",
          "indexed": true,
          "internalType": "uint256"
        },
        {
          "name": "target",
          "type": "address",
          "indexed": false,
          "internalType": "address"
        },
        {
          "name": "value",
          "type": "uint256",
          "indexed": false,
          "internalType": "uint256"
        },
        {
          "name": "data",
          "type": "bytes",
          "indexed": false,
          "internalType": "bytes"
        }
      ],
      "anonymous": false
    },
    {
      "type": "event",
      "name": "CallSalt",
      "inputs": [
        {
          "name": "id",
          "type": "bytes32",
          "indexed": true,
          "internalType": "bytes32"
        },
        {
          "name": "salt",
          "type": "bytes32",
          "indexed": false,
          "internalType": "bytes32"
        }
      ],
      "anonymous": false
    },
    {
      "type": "event",
      "name": "CallScheduled",
      "inputs": [
        {
          "name": "id",
          "type": "bytes32",
          "indexed": true,
          "internalType": "bytes32"
        },
        {
          "name": "index",
          "type": "uint256",
          "indexed": true,
          "internalType": "uint256"
        },
        {
          "name": "target",
          "type": "address",
          "indexed": false,
          "internalType": "address"
        },
        {
          "name": "value",
          "type": "uint256",
          "indexed": false,
          "internalType": "uint256"
        },
        {
          "name": "data",
          "type": "bytes",
          "indexed": false,
          "internalType": "bytes"
        },
        {
          "name": "predecessor",
          "type": "bytes32",
          "indexed": false,
          "internalType": "bytes32"
        },
        {
          "name": "delay",
          "type": "uint256",
          "indexed": false,
          "internalType": "uint256"
        }
      ],
      "anonymous": false
    },
    {
      "type": "event",
      "name": "Cancelled",
      "inputs": [
        {
          "name": "id",
          "type": "bytes32",
          "indexed": true,
          "internalType": "bytes32"
        }
      ],
      "anonymous": false
    },
    {
      "type": "event",
      "name": "Initialized",
      "inputs": [
        {
          "name": "version",
          "type": "uint64",
          "indexed": false,
          "internalType": "uint64"
        }
      ],
      "anonymous": false
    },
    {
      "type": "event",
      "name": "MinDelayChange",
      "inputs": [
        {
          "name": "oldDuration",
          "type": "uint256",
          "indexed": false,
          "internalType": "uint256"
        },
        {
          "name": "newDuration",
          "type": "uint256",
          "indexed": false,
          "internalType": "uint256"
        }
      ],
      "anonymous": false
    },
    {
      "type": "event",
      "name": "RoleAdminChanged",
      "inputs": [
        {
          "name": "role",
          "type": "bytes32",
          "indexed": true,
          "internalType": "bytes32"
        },
        {
          "name": "previousAdminRole",
          "type": "bytes32",
          "indexed": true,
          "internalType": "bytes32"
        },
        {
          "name": "newAdminRole",
          "type": "bytes32",
          "indexed": true,
          "internalType": "bytes32"
        }
      ],
      "anonymous": false
    },
    {
      "type": "event",
      "name": "RoleGranted",
      "inputs": [
        {
          "name": "role",
          "type": "bytes32",
          "indexed": true,
          "internalType": "bytes32"
        },
        {
          "name": "account",
          "type": "address",
          "indexed": true,
          "internalType": "address"
        },
        {
          "name": "sender",
          "type": "address",
          "indexed": true,
          "internalType": "address"
        }
      ],
      "anonymous": false
    },
    {
      "type": "event",
      "name": "RoleRevoked",
      "inputs": [
        {
          "name": "role",
          "type": "bytes32",
          "indexed": true,
          "internalType": "bytes32"
        },
        {
          "name": "account",
          "type": "address",
          "indexed": true,
          "internalType": "address"
        },
        {
          "name": "sender",
          "type": "address",
          "indexed": true,
          "internalType": "address"
        }
      ],
      "anonymous": false
    },
    {
      "type": "event",
      "name": "Upgraded",
      "inputs": [
        {
          "name": "implementation",
          "type": "address",
          "indexed": true,
          "internalType": "address"
        }
      ],
      "anonymous": false
    },
    {
      "type": "error",
      "name": "AccessControlBadConfirmation",
      "inputs": []
    },
    {
      "type": "error",
      "name": "AccessControlUnauthorizedAccount",
      "inputs": [
        {
          "name": "account",
          "type": "address",
          "internalType": "address"
        },
        {
          "name": "neededRole",
          "type": "bytes32",
          "internalType": "bytes32"
        }
      ]
    },
    {
      "type": "error",
      "name": "AddressEmptyCode",
      "inputs": [
        {
          "name": "target",
          "type": "address",
          "internalType": "address"
        }
      ]
    },
    {
      "type": "error",
      "name": "ERC1967InvalidImplementation",
      "inputs": [
        {
          "name": "implementation",
          "type": "address",
          "internalType": "address"
        }
      ]
    },
    {
      "type": "error",
      "name": "ERC1967NonPayable",
      "inputs": []
    },
    {
      "type": "error",
      "name": "FailedInnerCall",
      "inputs": []
    },
    {
      "type": "error",
      "name": "InvalidInitialization",
      "inputs": []
    },
    {
      "type": "error",
      "name": "NotInitializing",
      "inputs": []
    },
    {
      "type": "error",
      "name": "TimelockInsufficientDelay",
      "inputs": [
        {
          "name": "delay",
          "type": "uint256",
          "internalType": "uint256"
        },
        {
          "name": "minDelay",
          "type": "uint256",
          "internalType": "uint256"
        }
      ]
    },
    {
      "type": "error",
      "name": "TimelockInvalidOperationLength",
      "inputs": [
        {
          "name": "targets",
          "type": "uint256",
          "internalType": "uint256"
        },
        {
          "name": "payloads",
          "type": "uint256",
          "internalType": "uint256"
        },
        {
          "name": "values",
          "type": "uint256",
          "internalType": "uint256"
        }
      ]
    },
    {
      "type": "error",
      "name": "TimelockUnauthorizedCaller",
      "inputs": [
        {
          "name": "caller",
          "type": "address",
          "internalType": "address"
        }
      ]
    },
    {
      "type": "error",
      "name": "TimelockUnexecutedPredecessor",
      "inputs": [
        {
          "name": "predecessorId",
          "type": "bytes32",
          "internalType": "bytes32"
        }
      ]
    },
    {
      "type": "error",
      "name": "TimelockUnexpectedOperationState",
      "inputs": [
        {
          "name": "operationId",
          "type": "bytes32",
          "internalType": "bytes32"
        },
        {
          "name": "expectedStates",
          "type": "bytes32",
          "internalType": "bytes32"
        }
      ]
    },
    {
      "type": "error",
      "name": "UUPSUnauthorizedCallContext",
      "inputs": []
    },
    {
      "type": "error",
      "name": "UUPSUnsupportedProxiableUUID",
      "inputs": [
        {
          "name": "slot",
          "type": "bytes32",
          "internalType": "bytes32"
        }
      ]
    }
  ],
  "bytecode": {
    "object": "0x60a06040523060805234801561001457600080fd5b5061001d610022565b6100d4565b7ff0c57e16840df040f15088dc2f81fe391c3923bec73e23a9662efc9c229c6a00805468010000000000000000900460ff16156100725760405163f92ee8a960e01b815260040160405180910390fd5b80546001600160401b03908116146100d15780546001600160401b0319166001600160401b0390811782556040519081527fc7f505b2f371ae2175ee4913f4499e1f2633a7b5936321eed1cdaeb6115181d29060200160405180910390a15b50565b608051612ddc6100fd600039600081816119360152818161195f0152611b800152612ddc6000f3fe60806040526004361061021d5760003560e01c80638f2a0bb01161011d578063bc197c81116100b0578063d547741f1161007f578063f23a6e6111610064578063f23a6e61146107c0578063f27a0c9214610805578063ffa1ad741461083957600080fd5b8063d547741f1461078d578063e38335e5146107ad57600080fd5b8063bc197c81146106bc578063c4c4c7b314610701578063c4d252f514610721578063d45c44351461074157600080fd5b8063a3f4df7e116100ec578063a3f4df7e146105c9578063ad3cb1cc1461061f578063b08e51c014610668578063b1c5f4271461069c57600080fd5b80638f2a0bb0146104ee5780638f61f4f51461050e57806391d1485414610542578063a217fddf146105b457600080fd5b80632f2ff15d116101b057806352d1902d1161017f57806364d623531161016457806364d62353146104815780637958004c146104a15780638065657f146104ce57600080fd5b806352d1902d1461044c578063584b153e1461046157600080fd5b80632f2ff15d146103d957806331d50750146103f957806336568abe146104195780634f1ef2861461043957600080fd5b806313bc9f20116101ec57806313bc9f20146102d5578063150b7a02146102f5578063248a9ca31461036a5780632ab0f529146103b957600080fd5b806301d5062a1461022957806301ffc9a71461024b57806307bd026514610280578063134008d3146102c257600080fd5b3661022457005b600080fd5b34801561023557600080fd5b506102496102443660046121e2565b610882565b005b34801561025757600080fd5b5061026b610266366004612257565b610958565b60405190151581526020015b60405180910390f35b34801561028c57600080fd5b506102b47fd8aa0f3194971a2a116679f7c2090f6939c8d4e01a2a8d7e41d55e5351469e6381565b604051908152602001610277565b6102496102d0366004612299565b610969565b3480156102e157600080fd5b5061026b6102f0366004612305565b610a61565b34801561030157600080fd5b5061033961031036600461242a565b7f150b7a0200000000000000000000000000000000000000000000000000000000949350505050565b6040517fffffffff000000000000000000000000000000000000000000000000000000009091168152602001610277565b34801561037657600080fd5b506102b4610385366004612305565b60009081527f02dd7bc7dec4dceedda775e58dd541e08a116c6c53815c0bd028192f7b626800602052604090206001015490565b3480156103c557600080fd5b5061026b6103d4366004612305565b610a87565b3480156103e557600080fd5b506102496103f4366004612492565b610a90565b34801561040557600080fd5b5061026b610414366004612305565b610ada565b34801561042557600080fd5b50610249610434366004612492565b610aff565b6102496104473660046124be565b610b5d565b34801561045857600080fd5b506102b4610b7c565b34801561046d57600080fd5b5061026b61047c366004612305565b610bab565b34801561048d57600080fd5b5061024961049c366004612305565b610bf1565b3480156104ad57600080fd5b506104c16104bc366004612305565b610cae565b604051610277919061253b565b3480156104da57600080fd5b506102b46104e9366004612299565b610d18565b3480156104fa57600080fd5b506102496105093660046125c1565b610d57565b34801561051a57600080fd5b506102b47fb09aa5aeb3702cfd50b6b62bc4532604938f21248a27a1d5ca736082b6819cc181565b34801561054e57600080fd5b5061026b61055d366004612492565b60009182527f02dd7bc7dec4dceedda775e58dd541e08a116c6c53815c0bd028192f7b6268006020908152604080842073ffffffffffffffffffffffffffffffffffffffff93909316845291905290205460ff1690565b3480156105c057600080fd5b506102b4600081565b3480156105d557600080fd5b506106126040518060400160405280601781526020017f4c6967687450726f746f636f6c436f6e74726f6c6c657200000000000000000081525081565b60405161027791906126a3565b34801561062b57600080fd5b506106126040518060400160405280600581526020017f352e302e3000000000000000000000000000000000000000000000000000000081525081565b34801561067457600080fd5b506102b47ffd643c72710c63c0180259aba6b2d05451e3591a24e58b62239378085726f78381565b3480156106a857600080fd5b506102b46106b73660046126f4565b610efb565b3480156106c857600080fd5b506103396106d736600461283a565b7fbc197c810000000000000000000000000000000000000000000000000000000095945050505050565b34801561070d57600080fd5b5061024961071c366004612955565b610f40565b34801561072d57600080fd5b5061024961073c366004612305565b6110cd565b34801561074d57600080fd5b506102b461075c366004612305565b60009081527f9a37c2aa9d186a0969ff8a8267bf4e07e864c2f2768f5040949e28a624fb3600602052604090205490565b34801561079957600080fd5b506102496107a8366004612492565b6111b3565b6102496107bb3660046126f4565b6111f7565b3480156107cc57600080fd5b506103396107db3660046129d8565b7ff23a6e610000000000000000000000000000000000000000000000000000000095945050505050565b34801561081157600080fd5b507f9a37c2aa9d186a0969ff8a8267bf4e07e864c2f2768f5040949e28a624fb3601546102b4565b34801561084557600080fd5b506106126040518060400160405280600581526020017f302e312e3000000000000000000000000000000000000000000000000000000081525081565b7fb09aa5aeb3702cfd50b6b62bc4532604938f21248a27a1d5ca736082b6819cc16108ac816113d7565b60006108bc898989898989610d18565b90506108c881846113e4565b6000817f4cf4410cc57040e44862ef0f45f3dd5a5e02db8eb8add648d4b0e236f1d07dca8b8b8b8b8b8a60405161090496959493929190612a7a565b60405180910390a3831561094d57807f20fda5fd27a1ea7bf5b9567f143ac5470bb059374a27e8f67cb44f946f6d03878560405161094491815260200190565b60405180910390a25b505050505050505050565b6000610963826114eb565b92915050565b600080527f52fce5e8a5d0d9e8d1ea29f4525e512e9c27bf92cae50374d497f918ab48f3826020527fdd1864c1ab258d549957f6a4d7e3a5005661df58241dbbc1700fb170ef061546547fd8aa0f3194971a2a116679f7c2090f6939c8d4e01a2a8d7e41d55e5351469e639060ff166109e6576109e68133611541565b60006109f6888888888888610d18565b9050610a0281856115e8565b610a0e8888888861164f565b6000817fc2617efa69bab66782fa219543714338489c4e9e178271560a91b82c3f612b588a8a8a8a604051610a469493929190612ac5565b60405180910390a3610a57816116d4565b5050505050505050565b600060025b610a6f83610cae565b6003811115610a8057610a8061250c565b1492915050565b60006003610a66565b60008281527f02dd7bc7dec4dceedda775e58dd541e08a116c6c53815c0bd028192f7b6268006020526040902060010154610aca816113d7565b610ad4838361171f565b50505050565b600080610ae683610cae565b6003811115610af757610af761250c565b141592915050565b73ffffffffffffffffffffffffffffffffffffffff81163314610b4e576040517f6697b23200000000000000000000000000000000000000000000000000000000815260040160405180910390fd5b610b588282611840565b505050565b610b6561191e565b610b6e82611a24565b610b788282611a2f565b5050565b6000610b86611b68565b507f360894a13ba1a3210667c828492db98dca3e2076cc3735a920a3ca505d382bbc90565b600080610bb783610cae565b90506001816003811115610bcd57610bcd61250c565b1480610bea57506002816003811115610be857610be861250c565b145b9392505050565b7f9a37c2aa9d186a0969ff8a8267bf4e07e864c2f2768f5040949e28a624fb360033308114610c69576040517fe2850c5900000000000000000000000000000000000000000000000000000000815273ffffffffffffffffffffffffffffffffffffffff821660048201526024015b60405180910390fd5b600182015460408051918252602082018590527f11c24f4ead16507c69ac467fbd5e4eed5fb5c699626d2cc6d66421df253886d5910160405180910390a15060010155565b60008181527f9a37c2aa9d186a0969ff8a8267bf4e07e864c2f2768f5040949e28a624fb3600602052604081205480600003610ced5750600092915050565b60018103610cfe5750600392915050565b42811115610d0f5750600192915050565b50600292915050565b6000868686868686604051602001610d3596959493929190612a7a565b6040516020818303038152906040528051906020012090509695505050505050565b7fb09aa5aeb3702cfd50b6b62bc4532604938f21248a27a1d5ca736082b6819cc1610d81816113d7565b8887141580610d905750888514155b15610dd8576040517fffb03211000000000000000000000000000000000000000000000000000000008152600481018a90526024810186905260448101889052606401610c60565b6000610dea8b8b8b8b8b8b8b8b610efb565b9050610df681846113e4565b60005b8a811015610eac5780827f4cf4410cc57040e44862ef0f45f3dd5a5e02db8eb8add648d4b0e236f1d07dca8e8e85818110610e3657610e36612b05565b9050602002016020810190610e4b9190612b34565b8d8d86818110610e5d57610e5d612b05565b905060200201358c8c87818110610e7657610e76612b05565b9050602002810190610e889190612b4f565b8c8b604051610e9c96959493929190612a7a565b60405180910390a3600101610df9565b508315610eee57807f20fda5fd27a1ea7bf5b9567f143ac5470bb059374a27e8f67cb44f946f6d038785604051610ee591815260200190565b60405180910390a25b5050505050505050505050565b60008888888888888888604051602001610f1c989796959493929190612c89565b60405160208183030381529060405280519060200120905098975050505050505050565b7ff0c57e16840df040f15088dc2f81fe391c3923bec73e23a9662efc9c229c6a00805468010000000000000000810460ff16159067ffffffffffffffff16600081158015610f8b5750825b905060008267ffffffffffffffff166001148015610fa85750303b155b905081158015610fb6575080155b15610fed576040517ff92ee8a900000000000000000000000000000000000000000000000000000000815260040160405180910390fd5b84547fffffffffffffffffffffffffffffffffffffffffffffffff0000000000000000166001178555831561104e5784547fffffffffffffffffffffffffffffffffffffffffffffff00ffffffffffffffff16680100000000000000001785555b611056611bd7565b61106289898989611bdf565b831561094d5784547fffffffffffffffffffffffffffffffffffffffffffffff00ffffffffffffffff168555604051600181527fc7f505b2f371ae2175ee4913f4499e1f2633a7b5936321eed1cdaeb6115181d29060200160405180910390a1505050505050505050565b7ffd643c72710c63c0180259aba6b2d05451e3591a24e58b62239378085726f7836110f7816113d7565b7f9a37c2aa9d186a0969ff8a8267bf4e07e864c2f2768f5040949e28a624fb360061112183610bab565b61117657826111306002611bf3565b61113a6001611bf3565b6040517f5ead8eb50000000000000000000000000000000000000000000000000000000081526004810193909352176024820152604401610c60565b6000838152602082905260408082208290555184917fbaa1eb22f2a492ba1a5fea61b8df4d27c6c8b5f3971e63bb58fa14ff72eedb7091a2505050565b60008281527f02dd7bc7dec4dceedda775e58dd541e08a116c6c53815c0bd028192f7b62680060205260409020600101546111ed816113d7565b610ad48383611840565b600080527f52fce5e8a5d0d9e8d1ea29f4525e512e9c27bf92cae50374d497f918ab48f3826020527fdd1864c1ab258d549957f6a4d7e3a5005661df58241dbbc1700fb170ef061546547fd8aa0f3194971a2a116679f7c2090f6939c8d4e01a2a8d7e41d55e5351469e639060ff16611274576112748133611541565b87861415806112835750878414155b156112cb576040517fffb03211000000000000000000000000000000000000000000000000000000008152600481018990526024810185905260448101879052606401610c60565b60006112dd8a8a8a8a8a8a8a8a610efb565b90506112e981856115e8565b60005b898110156113c15760008b8b8381811061130857611308612b05565b905060200201602081019061131d9190612b34565b905060008a8a8481811061133357611333612b05565b9050602002013590503660008a8a8681811061135157611351612b05565b90506020028101906113639190612b4f565b915091506113738484848461164f565b84867fc2617efa69bab66782fa219543714338489c4e9e178271560a91b82c3f612b58868686866040516113aa9493929190612ac5565b60405180910390a3505050508060010190506112ec565b506113cb816116d4565b50505050505050505050565b6113e18133611541565b50565b7f9a37c2aa9d186a0969ff8a8267bf4e07e864c2f2768f5040949e28a624fb360061140e83610ada565b15611459578261141e6000611bf3565b6040517f5ead8eb500000000000000000000000000000000000000000000000000000000815260048101929092526024820152604401610c60565b60006114837f9a37c2aa9d186a0969ff8a8267bf4e07e864c2f2768f5040949e28a624fb36015490565b9050808310156114c9576040517f543366090000000000000000000000000000000000000000000000000000000081526004810184905260248101829052604401610c60565b6114d38342612d50565b60009485526020929092525060409092209190915550565b60007fffffffff0000000000000000000000000000000000000000000000000000000082167f4e2312e0000000000000000000000000000000000000000000000000000000001480610963575061096382611c16565b60008281527f02dd7bc7dec4dceedda775e58dd541e08a116c6c53815c0bd028192f7b6268006020908152604080832073ffffffffffffffffffffffffffffffffffffffff8516845290915290205460ff16610b78576040517fe2517d3f00000000000000000000000000000000000000000000000000000000815273ffffffffffffffffffffffffffffffffffffffff8216600482015260248101839052604401610c60565b6115f182610a61565b611600578161141e6002611bf3565b8015801590611615575061161381610a87565b155b15610b78576040517f90a9a61800000000000000000000000000000000000000000000000000000000815260048101829052602401610c60565b6000808573ffffffffffffffffffffffffffffffffffffffff1685858560405161167a929190612d8a565b60006040518083038185875af1925050503d80600081146116b7576040519150601f19603f3d011682016040523d82523d6000602084013e6116bc565b606091505b50915091506116cb8282611cad565b50505050505050565b7f9a37c2aa9d186a0969ff8a8267bf4e07e864c2f2768f5040949e28a624fb36006116fe82610a61565b61170d578161141e6002611bf3565b60009182526020526040902060019055565b60008281527f02dd7bc7dec4dceedda775e58dd541e08a116c6c53815c0bd028192f7b6268006020818152604080842073ffffffffffffffffffffffffffffffffffffffff8616855290915282205460ff166118365760008481526020828152604080832073ffffffffffffffffffffffffffffffffffffffff87168452909152902080547fffffffffffffffffffffffffffffffffffffffffffffffffffffffffffffff001660011790556117d23390565b73ffffffffffffffffffffffffffffffffffffffff168373ffffffffffffffffffffffffffffffffffffffff16857f2f8788117e7eff1d82e926ec794901d17c78024a50270940304540a733656f0d60405160405180910390a46001915050610963565b6000915050610963565b60008281527f02dd7bc7dec4dceedda775e58dd541e08a116c6c53815c0bd028192f7b6268006020818152604080842073ffffffffffffffffffffffffffffffffffffffff8616855290915282205460ff16156118365760008481526020828152604080832073ffffffffffffffffffffffffffffffffffffffff8716808552925280832080547fffffffffffffffffffffffffffffffffffffffffffffffffffffffffffffff0016905551339287917ff6391f5c32d9c69d2a47ea670b442974b53935d1edc7fd64eb21e047a839171b9190a46001915050610963565b3073ffffffffffffffffffffffffffffffffffffffff7f00000000000000000000000000000000000000000000000000000000000000001614806119eb57507f000000000000000000000000000000000000000000000000000000000000000073ffffffffffffffffffffffffffffffffffffffff166119d27f360894a13ba1a3210667c828492db98dca3e2076cc3735a920a3ca505d382bbc5473ffffffffffffffffffffffffffffffffffffffff1690565b73ffffffffffffffffffffffffffffffffffffffff1614155b15611a22576040517fe07c8dba00000000000000000000000000000000000000000000000000000000815260040160405180910390fd5b565b6000610b78816113d7565b8173ffffffffffffffffffffffffffffffffffffffff166352d1902d6040518163ffffffff1660e01b8152600401602060405180830381865afa925050508015611ab4575060408051601f3d9081017fffffffffffffffffffffffffffffffffffffffffffffffffffffffffffffffe0168201909252611ab191810190612d9a565b60015b611b02576040517f4c9c8ce300000000000000000000000000000000000000000000000000000000815273ffffffffffffffffffffffffffffffffffffffff83166004820152602401610c60565b7f360894a13ba1a3210667c828492db98dca3e2076cc3735a920a3ca505d382bbc8114611b5e576040517faa1d49a400000000000000000000000000000000000000000000000000000000815260048101829052602401610c60565b610b588383611cc9565b3073ffffffffffffffffffffffffffffffffffffffff7f00000000000000000000000000000000000000000000000000000000000000001614611a22576040517fe07c8dba00000000000000000000000000000000000000000000000000000000815260040160405180910390fd5b611a22611d2c565b611be7611d2c565b610ad484848484611d93565b6000816003811115611c0757611c0761250c565b600160ff919091161b92915050565b60007fffffffff0000000000000000000000000000000000000000000000000000000082167f7965db0b00000000000000000000000000000000000000000000000000000000148061096357507f01ffc9a7000000000000000000000000000000000000000000000000000000007fffffffff00000000000000000000000000000000000000000000000000000000831614610963565b606082611cc257611cbd82611f15565b610963565b5080610963565b611cd282611f57565b60405173ffffffffffffffffffffffffffffffffffffffff8316907fbc7cd75a20ee27fd9adebab32041f755214dbc6bffa90cc0225b39da2e5c2d3b90600090a2805115611d2457610b588282612026565b610b786120a9565b7ff0c57e16840df040f15088dc2f81fe391c3923bec73e23a9662efc9c229c6a005468010000000000000000900460ff16611a22576040517fd7e6bcf800000000000000000000000000000000000000000000000000000000815260040160405180910390fd5b611d9b611d2c565b7f9a37c2aa9d186a0969ff8a8267bf4e07e864c2f2768f5040949e28a624fb3600611dc760003061171f565b5073ffffffffffffffffffffffffffffffffffffffff821615611df157611def60008361171f565b505b60005b8451811015611e8057611e407fb09aa5aeb3702cfd50b6b62bc4532604938f21248a27a1d5ca736082b6819cc1868381518110611e3357611e33612b05565b602002602001015161171f565b50611e777ffd643c72710c63c0180259aba6b2d05451e3591a24e58b62239378085726f783868381518110611e3357611e33612b05565b50600101611df4565b5060005b8351811015611ecc57611ec37fd8aa0f3194971a2a116679f7c2090f6939c8d4e01a2a8d7e41d55e5351469e63858381518110611e3357611e33612b05565b50600101611e84565b50600181018590556040805160008152602081018790527f11c24f4ead16507c69ac467fbd5e4eed5fb5c699626d2cc6d66421df253886d5910160405180910390a15050505050565b805115611f255780518082602001fd5b6040517f1425ea4200000000000000000000000000000000000000000000000000000000815260040160405180910390fd5b8073ffffffffffffffffffffffffffffffffffffffff163b600003611fc0576040517f4c9c8ce300000000000000000000000000000000000000000000000000000000815273ffffffffffffffffffffffffffffffffffffffff82166004820152602401610c60565b7f360894a13ba1a3210667c828492db98dca3e2076cc3735a920a3ca505d382bbc80547fffffffffffffffffffffffff00000000000000000000000000000000000000001673ffffffffffffffffffffffffffffffffffffffff92909216919091179055565b60606000808473ffffffffffffffffffffffffffffffffffffffff16846040516120509190612db3565b600060405180830381855af49150503d806000811461208b576040519150601f19603f3d011682016040523d82523d6000602084013e612090565b606091505b50915091506120a08583836120e1565b95945050505050565b3415611a22576040517fb398979f00000000000000000000000000000000000000000000000000000000815260040160405180910390fd5b6060826120f6576120f182611f15565b610bea565b815115801561211a575073ffffffffffffffffffffffffffffffffffffffff84163b155b15612169576040517f9996b31500000000000000000000000000000000000000000000000000000000815273ffffffffffffffffffffffffffffffffffffffff85166004820152602401610c60565b5092915050565b803573ffffffffffffffffffffffffffffffffffffffff8116811461219457600080fd5b919050565b60008083601f8401126121ab57600080fd5b50813567ffffffffffffffff8111156121c357600080fd5b6020830191508360208285010111156121db57600080fd5b9250929050565b600080600080600080600060c0888a0312156121fd57600080fd5b61220688612170565b965060208801359550604088013567ffffffffffffffff81111561222957600080fd5b6122358a828b01612199565b989b979a50986060810135976080820135975060a09091013595509350505050565b60006020828403121561226957600080fd5b81357fffffffff0000000000000000000000000000000000000000000000000000000081168114610bea57600080fd5b60008060008060008060a087890312156122b257600080fd5b6122bb87612170565b955060208701359450604087013567ffffffffffffffff8111156122de57600080fd5b6122ea89828a01612199565b979a9699509760608101359660809091013595509350505050565b60006020828403121561231757600080fd5b5035919050565b7f4e487b7100000000000000000000000000000000000000000000000000000000600052604160045260246000fd5b604051601f82017fffffffffffffffffffffffffffffffffffffffffffffffffffffffffffffffe016810167ffffffffffffffff811182821017156123945761239461231e565b604052919050565b600082601f8301126123ad57600080fd5b813567ffffffffffffffff8111156123c7576123c761231e565b6123f860207fffffffffffffffffffffffffffffffffffffffffffffffffffffffffffffffe0601f8401160161234d565b81815284602083860101111561240d57600080fd5b816020850160208301376000918101602001919091529392505050565b6000806000806080858703121561244057600080fd5b61244985612170565b935061245760208601612170565b925060408501359150606085013567ffffffffffffffff81111561247a57600080fd5b6124868782880161239c565b91505092959194509250565b600080604083850312156124a557600080fd5b823591506124b560208401612170565b90509250929050565b600080604083850312156124d157600080fd5b6124da83612170565b9150602083013567ffffffffffffffff8111156124f657600080fd5b6125028582860161239c565b9150509250929050565b7f4e487b7100000000000000000000000000000000000000000000000000000000600052602160045260246000fd5b6020810160048310612576577f4e487b7100000000000000000000000000000000000000000000000000000000600052602160045260246000fd5b91905290565b60008083601f84011261258e57600080fd5b50813567ffffffffffffffff8111156125a657600080fd5b6020830191508360208260051b85010111156121db57600080fd5b600080600080600080600080600060c08a8c0312156125df57600080fd5b893567ffffffffffffffff8111156125f657600080fd5b6126028c828d0161257c565b909a5098505060208a013567ffffffffffffffff81111561262257600080fd5b61262e8c828d0161257c565b90985096505060408a013567ffffffffffffffff81111561264e57600080fd5b61265a8c828d0161257c565b9a9d999c50979a969997986060880135976080810135975060a0013595509350505050565b60005b8381101561269a578181015183820152602001612682565b50506000910152565b60208152600082518060208401526126c281604085016020870161267f565b601f017fffffffffffffffffffffffffffffffffffffffffffffffffffffffffffffffe0169190910160400192915050565b60008060008060008060008060a0898b03121561271057600080fd5b883567ffffffffffffffff81111561272757600080fd5b6127338b828c0161257c565b909950975050602089013567ffffffffffffffff81111561275357600080fd5b61275f8b828c0161257c565b909750955050604089013567ffffffffffffffff81111561277f57600080fd5b61278b8b828c0161257c565b999c989b509699959896976060870135966080013595509350505050565b600067ffffffffffffffff8211156127c3576127c361231e565b5060051b60200190565b600082601f8301126127de57600080fd5b81356127f16127ec826127a9565b61234d565b8082825260208201915060208360051b86010192508583111561281357600080fd5b602085015b83811015612830578035835260209283019201612818565b5095945050505050565b600080600080600060a0868803121561285257600080fd5b61285b86612170565b945061286960208701612170565b9350604086013567ffffffffffffffff81111561288557600080fd5b612891888289016127cd565b935050606086013567ffffffffffffffff8111156128ae57600080fd5b6128ba888289016127cd565b925050608086013567ffffffffffffffff8111156128d757600080fd5b6128e38882890161239c565b9150509295509295909350565b600082601f83011261290157600080fd5b813561290f6127ec826127a9565b8082825260208201915060208360051b86010192508583111561293157600080fd5b602085015b838110156128305761294781612170565b835260209283019201612936565b6000806000806080858703121561296b57600080fd5b84359350602085013567ffffffffffffffff81111561298957600080fd5b612995878288016128f0565b935050604085013567ffffffffffffffff8111156129b257600080fd5b6129be878288016128f0565b9250506129cd60608601612170565b905092959194509250565b600080600080600060a086880312156129f057600080fd5b6129f986612170565b9450612a0760208701612170565b93506040860135925060608601359150608086013567ffffffffffffffff8111156128d757600080fd5b8183528181602085013750600060208284010152600060207fffffffffffffffffffffffffffffffffffffffffffffffffffffffffffffffe0601f840116840101905092915050565b73ffffffffffffffffffffffffffffffffffffffff8716815285602082015260a060408201526000612ab060a083018688612a31565b60608301949094525060800152949350505050565b73ffffffffffffffffffffffffffffffffffffffff85168152836020820152606060408201526000612afb606083018486612a31565b9695505050505050565b7f4e487b7100000000000000000000000000000000000000000000000000000000600052603260045260246000fd5b600060208284031215612b4657600080fd5b610bea82612170565b60008083357fffffffffffffffffffffffffffffffffffffffffffffffffffffffffffffffe1843603018112612b8457600080fd5b83018035915067ffffffffffffffff821115612b9f57600080fd5b6020019150368190038213156121db57600080fd5b60008383855260208501945060208460051b8201018360005b86811015612c7d577fffffffffffffffffffffffffffffffffffffffffffffffffffffffffffffffe084840301885281357fffffffffffffffffffffffffffffffffffffffffffffffffffffffffffffffe1873603018112612c2e57600080fd5b860160208101903567ffffffffffffffff811115612c4b57600080fd5b803603821315612c5a57600080fd5b612c65858284612a31565b60209a8b019a90955093909301925050600101612bcd565b50909695505050505050565b60a0808252810188905260008960c08301825b8b811015612cd75773ffffffffffffffffffffffffffffffffffffffff612cc284612170565b16825260209283019290910190600101612c9c565b5083810360208501528881527f07ffffffffffffffffffffffffffffffffffffffffffffffffffffffffffffff891115612d1057600080fd5b8860051b9150818a60208301370182810360209081016040850152612d389082018789612bb4565b60608401959095525050608001529695505050505050565b80820180821115610963577f4e487b7100000000000000000000000000000000000000000000000000000000600052601160045260246000fd5b8183823760009101908152919050565b600060208284031215612dac57600080fd5b5051919050565b60008251612dc581846020870161267f565b919091019291505056fea164736f6c634300081b000a",
    "linkReferences": {}
  },
  "methodIdentifiers": {
    "CANCELLER_ROLE()": "b08e51c0",
    "DEFAULT_ADMIN_ROLE()": "a217fddf",
    "EXECUTOR_ROLE()": "07bd0265",
    "NAME()": "a3f4df7e",
    "PROPOSER_ROLE()": "8f61f4f5",
    "UPGRADE_INTERFACE_VERSION()": "ad3cb1cc",
    "VERSION()": "ffa1ad74",
    "cancel(bytes32)": "c4d252f5",
    "execute(address,uint256,bytes,bytes32,bytes32)": "134008d3",
    "executeBatch(address[],uint256[],bytes[],bytes32,bytes32)": "e38335e5",
    "getMinDelay()": "f27a0c92",
    "getOperationState(bytes32)": "7958004c",
    "getRoleAdmin(bytes32)": "248a9ca3",
    "getTimestamp(bytes32)": "d45c4435",
    "grantRole(bytes32,address)": "2f2ff15d",
    "hasRole(bytes32,address)": "91d14854",
    "hashOperation(address,uint256,bytes,bytes32,bytes32)": "8065657f",
    "hashOperationBatch(address[],uint256[],bytes[],bytes32,bytes32)": "b1c5f427",
    "initialize(uint256,address[],address[],address)": "c4c4c7b3",
    "isOperation(bytes32)": "31d50750",
    "isOperationDone(bytes32)": "2ab0f529",
    "isOperationPending(bytes32)": "584b153e",
    "isOperationReady(bytes32)": "13bc9f20",
    "onERC1155BatchReceived(address,address,uint256[],uint256[],bytes)": "bc197c81",
    "onERC1155Received(address,address,uint256,uint256,bytes)": "f23a6e61",
    "onERC721Received(address,address,uint256,bytes)": "150b7a02",
    "proxiableUUID()": "52d1902d",
    "renounceRole(bytes32,address)": "36568abe",
    "revokeRole(bytes32,address)": "d547741f",
    "schedule(address,uint256,bytes,bytes32,bytes32,uint256)": "01d5062a",
    "scheduleBatch(address[],uint256[],bytes[],bytes32,bytes32,uint256)": "8f2a0bb0",
    "supportsInterface(bytes4)": "01ffc9a7",
    "updateDelay(uint256)": "64d62353",
    "upgradeToAndCall(address,bytes)": "4f1ef286"
  },
  "id": 0
}