{
  "abi": [
    {
      "type": "constructor",
      "inputs": [],
      "stateMutability": "nonpayable"
    },
    {
      "type": "receive",
      "stateMutability": "payable"
    },
    {
      "type": "function",
      "name": "CANCELLER_ROLE",
      "inputs": [],
      "outputs": [
        {
          "name": "",
          "type": "bytes32",
          "internalType": "bytes32"
        }
      ],
      "stateMutability": "view"
    },
    {
      "type": "function",
      "name": "DEFAULT_ADMIN_ROLE",
      "inputs": [],
      "outputs": [
        {
          "name": "",
          "type": "bytes32",
          "internalType": "bytes32"
        }
      ],
      "stateMutability": "view"
    },
    {
      "type": "function",
      "name": "EXECUTOR_ROLE",
      "inputs": [],
      "outputs": [
        {
          "name": "",
          "type": "bytes32",
          "internalType": "bytes32"
        }
      ],
      "stateMutability": "view"
    },
    {
      "type": "function",
      "name": "MIN_DELAY",
      "inputs": [],
      "outputs": [
        {
          "name": "",
          "type": "uint256",
          "internalType": "uint256"
        }
      ],
      "stateMutability": "view"
    },
    {
      "type": "function",
      "name": "NAME",
      "inputs": [],
      "outputs": [
        {
          "name": "",
          "type": "string",
          "internalType": "string"
        }
      ],
      "stateMutability": "view"
    },
    {
      "type": "function",
      "name": "PROPOSER_ROLE",
      "inputs": [],
      "outputs": [
        {
          "name": "",
          "type": "bytes32",
          "internalType": "bytes32"
        }
      ],
      "stateMutability": "view"
    },
    {
      "type": "function",
      "name": "UPGRADE_INTERFACE_VERSION",
      "inputs": [],
      "outputs": [
        {
          "name": "",
          "type": "string",
          "internalType": "string"
        }
      ],
      "stateMutability": "view"
    },
    {
      "type": "function",
      "name": "VERSION",
      "inputs": [],
      "outputs": [
        {
          "name": "",
          "type": "string",
          "internalType": "string"
        }
      ],
      "stateMutability": "view"
    },
    {
      "type": "function",
      "name": "cancel",
      "inputs": [
        {
          "name": "id",
          "type": "bytes32",
          "internalType": "bytes32"
        }
      ],
      "outputs": [],
      "stateMutability": "nonpayable"
    },
    {
      "type": "function",
      "name": "execute",
      "inputs": [
        {
          "name": "target",
          "type": "address",
          "internalType": "address"
        },
        {
          "name": "value",
          "type": "uint256",
          "internalType": "uint256"
        },
        {
          "name": "payload",
          "type": "bytes",
          "internalType": "bytes"
        },
        {
          "name": "predecessor",
          "type": "bytes32",
          "internalType": "bytes32"
        },
        {
          "name": "salt",
          "type": "bytes32",
          "internalType": "bytes32"
        }
      ],
      "outputs": [],
      "stateMutability": "payable"
    },
    {
      "type": "function",
      "name": "executeBatch",
      "inputs": [
        {
          "name": "targets",
          "type": "address[]",
          "internalType": "address[]"
        },
        {
          "name": "values",
          "type": "uint256[]",
          "internalType": "uint256[]"
        },
        {
          "name": "payloads",
          "type": "bytes[]",
          "internalType": "bytes[]"
        },
        {
          "name": "predecessor",
          "type": "bytes32",
          "internalType": "bytes32"
        },
        {
          "name": "salt",
          "type": "bytes32",
          "internalType": "bytes32"
        }
      ],
      "outputs": [],
      "stateMutability": "payable"
    },
    {
      "type": "function",
      "name": "getMinDelay",
      "inputs": [],
      "outputs": [
        {
          "name": "",
          "type": "uint256",
          "internalType": "uint256"
        }
      ],
      "stateMutability": "view"
    },
    {
      "type": "function",
      "name": "getOperationState",
      "inputs": [
        {
          "name": "id",
          "type": "bytes32",
          "internalType": "bytes32"
        }
      ],
      "outputs": [
        {
          "name": "",
          "type": "uint8",
          "internalType": "enum TimelockControllerUpgradeable.OperationState"
        }
      ],
      "stateMutability": "view"
    },
    {
      "type": "function",
      "name": "getRoleAdmin",
      "inputs": [
        {
          "name": "role",
          "type": "bytes32",
          "internalType": "bytes32"
        }
      ],
      "outputs": [
        {
          "name": "",
          "type": "bytes32",
          "internalType": "bytes32"
        }
      ],
      "stateMutability": "view"
    },
    {
      "type": "function",
      "name": "getTimestamp",
      "inputs": [
        {
          "name": "id",
          "type": "bytes32",
          "internalType": "bytes32"
        }
      ],
      "outputs": [
        {
          "name": "",
          "type": "uint256",
          "internalType": "uint256"
        }
      ],
      "stateMutability": "view"
    },
    {
      "type": "function",
      "name": "grantRole",
      "inputs": [
        {
          "name": "role",
          "type": "bytes32",
          "internalType": "bytes32"
        },
        {
          "name": "account",
          "type": "address",
          "internalType": "address"
        }
      ],
      "outputs": [],
      "stateMutability": "nonpayable"
    },
    {
      "type": "function",
      "name": "hasRole",
      "inputs": [
        {
          "name": "role",
          "type": "bytes32",
          "internalType": "bytes32"
        },
        {
          "name": "account",
          "type": "address",
          "internalType": "address"
        }
      ],
      "outputs": [
        {
          "name": "",
          "type": "bool",
          "internalType": "bool"
        }
      ],
      "stateMutability": "view"
    },
    {
      "type": "function",
      "name": "hashOperation",
      "inputs": [
        {
          "name": "target",
          "type": "address",
          "internalType": "address"
        },
        {
          "name": "value",
          "type": "uint256",
          "internalType": "uint256"
        },
        {
          "name": "data",
          "type": "bytes",
          "internalType": "bytes"
        },
        {
          "name": "predecessor",
          "type": "bytes32",
          "internalType": "bytes32"
        },
        {
          "name": "salt",
          "type": "bytes32",
          "internalType": "bytes32"
        }
      ],
      "outputs": [
        {
          "name": "",
          "type": "bytes32",
          "internalType": "bytes32"
        }
      ],
      "stateMutability": "pure"
    },
    {
      "type": "function",
      "name": "hashOperationBatch",
      "inputs": [
        {
          "name": "targets",
          "type": "address[]",
          "internalType": "address[]"
        },
        {
          "name": "values",
          "type": "uint256[]",
          "internalType": "uint256[]"
        },
        {
          "name": "payloads",
          "type": "bytes[]",
          "internalType": "bytes[]"
        },
        {
          "name": "predecessor",
          "type": "bytes32",
          "internalType": "bytes32"
        },
        {
          "name": "salt",
          "type": "bytes32",
          "internalType": "bytes32"
        }
      ],
      "outputs": [
        {
          "name": "",
          "type": "bytes32",
          "internalType": "bytes32"
        }
      ],
      "stateMutability": "pure"
    },
    {
      "type": "function",
      "name": "initialize",
      "inputs": [
        {
          "name": "lightWallet",
          "type": "address",
          "internalType": "address"
        },
        {
          "name": "lightProtocolController",
          "type": "address",
          "internalType": "address"
        }
      ],
      "outputs": [],
      "stateMutability": "nonpayable"
    },
    {
      "type": "function",
      "name": "initialize",
      "inputs": [
        {
          "name": "minDelay",
          "type": "uint256",
          "internalType": "uint256"
        },
        {
          "name": "proposers",
          "type": "address[]",
          "internalType": "address[]"
        },
        {
          "name": "executors",
          "type": "address[]",
          "internalType": "address[]"
        },
        {
          "name": "admin",
          "type": "address",
          "internalType": "address"
        }
      ],
      "outputs": [],
      "stateMutability": "nonpayable"
    },
    {
      "type": "function",
      "name": "isOperation",
      "inputs": [
        {
          "name": "id",
          "type": "bytes32",
          "internalType": "bytes32"
        }
      ],
      "outputs": [
        {
          "name": "",
          "type": "bool",
          "internalType": "bool"
        }
      ],
      "stateMutability": "view"
    },
    {
      "type": "function",
      "name": "isOperationDone",
      "inputs": [
        {
          "name": "id",
          "type": "bytes32",
          "internalType": "bytes32"
        }
      ],
      "outputs": [
        {
          "name": "",
          "type": "bool",
          "internalType": "bool"
        }
      ],
      "stateMutability": "view"
    },
    {
      "type": "function",
      "name": "isOperationPending",
      "inputs": [
        {
          "name": "id",
          "type": "bytes32",
          "internalType": "bytes32"
        }
      ],
      "outputs": [
        {
          "name": "",
          "type": "bool",
          "internalType": "bool"
        }
      ],
      "stateMutability": "view"
    },
    {
      "type": "function",
      "name": "isOperationReady",
      "inputs": [
        {
          "name": "id",
          "type": "bytes32",
          "internalType": "bytes32"
        }
      ],
      "outputs": [
        {
          "name": "",
          "type": "bool",
          "internalType": "bool"
        }
      ],
      "stateMutability": "view"
    },
    {
      "type": "function",
      "name": "onERC1155BatchReceived",
      "inputs": [
        {
          "name": "",
          "type": "address",
          "internalType": "address"
        },
        {
          "name": "",
          "type": "address",
          "internalType": "address"
        },
        {
          "name": "",
          "type": "uint256[]",
          "internalType": "uint256[]"
        },
        {
          "name": "",
          "type": "uint256[]",
          "internalType": "uint256[]"
        },
        {
          "name": "",
          "type": "bytes",
          "internalType": "bytes"
        }
      ],
      "outputs": [
        {
          "name": "",
          "type": "bytes4",
          "internalType": "bytes4"
        }
      ],
      "stateMutability": "nonpayable"
    },
    {
      "type": "function",
      "name": "onERC1155Received",
      "inputs": [
        {
          "name": "",
          "type": "address",
          "internalType": "address"
        },
        {
          "name": "",
          "type": "address",
          "internalType": "address"
        },
        {
          "name": "",
          "type": "uint256",
          "internalType": "uint256"
        },
        {
          "name": "",
          "type": "uint256",
          "internalType": "uint256"
        },
        {
          "name": "",
          "type": "bytes",
          "internalType": "bytes"
        }
      ],
      "outputs": [
        {
          "name": "",
          "type": "bytes4",
          "internalType": "bytes4"
        }
      ],
      "stateMutability": "nonpayable"
    },
    {
      "type": "function",
      "name": "onERC721Received",
      "inputs": [
        {
          "name": "",
          "type": "address",
          "internalType": "address"
        },
        {
          "name": "",
          "type": "address",
          "internalType": "address"
        },
        {
          "name": "",
          "type": "uint256",
          "internalType": "uint256"
        },
        {
          "name": "",
          "type": "bytes",
          "internalType": "bytes"
        }
      ],
      "outputs": [
        {
          "name": "",
          "type": "bytes4",
          "internalType": "bytes4"
        }
      ],
      "stateMutability": "nonpayable"
    },
    {
      "type": "function",
      "name": "proxiableUUID",
      "inputs": [],
      "outputs": [
        {
          "name": "",
          "type": "bytes32",
          "internalType": "bytes32"
        }
      ],
      "stateMutability": "view"
    },
    {
      "type": "function",
      "name": "renounceRole",
      "inputs": [
        {
          "name": "role",
          "type": "bytes32",
          "internalType": "bytes32"
        },
        {
          "name": "callerConfirmation",
          "type": "address",
          "internalType": "address"
        }
      ],
      "outputs": [],
      "stateMutability": "nonpayable"
    },
    {
      "type": "function",
      "name": "revokeRole",
      "inputs": [
        {
          "name": "role",
          "type": "bytes32",
          "internalType": "bytes32"
        },
        {
          "name": "account",
          "type": "address",
          "internalType": "address"
        }
      ],
      "outputs": [],
      "stateMutability": "nonpayable"
    },
    {
      "type": "function",
      "name": "schedule",
      "inputs": [
        {
          "name": "target",
          "type": "address",
          "internalType": "address"
        },
        {
          "name": "value",
          "type": "uint256",
          "internalType": "uint256"
        },
        {
          "name": "data",
          "type": "bytes",
          "internalType": "bytes"
        },
        {
          "name": "predecessor",
          "type": "bytes32",
          "internalType": "bytes32"
        },
        {
          "name": "salt",
          "type": "bytes32",
          "internalType": "bytes32"
        },
        {
          "name": "delay",
          "type": "uint256",
          "internalType": "uint256"
        }
      ],
      "outputs": [],
      "stateMutability": "nonpayable"
    },
    {
      "type": "function",
      "name": "scheduleBatch",
      "inputs": [
        {
          "name": "targets",
          "type": "address[]",
          "internalType": "address[]"
        },
        {
          "name": "values",
          "type": "uint256[]",
          "internalType": "uint256[]"
        },
        {
          "name": "payloads",
          "type": "bytes[]",
          "internalType": "bytes[]"
        },
        {
          "name": "predecessor",
          "type": "bytes32",
          "internalType": "bytes32"
        },
        {
          "name": "salt",
          "type": "bytes32",
          "internalType": "bytes32"
        },
        {
          "name": "delay",
          "type": "uint256",
          "internalType": "uint256"
        }
      ],
      "outputs": [],
      "stateMutability": "nonpayable"
    },
    {
      "type": "function",
      "name": "supportsInterface",
      "inputs": [
        {
          "name": "interfaceId",
          "type": "bytes4",
          "internalType": "bytes4"
        }
      ],
      "outputs": [
        {
          "name": "",
          "type": "bool",
          "internalType": "bool"
        }
      ],
      "stateMutability": "view"
    },
    {
      "type": "function",
      "name": "updateDelay",
      "inputs": [
        {
          "name": "newDelay",
          "type": "uint256",
          "internalType": "uint256"
        }
      ],
      "outputs": [],
      "stateMutability": "nonpayable"
    },
    {
      "type": "function",
      "name": "upgradeToAndCall",
      "inputs": [
        {
          "name": "newImplementation",
          "type": "address",
          "internalType": "address"
        },
        {
          "name": "data",
          "type": "bytes",
          "internalType": "bytes"
        }
      ],
      "outputs": [],
      "stateMutability": "payable"
    },
    {
      "type": "event",
      "name": "CallExecuted",
      "inputs": [
        {
          "name": "id",
          "type": "bytes32",
          "indexed": true,
          "internalType": "bytes32"
        },
        {
          "name": "index",
          "type": "uint256",
          "indexed": true,
          "internalType": "uint256"
        },
        {
          "name": "target",
          "type": "address",
          "indexed": false,
          "internalType": "address"
        },
        {
          "name": "value",
          "type": "uint256",
          "indexed": false,
          "internalType": "uint256"
        },
        {
          "name": "data",
          "type": "bytes",
          "indexed": false,
          "internalType": "bytes"
        }
      ],
      "anonymous": false
    },
    {
      "type": "event",
      "name": "CallSalt",
      "inputs": [
        {
          "name": "id",
          "type": "bytes32",
          "indexed": true,
          "internalType": "bytes32"
        },
        {
          "name": "salt",
          "type": "bytes32",
          "indexed": false,
          "internalType": "bytes32"
        }
      ],
      "anonymous": false
    },
    {
      "type": "event",
      "name": "CallScheduled",
      "inputs": [
        {
          "name": "id",
          "type": "bytes32",
          "indexed": true,
          "internalType": "bytes32"
        },
        {
          "name": "index",
          "type": "uint256",
          "indexed": true,
          "internalType": "uint256"
        },
        {
          "name": "target",
          "type": "address",
          "indexed": false,
          "internalType": "address"
        },
        {
          "name": "value",
          "type": "uint256",
          "indexed": false,
          "internalType": "uint256"
        },
        {
          "name": "data",
          "type": "bytes",
          "indexed": false,
          "internalType": "bytes"
        },
        {
          "name": "predecessor",
          "type": "bytes32",
          "indexed": false,
          "internalType": "bytes32"
        },
        {
          "name": "delay",
          "type": "uint256",
          "indexed": false,
          "internalType": "uint256"
        }
      ],
      "anonymous": false
    },
    {
      "type": "event",
      "name": "Cancelled",
      "inputs": [
        {
          "name": "id",
          "type": "bytes32",
          "indexed": true,
          "internalType": "bytes32"
        }
      ],
      "anonymous": false
    },
    {
      "type": "event",
      "name": "Initialized",
      "inputs": [
        {
          "name": "version",
          "type": "uint64",
          "indexed": false,
          "internalType": "uint64"
        }
      ],
      "anonymous": false
    },
    {
      "type": "event",
      "name": "MinDelayChange",
      "inputs": [
        {
          "name": "oldDuration",
          "type": "uint256",
          "indexed": false,
          "internalType": "uint256"
        },
        {
          "name": "newDuration",
          "type": "uint256",
          "indexed": false,
          "internalType": "uint256"
        }
      ],
      "anonymous": false
    },
    {
      "type": "event",
      "name": "RoleAdminChanged",
      "inputs": [
        {
          "name": "role",
          "type": "bytes32",
          "indexed": true,
          "internalType": "bytes32"
        },
        {
          "name": "previousAdminRole",
          "type": "bytes32",
          "indexed": true,
          "internalType": "bytes32"
        },
        {
          "name": "newAdminRole",
          "type": "bytes32",
          "indexed": true,
          "internalType": "bytes32"
        }
      ],
      "anonymous": false
    },
    {
      "type": "event",
      "name": "RoleGranted",
      "inputs": [
        {
          "name": "role",
          "type": "bytes32",
          "indexed": true,
          "internalType": "bytes32"
        },
        {
          "name": "account",
          "type": "address",
          "indexed": true,
          "internalType": "address"
        },
        {
          "name": "sender",
          "type": "address",
          "indexed": true,
          "internalType": "address"
        }
      ],
      "anonymous": false
    },
    {
      "type": "event",
      "name": "RoleRevoked",
      "inputs": [
        {
          "name": "role",
          "type": "bytes32",
          "indexed": true,
          "internalType": "bytes32"
        },
        {
          "name": "account",
          "type": "address",
          "indexed": true,
          "internalType": "address"
        },
        {
          "name": "sender",
          "type": "address",
          "indexed": true,
          "internalType": "address"
        }
      ],
      "anonymous": false
    },
    {
      "type": "event",
      "name": "Upgraded",
      "inputs": [
        {
          "name": "implementation",
          "type": "address",
          "indexed": true,
          "internalType": "address"
        }
      ],
      "anonymous": false
    },
    {
      "type": "error",
      "name": "AccessControlBadConfirmation",
      "inputs": []
    },
    {
      "type": "error",
      "name": "AccessControlUnauthorizedAccount",
      "inputs": [
        {
          "name": "account",
          "type": "address",
          "internalType": "address"
        },
        {
          "name": "neededRole",
          "type": "bytes32",
          "internalType": "bytes32"
        }
      ]
    },
    {
      "type": "error",
      "name": "AddressEmptyCode",
      "inputs": [
        {
          "name": "target",
          "type": "address",
          "internalType": "address"
        }
      ]
    },
    {
      "type": "error",
      "name": "ERC1967InvalidImplementation",
      "inputs": [
        {
          "name": "implementation",
          "type": "address",
          "internalType": "address"
        }
      ]
    },
    {
      "type": "error",
      "name": "ERC1967NonPayable",
      "inputs": []
    },
    {
      "type": "error",
      "name": "FailedCall",
      "inputs": []
    },
    {
      "type": "error",
      "name": "InvalidInitialization",
      "inputs": []
    },
    {
      "type": "error",
      "name": "NotInitializing",
      "inputs": []
    },
    {
      "type": "error",
      "name": "OnlySelfAuth",
      "inputs": [
        {
          "name": "_sender",
          "type": "address",
          "internalType": "address"
        },
        {
          "name": "_self",
          "type": "address",
          "internalType": "address"
        }
      ]
    },
    {
      "type": "error",
      "name": "TimelockInsufficientDelay",
      "inputs": [
        {
          "name": "delay",
          "type": "uint256",
          "internalType": "uint256"
        },
        {
          "name": "minDelay",
          "type": "uint256",
          "internalType": "uint256"
        }
      ]
    },
    {
      "type": "error",
      "name": "TimelockInvalidOperationLength",
      "inputs": [
        {
          "name": "targets",
          "type": "uint256",
          "internalType": "uint256"
        },
        {
          "name": "payloads",
          "type": "uint256",
          "internalType": "uint256"
        },
        {
          "name": "values",
          "type": "uint256",
          "internalType": "uint256"
        }
      ]
    },
    {
      "type": "error",
      "name": "TimelockUnauthorizedCaller",
      "inputs": [
        {
          "name": "caller",
          "type": "address",
          "internalType": "address"
        }
      ]
    },
    {
      "type": "error",
      "name": "TimelockUnexecutedPredecessor",
      "inputs": [
        {
          "name": "predecessorId",
          "type": "bytes32",
          "internalType": "bytes32"
        }
      ]
    },
    {
      "type": "error",
      "name": "TimelockUnexpectedOperationState",
      "inputs": [
        {
          "name": "operationId",
          "type": "bytes32",
          "internalType": "bytes32"
        },
        {
          "name": "expectedStates",
          "type": "bytes32",
          "internalType": "bytes32"
        }
      ]
    },
    {
      "type": "error",
      "name": "UUPSUnauthorizedCallContext",
      "inputs": []
    },
    {
      "type": "error",
      "name": "UUPSUnsupportedProxiableUUID",
      "inputs": [
        {
          "name": "slot",
          "type": "bytes32",
          "internalType": "bytes32"
        }
      ]
    }
  ],
  "bytecode": {
    "object": "0x60c06040523060805261012c60a052348015610019575f5ffd5b50610022610027565b6100d9565b7ff0c57e16840df040f15088dc2f81fe391c3923bec73e23a9662efc9c229c6a00805468010000000000000000900460ff16156100775760405163f92ee8a960e01b815260040160405180910390fd5b80546001600160401b03908116146100d65780546001600160401b0319166001600160401b0390811782556040519081527fc7f505b2f371ae2175ee4913f4499e1f2633a7b5936321eed1cdaeb6115181d29060200160405180910390a15b50565b60805160a05161309961010f5f395f81816105f80152610d8501525f8181611c5301528181611c7c0152611ed301526130995ff3fe608060405260043610610246575f3560e01c80638f2a0bb011610131578063bc197c81116100ac578063d547741f1161007c578063f23a6e6111610062578063f23a6e611461081a578063f27a0c921461085e578063ffa1ad7414610891575f5ffd5b8063d547741f146107e8578063e38335e514610807575f5ffd5b8063bc197c811461071c578063c4c4c7b314610760578063c4d252f51461077f578063d45c44351461079e575f5ffd5b8063a217fddf11610101578063ad3cb1cc116100e7578063ad3cb1cc14610682578063b08e51c0146106ca578063b1c5f427146106fd575f5ffd5b8063a217fddf1461061a578063a3f4df7e1461062d575f5ffd5b80638f2a0bb0146105255780638f61f4f51461054457806391d14854146105775780639f81aed7146105e7575f5ffd5b806331d50750116101c157806352d1902d1161019157806364d623531161017757806364d62353146104bb5780637958004c146104da5780638065657f14610506575f5ffd5b806352d1902d14610488578063584b153e1461049c575f5ffd5b806331d507501461041857806336568abe14610437578063485cc955146104565780634f1ef28614610475575f5ffd5b806313bc9f2011610216578063248a9ca3116101fc578063248a9ca31461038d5780632ab0f529146103da5780632f2ff15d146103f9575f5ffd5b806313bc9f20146102fa578063150b7a0214610319575f5ffd5b806301d5062a1461025157806301ffc9a71461027257806307bd0265146102a6578063134008d3146102e7575f5ffd5b3661024d57005b5f5ffd5b34801561025c575f5ffd5b5061027061026b366004612507565b6108d9565b005b34801561027d575f5ffd5b5061029161028c366004612576565b6109ad565b60405190151581526020015b60405180910390f35b3480156102b1575f5ffd5b506102d97fd8aa0f3194971a2a116679f7c2090f6939c8d4e01a2a8d7e41d55e5351469e6381565b60405190815260200161029d565b6102706102f53660046125b5565b6109bd565b348015610305575f5ffd5b5061029161031436600461261c565b610ab2565b348015610324575f5ffd5b5061035c610333366004612739565b7f150b7a0200000000000000000000000000000000000000000000000000000000949350505050565b6040517fffffffff00000000000000000000000000000000000000000000000000000000909116815260200161029d565b348015610398575f5ffd5b506102d96103a736600461261c565b5f9081527f02dd7bc7dec4dceedda775e58dd541e08a116c6c53815c0bd028192f7b626800602052604090206001015490565b3480156103e5575f5ffd5b506102916103f436600461261c565b610ad7565b348015610404575f5ffd5b5061027061041336600461279d565b610adf565b348015610423575f5ffd5b5061029161043236600461261c565b610b28565b348015610442575f5ffd5b5061027061045136600461279d565b610b4c565b348015610461575f5ffd5b506102706104703660046127c7565b610baa565b6102706104833660046127ef565b610e99565b348015610493575f5ffd5b506102d9610eb8565b3480156104a7575f5ffd5b506102916104b636600461261c565b610ee6565b3480156104c6575f5ffd5b506102706104d536600461261c565b610f2b565b3480156104e5575f5ffd5b506104f96104f436600461261c565b610fe8565b60405161029d9190612867565b348015610511575f5ffd5b506102d96105203660046125b5565b61104f565b348015610530575f5ffd5b5061027061053f3660046128e7565b61108d565b34801561054f575f5ffd5b506102d97fb09aa5aeb3702cfd50b6b62bc4532604938f21248a27a1d5ca736082b6819cc181565b348015610582575f5ffd5b5061029161059136600461279d565b5f9182527f02dd7bc7dec4dceedda775e58dd541e08a116c6c53815c0bd028192f7b6268006020908152604080842073ffffffffffffffffffffffffffffffffffffffff93909316845291905290205460ff1690565b3480156105f2575f5ffd5b506102d97f000000000000000000000000000000000000000000000000000000000000000081565b348015610625575f5ffd5b506102d95f81565b348015610638575f5ffd5b506106756040518060400160405280601781526020017f4c6967687454696d656c6f636b436f6e74726f6c6c657200000000000000000081525081565b60405161029d919061299c565b34801561068d575f5ffd5b506106756040518060400160405280600581526020017f352e302e3000000000000000000000000000000000000000000000000000000081525081565b3480156106d5575f5ffd5b506102d97ffd643c72710c63c0180259aba6b2d05451e3591a24e58b62239378085726f78381565b348015610708575f5ffd5b506102d96107173660046129ef565b61122f565b348015610727575f5ffd5b5061035c610736366004612b29565b7fbc197c810000000000000000000000000000000000000000000000000000000095945050505050565b34801561076b575f5ffd5b5061027061077a366004612c3a565b611273565b34801561078a575f5ffd5b5061027061079936600461261c565b6113f6565b3480156107a9575f5ffd5b506102d96107b836600461261c565b5f9081527f9a37c2aa9d186a0969ff8a8267bf4e07e864c2f2768f5040949e28a624fb3600602052604090205490565b3480156107f3575f5ffd5b5061027061080236600461279d565b6114db565b6102706108153660046129ef565b61151e565b348015610825575f5ffd5b5061035c610834366004612cb8565b7ff23a6e610000000000000000000000000000000000000000000000000000000095945050505050565b348015610869575f5ffd5b507f9a37c2aa9d186a0969ff8a8267bf4e07e864c2f2768f5040949e28a624fb3601546102d9565b34801561089c575f5ffd5b506106756040518060400160405280600581526020017f302e312e3000000000000000000000000000000000000000000000000000000081525081565b7fb09aa5aeb3702cfd50b6b62bc4532604938f21248a27a1d5ca736082b6819cc1610903816116f8565b5f61091289898989898961104f565b905061091e8184611705565b5f817f4cf4410cc57040e44862ef0f45f3dd5a5e02db8eb8add648d4b0e236f1d07dca8b8b8b8b8b8a60405161095996959493929190612d53565b60405180910390a383156109a257807f20fda5fd27a1ea7bf5b9567f143ac5470bb059374a27e8f67cb44f946f6d03878560405161099991815260200190565b60405180910390a25b505050505050505050565b5f6109b782611809565b92915050565b5f80527f52fce5e8a5d0d9e8d1ea29f4525e512e9c27bf92cae50374d497f918ab48f3826020527fdd1864c1ab258d549957f6a4d7e3a5005661df58241dbbc1700fb170ef061546547fd8aa0f3194971a2a116679f7c2090f6939c8d4e01a2a8d7e41d55e5351469e639060ff16610a3957610a39813361185e565b5f610a4888888888888861104f565b9050610a548185611904565b610a608888888861196b565b5f817fc2617efa69bab66782fa219543714338489c4e9e178271560a91b82c3f612b588a8a8a8a604051610a979493929190612d9d565b60405180910390a3610aa8816119e3565b5050505050505050565b5f60025b610abf83610fe8565b6003811115610ad057610ad061283a565b1492915050565b5f6003610ab6565b5f8281527f02dd7bc7dec4dceedda775e58dd541e08a116c6c53815c0bd028192f7b6268006020526040902060010154610b18816116f8565b610b228383611a2d565b50505050565b5f80610b3383610fe8565b6003811115610b4457610b4461283a565b141592915050565b73ffffffffffffffffffffffffffffffffffffffff81163314610b9b576040517f6697b23200000000000000000000000000000000000000000000000000000000815260040160405180910390fd5b610ba58282611b4b565b505050565b7ff0c57e16840df040f15088dc2f81fe391c3923bec73e23a9662efc9c229c6a00805468010000000000000000810460ff16159067ffffffffffffffff165f81158015610bf45750825b90505f8267ffffffffffffffff166001148015610c105750303b155b905081158015610c1e575080155b15610c55576040517ff92ee8a900000000000000000000000000000000000000000000000000000000815260040160405180910390fd5b84547fffffffffffffffffffffffffffffffffffffffffffffffff00000000000000001660011785558315610cb65784547fffffffffffffffffffffffffffffffffffffffffffffff00ffffffffffffffff16680100000000000000001785555b6040805160018082528183019092525f916020808301908036833701905050905087815f81518110610cea57610cea612ddc565b73ffffffffffffffffffffffffffffffffffffffff92909216602092830291909101909101526040805160018082528183019092525f9181602001602082028036833701905050905087815f81518110610d4657610d46612ddc565b602002602001019073ffffffffffffffffffffffffffffffffffffffff16908173ffffffffffffffffffffffffffffffffffffffff1681525050610dac7f000000000000000000000000000000000000000000000000000000000000000083835f611c27565b610dd67ffd643c72710c63c0180259aba6b2d05451e3591a24e58b62239378085726f7838a611b4b565b50610e017fd8aa0f3194971a2a116679f7c2090f6939c8d4e01a2a8d7e41d55e5351469e638a611a2d565b50610e2c7ffd643c72710c63c0180259aba6b2d05451e3591a24e58b62239378085726f78389611a2d565b5050508315610e905784547fffffffffffffffffffffffffffffffffffffffffffffff00ffffffffffffffff168555604051600181527fc7f505b2f371ae2175ee4913f4499e1f2633a7b5936321eed1cdaeb6115181d29060200160405180910390a15b50505050505050565b610ea1611c3b565b610eaa82611d41565b610eb48282611d82565b5050565b5f610ec1611ebb565b507f360894a13ba1a3210667c828492db98dca3e2076cc3735a920a3ca505d382bbc90565b5f5f610ef183610fe8565b90506001816003811115610f0757610f0761283a565b1480610f2457506002816003811115610f2257610f2261283a565b145b9392505050565b7f9a37c2aa9d186a0969ff8a8267bf4e07e864c2f2768f5040949e28a624fb360033308114610fa3576040517fe2850c5900000000000000000000000000000000000000000000000000000000815273ffffffffffffffffffffffffffffffffffffffff821660048201526024015b60405180910390fd5b600182015460408051918252602082018590527f11c24f4ead16507c69ac467fbd5e4eed5fb5c699626d2cc6d66421df253886d5910160405180910390a15060010155565b5f8181527f9a37c2aa9d186a0969ff8a8267bf4e07e864c2f2768f5040949e28a624fb36006020526040812054805f0361102457505f92915050565b600181036110355750600392915050565b428111156110465750600192915050565b50600292915050565b5f86868686868660405160200161106b96959493929190612d53565b6040516020818303038152906040528051906020012090509695505050505050565b7fb09aa5aeb3702cfd50b6b62bc4532604938f21248a27a1d5ca736082b6819cc16110b7816116f8565b88871415806110c65750888514155b1561110e576040517fffb03211000000000000000000000000000000000000000000000000000000008152600481018a90526024810186905260448101889052606401610f9a565b5f61111f8b8b8b8b8b8b8b8b61122f565b905061112b8184611705565b5f5b8a8110156111e05780827f4cf4410cc57040e44862ef0f45f3dd5a5e02db8eb8add648d4b0e236f1d07dca8e8e8581811061116a5761116a612ddc565b905060200201602081019061117f9190612e09565b8d8d8681811061119157611191612ddc565b905060200201358c8c878181106111aa576111aa612ddc565b90506020028101906111bc9190612e22565b8c8b6040516111d096959493929190612d53565b60405180910390a360010161112d565b50831561122257807f20fda5fd27a1ea7bf5b9567f143ac5470bb059374a27e8f67cb44f946f6d03878560405161121991815260200190565b60405180910390a25b5050505050505050505050565b5f888888888888888860405160200161124f989796959493929190612f53565b60405160208183030381529060405280519060200120905098975050505050505050565b7ff0c57e16840df040f15088dc2f81fe391c3923bec73e23a9662efc9c229c6a00805468010000000000000000810460ff16159067ffffffffffffffff165f811580156112bd5750825b90505f8267ffffffffffffffff1660011480156112d95750303b155b9050811580156112e7575080155b1561131e576040517ff92ee8a900000000000000000000000000000000000000000000000000000000815260040160405180910390fd5b84547fffffffffffffffffffffffffffffffffffffffffffffffff0000000000000000166001178555831561137f5784547fffffffffffffffffffffffffffffffffffffffffffffff00ffffffffffffffff16680100000000000000001785555b61138b89898989611c27565b83156109a25784547fffffffffffffffffffffffffffffffffffffffffffffff00ffffffffffffffff168555604051600181527fc7f505b2f371ae2175ee4913f4499e1f2633a7b5936321eed1cdaeb6115181d29060200160405180910390a1505050505050505050565b7ffd643c72710c63c0180259aba6b2d05451e3591a24e58b62239378085726f783611420816116f8565b7f9a37c2aa9d186a0969ff8a8267bf4e07e864c2f2768f5040949e28a624fb360061144a83610ee6565b61149f57826114596002611f2a565b6114636001611f2a565b6040517f5ead8eb50000000000000000000000000000000000000000000000000000000081526004810193909352176024820152604401610f9a565b5f838152602082905260408082208290555184917fbaa1eb22f2a492ba1a5fea61b8df4d27c6c8b5f3971e63bb58fa14ff72eedb7091a2505050565b5f8281527f02dd7bc7dec4dceedda775e58dd541e08a116c6c53815c0bd028192f7b6268006020526040902060010154611514816116f8565b610b228383611b4b565b5f80527f52fce5e8a5d0d9e8d1ea29f4525e512e9c27bf92cae50374d497f918ab48f3826020527fdd1864c1ab258d549957f6a4d7e3a5005661df58241dbbc1700fb170ef061546547fd8aa0f3194971a2a116679f7c2090f6939c8d4e01a2a8d7e41d55e5351469e639060ff1661159a5761159a813361185e565b87861415806115a95750878414155b156115f1576040517fffb03211000000000000000000000000000000000000000000000000000000008152600481018990526024810185905260448101879052606401610f9a565b5f6116028a8a8a8a8a8a8a8a61122f565b905061160e8185611904565b5f5b898110156116e2575f8b8b8381811061162b5761162b612ddc565b90506020020160208101906116409190612e09565b90505f8a8a8481811061165557611655612ddc565b905060200201359050365f8a8a8681811061167257611672612ddc565b90506020028101906116849190612e22565b915091506116948484848461196b565b84867fc2617efa69bab66782fa219543714338489c4e9e178271560a91b82c3f612b58868686866040516116cb9493929190612d9d565b60405180910390a350505050806001019050611610565b506116ec816119e3565b50505050505050505050565b611702813361185e565b50565b7f9a37c2aa9d186a0969ff8a8267bf4e07e864c2f2768f5040949e28a624fb360061172f83610b28565b15611779578261173e5f611f2a565b6040517f5ead8eb500000000000000000000000000000000000000000000000000000000815260048101929092526024820152604401610f9a565b5f6117a27f9a37c2aa9d186a0969ff8a8267bf4e07e864c2f2768f5040949e28a624fb36015490565b9050808310156117e8576040517f543366090000000000000000000000000000000000000000000000000000000081526004810184905260248101829052604401610f9a565b6117f28342613018565b5f9485526020929092525060409092209190915550565b5f7fffffffff0000000000000000000000000000000000000000000000000000000082167f4e2312e00000000000000000000000000000000000000000000000000000000014806109b757506109b782611f4c565b5f8281527f02dd7bc7dec4dceedda775e58dd541e08a116c6c53815c0bd028192f7b6268006020908152604080832073ffffffffffffffffffffffffffffffffffffffff8516845290915290205460ff16610eb4576040517fe2517d3f00000000000000000000000000000000000000000000000000000000815273ffffffffffffffffffffffffffffffffffffffff8216600482015260248101839052604401610f9a565b61190d82610ab2565b61191c578161173e6002611f2a565b8015801590611931575061192f81610ad7565b155b15610eb4576040517f90a9a61800000000000000000000000000000000000000000000000000000000815260048101829052602401610f9a565b5f5f8573ffffffffffffffffffffffffffffffffffffffff16858585604051611995929190613050565b5f6040518083038185875af1925050503d805f81146119cf576040519150601f19603f3d011682016040523d82523d5f602084013e6119d4565b606091505b5091509150610e908282611fe2565b7f9a37c2aa9d186a0969ff8a8267bf4e07e864c2f2768f5040949e28a624fb3600611a0d82610ab2565b611a1c578161173e6002611f2a565b5f9182526020526040902060019055565b5f8281527f02dd7bc7dec4dceedda775e58dd541e08a116c6c53815c0bd028192f7b6268006020818152604080842073ffffffffffffffffffffffffffffffffffffffff8616855290915282205460ff16611b42575f8481526020828152604080832073ffffffffffffffffffffffffffffffffffffffff87168452909152902080547fffffffffffffffffffffffffffffffffffffffffffffffffffffffffffffff00166001179055611ade3390565b73ffffffffffffffffffffffffffffffffffffffff168373ffffffffffffffffffffffffffffffffffffffff16857f2f8788117e7eff1d82e926ec794901d17c78024a50270940304540a733656f0d60405160405180910390a460019150506109b7565b5f9150506109b7565b5f8281527f02dd7bc7dec4dceedda775e58dd541e08a116c6c53815c0bd028192f7b6268006020818152604080842073ffffffffffffffffffffffffffffffffffffffff8616855290915282205460ff1615611b42575f8481526020828152604080832073ffffffffffffffffffffffffffffffffffffffff8716808552925280832080547fffffffffffffffffffffffffffffffffffffffffffffffffffffffffffffff0016905551339287917ff6391f5c32d9c69d2a47ea670b442974b53935d1edc7fd64eb21e047a839171b9190a460019150506109b7565b611c2f611ffe565b610b2284848484612065565b3073ffffffffffffffffffffffffffffffffffffffff7f0000000000000000000000000000000000000000000000000000000000000000161480611d0857507f000000000000000000000000000000000000000000000000000000000000000073ffffffffffffffffffffffffffffffffffffffff16611cef7f360894a13ba1a3210667c828492db98dca3e2076cc3735a920a3ca505d382bbc5473ffffffffffffffffffffffffffffffffffffffff1690565b73ffffffffffffffffffffffffffffffffffffffff1614155b15611d3f576040517fe07c8dba00000000000000000000000000000000000000000000000000000000815260040160405180910390fd5b565b333014611702576040517fe1258894000000000000000000000000000000000000000000000000000000008152336004820152306024820152604401610f9a565b8173ffffffffffffffffffffffffffffffffffffffff166352d1902d6040518163ffffffff1660e01b8152600401602060405180830381865afa925050508015611e07575060408051601f3d9081017fffffffffffffffffffffffffffffffffffffffffffffffffffffffffffffffe0168201909252611e049181019061305f565b60015b611e55576040517f4c9c8ce300000000000000000000000000000000000000000000000000000000815273ffffffffffffffffffffffffffffffffffffffff83166004820152602401610f9a565b7f360894a13ba1a3210667c828492db98dca3e2076cc3735a920a3ca505d382bbc8114611eb1576040517faa1d49a400000000000000000000000000000000000000000000000000000000815260048101829052602401610f9a565b610ba583836121e2565b3073ffffffffffffffffffffffffffffffffffffffff7f00000000000000000000000000000000000000000000000000000000000000001614611d3f576040517fe07c8dba00000000000000000000000000000000000000000000000000000000815260040160405180910390fd5b5f816003811115611f3d57611f3d61283a565b600160ff919091161b92915050565b5f7fffffffff0000000000000000000000000000000000000000000000000000000082167f7965db0b0000000000000000000000000000000000000000000000000000000014806109b757507f01ffc9a7000000000000000000000000000000000000000000000000000000007fffffffff000000000000000000000000000000000000000000000000000000008316146109b7565b606082611ff757611ff282612244565b6109b7565b50806109b7565b7ff0c57e16840df040f15088dc2f81fe391c3923bec73e23a9662efc9c229c6a005468010000000000000000900460ff16611d3f576040517fd7e6bcf800000000000000000000000000000000000000000000000000000000815260040160405180910390fd5b61206d611ffe565b7f9a37c2aa9d186a0969ff8a8267bf4e07e864c2f2768f5040949e28a624fb36006120985f30611a2d565b5073ffffffffffffffffffffffffffffffffffffffff8216156120c1576120bf5f83611a2d565b505b5f5b845181101561214f5761210f7fb09aa5aeb3702cfd50b6b62bc4532604938f21248a27a1d5ca736082b6819cc186838151811061210257612102612ddc565b6020026020010151611a2d565b506121467ffd643c72710c63c0180259aba6b2d05451e3591a24e58b62239378085726f78386838151811061210257612102612ddc565b506001016120c3565b505f5b835181101561219a576121917fd8aa0f3194971a2a116679f7c2090f6939c8d4e01a2a8d7e41d55e5351469e6385838151811061210257612102612ddc565b50600101612152565b5060018101859055604080515f8152602081018790527f11c24f4ead16507c69ac467fbd5e4eed5fb5c699626d2cc6d66421df253886d5910160405180910390a15050505050565b6121eb82612286565b60405173ffffffffffffffffffffffffffffffffffffffff8316907fbc7cd75a20ee27fd9adebab32041f755214dbc6bffa90cc0225b39da2e5c2d3b905f90a280511561223c57610ba58282612354565b610eb46123d3565b8051156122545780518082602001fd5b6040517fd6bda27500000000000000000000000000000000000000000000000000000000815260040160405180910390fd5b8073ffffffffffffffffffffffffffffffffffffffff163b5f036122ee576040517f4c9c8ce300000000000000000000000000000000000000000000000000000000815273ffffffffffffffffffffffffffffffffffffffff82166004820152602401610f9a565b7f360894a13ba1a3210667c828492db98dca3e2076cc3735a920a3ca505d382bbc80547fffffffffffffffffffffffff00000000000000000000000000000000000000001673ffffffffffffffffffffffffffffffffffffffff92909216919091179055565b60605f5f8473ffffffffffffffffffffffffffffffffffffffff168460405161237d9190613076565b5f60405180830381855af49150503d805f81146123b5576040519150601f19603f3d011682016040523d82523d5f602084013e6123ba565b606091505b50915091506123ca85838361240b565b95945050505050565b3415611d3f576040517fb398979f00000000000000000000000000000000000000000000000000000000815260040160405180910390fd5b6060826124205761241b82612244565b610f24565b8151158015612444575073ffffffffffffffffffffffffffffffffffffffff84163b155b15612493576040517f9996b31500000000000000000000000000000000000000000000000000000000815273ffffffffffffffffffffffffffffffffffffffff85166004820152602401610f9a565b5092915050565b803573ffffffffffffffffffffffffffffffffffffffff811681146124bd575f5ffd5b919050565b5f5f83601f8401126124d2575f5ffd5b50813567ffffffffffffffff8111156124e9575f5ffd5b602083019150836020828501011115612500575f5ffd5b9250929050565b5f5f5f5f5f5f5f60c0888a03121561251d575f5ffd5b6125268861249a565b965060208801359550604088013567ffffffffffffffff811115612548575f5ffd5b6125548a828b016124c2565b989b979a50986060810135976080820135975060a09091013595509350505050565b5f60208284031215612586575f5ffd5b81357fffffffff0000000000000000000000000000000000000000000000000000000081168114610f24575f5ffd5b5f5f5f5f5f5f60a087890312156125ca575f5ffd5b6125d38761249a565b955060208701359450604087013567ffffffffffffffff8111156125f5575f5ffd5b61260189828a016124c2565b979a9699509760608101359660809091013595509350505050565b5f6020828403121561262c575f5ffd5b5035919050565b7f4e487b71000000000000000000000000000000000000000000000000000000005f52604160045260245ffd5b604051601f82017fffffffffffffffffffffffffffffffffffffffffffffffffffffffffffffffe016810167ffffffffffffffff811182821017156126a7576126a7612633565b604052919050565b5f82601f8301126126be575f5ffd5b813567ffffffffffffffff8111156126d8576126d8612633565b61270960207fffffffffffffffffffffffffffffffffffffffffffffffffffffffffffffffe0601f84011601612660565b81815284602083860101111561271d575f5ffd5b816020850160208301375f918101602001919091529392505050565b5f5f5f5f6080858703121561274c575f5ffd5b6127558561249a565b93506127636020860161249a565b925060408501359150606085013567ffffffffffffffff811115612785575f5ffd5b612791878288016126af565b91505092959194509250565b5f5f604083850312156127ae575f5ffd5b823591506127be6020840161249a565b90509250929050565b5f5f604083850312156127d8575f5ffd5b6127e18361249a565b91506127be6020840161249a565b5f5f60408385031215612800575f5ffd5b6128098361249a565b9150602083013567ffffffffffffffff811115612824575f5ffd5b612830858286016126af565b9150509250929050565b7f4e487b71000000000000000000000000000000000000000000000000000000005f52602160045260245ffd5b60208101600483106128a0577f4e487b71000000000000000000000000000000000000000000000000000000005f52602160045260245ffd5b91905290565b5f5f83601f8401126128b6575f5ffd5b50813567ffffffffffffffff8111156128cd575f5ffd5b6020830191508360208260051b8501011115612500575f5ffd5b5f5f5f5f5f5f5f5f5f60c08a8c0312156128ff575f5ffd5b893567ffffffffffffffff811115612915575f5ffd5b6129218c828d016128a6565b909a5098505060208a013567ffffffffffffffff811115612940575f5ffd5b61294c8c828d016128a6565b90985096505060408a013567ffffffffffffffff81111561296b575f5ffd5b6129778c828d016128a6565b9a9d999c50979a969997986060880135976080810135975060a0013595509350505050565b602081525f82518060208401528060208501604085015e5f6040828501015260407fffffffffffffffffffffffffffffffffffffffffffffffffffffffffffffffe0601f83011684010191505092915050565b5f5f5f5f5f5f5f5f60a0898b031215612a06575f5ffd5b883567ffffffffffffffff811115612a1c575f5ffd5b612a288b828c016128a6565b909950975050602089013567ffffffffffffffff811115612a47575f5ffd5b612a538b828c016128a6565b909750955050604089013567ffffffffffffffff811115612a72575f5ffd5b612a7e8b828c016128a6565b999c989b509699959896976060870135966080013595509350505050565b5f67ffffffffffffffff821115612ab557612ab5612633565b5060051b60200190565b5f82601f830112612ace575f5ffd5b8135612ae1612adc82612a9c565b612660565b8082825260208201915060208360051b860101925085831115612b02575f5ffd5b602085015b83811015612b1f578035835260209283019201612b07565b5095945050505050565b5f5f5f5f5f60a08688031215612b3d575f5ffd5b612b468661249a565b9450612b546020870161249a565b9350604086013567ffffffffffffffff811115612b6f575f5ffd5b612b7b88828901612abf565b935050606086013567ffffffffffffffff811115612b97575f5ffd5b612ba388828901612abf565b925050608086013567ffffffffffffffff811115612bbf575f5ffd5b612bcb888289016126af565b9150509295509295909350565b5f82601f830112612be7575f5ffd5b8135612bf5612adc82612a9c565b8082825260208201915060208360051b860101925085831115612c16575f5ffd5b602085015b83811015612b1f57612c2c8161249a565b835260209283019201612c1b565b5f5f5f5f60808587031215612c4d575f5ffd5b84359350602085013567ffffffffffffffff811115612c6a575f5ffd5b612c7687828801612bd8565b935050604085013567ffffffffffffffff811115612c92575f5ffd5b612c9e87828801612bd8565b925050612cad6060860161249a565b905092959194509250565b5f5f5f5f5f60a08688031215612ccc575f5ffd5b612cd58661249a565b9450612ce36020870161249a565b93506040860135925060608601359150608086013567ffffffffffffffff811115612bbf575f5ffd5b81835281816020850137505f602082840101525f60207fffffffffffffffffffffffffffffffffffffffffffffffffffffffffffffffe0601f840116840101905092915050565b73ffffffffffffffffffffffffffffffffffffffff8716815285602082015260a060408201525f612d8860a083018688612d0c565b60608301949094525060800152949350505050565b73ffffffffffffffffffffffffffffffffffffffff85168152836020820152606060408201525f612dd2606083018486612d0c565b9695505050505050565b7f4e487b71000000000000000000000000000000000000000000000000000000005f52603260045260245ffd5b5f60208284031215612e19575f5ffd5b610f248261249a565b5f5f83357fffffffffffffffffffffffffffffffffffffffffffffffffffffffffffffffe1843603018112612e55575f5ffd5b83018035915067ffffffffffffffff821115612e6f575f5ffd5b602001915036819003821315612500575f5ffd5b5f8383855260208501945060208460051b820101835f5b86811015612f47577fffffffffffffffffffffffffffffffffffffffffffffffffffffffffffffffe084840301885281357fffffffffffffffffffffffffffffffffffffffffffffffffffffffffffffffe1873603018112612efa575f5ffd5b860160208101903567ffffffffffffffff811115612f16575f5ffd5b803603821315612f24575f5ffd5b612f2f858284612d0c565b60209a8b019a90955093909301925050600101612e9a565b50909695505050505050565b60a080825281018890525f8960c08301825b8b811015612fa05773ffffffffffffffffffffffffffffffffffffffff612f8b8461249a565b16825260209283019290910190600101612f65565b5083810360208501528881527f07ffffffffffffffffffffffffffffffffffffffffffffffffffffffffffffff891115612fd8575f5ffd5b8860051b9150818a602083013701828103602090810160408501526130009082018789612e83565b60608401959095525050608001529695505050505050565b808201808211156109b7577f4e487b71000000000000000000000000000000000000000000000000000000005f52601160045260245ffd5b818382375f9101908152919050565b5f6020828403121561306f575f5ffd5b5051919050565b5f82518060208501845e5f92019182525091905056fea164736f6c634300081b000a",
    "linkReferences": {}
  },
  "methodIdentifiers": {
    "CANCELLER_ROLE()": "b08e51c0",
    "DEFAULT_ADMIN_ROLE()": "a217fddf",
    "EXECUTOR_ROLE()": "07bd0265",
    "MIN_DELAY()": "9f81aed7",
    "NAME()": "a3f4df7e",
    "PROPOSER_ROLE()": "8f61f4f5",
    "UPGRADE_INTERFACE_VERSION()": "ad3cb1cc",
    "VERSION()": "ffa1ad74",
    "cancel(bytes32)": "c4d252f5",
    "execute(address,uint256,bytes,bytes32,bytes32)": "134008d3",
    "executeBatch(address[],uint256[],bytes[],bytes32,bytes32)": "e38335e5",
    "getMinDelay()": "f27a0c92",
    "getOperationState(bytes32)": "7958004c",
    "getRoleAdmin(bytes32)": "248a9ca3",
    "getTimestamp(bytes32)": "d45c4435",
    "grantRole(bytes32,address)": "2f2ff15d",
    "hasRole(bytes32,address)": "91d14854",
    "hashOperation(address,uint256,bytes,bytes32,bytes32)": "8065657f",
    "hashOperationBatch(address[],uint256[],bytes[],bytes32,bytes32)": "b1c5f427",
    "initialize(address,address)": "485cc955",
    "initialize(uint256,address[],address[],address)": "c4c4c7b3",
    "isOperation(bytes32)": "31d50750",
    "isOperationDone(bytes32)": "2ab0f529",
    "isOperationPending(bytes32)": "584b153e",
    "isOperationReady(bytes32)": "13bc9f20",
    "onERC1155BatchReceived(address,address,uint256[],uint256[],bytes)": "bc197c81",
    "onERC1155Received(address,address,uint256,uint256,bytes)": "f23a6e61",
    "onERC721Received(address,address,uint256,bytes)": "150b7a02",
    "proxiableUUID()": "52d1902d",
    "renounceRole(bytes32,address)": "36568abe",
    "revokeRole(bytes32,address)": "d547741f",
    "schedule(address,uint256,bytes,bytes32,bytes32,uint256)": "01d5062a",
    "scheduleBatch(address[],uint256[],bytes[],bytes32,bytes32,uint256)": "8f2a0bb0",
    "supportsInterface(bytes4)": "01ffc9a7",
    "updateDelay(uint256)": "64d62353",
    "upgradeToAndCall(address,bytes)": "4f1ef286"
  },
  "id": 0
}