{
  "abi": [
    {
      "type": "constructor",
      "inputs": [],
      "stateMutability": "nonpayable"
    },
    {
      "type": "receive",
      "stateMutability": "payable"
    },
    {
      "type": "function",
      "name": "CANCELLER_ROLE",
      "inputs": [],
      "outputs": [
        {
          "name": "",
          "type": "bytes32",
          "internalType": "bytes32"
        }
      ],
      "stateMutability": "view"
    },
    {
      "type": "function",
      "name": "DEFAULT_ADMIN_ROLE",
      "inputs": [],
      "outputs": [
        {
          "name": "",
          "type": "bytes32",
          "internalType": "bytes32"
        }
      ],
      "stateMutability": "view"
    },
    {
      "type": "function",
      "name": "EXECUTOR_ROLE",
      "inputs": [],
      "outputs": [
        {
          "name": "",
          "type": "bytes32",
          "internalType": "bytes32"
        }
      ],
      "stateMutability": "view"
    },
    {
      "type": "function",
      "name": "MIN_DELAY",
      "inputs": [],
      "outputs": [
        {
          "name": "",
          "type": "uint256",
          "internalType": "uint256"
        }
      ],
      "stateMutability": "view"
    },
    {
      "type": "function",
      "name": "NAME",
      "inputs": [],
      "outputs": [
        {
          "name": "",
          "type": "string",
          "internalType": "string"
        }
      ],
      "stateMutability": "view"
    },
    {
      "type": "function",
      "name": "PROPOSER_ROLE",
      "inputs": [],
      "outputs": [
        {
          "name": "",
          "type": "bytes32",
          "internalType": "bytes32"
        }
      ],
      "stateMutability": "view"
    },
    {
      "type": "function",
      "name": "UPGRADE_INTERFACE_VERSION",
      "inputs": [],
      "outputs": [
        {
          "name": "",
          "type": "string",
          "internalType": "string"
        }
      ],
      "stateMutability": "view"
    },
    {
      "type": "function",
      "name": "VERSION",
      "inputs": [],
      "outputs": [
        {
          "name": "",
          "type": "string",
          "internalType": "string"
        }
      ],
      "stateMutability": "view"
    },
    {
      "type": "function",
      "name": "cancel",
      "inputs": [
        {
          "name": "id",
          "type": "bytes32",
          "internalType": "bytes32"
        }
      ],
      "outputs": [],
      "stateMutability": "nonpayable"
    },
    {
      "type": "function",
      "name": "execute",
      "inputs": [
        {
          "name": "target",
          "type": "address",
          "internalType": "address"
        },
        {
          "name": "value",
          "type": "uint256",
          "internalType": "uint256"
        },
        {
          "name": "payload",
          "type": "bytes",
          "internalType": "bytes"
        },
        {
          "name": "predecessor",
          "type": "bytes32",
          "internalType": "bytes32"
        },
        {
          "name": "salt",
          "type": "bytes32",
          "internalType": "bytes32"
        }
      ],
      "outputs": [],
      "stateMutability": "payable"
    },
    {
      "type": "function",
      "name": "executeBatch",
      "inputs": [
        {
          "name": "targets",
          "type": "address[]",
          "internalType": "address[]"
        },
        {
          "name": "values",
          "type": "uint256[]",
          "internalType": "uint256[]"
        },
        {
          "name": "payloads",
          "type": "bytes[]",
          "internalType": "bytes[]"
        },
        {
          "name": "predecessor",
          "type": "bytes32",
          "internalType": "bytes32"
        },
        {
          "name": "salt",
          "type": "bytes32",
          "internalType": "bytes32"
        }
      ],
      "outputs": [],
      "stateMutability": "payable"
    },
    {
      "type": "function",
      "name": "getMinDelay",
      "inputs": [],
      "outputs": [
        {
          "name": "",
          "type": "uint256",
          "internalType": "uint256"
        }
      ],
      "stateMutability": "view"
    },
    {
      "type": "function",
      "name": "getOperationState",
      "inputs": [
        {
          "name": "id",
          "type": "bytes32",
          "internalType": "bytes32"
        }
      ],
      "outputs": [
        {
          "name": "",
          "type": "uint8",
          "internalType": "enum TimelockControllerUpgradeable.OperationState"
        }
      ],
      "stateMutability": "view"
    },
    {
      "type": "function",
      "name": "getRoleAdmin",
      "inputs": [
        {
          "name": "role",
          "type": "bytes32",
          "internalType": "bytes32"
        }
      ],
      "outputs": [
        {
          "name": "",
          "type": "bytes32",
          "internalType": "bytes32"
        }
      ],
      "stateMutability": "view"
    },
    {
      "type": "function",
      "name": "getTimestamp",
      "inputs": [
        {
          "name": "id",
          "type": "bytes32",
          "internalType": "bytes32"
        }
      ],
      "outputs": [
        {
          "name": "",
          "type": "uint256",
          "internalType": "uint256"
        }
      ],
      "stateMutability": "view"
    },
    {
      "type": "function",
      "name": "grantRole",
      "inputs": [
        {
          "name": "role",
          "type": "bytes32",
          "internalType": "bytes32"
        },
        {
          "name": "account",
          "type": "address",
          "internalType": "address"
        }
      ],
      "outputs": [],
      "stateMutability": "nonpayable"
    },
    {
      "type": "function",
      "name": "hasRole",
      "inputs": [
        {
          "name": "role",
          "type": "bytes32",
          "internalType": "bytes32"
        },
        {
          "name": "account",
          "type": "address",
          "internalType": "address"
        }
      ],
      "outputs": [
        {
          "name": "",
          "type": "bool",
          "internalType": "bool"
        }
      ],
      "stateMutability": "view"
    },
    {
      "type": "function",
      "name": "hashOperation",
      "inputs": [
        {
          "name": "target",
          "type": "address",
          "internalType": "address"
        },
        {
          "name": "value",
          "type": "uint256",
          "internalType": "uint256"
        },
        {
          "name": "data",
          "type": "bytes",
          "internalType": "bytes"
        },
        {
          "name": "predecessor",
          "type": "bytes32",
          "internalType": "bytes32"
        },
        {
          "name": "salt",
          "type": "bytes32",
          "internalType": "bytes32"
        }
      ],
      "outputs": [
        {
          "name": "",
          "type": "bytes32",
          "internalType": "bytes32"
        }
      ],
      "stateMutability": "pure"
    },
    {
      "type": "function",
      "name": "hashOperationBatch",
      "inputs": [
        {
          "name": "targets",
          "type": "address[]",
          "internalType": "address[]"
        },
        {
          "name": "values",
          "type": "uint256[]",
          "internalType": "uint256[]"
        },
        {
          "name": "payloads",
          "type": "bytes[]",
          "internalType": "bytes[]"
        },
        {
          "name": "predecessor",
          "type": "bytes32",
          "internalType": "bytes32"
        },
        {
          "name": "salt",
          "type": "bytes32",
          "internalType": "bytes32"
        }
      ],
      "outputs": [
        {
          "name": "",
          "type": "bytes32",
          "internalType": "bytes32"
        }
      ],
      "stateMutability": "pure"
    },
    {
      "type": "function",
      "name": "initialize",
      "inputs": [
        {
          "name": "lightWallet",
          "type": "address",
          "internalType": "address"
        },
        {
          "name": "lightProtocolController",
          "type": "address",
          "internalType": "address"
        }
      ],
      "outputs": [],
      "stateMutability": "nonpayable"
    },
    {
      "type": "function",
      "name": "initialize",
      "inputs": [
        {
          "name": "minDelay",
          "type": "uint256",
          "internalType": "uint256"
        },
        {
          "name": "proposers",
          "type": "address[]",
          "internalType": "address[]"
        },
        {
          "name": "executors",
          "type": "address[]",
          "internalType": "address[]"
        },
        {
          "name": "admin",
          "type": "address",
          "internalType": "address"
        }
      ],
      "outputs": [],
      "stateMutability": "nonpayable"
    },
    {
      "type": "function",
      "name": "isOperation",
      "inputs": [
        {
          "name": "id",
          "type": "bytes32",
          "internalType": "bytes32"
        }
      ],
      "outputs": [
        {
          "name": "",
          "type": "bool",
          "internalType": "bool"
        }
      ],
      "stateMutability": "view"
    },
    {
      "type": "function",
      "name": "isOperationDone",
      "inputs": [
        {
          "name": "id",
          "type": "bytes32",
          "internalType": "bytes32"
        }
      ],
      "outputs": [
        {
          "name": "",
          "type": "bool",
          "internalType": "bool"
        }
      ],
      "stateMutability": "view"
    },
    {
      "type": "function",
      "name": "isOperationPending",
      "inputs": [
        {
          "name": "id",
          "type": "bytes32",
          "internalType": "bytes32"
        }
      ],
      "outputs": [
        {
          "name": "",
          "type": "bool",
          "internalType": "bool"
        }
      ],
      "stateMutability": "view"
    },
    {
      "type": "function",
      "name": "isOperationReady",
      "inputs": [
        {
          "name": "id",
          "type": "bytes32",
          "internalType": "bytes32"
        }
      ],
      "outputs": [
        {
          "name": "",
          "type": "bool",
          "internalType": "bool"
        }
      ],
      "stateMutability": "view"
    },
    {
      "type": "function",
      "name": "onERC1155BatchReceived",
      "inputs": [
        {
          "name": "",
          "type": "address",
          "internalType": "address"
        },
        {
          "name": "",
          "type": "address",
          "internalType": "address"
        },
        {
          "name": "",
          "type": "uint256[]",
          "internalType": "uint256[]"
        },
        {
          "name": "",
          "type": "uint256[]",
          "internalType": "uint256[]"
        },
        {
          "name": "",
          "type": "bytes",
          "internalType": "bytes"
        }
      ],
      "outputs": [
        {
          "name": "",
          "type": "bytes4",
          "internalType": "bytes4"
        }
      ],
      "stateMutability": "nonpayable"
    },
    {
      "type": "function",
      "name": "onERC1155Received",
      "inputs": [
        {
          "name": "",
          "type": "address",
          "internalType": "address"
        },
        {
          "name": "",
          "type": "address",
          "internalType": "address"
        },
        {
          "name": "",
          "type": "uint256",
          "internalType": "uint256"
        },
        {
          "name": "",
          "type": "uint256",
          "internalType": "uint256"
        },
        {
          "name": "",
          "type": "bytes",
          "internalType": "bytes"
        }
      ],
      "outputs": [
        {
          "name": "",
          "type": "bytes4",
          "internalType": "bytes4"
        }
      ],
      "stateMutability": "nonpayable"
    },
    {
      "type": "function",
      "name": "onERC721Received",
      "inputs": [
        {
          "name": "",
          "type": "address",
          "internalType": "address"
        },
        {
          "name": "",
          "type": "address",
          "internalType": "address"
        },
        {
          "name": "",
          "type": "uint256",
          "internalType": "uint256"
        },
        {
          "name": "",
          "type": "bytes",
          "internalType": "bytes"
        }
      ],
      "outputs": [
        {
          "name": "",
          "type": "bytes4",
          "internalType": "bytes4"
        }
      ],
      "stateMutability": "nonpayable"
    },
    {
      "type": "function",
      "name": "proxiableUUID",
      "inputs": [],
      "outputs": [
        {
          "name": "",
          "type": "bytes32",
          "internalType": "bytes32"
        }
      ],
      "stateMutability": "view"
    },
    {
      "type": "function",
      "name": "renounceRole",
      "inputs": [
        {
          "name": "role",
          "type": "bytes32",
          "internalType": "bytes32"
        },
        {
          "name": "callerConfirmation",
          "type": "address",
          "internalType": "address"
        }
      ],
      "outputs": [],
      "stateMutability": "nonpayable"
    },
    {
      "type": "function",
      "name": "revokeRole",
      "inputs": [
        {
          "name": "role",
          "type": "bytes32",
          "internalType": "bytes32"
        },
        {
          "name": "account",
          "type": "address",
          "internalType": "address"
        }
      ],
      "outputs": [],
      "stateMutability": "nonpayable"
    },
    {
      "type": "function",
      "name": "schedule",
      "inputs": [
        {
          "name": "target",
          "type": "address",
          "internalType": "address"
        },
        {
          "name": "value",
          "type": "uint256",
          "internalType": "uint256"
        },
        {
          "name": "data",
          "type": "bytes",
          "internalType": "bytes"
        },
        {
          "name": "predecessor",
          "type": "bytes32",
          "internalType": "bytes32"
        },
        {
          "name": "salt",
          "type": "bytes32",
          "internalType": "bytes32"
        },
        {
          "name": "delay",
          "type": "uint256",
          "internalType": "uint256"
        }
      ],
      "outputs": [],
      "stateMutability": "nonpayable"
    },
    {
      "type": "function",
      "name": "scheduleBatch",
      "inputs": [
        {
          "name": "targets",
          "type": "address[]",
          "internalType": "address[]"
        },
        {
          "name": "values",
          "type": "uint256[]",
          "internalType": "uint256[]"
        },
        {
          "name": "payloads",
          "type": "bytes[]",
          "internalType": "bytes[]"
        },
        {
          "name": "predecessor",
          "type": "bytes32",
          "internalType": "bytes32"
        },
        {
          "name": "salt",
          "type": "bytes32",
          "internalType": "bytes32"
        },
        {
          "name": "delay",
          "type": "uint256",
          "internalType": "uint256"
        }
      ],
      "outputs": [],
      "stateMutability": "nonpayable"
    },
    {
      "type": "function",
      "name": "supportsInterface",
      "inputs": [
        {
          "name": "interfaceId",
          "type": "bytes4",
          "internalType": "bytes4"
        }
      ],
      "outputs": [
        {
          "name": "",
          "type": "bool",
          "internalType": "bool"
        }
      ],
      "stateMutability": "view"
    },
    {
      "type": "function",
      "name": "updateDelay",
      "inputs": [
        {
          "name": "newDelay",
          "type": "uint256",
          "internalType": "uint256"
        }
      ],
      "outputs": [],
      "stateMutability": "nonpayable"
    },
    {
      "type": "function",
      "name": "upgradeToAndCall",
      "inputs": [
        {
          "name": "newImplementation",
          "type": "address",
          "internalType": "address"
        },
        {
          "name": "data",
          "type": "bytes",
          "internalType": "bytes"
        }
      ],
      "outputs": [],
      "stateMutability": "payable"
    },
    {
      "type": "event",
      "name": "CallExecuted",
      "inputs": [
        {
          "name": "id",
          "type": "bytes32",
          "indexed": true,
          "internalType": "bytes32"
        },
        {
          "name": "index",
          "type": "uint256",
          "indexed": true,
          "internalType": "uint256"
        },
        {
          "name": "target",
          "type": "address",
          "indexed": false,
          "internalType": "address"
        },
        {
          "name": "value",
          "type": "uint256",
          "indexed": false,
          "internalType": "uint256"
        },
        {
          "name": "data",
          "type": "bytes",
          "indexed": false,
          "internalType": "bytes"
        }
      ],
      "anonymous": false
    },
    {
      "type": "event",
      "name": "CallSalt",
      "inputs": [
        {
          "name": "id",
          "type": "bytes32",
          "indexed": true,
          "internalType": "bytes32"
        },
        {
          "name": "salt",
          "type": "bytes32",
          "indexed": false,
          "internalType": "bytes32"
        }
      ],
      "anonymous": false
    },
    {
      "type": "event",
      "name": "CallScheduled",
      "inputs": [
        {
          "name": "id",
          "type": "bytes32",
          "indexed": true,
          "internalType": "bytes32"
        },
        {
          "name": "index",
          "type": "uint256",
          "indexed": true,
          "internalType": "uint256"
        },
        {
          "name": "target",
          "type": "address",
          "indexed": false,
          "internalType": "address"
        },
        {
          "name": "value",
          "type": "uint256",
          "indexed": false,
          "internalType": "uint256"
        },
        {
          "name": "data",
          "type": "bytes",
          "indexed": false,
          "internalType": "bytes"
        },
        {
          "name": "predecessor",
          "type": "bytes32",
          "indexed": false,
          "internalType": "bytes32"
        },
        {
          "name": "delay",
          "type": "uint256",
          "indexed": false,
          "internalType": "uint256"
        }
      ],
      "anonymous": false
    },
    {
      "type": "event",
      "name": "Cancelled",
      "inputs": [
        {
          "name": "id",
          "type": "bytes32",
          "indexed": true,
          "internalType": "bytes32"
        }
      ],
      "anonymous": false
    },
    {
      "type": "event",
      "name": "Initialized",
      "inputs": [
        {
          "name": "version",
          "type": "uint64",
          "indexed": false,
          "internalType": "uint64"
        }
      ],
      "anonymous": false
    },
    {
      "type": "event",
      "name": "MinDelayChange",
      "inputs": [
        {
          "name": "oldDuration",
          "type": "uint256",
          "indexed": false,
          "internalType": "uint256"
        },
        {
          "name": "newDuration",
          "type": "uint256",
          "indexed": false,
          "internalType": "uint256"
        }
      ],
      "anonymous": false
    },
    {
      "type": "event",
      "name": "RoleAdminChanged",
      "inputs": [
        {
          "name": "role",
          "type": "bytes32",
          "indexed": true,
          "internalType": "bytes32"
        },
        {
          "name": "previousAdminRole",
          "type": "bytes32",
          "indexed": true,
          "internalType": "bytes32"
        },
        {
          "name": "newAdminRole",
          "type": "bytes32",
          "indexed": true,
          "internalType": "bytes32"
        }
      ],
      "anonymous": false
    },
    {
      "type": "event",
      "name": "RoleGranted",
      "inputs": [
        {
          "name": "role",
          "type": "bytes32",
          "indexed": true,
          "internalType": "bytes32"
        },
        {
          "name": "account",
          "type": "address",
          "indexed": true,
          "internalType": "address"
        },
        {
          "name": "sender",
          "type": "address",
          "indexed": true,
          "internalType": "address"
        }
      ],
      "anonymous": false
    },
    {
      "type": "event",
      "name": "RoleRevoked",
      "inputs": [
        {
          "name": "role",
          "type": "bytes32",
          "indexed": true,
          "internalType": "bytes32"
        },
        {
          "name": "account",
          "type": "address",
          "indexed": true,
          "internalType": "address"
        },
        {
          "name": "sender",
          "type": "address",
          "indexed": true,
          "internalType": "address"
        }
      ],
      "anonymous": false
    },
    {
      "type": "event",
      "name": "Upgraded",
      "inputs": [
        {
          "name": "implementation",
          "type": "address",
          "indexed": true,
          "internalType": "address"
        }
      ],
      "anonymous": false
    },
    {
      "type": "error",
      "name": "AccessControlBadConfirmation",
      "inputs": []
    },
    {
      "type": "error",
      "name": "AccessControlUnauthorizedAccount",
      "inputs": [
        {
          "name": "account",
          "type": "address",
          "internalType": "address"
        },
        {
          "name": "neededRole",
          "type": "bytes32",
          "internalType": "bytes32"
        }
      ]
    },
    {
      "type": "error",
      "name": "AddressEmptyCode",
      "inputs": [
        {
          "name": "target",
          "type": "address",
          "internalType": "address"
        }
      ]
    },
    {
      "type": "error",
      "name": "ERC1967InvalidImplementation",
      "inputs": [
        {
          "name": "implementation",
          "type": "address",
          "internalType": "address"
        }
      ]
    },
    {
      "type": "error",
      "name": "ERC1967NonPayable",
      "inputs": []
    },
    {
      "type": "error",
      "name": "FailedCall",
      "inputs": []
    },
    {
      "type": "error",
      "name": "InvalidInitialization",
      "inputs": []
    },
    {
      "type": "error",
      "name": "NotInitializing",
      "inputs": []
    },
    {
      "type": "error",
      "name": "OnlySelfAuth",
      "inputs": [
        {
          "name": "_sender",
          "type": "address",
          "internalType": "address"
        },
        {
          "name": "_self",
          "type": "address",
          "internalType": "address"
        }
      ]
    },
    {
      "type": "error",
      "name": "TimelockInsufficientDelay",
      "inputs": [
        {
          "name": "delay",
          "type": "uint256",
          "internalType": "uint256"
        },
        {
          "name": "minDelay",
          "type": "uint256",
          "internalType": "uint256"
        }
      ]
    },
    {
      "type": "error",
      "name": "TimelockInvalidOperationLength",
      "inputs": [
        {
          "name": "targets",
          "type": "uint256",
          "internalType": "uint256"
        },
        {
          "name": "payloads",
          "type": "uint256",
          "internalType": "uint256"
        },
        {
          "name": "values",
          "type": "uint256",
          "internalType": "uint256"
        }
      ]
    },
    {
      "type": "error",
      "name": "TimelockUnauthorizedCaller",
      "inputs": [
        {
          "name": "caller",
          "type": "address",
          "internalType": "address"
        }
      ]
    },
    {
      "type": "error",
      "name": "TimelockUnexecutedPredecessor",
      "inputs": [
        {
          "name": "predecessorId",
          "type": "bytes32",
          "internalType": "bytes32"
        }
      ]
    },
    {
      "type": "error",
      "name": "TimelockUnexpectedOperationState",
      "inputs": [
        {
          "name": "operationId",
          "type": "bytes32",
          "internalType": "bytes32"
        },
        {
          "name": "expectedStates",
          "type": "bytes32",
          "internalType": "bytes32"
        }
      ]
    },
    {
      "type": "error",
      "name": "UUPSUnauthorizedCallContext",
      "inputs": []
    },
    {
      "type": "error",
      "name": "UUPSUnsupportedProxiableUUID",
      "inputs": [
        {
          "name": "slot",
          "type": "bytes32",
          "internalType": "bytes32"
        }
      ]
    }
  ],
  "bytecode": {
    "object": "0x60c080604052346100d8573060805261012c60a0525f5160206134755f395f51905f525460ff8160401c166100c9576002600160401b03196001600160401b03821601610076575b60405161339890816100dd82396080518181816111b40152611295015260a051818181610ce801526116db0152f35b6001600160401b0319166001600160401b039081175f5160206134755f395f51905f525581527fc7f505b2f371ae2175ee4913f4499e1f2633a7b5936321eed1cdaeb6115181d290602090a15f80610047565b63f92ee8a960e01b5f5260045ffd5b5f80fdfe6080604052600436101561001a575b3615610018575f80fd5b005b5f3560e01c806301d5062a14611de957806301ffc9a714611cf757806307bd026514611c9f578063134008d314611bcc57806313bc9f2014611b90578063150b7a0214611b04578063248a9ca314611a9c5780632ab0f52914611a605780632f2ff15d146119e557806331d50750146119a957806336568abe14611921578063485cc9551461155a5780634f1ef2861461122c57806352d1902d1461116f578063584b153e1461112957806364d623531461104f5780637958004c14610fd55780638065657f14610fb65780638f2a0bb014610df75780638f61f4f514610d9f57806391d1485414610d0b5780639f81aed714610cb3578063a217fddf14610c7b578063a3f4df7e14610c06578063ad3cb1cc14610b91578063b08e51c014610b39578063b1c5f42714610b0f578063bc197c8114610a41578063c4c4c7b3146106a8578063c4d252f51461055b578063d45c4435146104f4578063d547741f14610472578063e38335e51461030d578063f23a6e6114610281578063f27a0c92146102275763ffa1ad740361000e5734610223575f7ffffffffffffffffffffffffffffffffffffffffffffffffffffffffffffffffc3601126102235761021f6040516101e9604082611fc2565b600581527f302e312e300000000000000000000000000000000000000000000000000000006020820152604051918291826120e1565b0390f35b5f80fd5b34610223575f7ffffffffffffffffffffffffffffffffffffffffffffffffffffffffffffffffc3601126102235760207f9a37c2aa9d186a0969ff8a8267bf4e07e864c2f2768f5040949e28a624fb360154604051908152f35b346102235760a07ffffffffffffffffffffffffffffffffffffffffffffffffffffffffffffffffc360112610223576102b8611eb3565b506102c1611ed6565b5060843567ffffffffffffffff8111610223576102e290369060040161206a565b5060206040517ff23a6e61000000000000000000000000000000000000000000000000000000008152f35b61031636612129565b5f80527f52fce5e8a5d0d9e8d1ea29f4525e512e9c27bf92cae50374d497f918ab48f3826020527fdd1864c1ab258d549957f6a4d7e3a5005661df58241dbbc1700fb170ef0615465492979196919593949260ff1615610464575b82821480159061045a575b6104265761039361039a91888a888789888d612572565b9687612a56565b5f5b8181106103ac5761001887612b3b565b8080887fc2617efa69bab66782fa219543714338489c4e9e178271560a91b82c3f612b58888861041d6104048f986001998f828e6103f78f836103f2916103fd966124e1565b6124f1565b976124e1565b3595612512565b9061041182828787612b0f565b60405194859485612316565b0390a30161039c565b5086907fffb03211000000000000000000000000000000000000000000000000000000005f5260045260245260445260645ffd5b508782141561037c565b61046d33612903565b610371565b346102235760407ffffffffffffffffffffffffffffffffffffffffffffffffffffffffffffffffc360112610223576100186004356104af611ed6565b906104ef6104e8825f527f02dd7bc7dec4dceedda775e58dd541e08a116c6c53815c0bd028192f7b626800602052600160405f20015490565b33906129b8565b61317f565b346102235760207ffffffffffffffffffffffffffffffffffffffffffffffffffffffffffffffffc360112610223576004355f527f9a37c2aa9d186a0969ff8a8267bf4e07e864c2f2768f5040949e28a624fb3600602052602060405f2054604051908152f35b346102235760207ffffffffffffffffffffffffffffffffffffffffffffffffffffffffffffffffc36011261022357335f9081527ffa71e07f24c4701ef65a970775979de1292cfe909335cd18a32d2b7b7398791460205260409020546004359060ff1615610658576105cd816123e0565b1561062557805f527f9a37c2aa9d186a0969ff8a8267bf4e07e864c2f2768f5040949e28a624fb36006020525f60408120557fbaa1eb22f2a492ba1a5fea61b8df4d27c6c8b5f3971e63bb58fa14ff72eedb705f80a2005b7f5ead8eb5000000000000000000000000000000000000000000000000000000005f52600452600460021760245260445ffd5b7fe2517d3f000000000000000000000000000000000000000000000000000000005f52336004527ffd643c72710c63c0180259aba6b2d05451e3591a24e58b62239378085726f78360245260445ffd5b346102235760807ffffffffffffffffffffffffffffffffffffffffffffffffffffffffffffffffc3601126102235760043560243567ffffffffffffffff8111610223576106fa90369060040161222d565b9060443567ffffffffffffffff81116102235761071b90369060040161222d565b6064359173ffffffffffffffffffffffffffffffffffffffff831692838103610223577ff0c57e16840df040f15088dc2f81fe391c3923bec73e23a9662efc9c229c6a00549360ff8560401c16159467ffffffffffffffff811680159081610a39575b6001149081610a2f575b159081610a26575b506109fe578560017fffffffffffffffffffffffffffffffffffffffffffffffff00000000000000008316177ff0c57e16840df040f15088dc2f81fe391c3923bec73e23a9662efc9c229c6a00556109a9575b506107ec613296565b6107f4613296565b6107fd30612b78565b50610999575b505f5b845181101561086c578061083b73ffffffffffffffffffffffffffffffffffffffff610834600194896123cc565b5116612c5f565b5061086573ffffffffffffffffffffffffffffffffffffffff61085e83896123cc565b5116612d63565b5001610806565b50825f5b83518110156108ac57806108a573ffffffffffffffffffffffffffffffffffffffff61089e600194886123cc565b5116612e67565b5001610870565b507f11c24f4ead16507c69ac467fbd5e4eed5fb5c699626d2cc6d66421df253886d5604083807f9a37c2aa9d186a0969ff8a8267bf4e07e864c2f2768f5040949e28a624fb3601558151905f82526020820152a161090657005b7fffffffffffffffffffffffffffffffffffffffffffffff00ffffffffffffffff7ff0c57e16840df040f15088dc2f81fe391c3923bec73e23a9662efc9c229c6a0054167ff0c57e16840df040f15088dc2f81fe391c3923bec73e23a9662efc9c229c6a00557fc7f505b2f371ae2175ee4913f4499e1f2633a7b5936321eed1cdaeb6115181d2602060405160018152a1005b6109a290612b78565b5084610803565b7fffffffffffffffffffffffffffffffffffffffffffffff0000000000000000001668010000000000000001177ff0c57e16840df040f15088dc2f81fe391c3923bec73e23a9662efc9c229c6a0055866107e3565b7ff92ee8a9000000000000000000000000000000000000000000000000000000005f5260045ffd5b90501588610790565b303b159150610788565b87915061077e565b346102235760a07ffffffffffffffffffffffffffffffffffffffffffffffffffffffffffffffffc36011261022357610a78611eb3565b50610a81611ed6565b5060443567ffffffffffffffff811161022357610aa29036906004016121d0565b5060643567ffffffffffffffff811161022357610ac39036906004016121d0565b5060843567ffffffffffffffff811161022357610ae490369060040161206a565b5060206040517fbc197c81000000000000000000000000000000000000000000000000000000008152f35b34610223576020610b31610b2236612129565b96959095949194939293612572565b604051908152f35b34610223575f7ffffffffffffffffffffffffffffffffffffffffffffffffffffffffffffffffc3601126102235760206040517ffd643c72710c63c0180259aba6b2d05451e3591a24e58b62239378085726f7838152f35b34610223575f7ffffffffffffffffffffffffffffffffffffffffffffffffffffffffffffffffc3601126102235761021f604051610bd0604082611fc2565b600581527f352e302e300000000000000000000000000000000000000000000000000000006020820152604051918291826120e1565b34610223575f7ffffffffffffffffffffffffffffffffffffffffffffffffffffffffffffffffc3601126102235761021f604051610c45604082611fc2565b601781527f4c6967687454696d656c6f636b436f6e74726f6c6c65720000000000000000006020820152604051918291826120e1565b34610223575f7ffffffffffffffffffffffffffffffffffffffffffffffffffffffffffffffffc3601126102235760206040515f8152f35b34610223575f7ffffffffffffffffffffffffffffffffffffffffffffffffffffffffffffffffc3601126102235760206040517f00000000000000000000000000000000000000000000000000000000000000008152f35b346102235760407ffffffffffffffffffffffffffffffffffffffffffffffffffffffffffffffffc36011261022357610d42611ed6565b6004355f527f02dd7bc7dec4dceedda775e58dd541e08a116c6c53815c0bd028192f7b62680060205273ffffffffffffffffffffffffffffffffffffffff60405f2091165f52602052602060ff60405f2054166040519015158152f35b34610223575f7ffffffffffffffffffffffffffffffffffffffffffffffffffffffffffffffffc3601126102235760206040517fb09aa5aeb3702cfd50b6b62bc4532604938f21248a27a1d5ca736082b6819cc18152f35b346102235760c07ffffffffffffffffffffffffffffffffffffffffffffffffffffffffffffffffc3601126102235760043567ffffffffffffffff811161022357610e469036906004016120b0565b9060243567ffffffffffffffff811161022357610e679036906004016120b0565b60449291923567ffffffffffffffff811161022357610e8a9036906004016120b0565b9390916064356084359560a43592610ea13361284e565b808914801590610fac575b610f7957610ec088848489858a8f8e612572565b98610ecb858b612752565b895f5b828110610f0b57508980610ede57005b60207f20fda5fd27a1ea7bf5b9567f143ac5470bb059374a27e8f67cb44f946f6d038791604051908152a2005b806001927f4cf4410cc57040e44862ef0f45f3dd5a5e02db8eb8add648d4b0e236f1d07dca8b8b610f6e8f8c610f618f928e610f5a8f8f90610f546103f28f80979481956124e1565b996124e1565b3597612512565b90604051968796876122d0565b0390a3018a90610ece565b90887fffb03211000000000000000000000000000000000000000000000000000000005f5260045260245260445260645ffd5b5081891415610eac565b34610223576020610b31610fc936611f48565b94939093929192612460565b346102235760207ffffffffffffffffffffffffffffffffffffffffffffffffffffffffffffffffc3601126102235761100f600435612409565b6040516004821015611022576020918152f35b7f4e487b71000000000000000000000000000000000000000000000000000000005f52602160045260245ffd5b346102235760207ffffffffffffffffffffffffffffffffffffffffffffffffffffffffffffffffc360112610223576004353033036110fd577f11c24f4ead16507c69ac467fbd5e4eed5fb5c699626d2cc6d66421df253886d560407f9a37c2aa9d186a0969ff8a8267bf4e07e864c2f2768f5040949e28a624fb3601548151908152836020820152a17f9a37c2aa9d186a0969ff8a8267bf4e07e864c2f2768f5040949e28a624fb360155005b7fe2850c59000000000000000000000000000000000000000000000000000000005f523360045260245ffd5b346102235760207ffffffffffffffffffffffffffffffffffffffffffffffffffffffffffffffffc3601126102235760206111656004356123e0565b6040519015158152f35b34610223575f7ffffffffffffffffffffffffffffffffffffffffffffffffffffffffffffffffc3601126102235773ffffffffffffffffffffffffffffffffffffffff7f00000000000000000000000000000000000000000000000000000000000000001630036112045760206040517f360894a13ba1a3210667c828492db98dca3e2076cc3735a920a3ca505d382bbc8152f35b7fe07c8dba000000000000000000000000000000000000000000000000000000005f5260045ffd5b60407ffffffffffffffffffffffffffffffffffffffffffffffffffffffffffffffffc3601126102235761125e611eb3565b60243567ffffffffffffffff81116102235761127e90369060040161206a565b73ffffffffffffffffffffffffffffffffffffffff7f000000000000000000000000000000000000000000000000000000000000000016803014908115611518575b50611204573033036114e85773ffffffffffffffffffffffffffffffffffffffff8216916040517f52d1902d000000000000000000000000000000000000000000000000000000008152602081600481875afa5f91816114b4575b5061134c57837f4c9c8ce3000000000000000000000000000000000000000000000000000000005f5260045260245ffd5b807f360894a13ba1a3210667c828492db98dca3e2076cc3735a920a3ca505d382bbc8592036114895750813b1561145e57807fffffffffffffffffffffffff00000000000000000000000000000000000000007f360894a13ba1a3210667c828492db98dca3e2076cc3735a920a3ca505d382bbc5416177f360894a13ba1a3210667c828492db98dca3e2076cc3735a920a3ca505d382bbc557fbc7cd75a20ee27fd9adebab32041f755214dbc6bffa90cc0225b39da2e5c2d3b5f80a281511561142d575f8083602061001895519101845af4611427612ae0565b91613324565b50503461143657005b7fb398979f000000000000000000000000000000000000000000000000000000005f5260045ffd5b7f4c9c8ce3000000000000000000000000000000000000000000000000000000005f5260045260245ffd5b7faa1d49a4000000000000000000000000000000000000000000000000000000005f5260045260245ffd5b9091506020813d6020116114e0575b816114d060209383611fc2565b810103126102235751908561131b565b3d91506114c3565b7fe1258894000000000000000000000000000000000000000000000000000000005f52336004523060245260445ffd5b905073ffffffffffffffffffffffffffffffffffffffff7f360894a13ba1a3210667c828492db98dca3e2076cc3735a920a3ca505d382bbc54161415836112c0565b346102235760407ffffffffffffffffffffffffffffffffffffffffffffffffffffffffffffffffc36011261022357611591611eb3565b611599611ed6565b907ff0c57e16840df040f15088dc2f81fe391c3923bec73e23a9662efc9c229c6a005460ff8160401c16159067ffffffffffffffff811680159081611919575b600114908161190f575b159081611906575b506109fe578160017fffffffffffffffffffffffffffffffffffffffffffffffff00000000000000008316177ff0c57e16840df040f15088dc2f81fe391c3923bec73e23a9662efc9c229c6a00556118b1575b5060409283519361164f8186611fc2565b600185527fffffffffffffffffffffffffffffffffffffffffffffffffffffffffffffffe08101928336602088013761168786612392565b73ffffffffffffffffffffffffffffffffffffffff861690528151936116ad8386611fc2565b600185523660208601376116c084612392565b73ffffffffffffffffffffffffffffffffffffffff841690527f000000000000000000000000000000000000000000000000000000000000000092611703613296565b61170b613296565b61171430612b78565b505f5b875181101561176f578061174573ffffffffffffffffffffffffffffffffffffffff6108346001948c6123cc565b5061176873ffffffffffffffffffffffffffffffffffffffff61085e838c6123cc565b5001611717565b50855f5b86518110156117a857806117a173ffffffffffffffffffffffffffffffffffffffff61089e6001948b6123cc565b5001611773565b5090611812611818927f11c24f4ead16507c69ac467fbd5e4eed5fb5c699626d2cc6d66421df253886d58688807f9a37c2aa9d186a0969ff8a8267bf4e07e864c2f2768f5040949e28a624fb3601558151905f82526020820152a161180c8161307d565b50612e67565b50612d63565b5061181f57005b60207fc7f505b2f371ae2175ee4913f4499e1f2633a7b5936321eed1cdaeb6115181d2917fffffffffffffffffffffffffffffffffffffffffffffff00ffffffffffffffff7ff0c57e16840df040f15088dc2f81fe391c3923bec73e23a9662efc9c229c6a0054167ff0c57e16840df040f15088dc2f81fe391c3923bec73e23a9662efc9c229c6a00555160018152a1005b7fffffffffffffffffffffffffffffffffffffffffffffff0000000000000000001668010000000000000001177ff0c57e16840df040f15088dc2f81fe391c3923bec73e23a9662efc9c229c6a00558361163e565b905015856115eb565b303b1591506115e3565b8391506115d9565b346102235760407ffffffffffffffffffffffffffffffffffffffffffffffffffffffffffffffffc36011261022357611958611ed6565b3373ffffffffffffffffffffffffffffffffffffffff821603611981576100189060043561317f565b7f6697b232000000000000000000000000000000000000000000000000000000005f5260045ffd5b346102235760207ffffffffffffffffffffffffffffffffffffffffffffffffffffffffffffffffc36011261022357602061116560043561237b565b346102235760407ffffffffffffffffffffffffffffffffffffffffffffffffffffffffffffffffc36011261022357610018600435611a22611ed6565b90611a5b6104e8825f527f02dd7bc7dec4dceedda775e58dd541e08a116c6c53815c0bd028192f7b626800602052600160405f20015490565b612f6b565b346102235760207ffffffffffffffffffffffffffffffffffffffffffffffffffffffffffffffffc360112610223576020611165600435612363565b346102235760207ffffffffffffffffffffffffffffffffffffffffffffffffffffffffffffffffc360112610223576020610b316004355f527f02dd7bc7dec4dceedda775e58dd541e08a116c6c53815c0bd028192f7b626800602052600160405f20015490565b346102235760807ffffffffffffffffffffffffffffffffffffffffffffffffffffffffffffffffc36011261022357611b3b611eb3565b50611b44611ed6565b5060643567ffffffffffffffff811161022357611b6590369060040161206a565b5060206040517f150b7a02000000000000000000000000000000000000000000000000000000008152f35b346102235760207ffffffffffffffffffffffffffffffffffffffffffffffffffffffffffffffffc36011261022357602061116560043561234b565b610018611c7d5f611c897fc2617efa69bab66782fa219543714338489c4e9e178271560a91b82c3f612b58611c74611c0336611f48565b7fd8aa0f3194971a2a116679f7c2090f6939c8d4e01a2a8d7e41d55e5351469e638a9995979299949394527f02dd7bc7dec4dceedda775e58dd541e08a116c6c53815c0bd028192f7b62680060205260408a208a805260205260ff60408b20541615611c91575b8884848989612460565b98899788612a56565b61041182828787612b0f565b0390a3612b3b565b611c9a33612903565b611c6a565b34610223575f7ffffffffffffffffffffffffffffffffffffffffffffffffffffffffffffffffc3601126102235760206040517fd8aa0f3194971a2a116679f7c2090f6939c8d4e01a2a8d7e41d55e5351469e638152f35b346102235760207ffffffffffffffffffffffffffffffffffffffffffffffffffffffffffffffffc360112610223576004357fffffffff00000000000000000000000000000000000000000000000000000000811680910361022357807f4e2312e00000000000000000000000000000000000000000000000000000000060209214908115611d8c575b506040519015158152f35b7f7965db0b00000000000000000000000000000000000000000000000000000000811491508115611dbf575b5082611d81565b7f01ffc9a70000000000000000000000000000000000000000000000000000000091501482611db8565b346102235760c07ffffffffffffffffffffffffffffffffffffffffffffffffffffffffffffffffc36011261022357611e20611eb3565b6024359060443567ffffffffffffffff8111610223577f4cf4410cc57040e44862ef0f45f3dd5a5e02db8eb8add648d4b0e236f1d07dca92611e675f923690600401611f1a565b94909160643594611ea96084359660a43590611e823361284e565b611e9089828c8a8989612460565b998a97611e9d848a612752565b604051968796876122d0565b0390a380610ede57005b6004359073ffffffffffffffffffffffffffffffffffffffff8216820361022357565b6024359073ffffffffffffffffffffffffffffffffffffffff8216820361022357565b359073ffffffffffffffffffffffffffffffffffffffff8216820361022357565b9181601f840112156102235782359167ffffffffffffffff8311610223576020838186019501011161022357565b60a07ffffffffffffffffffffffffffffffffffffffffffffffffffffffffffffffffc8201126102235760043573ffffffffffffffffffffffffffffffffffffffff811681036102235791602435916044359067ffffffffffffffff821161022357611fb691600401611f1a565b90916064359060843590565b90601f7fffffffffffffffffffffffffffffffffffffffffffffffffffffffffffffffe0910116810190811067ffffffffffffffff82111761200357604052565b7f4e487b71000000000000000000000000000000000000000000000000000000005f52604160045260245ffd5b67ffffffffffffffff811161200357601f017fffffffffffffffffffffffffffffffffffffffffffffffffffffffffffffffe01660200190565b81601f820112156102235780359061208182612030565b9261208f6040519485611fc2565b8284526020838301011161022357815f926020809301838601378301015290565b9181601f840112156102235782359167ffffffffffffffff8311610223576020808501948460051b01011161022357565b7fffffffffffffffffffffffffffffffffffffffffffffffffffffffffffffffe0601f602060409481855280519182918282880152018686015e5f8582860101520116010190565b60a07ffffffffffffffffffffffffffffffffffffffffffffffffffffffffffffffffc8201126102235760043567ffffffffffffffff81116102235781612172916004016120b0565b9290929160243567ffffffffffffffff81116102235781612195916004016120b0565b929092916044359067ffffffffffffffff821161022357611fb6916004016120b0565b67ffffffffffffffff81116120035760051b60200190565b9080601f830112156102235781356121e7816121b8565b926121f56040519485611fc2565b81845260208085019260051b82010192831161022357602001905b82821061221d5750505090565b8135815260209182019101612210565b9080601f83011215610223578135612244816121b8565b926122526040519485611fc2565b81845260208085019260051b82010192831161022357602001905b82821061227a5750505090565b6020809161228784611ef9565b81520191019061226d565b601f82602094937fffffffffffffffffffffffffffffffffffffffffffffffffffffffffffffffe093818652868601375f8582860101520116010190565b92909361230c9273ffffffffffffffffffffffffffffffffffffffff60809699989799168552602085015260a0604085015260a0840191612292565b9460608201520152565b612348949273ffffffffffffffffffffffffffffffffffffffff60609316825260208201528160408201520191612292565b90565b61235490612409565b60048110156110225760021490565b61236c90612409565b60048110156110225760031490565b61238490612409565b600481101561102257151590565b80511561239f5760200190565b7f4e487b71000000000000000000000000000000000000000000000000000000005f52603260045260245ffd5b805182101561239f5760209160051b010190565b6123e990612409565b60048110156110225760018114908115612401575090565b600291501490565b5f527f9a37c2aa9d186a0969ff8a8267bf4e07e864c2f2768f5040949e28a624fb360060205260405f205480155f1461244157505f90565b6001810361244f5750600390565b42101561245b57600190565b600290565b946124a46124db9495929360405196879573ffffffffffffffffffffffffffffffffffffffff602088019a168a52604087015260a0606087015260c0860191612292565b91608084015260a0830152037fffffffffffffffffffffffffffffffffffffffffffffffffffffffffffffffe08101835282611fc2565b51902090565b919081101561239f5760051b0190565b3573ffffffffffffffffffffffffffffffffffffffff811681036102235790565b919081101561239f5760051b810135907fffffffffffffffffffffffffffffffffffffffffffffffffffffffffffffffe18136030182121561022357019081359167ffffffffffffffff8311610223576020018236038113610223579190565b9693949190969592956040519660208801988060c08a0160a08c525260e0890192905f5b81811061271d575050507fffffffffffffffffffffffffffffffffffffffffffffffffffffffffffffffe08883030160408901528082527f07ffffffffffffffffffffffffffffffffffffffffffffffffffffffffffffff8111610223579087959394929160051b8092602083013701848103606086015260208101849052600584901b8101604090810194908201915f908890368290037fffffffffffffffffffffffffffffffffffffffffffffffffffffffffffffffe101905b84841061269a575050505050506124db9450608084015260a0830152037fffffffffffffffffffffffffffffffffffffffffffffffffffffffffffffffe08101835282611fc2565b919395979092949698507fffffffffffffffffffffffffffffffffffffffffffffffffffffffffffffffe08083830301018752893583811215610223578401906020823592019167ffffffffffffffff8111610223578036038313610223576127096020928392600195612292565b9b0197019401918a98969997959391612652565b90919360208060019273ffffffffffffffffffffffffffffffffffffffff61274489611ef9565b168152019501929101612596565b9061275c8261237b565b61281d577f9a37c2aa9d186a0969ff8a8267bf4e07e864c2f2768f5040949e28a624fb3601548082106127ee57504201908142116127c1575f527f9a37c2aa9d186a0969ff8a8267bf4e07e864c2f2768f5040949e28a624fb360060205260405f2055565b7f4e487b71000000000000000000000000000000000000000000000000000000005f52601160045260245ffd5b907f54336609000000000000000000000000000000000000000000000000000000005f5260045260245260445ffd5b507f5ead8eb5000000000000000000000000000000000000000000000000000000005f52600452600160245260445ffd5b73ffffffffffffffffffffffffffffffffffffffff81165f9081527f5a8734c34b98d7c96eb2ea25f298989407e1f25da116ec139bcce0887bcb7cf7602052604090205460ff161561289d5750565b73ffffffffffffffffffffffffffffffffffffffff907fe2517d3f000000000000000000000000000000000000000000000000000000005f52166004527fb09aa5aeb3702cfd50b6b62bc4532604938f21248a27a1d5ca736082b6819cc160245260445ffd5b73ffffffffffffffffffffffffffffffffffffffff81165f9081527f52fce5e8a5d0d9e8d1ea29f4525e512e9c27bf92cae50374d497f918ab48f382602052604090205460ff16156129525750565b73ffffffffffffffffffffffffffffffffffffffff907fe2517d3f000000000000000000000000000000000000000000000000000000005f52166004527fd8aa0f3194971a2a116679f7c2090f6939c8d4e01a2a8d7e41d55e5351469e6360245260445ffd5b90815f527f02dd7bc7dec4dceedda775e58dd541e08a116c6c53815c0bd028192f7b62680060205260405f2073ffffffffffffffffffffffffffffffffffffffff82165f5260205260ff60405f20541615612a11575050565b73ffffffffffffffffffffffffffffffffffffffff907fe2517d3f000000000000000000000000000000000000000000000000000000005f521660045260245260445ffd5b612a5f8161234b565b15612ab0575080151580612aa0575b612a755750565b7f90a9a618000000000000000000000000000000000000000000000000000000005f5260045260245ffd5b50612aaa81612363565b15612a6e565b7f5ead8eb5000000000000000000000000000000000000000000000000000000005f52600452600460245260445ffd5b3d15612b0a573d90612af182612030565b91612aff6040519384611fc2565b82523d5f602084013e565b606090565b612b38935f93928493826040519384928337810185815203925af1612b32612ae0565b90613287565b50565b612b448161234b565b15612ab0575f527f9a37c2aa9d186a0969ff8a8267bf4e07e864c2f2768f5040949e28a624fb3600602052600160405f2055565b73ffffffffffffffffffffffffffffffffffffffff81165f9081527fb7db2dd08fcb62d0c9e08c51941cae53c267786a0b75803fb7960902fc8ef97d602052604090205460ff16612c5a5773ffffffffffffffffffffffffffffffffffffffff165f8181527fb7db2dd08fcb62d0c9e08c51941cae53c267786a0b75803fb7960902fc8ef97d6020526040812080547fffffffffffffffffffffffffffffffffffffffffffffffffffffffffffffff001660011790553391907f2f8788117e7eff1d82e926ec794901d17c78024a50270940304540a733656f0d8180a4600190565b505f90565b73ffffffffffffffffffffffffffffffffffffffff81165f9081527f5a8734c34b98d7c96eb2ea25f298989407e1f25da116ec139bcce0887bcb7cf7602052604090205460ff16612c5a5773ffffffffffffffffffffffffffffffffffffffff165f8181527f5a8734c34b98d7c96eb2ea25f298989407e1f25da116ec139bcce0887bcb7cf76020526040812080547fffffffffffffffffffffffffffffffffffffffffffffffffffffffffffffff001660011790553391907fb09aa5aeb3702cfd50b6b62bc4532604938f21248a27a1d5ca736082b6819cc1907f2f8788117e7eff1d82e926ec794901d17c78024a50270940304540a733656f0d9080a4600190565b73ffffffffffffffffffffffffffffffffffffffff81165f9081527ffa71e07f24c4701ef65a970775979de1292cfe909335cd18a32d2b7b73987914602052604090205460ff16612c5a5773ffffffffffffffffffffffffffffffffffffffff165f8181527ffa71e07f24c4701ef65a970775979de1292cfe909335cd18a32d2b7b739879146020526040812080547fffffffffffffffffffffffffffffffffffffffffffffffffffffffffffffff001660011790553391907ffd643c72710c63c0180259aba6b2d05451e3591a24e58b62239378085726f783907f2f8788117e7eff1d82e926ec794901d17c78024a50270940304540a733656f0d9080a4600190565b73ffffffffffffffffffffffffffffffffffffffff81165f9081527f52fce5e8a5d0d9e8d1ea29f4525e512e9c27bf92cae50374d497f918ab48f382602052604090205460ff16612c5a5773ffffffffffffffffffffffffffffffffffffffff165f8181527f52fce5e8a5d0d9e8d1ea29f4525e512e9c27bf92cae50374d497f918ab48f3826020526040812080547fffffffffffffffffffffffffffffffffffffffffffffffffffffffffffffff001660011790553391907fd8aa0f3194971a2a116679f7c2090f6939c8d4e01a2a8d7e41d55e5351469e63907f2f8788117e7eff1d82e926ec794901d17c78024a50270940304540a733656f0d9080a4600190565b805f527f02dd7bc7dec4dceedda775e58dd541e08a116c6c53815c0bd028192f7b62680060205260405f2073ffffffffffffffffffffffffffffffffffffffff83165f5260205260ff60405f205416155f1461307757805f527f02dd7bc7dec4dceedda775e58dd541e08a116c6c53815c0bd028192f7b62680060205260405f2073ffffffffffffffffffffffffffffffffffffffff83165f5260205260405f2060017fffffffffffffffffffffffffffffffffffffffffffffffffffffffffffffff0082541617905573ffffffffffffffffffffffffffffffffffffffff339216907f2f8788117e7eff1d82e926ec794901d17c78024a50270940304540a733656f0d5f80a4600190565b50505f90565b73ffffffffffffffffffffffffffffffffffffffff81165f9081527ffa71e07f24c4701ef65a970775979de1292cfe909335cd18a32d2b7b73987914602052604090205460ff1615612c5a5773ffffffffffffffffffffffffffffffffffffffff165f8181527ffa71e07f24c4701ef65a970775979de1292cfe909335cd18a32d2b7b739879146020526040812080547fffffffffffffffffffffffffffffffffffffffffffffffffffffffffffffff001690553391907ffd643c72710c63c0180259aba6b2d05451e3591a24e58b62239378085726f783907ff6391f5c32d9c69d2a47ea670b442974b53935d1edc7fd64eb21e047a839171b9080a4600190565b805f527f02dd7bc7dec4dceedda775e58dd541e08a116c6c53815c0bd028192f7b62680060205260405f2073ffffffffffffffffffffffffffffffffffffffff83165f5260205260ff60405f2054165f1461307757805f527f02dd7bc7dec4dceedda775e58dd541e08a116c6c53815c0bd028192f7b62680060205260405f2073ffffffffffffffffffffffffffffffffffffffff83165f5260205260405f207fffffffffffffffffffffffffffffffffffffffffffffffffffffffffffffff00815416905573ffffffffffffffffffffffffffffffffffffffff339216907ff6391f5c32d9c69d2a47ea670b442974b53935d1edc7fd64eb21e047a839171b5f80a4600190565b90919061329457506132ed565b565b60ff7ff0c57e16840df040f15088dc2f81fe391c3923bec73e23a9662efc9c229c6a005460401c16156132c557565b7fd7e6bcf8000000000000000000000000000000000000000000000000000000005f5260045ffd5b8051156132fc57805190602001fd5b7fd6bda275000000000000000000000000000000000000000000000000000000005f5260045ffd5b9061332f57506132ed565b81511580613382575b613340575090565b73ffffffffffffffffffffffffffffffffffffffff907f9996b315000000000000000000000000000000000000000000000000000000005f521660045260245ffd5b50803b1561333856fea164736f6c634300081b000af0c57e16840df040f15088dc2f81fe391c3923bec73e23a9662efc9c229c6a00",
    "linkReferences": {}
  },
  "methodIdentifiers": {
    "CANCELLER_ROLE()": "b08e51c0",
    "DEFAULT_ADMIN_ROLE()": "a217fddf",
    "EXECUTOR_ROLE()": "07bd0265",
    "MIN_DELAY()": "9f81aed7",
    "NAME()": "a3f4df7e",
    "PROPOSER_ROLE()": "8f61f4f5",
    "UPGRADE_INTERFACE_VERSION()": "ad3cb1cc",
    "VERSION()": "ffa1ad74",
    "cancel(bytes32)": "c4d252f5",
    "execute(address,uint256,bytes,bytes32,bytes32)": "134008d3",
    "executeBatch(address[],uint256[],bytes[],bytes32,bytes32)": "e38335e5",
    "getMinDelay()": "f27a0c92",
    "getOperationState(bytes32)": "7958004c",
    "getRoleAdmin(bytes32)": "248a9ca3",
    "getTimestamp(bytes32)": "d45c4435",
    "grantRole(bytes32,address)": "2f2ff15d",
    "hasRole(bytes32,address)": "91d14854",
    "hashOperation(address,uint256,bytes,bytes32,bytes32)": "8065657f",
    "hashOperationBatch(address[],uint256[],bytes[],bytes32,bytes32)": "b1c5f427",
    "initialize(address,address)": "485cc955",
    "initialize(uint256,address[],address[],address)": "c4c4c7b3",
    "isOperation(bytes32)": "31d50750",
    "isOperationDone(bytes32)": "2ab0f529",
    "isOperationPending(bytes32)": "584b153e",
    "isOperationReady(bytes32)": "13bc9f20",
    "onERC1155BatchReceived(address,address,uint256[],uint256[],bytes)": "bc197c81",
    "onERC1155Received(address,address,uint256,uint256,bytes)": "f23a6e61",
    "onERC721Received(address,address,uint256,bytes)": "150b7a02",
    "proxiableUUID()": "52d1902d",
    "renounceRole(bytes32,address)": "36568abe",
    "revokeRole(bytes32,address)": "d547741f",
    "schedule(address,uint256,bytes,bytes32,bytes32,uint256)": "01d5062a",
    "scheduleBatch(address[],uint256[],bytes[],bytes32,bytes32,uint256)": "8f2a0bb0",
    "supportsInterface(bytes4)": "01ffc9a7",
    "updateDelay(uint256)": "64d62353",
    "upgradeToAndCall(address,bytes)": "4f1ef286"
  },
  "id": 0
}