{"abi":[{"type":"constructor","inputs":[],"stateMutability":"nonpayable"},{"type":"receive","stateMutability":"payable"},{"type":"function","name":"CANCELLER_ROLE","inputs":[],"outputs":[{"name":"","type":"bytes32","internalType":"bytes32"}],"stateMutability":"view"},{"type":"function","name":"DEFAULT_ADMIN_ROLE","inputs":[],"outputs":[{"name":"","type":"bytes32","internalType":"bytes32"}],"stateMutability":"view"},{"type":"function","name":"EXECUTOR_ROLE","inputs":[],"outputs":[{"name":"","type":"bytes32","internalType":"bytes32"}],"stateMutability":"view"},{"type":"function","name":"LIGHT_PROTOCOL_CONTROLLER","inputs":[],"outputs":[{"name":"","type":"address","internalType":"address"}],"stateMutability":"view"},{"type":"function","name":"MIN_DELAY","inputs":[],"outputs":[{"name":"","type":"uint256","internalType":"uint256"}],"stateMutability":"view"},{"type":"function","name":"NAME","inputs":[],"outputs":[{"name":"","type":"string","internalType":"string"}],"stateMutability":"view"},{"type":"function","name":"PROPOSER_ROLE","inputs":[],"outputs":[{"name":"","type":"bytes32","internalType":"bytes32"}],"stateMutability":"view"},{"type":"function","name":"UPGRADE_INTERFACE_VERSION","inputs":[],"outputs":[{"name":"","type":"string","internalType":"string"}],"stateMutability":"view"},{"type":"function","name":"VERSION","inputs":[],"outputs":[{"name":"","type":"string","internalType":"string"}],"stateMutability":"view"},{"type":"function","name":"cancel","inputs":[{"name":"id","type":"bytes32","internalType":"bytes32"}],"outputs":[],"stateMutability":"nonpayable"},{"type":"function","name":"execute","inputs":[{"name":"target","type":"address","internalType":"address"},{"name":"value","type":"uint256","internalType":"uint256"},{"name":"payload","type":"bytes","internalType":"bytes"},{"name":"predecessor","type":"bytes32","internalType":"bytes32"},{"name":"salt","type":"bytes32","internalType":"bytes32"}],"outputs":[],"stateMutability":"payable"},{"type":"function","name":"executeBatch","inputs":[{"name":"targets","type":"address[]","internalType":"address[]"},{"name":"values","type":"uint256[]","internalType":"uint256[]"},{"name":"payloads","type":"bytes[]","internalType":"bytes[]"},{"name":"predecessor","type":"bytes32","internalType":"bytes32"},{"name":"salt","type":"bytes32","internalType":"bytes32"}],"outputs":[],"stateMutability":"payable"},{"type":"function","name":"getMinDelay","inputs":[],"outputs":[{"name":"","type":"uint256","internalType":"uint256"}],"stateMutability":"view"},{"type":"function","name":"getOperationState","inputs":[{"name":"id","type":"bytes32","internalType":"bytes32"}],"outputs":[{"name":"","type":"uint8","internalType":"enum TimelockControllerUpgradeable.OperationState"}],"stateMutability":"view"},{"type":"function","name":"getRoleAdmin","inputs":[{"name":"role","type":"bytes32","internalType":"bytes32"}],"outputs":[{"name":"","type":"bytes32","internalType":"bytes32"}],"stateMutability":"view"},{"type":"function","name":"getTimestamp","inputs":[{"name":"id","type":"bytes32","internalType":"bytes32"}],"outputs":[{"name":"","type":"uint256","internalType":"uint256"}],"stateMutability":"view"},{"type":"function","name":"grantRole","inputs":[{"name":"role","type":"bytes32","internalType":"bytes32"},{"name":"account","type":"address","internalType":"address"}],"outputs":[],"stateMutability":"nonpayable"},{"type":"function","name":"hasRole","inputs":[{"name":"role","type":"bytes32","internalType":"bytes32"},{"name":"account","type":"address","internalType":"address"}],"outputs":[{"name":"","type":"bool","internalType":"bool"}],"stateMutability":"view"},{"type":"function","name":"hashOperation","inputs":[{"name":"target","type":"address","internalType":"address"},{"name":"value","type":"uint256","internalType":"uint256"},{"name":"data","type":"bytes","internalType":"bytes"},{"name":"predecessor","type":"bytes32","internalType":"bytes32"},{"name":"salt","type":"bytes32","internalType":"bytes32"}],"outputs":[{"name":"","type":"bytes32","internalType":"bytes32"}],"stateMutability":"pure"},{"type":"function","name":"hashOperationBatch","inputs":[{"name":"targets","type":"address[]","internalType":"address[]"},{"name":"values","type":"uint256[]","internalType":"uint256[]"},{"name":"payloads","type":"bytes[]","internalType":"bytes[]"},{"name":"predecessor","type":"bytes32","internalType":"bytes32"},{"name":"salt","type":"bytes32","internalType":"bytes32"}],"outputs":[{"name":"","type":"bytes32","internalType":"bytes32"}],"stateMutability":"pure"},{"type":"function","name":"initialize","inputs":[{"name":"wallet","type":"address","internalType":"address"}],"outputs":[],"stateMutability":"nonpayable"},{"type":"function","name":"isOperation","inputs":[{"name":"id","type":"bytes32","internalType":"bytes32"}],"outputs":[{"name":"","type":"bool","internalType":"bool"}],"stateMutability":"view"},{"type":"function","name":"isOperationDone","inputs":[{"name":"id","type":"bytes32","internalType":"bytes32"}],"outputs":[{"name":"","type":"bool","internalType":"bool"}],"stateMutability":"view"},{"type":"function","name":"isOperationPending","inputs":[{"name":"id","type":"bytes32","internalType":"bytes32"}],"outputs":[{"name":"","type":"bool","internalType":"bool"}],"stateMutability":"view"},{"type":"function","name":"isOperationReady","inputs":[{"name":"id","type":"bytes32","internalType":"bytes32"}],"outputs":[{"name":"","type":"bool","internalType":"bool"}],"stateMutability":"view"},{"type":"function","name":"onERC1155BatchReceived","inputs":[{"name":"","type":"address","internalType":"address"},{"name":"","type":"address","internalType":"address"},{"name":"","type":"uint256[]","internalType":"uint256[]"},{"name":"","type":"uint256[]","internalType":"uint256[]"},{"name":"","type":"bytes","internalType":"bytes"}],"outputs":[{"name":"","type":"bytes4","internalType":"bytes4"}],"stateMutability":"nonpayable"},{"type":"function","name":"onERC1155Received","inputs":[{"name":"","type":"address","internalType":"address"},{"name":"","type":"address","internalType":"address"},{"name":"","type":"uint256","internalType":"uint256"},{"name":"","type":"uint256","internalType":"uint256"},{"name":"","type":"bytes","internalType":"bytes"}],"outputs":[{"name":"","type":"bytes4","internalType":"bytes4"}],"stateMutability":"nonpayable"},{"type":"function","name":"onERC721Received","inputs":[{"name":"","type":"address","internalType":"address"},{"name":"","type":"address","internalType":"address"},{"name":"","type":"uint256","internalType":"uint256"},{"name":"","type":"bytes","internalType":"bytes"}],"outputs":[{"name":"","type":"bytes4","internalType":"bytes4"}],"stateMutability":"nonpayable"},{"type":"function","name":"proxiableUUID","inputs":[],"outputs":[{"name":"","type":"bytes32","internalType":"bytes32"}],"stateMutability":"view"},{"type":"function","name":"renounceRole","inputs":[{"name":"role","type":"bytes32","internalType":"bytes32"},{"name":"callerConfirmation","type":"address","internalType":"address"}],"outputs":[],"stateMutability":"nonpayable"},{"type":"function","name":"revokeRole","inputs":[{"name":"role","type":"bytes32","internalType":"bytes32"},{"name":"account","type":"address","internalType":"address"}],"outputs":[],"stateMutability":"nonpayable"},{"type":"function","name":"schedule","inputs":[{"name":"target","type":"address","internalType":"address"},{"name":"value","type":"uint256","internalType":"uint256"},{"name":"data","type":"bytes","internalType":"bytes"},{"name":"predecessor","type":"bytes32","internalType":"bytes32"},{"name":"salt","type":"bytes32","internalType":"bytes32"},{"name":"delay","type":"uint256","internalType":"uint256"}],"outputs":[],"stateMutability":"nonpayable"},{"type":"function","name":"scheduleBatch","inputs":[{"name":"targets","type":"address[]","internalType":"address[]"},{"name":"values","type":"uint256[]","internalType":"uint256[]"},{"name":"payloads","type":"bytes[]","internalType":"bytes[]"},{"name":"predecessor","type":"bytes32","internalType":"bytes32"},{"name":"salt","type":"bytes32","internalType":"bytes32"},{"name":"delay","type":"uint256","internalType":"uint256"}],"outputs":[],"stateMutability":"nonpayable"},{"type":"function","name":"supportsInterface","inputs":[{"name":"interfaceId","type":"bytes4","internalType":"bytes4"}],"outputs":[{"name":"","type":"bool","internalType":"bool"}],"stateMutability":"view"},{"type":"function","name":"updateDelay","inputs":[{"name":"newDelay","type":"uint256","internalType":"uint256"}],"outputs":[],"stateMutability":"nonpayable"},{"type":"function","name":"upgradeToAndCall","inputs":[{"name":"newImplementation","type":"address","internalType":"address"},{"name":"data","type":"bytes","internalType":"bytes"}],"outputs":[],"stateMutability":"payable"},{"type":"event","name":"CallExecuted","inputs":[{"name":"id","type":"bytes32","indexed":true,"internalType":"bytes32"},{"name":"index","type":"uint256","indexed":true,"internalType":"uint256"},{"name":"target","type":"address","indexed":false,"internalType":"address"},{"name":"value","type":"uint256","indexed":false,"internalType":"uint256"},{"name":"data","type":"bytes","indexed":false,"internalType":"bytes"}],"anonymous":false},{"type":"event","name":"CallSalt","inputs":[{"name":"id","type":"bytes32","indexed":true,"internalType":"bytes32"},{"name":"salt","type":"bytes32","indexed":false,"internalType":"bytes32"}],"anonymous":false},{"type":"event","name":"CallScheduled","inputs":[{"name":"id","type":"bytes32","indexed":true,"internalType":"bytes32"},{"name":"index","type":"uint256","indexed":true,"internalType":"uint256"},{"name":"target","type":"address","indexed":false,"internalType":"address"},{"name":"value","type":"uint256","indexed":false,"internalType":"uint256"},{"name":"data","type":"bytes","indexed":false,"internalType":"bytes"},{"name":"predecessor","type":"bytes32","indexed":false,"internalType":"bytes32"},{"name":"delay","type":"uint256","indexed":false,"internalType":"uint256"}],"anonymous":false},{"type":"event","name":"Cancelled","inputs":[{"name":"id","type":"bytes32","indexed":true,"internalType":"bytes32"}],"anonymous":false},{"type":"event","name":"Initialized","inputs":[{"name":"version","type":"uint64","indexed":false,"internalType":"uint64"}],"anonymous":false},{"type":"event","name":"MinDelayChange","inputs":[{"name":"oldDuration","type":"uint256","indexed":false,"internalType":"uint256"},{"name":"newDuration","type":"uint256","indexed":false,"internalType":"uint256"}],"anonymous":false},{"type":"event","name":"RoleAdminChanged","inputs":[{"name":"role","type":"bytes32","indexed":true,"internalType":"bytes32"},{"name":"previousAdminRole","type":"bytes32","indexed":true,"internalType":"bytes32"},{"name":"newAdminRole","type":"bytes32","indexed":true,"internalType":"bytes32"}],"anonymous":false},{"type":"event","name":"RoleGranted","inputs":[{"name":"role","type":"bytes32","indexed":true,"internalType":"bytes32"},{"name":"account","type":"address","indexed":true,"internalType":"address"},{"name":"sender","type":"address","indexed":true,"internalType":"address"}],"anonymous":false},{"type":"event","name":"RoleRevoked","inputs":[{"name":"role","type":"bytes32","indexed":true,"internalType":"bytes32"},{"name":"account","type":"address","indexed":true,"internalType":"address"},{"name":"sender","type":"address","indexed":true,"internalType":"address"}],"anonymous":false},{"type":"event","name":"Upgraded","inputs":[{"name":"implementation","type":"address","indexed":true,"internalType":"address"}],"anonymous":false},{"type":"error","name":"AccessControlBadConfirmation","inputs":[]},{"type":"error","name":"AccessControlUnauthorizedAccount","inputs":[{"name":"account","type":"address","internalType":"address"},{"name":"neededRole","type":"bytes32","internalType":"bytes32"}]},{"type":"error","name":"AddressEmptyCode","inputs":[{"name":"target","type":"address","internalType":"address"}]},{"type":"error","name":"ERC1967InvalidImplementation","inputs":[{"name":"implementation","type":"address","internalType":"address"}]},{"type":"error","name":"ERC1967NonPayable","inputs":[]},{"type":"error","name":"FailedInnerCall","inputs":[]},{"type":"error","name":"InvalidInitialization","inputs":[]},{"type":"error","name":"NotInitializing","inputs":[]},{"type":"error","name":"TimelockInsufficientDelay","inputs":[{"name":"delay","type":"uint256","internalType":"uint256"},{"name":"minDelay","type":"uint256","internalType":"uint256"}]},{"type":"error","name":"TimelockInvalidOperationLength","inputs":[{"name":"targets","type":"uint256","internalType":"uint256"},{"name":"payloads","type":"uint256","internalType":"uint256"},{"name":"values","type":"uint256","internalType":"uint256"}]},{"type":"error","name":"TimelockUnauthorizedCaller","inputs":[{"name":"caller","type":"address","internalType":"address"}]},{"type":"error","name":"TimelockUnexecutedPredecessor","inputs":[{"name":"predecessorId","type":"bytes32","internalType":"bytes32"}]},{"type":"error","name":"TimelockUnexpectedOperationState","inputs":[{"name":"operationId","type":"bytes32","internalType":"bytes32"},{"name":"expectedStates","type":"bytes32","internalType":"bytes32"}]},{"type":"error","name":"UUPSUnauthorizedCallContext","inputs":[]},{"type":"error","name":"UUPSUnsupportedProxiableUUID","inputs":[{"name":"slot","type":"bytes32","internalType":"bytes32"}]}],"bytecode":{"object":"0x60e06040523060805261012c60a052600060c05234801561001f57600080fd5b5061002861002d565b6100df565b7ff0c57e16840df040f15088dc2f81fe391c3923bec73e23a9662efc9c229c6a00805468010000000000000000900460ff161561007d5760405163f92ee8a960e01b815260040160405180910390fd5b80546001600160401b03908116146100dc5780546001600160401b0319166001600160401b0390811782556040519081527fc7f505b2f371ae2175ee4913f4499e1f2633a7b5936321eed1cdaeb6115181d29060200160405180910390a15b50565b60805160a05160c051612f3f610131600039600081816105fc01528181611279015261138e01526000818161065501526112ea015260008181611ba101528181611bca0152611deb0152612f3f6000f3fe6080604052600436106102535760003560e01c80638f61f4f511610138578063bc197c81116100b0578063d547741f1161007f578063f23a6e6111610064578063f23a6e6114610883578063f27a0c92146108c8578063ffa1ad74146108fc57600080fd5b8063d547741f14610850578063e38335e51461087057600080fd5b8063bc197c811461077f578063c4d252f5146107c4578063c4d66de8146107e4578063d45c44351461080457600080fd5b8063a217fddf11610107578063ad3cb1cc116100ec578063ad3cb1cc146106e2578063b08e51c01461072b578063b1c5f4271461075f57600080fd5b8063a217fddf14610677578063a3f4df7e1461068c57600080fd5b80638f61f4f51461054457806391d148541461057857806398d4ace3146105ea5780639f81aed71461064357600080fd5b806331d50750116101cb578063584b153e1161019a5780637958004c1161017f5780637958004c146104d75780638065657f146105045780638f2a0bb01461052457600080fd5b8063584b153e1461049757806364d62353146104b757600080fd5b806331d507501461042f57806336568abe1461044f5780634f1ef2861461046f57806352d1902d1461048257600080fd5b806313bc9f2011610222578063248a9ca311610207578063248a9ca3146103a05780632ab0f529146103ef5780632f2ff15d1461040f57600080fd5b806313bc9f201461030b578063150b7a021461032b57600080fd5b806301d5062a1461025f57806301ffc9a71461028157806307bd0265146102b6578063134008d3146102f857600080fd5b3661025a57005b600080fd5b34801561026b57600080fd5b5061027f61027a366004612445565b610945565b005b34801561028d57600080fd5b506102a161029c3660046124ba565b610a1b565b60405190151581526020015b60405180910390f35b3480156102c257600080fd5b506102ea7fd8aa0f3194971a2a116679f7c2090f6939c8d4e01a2a8d7e41d55e5351469e6381565b6040519081526020016102ad565b61027f6103063660046124fc565b610a2c565b34801561031757600080fd5b506102a1610326366004612568565b610b24565b34801561033757600080fd5b5061036f61034636600461268d565b7f150b7a0200000000000000000000000000000000000000000000000000000000949350505050565b6040517fffffffff0000000000000000000000000000000000000000000000000000000090911681526020016102ad565b3480156103ac57600080fd5b506102ea6103bb366004612568565b60009081527f02dd7bc7dec4dceedda775e58dd541e08a116c6c53815c0bd028192f7b626800602052604090206001015490565b3480156103fb57600080fd5b506102a161040a366004612568565b610b4a565b34801561041b57600080fd5b5061027f61042a3660046126f5565b610b53565b34801561043b57600080fd5b506102a161044a366004612568565b610b9d565b34801561045b57600080fd5b5061027f61046a3660046126f5565b610bc2565b61027f61047d366004612721565b610c20565b34801561048e57600080fd5b506102ea610c3f565b3480156104a357600080fd5b506102a16104b2366004612568565b610c6e565b3480156104c357600080fd5b5061027f6104d2366004612568565b610cb4565b3480156104e357600080fd5b506104f76104f2366004612568565b610d71565b6040516102ad919061279e565b34801561051057600080fd5b506102ea61051f3660046124fc565b610ddb565b34801561053057600080fd5b5061027f61053f366004612824565b610e1a565b34801561055057600080fd5b506102ea7fb09aa5aeb3702cfd50b6b62bc4532604938f21248a27a1d5ca736082b6819cc181565b34801561058457600080fd5b506102a16105933660046126f5565b60009182527f02dd7bc7dec4dceedda775e58dd541e08a116c6c53815c0bd028192f7b6268006020908152604080842073ffffffffffffffffffffffffffffffffffffffff93909316845291905290205460ff1690565b3480156105f657600080fd5b5061061e7f000000000000000000000000000000000000000000000000000000000000000081565b60405173ffffffffffffffffffffffffffffffffffffffff90911681526020016102ad565b34801561064f57600080fd5b506102ea7f000000000000000000000000000000000000000000000000000000000000000081565b34801561068357600080fd5b506102ea600081565b34801561069857600080fd5b506106d56040518060400160405280601781526020017f4c6967687454696d656c6f636b436f6e74726f6c6c657200000000000000000081525081565b6040516102ad9190612906565b3480156106ee57600080fd5b506106d56040518060400160405280600581526020017f352e302e3000000000000000000000000000000000000000000000000000000081525081565b34801561073757600080fd5b506102ea7ffd643c72710c63c0180259aba6b2d05451e3591a24e58b62239378085726f78381565b34801561076b57600080fd5b506102ea61077a366004612957565b610fbe565b34801561078b57600080fd5b5061036f61079a366004612a8f565b7fbc197c810000000000000000000000000000000000000000000000000000000095945050505050565b3480156107d057600080fd5b5061027f6107df366004612568565b611003565b3480156107f057600080fd5b5061027f6107ff366004612b45565b6110e9565b34801561081057600080fd5b506102ea61081f366004612568565b60009081527f9a37c2aa9d186a0969ff8a8267bf4e07e864c2f2768f5040949e28a624fb3600602052604090205490565b34801561085c57600080fd5b5061027f61086b3660046126f5565b61141e565b61027f61087e366004612957565b611462565b34801561088f57600080fd5b5061036f61089e366004612b60565b7ff23a6e610000000000000000000000000000000000000000000000000000000095945050505050565b3480156108d457600080fd5b507f9a37c2aa9d186a0969ff8a8267bf4e07e864c2f2768f5040949e28a624fb3601546102ea565b34801561090857600080fd5b506106d56040518060400160405280600581526020017f302e312e3000000000000000000000000000000000000000000000000000000081525081565b7fb09aa5aeb3702cfd50b6b62bc4532604938f21248a27a1d5ca736082b6819cc161096f81611642565b600061097f898989898989610ddb565b905061098b818461164f565b6000817f4cf4410cc57040e44862ef0f45f3dd5a5e02db8eb8add648d4b0e236f1d07dca8b8b8b8b8b8a6040516109c796959493929190612c02565b60405180910390a38315610a1057807f20fda5fd27a1ea7bf5b9567f143ac5470bb059374a27e8f67cb44f946f6d038785604051610a0791815260200190565b60405180910390a25b505050505050505050565b6000610a2682611756565b92915050565b600080527f52fce5e8a5d0d9e8d1ea29f4525e512e9c27bf92cae50374d497f918ab48f3826020527fdd1864c1ab258d549957f6a4d7e3a5005661df58241dbbc1700fb170ef061546547fd8aa0f3194971a2a116679f7c2090f6939c8d4e01a2a8d7e41d55e5351469e639060ff16610aa957610aa981336117ac565b6000610ab9888888888888610ddb565b9050610ac58185611853565b610ad1888888886118ba565b6000817fc2617efa69bab66782fa219543714338489c4e9e178271560a91b82c3f612b588a8a8a8a604051610b099493929190612c4d565b60405180910390a3610b1a8161193f565b5050505050505050565b600060025b610b3283610d71565b6003811115610b4357610b4361276f565b1492915050565b60006003610b29565b60008281527f02dd7bc7dec4dceedda775e58dd541e08a116c6c53815c0bd028192f7b6268006020526040902060010154610b8d81611642565b610b97838361198a565b50505050565b600080610ba983610d71565b6003811115610bba57610bba61276f565b141592915050565b73ffffffffffffffffffffffffffffffffffffffff81163314610c11576040517f6697b23200000000000000000000000000000000000000000000000000000000815260040160405180910390fd5b610c1b8282611aab565b505050565b610c28611b89565b610c3182611c8f565b610c3b8282611c9a565b5050565b6000610c49611dd3565b507f360894a13ba1a3210667c828492db98dca3e2076cc3735a920a3ca505d382bbc90565b600080610c7a83610d71565b90506001816003811115610c9057610c9061276f565b1480610cad57506002816003811115610cab57610cab61276f565b145b9392505050565b7f9a37c2aa9d186a0969ff8a8267bf4e07e864c2f2768f5040949e28a624fb360033308114610d2c576040517fe2850c5900000000000000000000000000000000000000000000000000000000815273ffffffffffffffffffffffffffffffffffffffff821660048201526024015b60405180910390fd5b600182015460408051918252602082018590527f11c24f4ead16507c69ac467fbd5e4eed5fb5c699626d2cc6d66421df253886d5910160405180910390a15060010155565b60008181527f9a37c2aa9d186a0969ff8a8267bf4e07e864c2f2768f5040949e28a624fb3600602052604081205480600003610db05750600092915050565b60018103610dc15750600392915050565b42811115610dd25750600192915050565b50600292915050565b6000868686868686604051602001610df896959493929190612c02565b6040516020818303038152906040528051906020012090509695505050505050565b7fb09aa5aeb3702cfd50b6b62bc4532604938f21248a27a1d5ca736082b6819cc1610e4481611642565b8887141580610e535750888514155b15610e9b576040517fffb03211000000000000000000000000000000000000000000000000000000008152600481018a90526024810186905260448101889052606401610d23565b6000610ead8b8b8b8b8b8b8b8b610fbe565b9050610eb9818461164f565b60005b8a811015610f6f5780827f4cf4410cc57040e44862ef0f45f3dd5a5e02db8eb8add648d4b0e236f1d07dca8e8e85818110610ef957610ef9612c83565b9050602002016020810190610f0e9190612b45565b8d8d86818110610f2057610f20612c83565b905060200201358c8c87818110610f3957610f39612c83565b9050602002810190610f4b9190612cb2565b8c8b604051610f5f96959493929190612c02565b60405180910390a3600101610ebc565b508315610fb157807f20fda5fd27a1ea7bf5b9567f143ac5470bb059374a27e8f67cb44f946f6d038785604051610fa891815260200190565b60405180910390a25b5050505050505050505050565b60008888888888888888604051602001610fdf989796959493929190612dec565b60405160208183030381529060405280519060200120905098975050505050505050565b7ffd643c72710c63c0180259aba6b2d05451e3591a24e58b62239378085726f78361102d81611642565b7f9a37c2aa9d186a0969ff8a8267bf4e07e864c2f2768f5040949e28a624fb360061105783610c6e565b6110ac57826110666002611e42565b6110706001611e42565b6040517f5ead8eb50000000000000000000000000000000000000000000000000000000081526004810193909352176024820152604401610d23565b6000838152602082905260408082208290555184917fbaa1eb22f2a492ba1a5fea61b8df4d27c6c8b5f3971e63bb58fa14ff72eedb7091a2505050565b7ff0c57e16840df040f15088dc2f81fe391c3923bec73e23a9662efc9c229c6a00805468010000000000000000810460ff16159067ffffffffffffffff166000811580156111345750825b905060008267ffffffffffffffff1660011480156111515750303b155b90508115801561115f575080155b15611196576040517ff92ee8a900000000000000000000000000000000000000000000000000000000815260040160405180910390fd5b84547fffffffffffffffffffffffffffffffffffffffffffffffff000000000000000016600117855583156111f75784547fffffffffffffffffffffffffffffffffffffffffffffff00ffffffffffffffff16680100000000000000001785555b60408051600180825281830190925260009160208083019080368337019050509050868160008151811061122d5761122d612c83565b73ffffffffffffffffffffffffffffffffffffffff92909216602092830291909101909101526040805160018082528183019092526000918160200160208202803683370190505090507f0000000000000000000000000000000000000000000000000000000000000000816000815181106112ab576112ab612c83565b602002602001019073ffffffffffffffffffffffffffffffffffffffff16908173ffffffffffffffffffffffffffffffffffffffff16815250506113127f000000000000000000000000000000000000000000000000000000000000000083836000611e65565b61133c7ffd643c72710c63c0180259aba6b2d05451e3591a24e58b62239378085726f78389611aab565b506113677fd8aa0f3194971a2a116679f7c2090f6939c8d4e01a2a8d7e41d55e5351469e638961198a565b506113b27ffd643c72710c63c0180259aba6b2d05451e3591a24e58b62239378085726f7837f000000000000000000000000000000000000000000000000000000000000000061198a565b50505083156114165784547fffffffffffffffffffffffffffffffffffffffffffffff00ffffffffffffffff168555604051600181527fc7f505b2f371ae2175ee4913f4499e1f2633a7b5936321eed1cdaeb6115181d29060200160405180910390a15b505050505050565b60008281527f02dd7bc7dec4dceedda775e58dd541e08a116c6c53815c0bd028192f7b626800602052604090206001015461145881611642565b610b978383611aab565b600080527f52fce5e8a5d0d9e8d1ea29f4525e512e9c27bf92cae50374d497f918ab48f3826020527fdd1864c1ab258d549957f6a4d7e3a5005661df58241dbbc1700fb170ef061546547fd8aa0f3194971a2a116679f7c2090f6939c8d4e01a2a8d7e41d55e5351469e639060ff166114df576114df81336117ac565b87861415806114ee5750878414155b15611536576040517fffb03211000000000000000000000000000000000000000000000000000000008152600481018990526024810185905260448101879052606401610d23565b60006115488a8a8a8a8a8a8a8a610fbe565b90506115548185611853565b60005b8981101561162c5760008b8b8381811061157357611573612c83565b90506020020160208101906115889190612b45565b905060008a8a8481811061159e5761159e612c83565b9050602002013590503660008a8a868181106115bc576115bc612c83565b90506020028101906115ce9190612cb2565b915091506115de848484846118ba565b84867fc2617efa69bab66782fa219543714338489c4e9e178271560a91b82c3f612b58868686866040516116159493929190612c4d565b60405180910390a350505050806001019050611557565b506116368161193f565b50505050505050505050565b61164c81336117ac565b50565b7f9a37c2aa9d186a0969ff8a8267bf4e07e864c2f2768f5040949e28a624fb360061167983610b9d565b156116c457826116896000611e42565b6040517f5ead8eb500000000000000000000000000000000000000000000000000000000815260048101929092526024820152604401610d23565b60006116ee7f9a37c2aa9d186a0969ff8a8267bf4e07e864c2f2768f5040949e28a624fb36015490565b905080831015611734576040517f543366090000000000000000000000000000000000000000000000000000000081526004810184905260248101829052604401610d23565b61173e8342612eb3565b60009485526020929092525060409092209190915550565b60007fffffffff0000000000000000000000000000000000000000000000000000000082167f4e2312e0000000000000000000000000000000000000000000000000000000001480610a265750610a2682611e79565b60008281527f02dd7bc7dec4dceedda775e58dd541e08a116c6c53815c0bd028192f7b6268006020908152604080832073ffffffffffffffffffffffffffffffffffffffff8516845290915290205460ff16610c3b576040517fe2517d3f00000000000000000000000000000000000000000000000000000000815273ffffffffffffffffffffffffffffffffffffffff8216600482015260248101839052604401610d23565b61185c82610b24565b61186b57816116896002611e42565b8015801590611880575061187e81610b4a565b155b15610c3b576040517f90a9a61800000000000000000000000000000000000000000000000000000000815260048101829052602401610d23565b6000808573ffffffffffffffffffffffffffffffffffffffff168585856040516118e5929190612eed565b60006040518083038185875af1925050503d8060008114611922576040519150601f19603f3d011682016040523d82523d6000602084013e611927565b606091505b50915091506119368282611f10565b50505050505050565b7f9a37c2aa9d186a0969ff8a8267bf4e07e864c2f2768f5040949e28a624fb360061196982610b24565b61197857816116896002611e42565b60009182526020526040902060019055565b60008281527f02dd7bc7dec4dceedda775e58dd541e08a116c6c53815c0bd028192f7b6268006020818152604080842073ffffffffffffffffffffffffffffffffffffffff8616855290915282205460ff16611aa15760008481526020828152604080832073ffffffffffffffffffffffffffffffffffffffff87168452909152902080547fffffffffffffffffffffffffffffffffffffffffffffffffffffffffffffff00166001179055611a3d3390565b73ffffffffffffffffffffffffffffffffffffffff168373ffffffffffffffffffffffffffffffffffffffff16857f2f8788117e7eff1d82e926ec794901d17c78024a50270940304540a733656f0d60405160405180910390a46001915050610a26565b6000915050610a26565b60008281527f02dd7bc7dec4dceedda775e58dd541e08a116c6c53815c0bd028192f7b6268006020818152604080842073ffffffffffffffffffffffffffffffffffffffff8616855290915282205460ff1615611aa15760008481526020828152604080832073ffffffffffffffffffffffffffffffffffffffff8716808552925280832080547fffffffffffffffffffffffffffffffffffffffffffffffffffffffffffffff0016905551339287917ff6391f5c32d9c69d2a47ea670b442974b53935d1edc7fd64eb21e047a839171b9190a46001915050610a26565b3073ffffffffffffffffffffffffffffffffffffffff7f0000000000000000000000000000000000000000000000000000000000000000161480611c5657507f000000000000000000000000000000000000000000000000000000000000000073ffffffffffffffffffffffffffffffffffffffff16611c3d7f360894a13ba1a3210667c828492db98dca3e2076cc3735a920a3ca505d382bbc5473ffffffffffffffffffffffffffffffffffffffff1690565b73ffffffffffffffffffffffffffffffffffffffff1614155b15611c8d576040517fe07c8dba00000000000000000000000000000000000000000000000000000000815260040160405180910390fd5b565b6000610c3b81611642565b8173ffffffffffffffffffffffffffffffffffffffff166352d1902d6040518163ffffffff1660e01b8152600401602060405180830381865afa925050508015611d1f575060408051601f3d9081017fffffffffffffffffffffffffffffffffffffffffffffffffffffffffffffffe0168201909252611d1c91810190612efd565b60015b611d6d576040517f4c9c8ce300000000000000000000000000000000000000000000000000000000815273ffffffffffffffffffffffffffffffffffffffff83166004820152602401610d23565b7f360894a13ba1a3210667c828492db98dca3e2076cc3735a920a3ca505d382bbc8114611dc9576040517faa1d49a400000000000000000000000000000000000000000000000000000000815260048101829052602401610d23565b610c1b8383611f2c565b3073ffffffffffffffffffffffffffffffffffffffff7f00000000000000000000000000000000000000000000000000000000000000001614611c8d576040517fe07c8dba00000000000000000000000000000000000000000000000000000000815260040160405180910390fd5b6000816003811115611e5657611e5661276f565b600160ff919091161b92915050565b611e6d611f8f565b610b9784848484611ff6565b60007fffffffff0000000000000000000000000000000000000000000000000000000082167f7965db0b000000000000000000000000000000000000000000000000000000001480610a2657507f01ffc9a7000000000000000000000000000000000000000000000000000000007fffffffff00000000000000000000000000000000000000000000000000000000831614610a26565b606082611f2557611f2082612178565b610a26565b5080610a26565b611f35826121ba565b60405173ffffffffffffffffffffffffffffffffffffffff8316907fbc7cd75a20ee27fd9adebab32041f755214dbc6bffa90cc0225b39da2e5c2d3b90600090a2805115611f8757610c1b8282612289565b610c3b61230c565b7ff0c57e16840df040f15088dc2f81fe391c3923bec73e23a9662efc9c229c6a005468010000000000000000900460ff16611c8d576040517fd7e6bcf800000000000000000000000000000000000000000000000000000000815260040160405180910390fd5b611ffe611f8f565b7f9a37c2aa9d186a0969ff8a8267bf4e07e864c2f2768f5040949e28a624fb360061202a60003061198a565b5073ffffffffffffffffffffffffffffffffffffffff8216156120545761205260008361198a565b505b60005b84518110156120e3576120a37fb09aa5aeb3702cfd50b6b62bc4532604938f21248a27a1d5ca736082b6819cc186838151811061209657612096612c83565b602002602001015161198a565b506120da7ffd643c72710c63c0180259aba6b2d05451e3591a24e58b62239378085726f78386838151811061209657612096612c83565b50600101612057565b5060005b835181101561212f576121267fd8aa0f3194971a2a116679f7c2090f6939c8d4e01a2a8d7e41d55e5351469e6385838151811061209657612096612c83565b506001016120e7565b50600181018590556040805160008152602081018790527f11c24f4ead16507c69ac467fbd5e4eed5fb5c699626d2cc6d66421df253886d5910160405180910390a15050505050565b8051156121885780518082602001fd5b6040517f1425ea4200000000000000000000000000000000000000000000000000000000815260040160405180910390fd5b8073ffffffffffffffffffffffffffffffffffffffff163b600003612223576040517f4c9c8ce300000000000000000000000000000000000000000000000000000000815273ffffffffffffffffffffffffffffffffffffffff82166004820152602401610d23565b7f360894a13ba1a3210667c828492db98dca3e2076cc3735a920a3ca505d382bbc80547fffffffffffffffffffffffff00000000000000000000000000000000000000001673ffffffffffffffffffffffffffffffffffffffff92909216919091179055565b60606000808473ffffffffffffffffffffffffffffffffffffffff16846040516122b39190612f16565b600060405180830381855af49150503d80600081146122ee576040519150601f19603f3d011682016040523d82523d6000602084013e6122f3565b606091505b5091509150612303858383612344565b95945050505050565b3415611c8d576040517fb398979f00000000000000000000000000000000000000000000000000000000815260040160405180910390fd5b6060826123595761235482612178565b610cad565b815115801561237d575073ffffffffffffffffffffffffffffffffffffffff84163b155b156123cc576040517f9996b31500000000000000000000000000000000000000000000000000000000815273ffffffffffffffffffffffffffffffffffffffff85166004820152602401610d23565b5092915050565b803573ffffffffffffffffffffffffffffffffffffffff811681146123f757600080fd5b919050565b60008083601f84011261240e57600080fd5b50813567ffffffffffffffff81111561242657600080fd5b60208301915083602082850101111561243e57600080fd5b9250929050565b600080600080600080600060c0888a03121561246057600080fd5b612469886123d3565b965060208801359550604088013567ffffffffffffffff81111561248c57600080fd5b6124988a828b016123fc565b989b979a50986060810135976080820135975060a09091013595509350505050565b6000602082840312156124cc57600080fd5b81357fffffffff0000000000000000000000000000000000000000000000000000000081168114610cad57600080fd5b60008060008060008060a0878903121561251557600080fd5b61251e876123d3565b955060208701359450604087013567ffffffffffffffff81111561254157600080fd5b61254d89828a016123fc565b979a9699509760608101359660809091013595509350505050565b60006020828403121561257a57600080fd5b5035919050565b7f4e487b7100000000000000000000000000000000000000000000000000000000600052604160045260246000fd5b604051601f82017fffffffffffffffffffffffffffffffffffffffffffffffffffffffffffffffe016810167ffffffffffffffff811182821017156125f7576125f7612581565b604052919050565b600082601f83011261261057600080fd5b813567ffffffffffffffff81111561262a5761262a612581565b61265b60207fffffffffffffffffffffffffffffffffffffffffffffffffffffffffffffffe0601f840116016125b0565b81815284602083860101111561267057600080fd5b816020850160208301376000918101602001919091529392505050565b600080600080608085870312156126a357600080fd5b6126ac856123d3565b93506126ba602086016123d3565b925060408501359150606085013567ffffffffffffffff8111156126dd57600080fd5b6126e9878288016125ff565b91505092959194509250565b6000806040838503121561270857600080fd5b82359150612718602084016123d3565b90509250929050565b6000806040838503121561273457600080fd5b61273d836123d3565b9150602083013567ffffffffffffffff81111561275957600080fd5b612765858286016125ff565b9150509250929050565b7f4e487b7100000000000000000000000000000000000000000000000000000000600052602160045260246000fd5b60208101600483106127d9577f4e487b7100000000000000000000000000000000000000000000000000000000600052602160045260246000fd5b91905290565b60008083601f8401126127f157600080fd5b50813567ffffffffffffffff81111561280957600080fd5b6020830191508360208260051b850101111561243e57600080fd5b600080600080600080600080600060c08a8c03121561284257600080fd5b893567ffffffffffffffff81111561285957600080fd5b6128658c828d016127df565b909a5098505060208a013567ffffffffffffffff81111561288557600080fd5b6128918c828d016127df565b90985096505060408a013567ffffffffffffffff8111156128b157600080fd5b6128bd8c828d016127df565b9a9d999c50979a969997986060880135976080810135975060a0013595509350505050565b60005b838110156128fd5781810151838201526020016128e5565b50506000910152565b60208152600082518060208401526129258160408501602087016128e2565b601f017fffffffffffffffffffffffffffffffffffffffffffffffffffffffffffffffe0169190910160400192915050565b60008060008060008060008060a0898b03121561297357600080fd5b883567ffffffffffffffff81111561298a57600080fd5b6129968b828c016127df565b909950975050602089013567ffffffffffffffff8111156129b657600080fd5b6129c28b828c016127df565b909750955050604089013567ffffffffffffffff8111156129e257600080fd5b6129ee8b828c016127df565b999c989b509699959896976060870135966080013595509350505050565b600082601f830112612a1d57600080fd5b813567ffffffffffffffff811115612a3757612a37612581565b8060051b612a47602082016125b0565b91825260208185018101929081019086841115612a6357600080fd5b6020860192505b83831015612a85578235825260209283019290910190612a6a565b9695505050505050565b600080600080600060a08688031215612aa757600080fd5b612ab0866123d3565b9450612abe602087016123d3565b9350604086013567ffffffffffffffff811115612ada57600080fd5b612ae688828901612a0c565b935050606086013567ffffffffffffffff811115612b0357600080fd5b612b0f88828901612a0c565b925050608086013567ffffffffffffffff811115612b2c57600080fd5b612b38888289016125ff565b9150509295509295909350565b600060208284031215612b5757600080fd5b610cad826123d3565b600080600080600060a08688031215612b7857600080fd5b612b81866123d3565b9450612b8f602087016123d3565b93506040860135925060608601359150608086013567ffffffffffffffff811115612b2c57600080fd5b8183528181602085013750600060208284010152600060207fffffffffffffffffffffffffffffffffffffffffffffffffffffffffffffffe0601f840116840101905092915050565b73ffffffffffffffffffffffffffffffffffffffff8716815285602082015260a060408201526000612c3860a083018688612bb9565b60608301949094525060800152949350505050565b73ffffffffffffffffffffffffffffffffffffffff85168152836020820152606060408201526000612a85606083018486612bb9565b7f4e487b7100000000000000000000000000000000000000000000000000000000600052603260045260246000fd5b60008083357fffffffffffffffffffffffffffffffffffffffffffffffffffffffffffffffe1843603018112612ce757600080fd5b83018035915067ffffffffffffffff821115612d0257600080fd5b60200191503681900382131561243e57600080fd5b60008383855260208501945060208460051b8201018360005b86811015612de0577fffffffffffffffffffffffffffffffffffffffffffffffffffffffffffffffe084840301885281357fffffffffffffffffffffffffffffffffffffffffffffffffffffffffffffffe1873603018112612d9157600080fd5b860160208101903567ffffffffffffffff811115612dae57600080fd5b803603821315612dbd57600080fd5b612dc8858284612bb9565b60209a8b019a90955093909301925050600101612d30565b50909695505050505050565b60a0808252810188905260008960c08301825b8b811015612e3a5773ffffffffffffffffffffffffffffffffffffffff612e25846123d3565b16825260209283019290910190600101612dff565b5083810360208501528881527f07ffffffffffffffffffffffffffffffffffffffffffffffffffffffffffffff891115612e7357600080fd5b8860051b9150818a60208301370182810360209081016040850152612e9b9082018789612d17565b60608401959095525050608001529695505050505050565b80820180821115610a26577f4e487b7100000000000000000000000000000000000000000000000000000000600052601160045260246000fd5b8183823760009101908152919050565b600060208284031215612f0f57600080fd5b5051919050565b60008251612f288184602087016128e2565b919091019291505056fea164736f6c634300081b000a","linkReferences":{}},"methodIdentifiers":{"CANCELLER_ROLE()":"b08e51c0","DEFAULT_ADMIN_ROLE()":"a217fddf","EXECUTOR_ROLE()":"07bd0265","LIGHT_PROTOCOL_CONTROLLER()":"98d4ace3","MIN_DELAY()":"9f81aed7","NAME()":"a3f4df7e","PROPOSER_ROLE()":"8f61f4f5","UPGRADE_INTERFACE_VERSION()":"ad3cb1cc","VERSION()":"ffa1ad74","cancel(bytes32)":"c4d252f5","execute(address,uint256,bytes,bytes32,bytes32)":"134008d3","executeBatch(address[],uint256[],bytes[],bytes32,bytes32)":"e38335e5","getMinDelay()":"f27a0c92","getOperationState(bytes32)":"7958004c","getRoleAdmin(bytes32)":"248a9ca3","getTimestamp(bytes32)":"d45c4435","grantRole(bytes32,address)":"2f2ff15d","hasRole(bytes32,address)":"91d14854","hashOperation(address,uint256,bytes,bytes32,bytes32)":"8065657f","hashOperationBatch(address[],uint256[],bytes[],bytes32,bytes32)":"b1c5f427","initialize(address)":"c4d66de8","isOperation(bytes32)":"31d50750","isOperationDone(bytes32)":"2ab0f529","isOperationPending(bytes32)":"584b153e","isOperationReady(bytes32)":"13bc9f20","onERC1155BatchReceived(address,address,uint256[],uint256[],bytes)":"bc197c81","onERC1155Received(address,address,uint256,uint256,bytes)":"f23a6e61","onERC721Received(address,address,uint256,bytes)":"150b7a02","proxiableUUID()":"52d1902d","renounceRole(bytes32,address)":"36568abe","revokeRole(bytes32,address)":"d547741f","schedule(address,uint256,bytes,bytes32,bytes32,uint256)":"01d5062a","scheduleBatch(address[],uint256[],bytes[],bytes32,bytes32,uint256)":"8f2a0bb0","supportsInterface(bytes4)":"01ffc9a7","updateDelay(uint256)":"64d62353","upgradeToAndCall(address,bytes)":"4f1ef286"},"id":0}