{
  "abi": [
    {
      "type": "constructor",
      "inputs": [
        {
          "name": "_fees",
          "type": "uint16",
          "internalType": "uint16"
        },
        {
          "name": "_owner",
          "type": "address",
          "internalType": "address"
        },
        {
          "name": "_treasury",
          "type": "address",
          "internalType": "address"
        }
      ],
      "stateMutability": "nonpayable"
    },
    {
      "type": "function",
      "name": "LIGHT_PROTOCOL_FEES",
      "inputs": [],
      "outputs": [
        {
          "name": "",
          "type": "uint16",
          "internalType": "uint16"
        }
      ],
      "stateMutability": "view"
    },
    {
      "type": "function",
      "name": "LIGHT_PROTOCOL_OWNER",
      "inputs": [],
      "outputs": [
        {
          "name": "",
          "type": "address",
          "internalType": "address"
        }
      ],
      "stateMutability": "view"
    },
    {
      "type": "function",
      "name": "LIGHT_PROTOCOL_TREASURY",
      "inputs": [],
      "outputs": [
        {
          "name": "",
          "type": "address",
          "internalType": "address"
        }
      ],
      "stateMutability": "view"
    },
    {
      "type": "function",
      "name": "NAME",
      "inputs": [],
      "outputs": [
        {
          "name": "",
          "type": "string",
          "internalType": "string"
        }
      ],
      "stateMutability": "view"
    },
    {
      "type": "function",
      "name": "VERSION",
      "inputs": [],
      "outputs": [
        {
          "name": "",
          "type": "string",
          "internalType": "string"
        }
      ],
      "stateMutability": "view"
    },
    {
      "type": "function",
      "name": "createVault",
      "inputs": [
        {
          "name": "underlying",
          "type": "address",
          "internalType": "address"
        },
        {
          "name": "bootstrapAmount",
          "type": "uint256",
          "internalType": "uint256"
        },
        {
          "name": "name",
          "type": "string",
          "internalType": "string"
        },
        {
          "name": "symbol",
          "type": "string",
          "internalType": "string"
        }
      ],
      "outputs": [
        {
          "name": "ret",
          "type": "address",
          "internalType": "contract LightVault"
        }
      ],
      "stateMutability": "nonpayable"
    },
    {
      "type": "function",
      "name": "getAddress",
      "inputs": [
        {
          "name": "underlying",
          "type": "address",
          "internalType": "contract IERC20"
        },
        {
          "name": "bootstrapAmount",
          "type": "uint256",
          "internalType": "uint256"
        },
        {
          "name": "name",
          "type": "string",
          "internalType": "string"
        },
        {
          "name": "symbol",
          "type": "string",
          "internalType": "string"
        }
      ],
      "outputs": [
        {
          "name": "",
          "type": "address",
          "internalType": "address"
        }
      ],
      "stateMutability": "view"
    },
    {
      "type": "function",
      "name": "vaultImplementation",
      "inputs": [],
      "outputs": [
        {
          "name": "",
          "type": "address",
          "internalType": "contract LightVault"
        }
      ],
      "stateMutability": "view"
    },
    {
      "type": "error",
      "name": "Create2EmptyBytecode",
      "inputs": []
    },
    {
      "type": "error",
      "name": "Create2FailedDeployment",
      "inputs": []
    },
    {
      "type": "error",
      "name": "Create2InsufficientBalance",
      "inputs": [
        {
          "name": "balance",
          "type": "uint256",
          "internalType": "uint256"
        },
        {
          "name": "needed",
          "type": "uint256",
          "internalType": "uint256"
        }
      ]
    },
    {
      "type": "error",
      "name": "TokenAddressZero",
      "inputs": []
    }
  ],
  "bytecode": {
    "object": "0x610100604052348015610010575f5ffd5b506040516172e53803806172e583398101604081905261002f916100a3565b60405161003b9061007b565b604051809103905ff080158015610054573d5f5f3e3d5ffd5b506001600160a01b0390811660805261ffff90931660a05290821660c0521660e0526100eb565b61637680610f6f83390190565b80516001600160a01b038116811461009e575f5ffd5b919050565b5f5f5f606084860312156100b5575f5ffd5b835161ffff811681146100c6575f5ffd5b92506100d460208501610088565b91506100e260408501610088565b90509250925092565b60805160a05160c05160e051610e1a6101555f395f8181608e01528181610253015261048601525f81816101af01528181610232015261046501525f818161016201528181610211015261044401525f818161013b0152818161036801526105820152610e1a5ff3fe608060405234801561000f575f5ffd5b5060043610610085575f3560e01c8063bc0db4a811610058578063bc0db4a81461015d578063e015319c14610197578063f4e99c8f146101aa578063ffa1ad74146101d1575f5ffd5b80630415ebcd146100895780633740235c146100da578063a3f4df7e146100ed578063bba48a9014610136575b5f5ffd5b6100b07f000000000000000000000000000000000000000000000000000000000000000081565b60405173ffffffffffffffffffffffffffffffffffffffff90911681526020015b60405180910390f35b6100b06100e8366004610884565b61020d565b6101296040518060400160405280601181526020017f4c696768745661756c74466163746f727900000000000000000000000000000081525081565b6040516100d19190610950565b6100b07f000000000000000000000000000000000000000000000000000000000000000081565b6101847f000000000000000000000000000000000000000000000000000000000000000081565b60405161ffff90911681526020016100d1565b6100b06101a5366004610884565b6103f3565b6100b07f000000000000000000000000000000000000000000000000000000000000000081565b6101296040518060400160405280600581526020017f302e312e3000000000000000000000000000000000000000000000000000000081525081565b5f5f7f00000000000000000000000000000000000000000000000000000000000000007f00000000000000000000000000000000000000000000000000000000000000007f00000000000000000000000000000000000000000000000000000000000000008888888860405160240161028c9796959493929190610962565b604080517fffffffffffffffffffffffffffffffffffffffffffffffffffffffffffffffe0818403018152918152602080830180517bffffffffffffffffffffffffffffffffffffffffffffffffffffffff167fb7edf40b0000000000000000000000000000000000000000000000000000000017905290519192506103e99173ffffffffffffffffffffffffffffffffffffffff89169161032f90820161075e565b7fffffffffffffffffffffffffffffffffffffffffffffffffffffffffffffffe082820381018352601f909101166040819052610392907f00000000000000000000000000000000000000000000000000000000000000009086906020016109f8565b604080517fffffffffffffffffffffffffffffffffffffffffffffffffffffffffffffffe0818403018152908290526103ce9291602001610a45565b60405160208183030381529060405280519060200120610648565b9695505050505050565b5f73ffffffffffffffffffffffffffffffffffffffff8516610441576040517f81c609f700000000000000000000000000000000000000000000000000000000815260040160405180910390fd5b5f7f00000000000000000000000000000000000000000000000000000000000000007f00000000000000000000000000000000000000000000000000000000000000007f0000000000000000000000000000000000000000000000000000000000000000888888886040516024016104bf9796959493929190610962565b604080517fffffffffffffffffffffffffffffffffffffffffffffffffffffffffffffffe0818403018152918152602080830180517bffffffffffffffffffffffffffffffffffffffffffffffffffffffff167fb7edf40b0000000000000000000000000000000000000000000000000000000017905290519192505f919061054990820161075e565b7fffffffffffffffffffffffffffffffffffffffffffffffffffffffffffffffe082820381018352601f9091011660408190526105ac907f00000000000000000000000000000000000000000000000000000000000000009085906020016109f8565b604080517fffffffffffffffffffffffffffffffffffffffffffffffffffffffffffffffe0818403018152908290526105e89291602001610a45565b604080517fffffffffffffffffffffffffffffffffffffffffffffffffffffffffffffffe0818403018152919052905073ffffffffffffffffffffffffffffffffffffffff87165f61063b81838561065b565b9998505050505050505050565b5f610654838330610735565b9392505050565b5f834710156106a3576040517fe4bbecac0000000000000000000000000000000000000000000000000000000081524760048201526024810185905260440160405180910390fd5b81515f036106dd576040517f4ca249dc00000000000000000000000000000000000000000000000000000000815260040160405180910390fd5b8282516020840186f5905073ffffffffffffffffffffffffffffffffffffffff8116610654576040517f741752c200000000000000000000000000000000000000000000000000000000815260040160405180910390fd5b5f604051836040820152846020820152828152600b8101905060ff815360559020949350505050565b6103b480610a5a83390190565b73ffffffffffffffffffffffffffffffffffffffff8116811461078c575f5ffd5b50565b7f4e487b71000000000000000000000000000000000000000000000000000000005f52604160045260245ffd5b5f82601f8301126107cb575f5ffd5b813567ffffffffffffffff8111156107e5576107e561078f565b6040517fffffffffffffffffffffffffffffffffffffffffffffffffffffffffffffffe0603f7fffffffffffffffffffffffffffffffffffffffffffffffffffffffffffffffe0601f8501160116810181811067ffffffffffffffff821117156108515761085161078f565b604052818152838201602001851015610868575f5ffd5b816020850160208301375f918101602001919091529392505050565b5f5f5f5f60808587031215610897575f5ffd5b84356108a28161076b565b935060208501359250604085013567ffffffffffffffff8111156108c4575f5ffd5b6108d0878288016107bc565b925050606085013567ffffffffffffffff8111156108ec575f5ffd5b6108f8878288016107bc565b91505092959194509250565b5f81518084528060208401602086015e5f6020828601015260207fffffffffffffffffffffffffffffffffffffffffffffffffffffffffffffffe0601f83011685010191505092915050565b602081525f6106546020830184610904565b61ffff8816815273ffffffffffffffffffffffffffffffffffffffff8716602082015273ffffffffffffffffffffffffffffffffffffffff8616604082015273ffffffffffffffffffffffffffffffffffffffff8516606082015283608082015260e060a08201525f6109d860e0830185610904565b82810360c08401526109ea8185610904565b9a9950505050505050505050565b73ffffffffffffffffffffffffffffffffffffffff83168152604060208201525f610a266040830184610904565b949350505050565b5f81518060208401855e5f93019283525090919050565b5f610a26610a538386610a2e565b84610a2e56fe60806040526040516103b43803806103b48339810160408190526100229161023c565b61002c8282610033565b5050610321565b61003c82610091565b6040516001600160a01b038316907fbc7cd75a20ee27fd9adebab32041f755214dbc6bffa90cc0225b39da2e5c2d3b905f90a280511561008557610080828261010c565b505050565b61008d61017f565b5050565b806001600160a01b03163b5f036100cb57604051634c9c8ce360e01b81526001600160a01b03821660048201526024015b60405180910390fd5b7f360894a13ba1a3210667c828492db98dca3e2076cc3735a920a3ca505d382bbc80546001600160a01b0319166001600160a01b0392909216919091179055565b60605f5f846001600160a01b031684604051610128919061030b565b5f60405180830381855af49150503d805f8114610160576040519150601f19603f3d011682016040523d82523d5f602084013e610165565b606091505b5090925090506101768583836101a0565b95945050505050565b341561019e5760405163b398979f60e01b815260040160405180910390fd5b565b6060826101b5576101b0826101ff565b6101f8565b81511580156101cc57506001600160a01b0384163b155b156101f557604051639996b31560e01b81526001600160a01b03851660048201526024016100c2565b50805b9392505050565b80511561020f5780518082602001fd5b604051630a12f52160e11b815260040160405180910390fd5b634e487b7160e01b5f52604160045260245ffd5b5f5f6040838503121561024d575f5ffd5b82516001600160a01b0381168114610263575f5ffd5b60208401519092506001600160401b0381111561027e575f5ffd5b8301601f8101851361028e575f5ffd5b80516001600160401b038111156102a7576102a7610228565b604051601f8201601f19908116603f011681016001600160401b03811182821017156102d5576102d5610228565b6040528181528282016020018710156102ec575f5ffd5b8160208401602083015e5f602083830101528093505050509250929050565b5f82518060208501845e5f920191825250919050565b60878061032d5f395ff3fe6080604052600a600c565b005b60186014601a565b605d565b565b5f60587f360894a13ba1a3210667c828492db98dca3e2076cc3735a920a3ca505d382bbc5473ffffffffffffffffffffffffffffffffffffffff1690565b905090565b365f5f375f5f365f845af43d5f5f3e8080156076573d5ff35b3d5ffdfea164736f6c634300081b000aa164736f6c634300081b000a6080604052348015600e575f5ffd5b506015601f565b601b601f565b60cf565b7ff0c57e16840df040f15088dc2f81fe391c3923bec73e23a9662efc9c229c6a00805468010000000000000000900460ff1615606e5760405163f92ee8a960e01b815260040160405180910390fd5b80546001600160401b039081161460cc5780546001600160401b0319166001600160401b0390811782556040519081527fc7f505b2f371ae2175ee4913f4499e1f2633a7b5936321eed1cdaeb6115181d29060200160405180910390a15b50565b61629a806100dc5f395ff3fe608060405234801561000f575f5ffd5b506004361061057f575f3560e01c80638456cb59116102db578063c6d8a07411610187578063de4e099b116100e8578063ebe7ef951161009e578063f2fde38b11610079578063f2fde38b14610d19578063f9c5fa4a14610d2c578063ffa1ad7414610d34575f5ffd5b8063ebe7ef9514610cf3578063ef8b30f714610b1b578063f0f4426014610d06575f5ffd5b8063e30c3978116100ce578063e30c397814610cc5578063e842cb4214610ccd578063eb208c3c14610ce0575f5ffd5b8063de4e099b14610c24578063de56603c14610cb2575f5ffd5b8063d505accf1161013d578063db2088f411610123578063db2088f414610b9a578063db6b207414610bad578063dd62ed3e14610bc0575f5ffd5b8063d505accf14610b74578063d905777e14610b87575f5ffd5b8063cce96c211161016d578063cce96c2114610b2e578063ce96cb7714610b4e578063d3181f5a14610b61575f5ffd5b8063c6d8a07414610afb578063c6e6f59214610b1b575f5ffd5b8063a9059cbb1161023c578063b460af94116101f2578063c3702989116101cd578063c370298914610a78578063c63d75b61461077c578063c6b61e4c14610ac0575f5ffd5b8063b460af9414610a3f578063b7edf40b14610a52578063ba08765214610a65575f5ffd5b8063aa9bbc0c11610222578063aa9bbc0c14610a10578063aff947c414610a19578063b3d7f6b914610a2c575f5ffd5b8063a9059cbb146109ea578063a91ba926146109fd575f5ffd5b80638e0055531161029157806394bf804d1161027757806394bf804d1461099357806395d89b41146109a6578063a3f4df7e146109ae575f5ffd5b80638e0055531461096d5780638e06aafc14610980575f5ffd5b806386ef56f5116102c157806386ef56f51461093f5780638da5cb5b146109525780638df828001461095a575f5ffd5b80638456cb591461091c57806384b0196e14610924575f5ffd5b80633f4ba83a1161043a5780635466ef171161039b5780636e553f651161035157806379ba50971161032c57806379ba5097146108f95780637ecebe001461090157806380023a6914610914575f5ffd5b80636e553f65146108cb57806370a08231146108de578063715018a6146108f1575f5ffd5b806361d027b31161038157806361d027b3146108855780636815e738146108a5578063690e7c09146108b8575f5ffd5b80635466ef17146108485780635c975abb1461085b575f5ffd5b806347d17d9d116103f05780634cdad506116103d65780634cdad506146105f257806353dc1dd3146107ee57806353f2286714610835575f5ffd5b806347d17d9d146107d35780634a99c6c1146107db575f5ffd5b80634375d8cd116104205780634375d8cd1461078f57806343d726d6146107b857806344b05fa2146107c0575f5ffd5b80633f4ba83a14610774578063402d267d1461077c575f5ffd5b80631291d4e0116104e457806323b872dd1161049a578063313ce56711610480578063313ce567146107065780633644e5151461072557806338d52e0f1461072d575f5ffd5b806323b872dd146106d35780633035106b146106e6575f5ffd5b806317d6eb81116104ca57806317d6eb811461068457806318160ddd14610699578063181e7b3b146106c0575f5ffd5b80631291d4e01461064657806316f79e3014610665575f5ffd5b806307a2d13a116105395780630a28a4771161051f5780630a28a477146106185780630a8810821461062b5780630c5cb57214610633575f5ffd5b806307a2d13a146105f2578063095ea7b314610605575f5ffd5b806301ffc9a71161056957806301ffc9a7146105b15780630217631e146105d457806306fdde03146105dd575f5ffd5b806288d3e51461058357806301e1d114146105a9575b5f5ffd5b610596610591366004615448565b610d70565b6040519081526020015b60405180910390f35b610596610dde565b6105c46105bf366004615490565b610f47565b60405190151581526020016105a0565b61059660015481565b6105e561102b565b6040516105a091906154f7565b610596610600366004615509565b6110e3565b6105c4610613366004615520565b6110ee565b610596610626366004615509565b611105565b610596611111565b610596610641366004615448565b6111a4565b610596610654366004615448565b60086020525f908152604090205481565b610596610673366004615448565b60076020525f908152604090205481565b610697610692366004615626565b6111bc565b005b7f52c63247e1f47db19d5ce0460030c497f067ca4cebf71ba98eeadabe20bace0254610596565b6105966106ce36600461568e565b611310565b6105c46106e13660046156ae565b61131c565b5f546106f39061ffff1681565b60405161ffff90911681526020016105a0565b5f54640100000000900460ff1660405160ff90911681526020016105a0565b61059661133f565b5f5465010000000000900473ffffffffffffffffffffffffffffffffffffffff165b60405173ffffffffffffffffffffffffffffffffffffffff90911681526020016105a0565b610697611348565b61059661078a366004615448565b61135a565b5f546105c490790100000000000000000000000000000000000000000000000000900460ff1681565b6106976113dc565b6105966107ce366004615448565b61154b565b6105966115a1565b6106976107e9366004615702565b6115c5565b6105966107fc366004615448565b6002545f90815260066020908152604080832073ffffffffffffffffffffffffffffffffffffffff909416835260039093019052205490565b610596610843366004615448565b611691565b61069761085636600461577b565b611711565b7fcd5ed15c6e187e77e9aee88184c21f4f2182ab5827cb3b7e07fbedcd63f033005460ff166105c4565b60035461074f9073ffffffffffffffffffffffffffffffffffffffff1681565b6105966108b3366004615448565b6118ba565b6106976108c6366004615509565b6118c7565b6105966108d936600461581c565b6119b8565b6105966108ec366004615448565b611a45565b610697611a95565b610697611aa6565b61059661090f366004615448565b611b21565b610596611b2b565b610697611b74565b61092c611b84565b6040516105a0979695949392919061584a565b61069761094d366004615909565b611c7e565b61074f611d00565b610697610968366004615509565b611d41565b61069761097b366004615909565b611e01565b61059661098e366004615922565b611f0f565b6105966109a136600461581c565b611fdc565b6105e5612069565b6105e56040518060400160405280600a81526020017f4c696768745661756c740000000000000000000000000000000000000000000081525081565b6105c46109f8366004615520565b6120ba565b610697610a0b366004615626565b6120c7565b61059660025481565b610596610a27366004615448565b612246565b610596610a3a366004615509565b6122ab565b610596610a4d36600461595e565b6122b7565b610697610a6036600461599d565b612345565b610596610a7336600461595e565b6125ef565b610596610a86366004615448565b600280545f90815260066020908152604080832073ffffffffffffffffffffffffffffffffffffffff909516835293909201909152205490565b610ae6610ace366004615509565b60066020525f90815260409020805460019091015482565b604080519283526020830191909152016105a0565b60045461074f9073ffffffffffffffffffffffffffffffffffffffff1681565b610596610b29366004615509565b61267d565b60055461074f9073ffffffffffffffffffffffffffffffffffffffff1681565b610596610b5c366004615448565b612688565b610596610b6f366004615448565b6126f5565b610697610b82366004615a5f565b612743565b610596610b95366004615448565b61290b565b610596610ba836600461568e565b61296f565b610596610bbb366004615448565b61297b565b610596610bce366004615acb565b73ffffffffffffffffffffffffffffffffffffffff9182165f9081527f52c63247e1f47db19d5ce0460030c497f067ca4cebf71ba98eeadabe20bace016020908152604080832093909416825291909152205490565b610c37610c32366004615509565b6129dc565b6040516105a094939291905f610160820190508582528460208301528360408301528251606083015260208301516080830152604083015160a0830152606083015160c0830152608083015160e083015260a083015161010083015260c083015161012083015260e083015161014083015295945050505050565b610596610cc0366004615448565b612c27565b61074f612c3a565b610697610cdb366004615509565b612c62565b610596610cee366004615448565b612d9b565b610697610d01366004615509565b612db1565b610697610d14366004615448565b612ed6565b610697610d27366004615448565b612f72565b610596613029565b6105e56040518060400160405280600581526020017f302e312e3000000000000000000000000000000000000000000000000000000081525081565b73ffffffffffffffffffffffffffffffffffffffff81165f908152600860205260408120546002548114610dd5575f81815260066020908152604080832073ffffffffffffffffffffffffffffffffffffffff87168452600301909152902054610dd7565b5f5b9392505050565b5f8054790100000000000000000000000000000000000000000000000000900460ff1615610ea3575f546040517f70a082310000000000000000000000000000000000000000000000000000000081523060048201526501000000000090910473ffffffffffffffffffffffffffffffffffffffff16906370a08231906024015b602060405180830381865afa158015610e7a573d5f5f3e3d5ffd5b505050506040513d601f19601f82011682018060405250810190610e9e9190615af7565b905090565b6001545f546040517f70a082310000000000000000000000000000000000000000000000000000000081523060048201526501000000000090910473ffffffffffffffffffffffffffffffffffffffff16906370a0823190602401602060405180830381865afa158015610f19573d5f5f3e3d5ffd5b505050506040513d601f19601f82011682018060405250810190610f3d9190615af7565b610e9e9190615b3b565b5f7fffffffff0000000000000000000000000000000000000000000000000000000082167f01ffc9a7000000000000000000000000000000000000000000000000000000001480610fd957507fffffffff0000000000000000000000000000000000000000000000000000000082167f440af65200000000000000000000000000000000000000000000000000000000145b8061102557507fffffffff0000000000000000000000000000000000000000000000000000000082167f6a6b80af00000000000000000000000000000000000000000000000000000000145b92915050565b60605f7f52c63247e1f47db19d5ce0460030c497f067ca4cebf71ba98eeadabe20bace005b905080600301805461106190615b4e565b80601f016020809104026020016040519081016040528092919081815260200182805461108d90615b4e565b80156110d85780601f106110af576101008083540402835291602001916110d8565b820191905f5260205f20905b8154815290600101906020018083116110bb57829003601f168201915b505050505091505090565b5f611025825f61308c565b5f336110fb8185856130da565b5060019392505050565b5f6110258260016130ec565b5f8054790100000000000000000000000000000000000000000000000000900460ff1661119f575f54600480546040517f70a0823100000000000000000000000000000000000000000000000000000000815273ffffffffffffffffffffffffffffffffffffffff9182169281019290925265010000000000909204909116906370a0823190602401610e5f565b505f90565b5f6111ad61312b565b6110253383613187565b919050565b6111c461312b565b5f54790100000000000000000000000000000000000000000000000000900460ff161561121d576040517fcf9c0f0900000000000000000000000000000000000000000000000000000000815260040160405180910390fd5b3373ffffffffffffffffffffffffffffffffffffffff831614611245576112458233866132e6565b5f61124f846126f5565b11156112615761125f8384613187565b505b61126a8261297b565b8411156112d957828461127c8461297b565b6040517fb9eb7aa500000000000000000000000000000000000000000000000000000000815273ffffffffffffffffffffffffffffffffffffffff9093166004840152602483019190915260448201526064015b60405180910390fd5b6004546112fe90839073ffffffffffffffffffffffffffffffffffffffff16866133cc565b61130a848484846133d7565b50505050565b5f610dd783835f613607565b5f336113298582856132e6565b611334858585613671565b506001949350505050565b5f610e9e61371a565b611350613723565b61135861377b565b565b5f8054790100000000000000000000000000000000000000000000000000900460ff1680156113ab57507fcd5ed15c6e187e77e9aee88184c21f4f2182ab5827cb3b7e07fbedcd63f033005460ff16155b6113b5575f611025565b7fffffffffffffffffffffffffffffffffffffffffffffffffffffffffffffffff92915050565b6113e4613723565b5f54790100000000000000000000000000000000000000000000000000900460ff1661143c576040517f782c1e2500000000000000000000000000000000000000000000000000000000815260040160405180910390fd5b611444610dde565b5f0361147c576040517f61e9d8b300000000000000000000000000000000000000000000000000000000815260040160405180910390fd5b611484610dde565b6001555f80547fffffffffffff00ffffffffffffffffffffffffffffffffffffffffffffffffff1690556114e46114b9611d00565b6001545f5465010000000000900473ffffffffffffffffffffffffffffffffffffffff169190613812565b427fc33272939f066c227e913a4b3434d860794f185c551685c29451a3a38b9b259c6001546115317f52c63247e1f47db19d5ce0460030c497f067ca4cebf71ba98eeadabe20bace025490565b6040805192835260208301919091520160405180910390a2565b73ffffffffffffffffffffffffffffffffffffffff81165f81815260076020908152604080832054808452600683528184209484526002909401909152812054909190611599818385613893565b949350505050565b6005545f90610e9e9073ffffffffffffffffffffffffffffffffffffffff16611a45565b5f335f546040517fdd62ed3e00000000000000000000000000000000000000000000000000000000815273ffffffffffffffffffffffffffffffffffffffff80841660048301523060248301529293508792650100000000009092049091169063dd62ed3e90604401602060405180830381865afa158015611649573d5f5f3e3d5ffd5b505050506040513d601f19601f8201168201806040525081019061166d9190615af7565b101561167e5761167e8130846138e4565b61168a858583866120c7565b5050505050565b5f8054790100000000000000000000000000000000000000000000000000900460ff16806116e057507fcd5ed15c6e187e77e9aee88184c21f4f2182ab5827cb3b7e07fbedcd63f033005460ff165b61170a577fffffffffffffffffffffffffffffffffffffffffffffffffffffffffffffffff611025565b5f92915050565b611719613aab565b610bb861ffff87161115611759576040517fc9034e1800000000000000000000000000000000000000000000000000000000815260040160405180910390fd5b5f805473ffffffffffffffffffffffffffffffffffffffff86166501000000000081027fffffffffffffff0000000000000000000000000000000000000000ff0000ffff7fffffffffffff00ffffffffffffffffffffffffffffffffffffffffffffff000090931661ffff8b1617790100000000000000000000000000000000000000000000000000179290921691909117630bb8000017909155604080517f313ce567000000000000000000000000000000000000000000000000000000008152905163313ce567916004808201926020929091908290030181865afa158015611846573d5f5f3e3d5ffd5b505050506040513d601f19601f8201168201806040525081019061186a9190615b99565b5f60046101000a81548160ff021916908360ff16021790555061188d8282613b12565b61189685613b24565b61189f82613b35565b6118a7613b7c565b6118b183866119b8565b50505050505050565b5f61102561060083611a45565b6118cf613723565b6118d761312b565b5f54790100000000000000000000000000000000000000000000000000900460ff1615611930576040517fcf9c0f0900000000000000000000000000000000000000000000000000000000815260040160405180910390fd5b5f61193a82613b8c565b505f80547fffffffffffff00ffffffffffffffffffffffffffffffffffffffffffffffffff1679010000000000000000000000000000000000000000000000000017905590506119b461198b611d00565b5f5465010000000000900473ffffffffffffffffffffffffffffffffffffffff16903084613fa5565b5050565b5f6119c161312b565b5f6119cb8361135a565b905080841115611a2d576040517f79012fb200000000000000000000000000000000000000000000000000000000815273ffffffffffffffffffffffffffffffffffffffff8416600482015260248101859052604481018290526064016112d0565b5f611a378561267d565b905061159933858784613feb565b5f807f52c63247e1f47db19d5ce0460030c497f067ca4cebf71ba98eeadabe20bace005b73ffffffffffffffffffffffffffffffffffffffff9093165f9081526020939093525050604090205490565b611a9d613723565b6113585f614098565b3380611ab0612c3a565b73ffffffffffffffffffffffffffffffffffffffff1614611b15576040517f118cdaa700000000000000000000000000000000000000000000000000000000815273ffffffffffffffffffffffffffffffffffffffff821660048201526024016112d0565b611b1e81614098565b50565b5f611025826140e8565b5f8054790100000000000000000000000000000000000000000000000000900460ff1661119f57600454610e9e9073ffffffffffffffffffffffffffffffffffffffff16611a45565b611b7c613723565b611358614110565b5f60608082808083817fa16a46d94261c7517cc8ff89f61c0ce93598e3c849801011dee649a6a557d1008054909150158015611bc257506001810154155b611c28576040517f08c379a000000000000000000000000000000000000000000000000000000000815260206004820152601560248201527f4549503731323a20556e696e697469616c697a6564000000000000000000000060448201526064016112d0565b611c30614189565b611c386141da565b604080515f808252602082019092527f0f000000000000000000000000000000000000000000000000000000000000009c939b5091995046985030975095509350915050565b611c86613723565b6127108161ffff161115611cc6576040517ff93ea0ec00000000000000000000000000000000000000000000000000000000815260040160405180910390fd5b5f805461ffff90921662010000027fffffffffffffffffffffffffffffffffffffffffffffffffffffffff0000ffff909216919091179055565b5f807f9016d09d72d40fdae2fd8ceac6b6234c7706214fd39c1cd1e609a0528c1993005b5473ffffffffffffffffffffffffffffffffffffffff1692915050565b611d49613723565b611d5161312b565b5f54790100000000000000000000000000000000000000000000000000900460ff1615611daa576040517fcf9c0f0900000000000000000000000000000000000000000000000000000000815260040160405180910390fd5b5f5f611db583613b8c565b91509150427fc33272939f066c227e913a4b3434d860794f185c551685c29451a3a38b9b259c8383604051611df4929190918252602082015260400190565b60405180910390a2505050565b611e09613723565b5f54790100000000000000000000000000000000000000000000000000900460ff16611e61576040517f782c1e2500000000000000000000000000000000000000000000000000000000815260040160405180910390fd5b610bb861ffff82161115611ea1576040517fc9034e1800000000000000000000000000000000000000000000000000000000815260040160405180910390fd5b5f80547fffffffffffffffffffffffffffffffffffffffffffffffffffffffffffff00001661ffff83169081179091556040805182815260208101929092527f650c33539188595d37a71b1a08a2fb3ee0728c0a1068d89f573c3fa4b28da22091015b60405180910390a150565b5f80335f546040517fdd62ed3e00000000000000000000000000000000000000000000000000000000815273ffffffffffffffffffffffffffffffffffffffff80841660048301523060248301529293508792650100000000009092049091169063dd62ed3e90604401602060405180830381865afa158015611f94573d5f5f3e3d5ffd5b505050506040513d601f19601f82011682018060405250810190611fb89190615af7565b1015611fc957611fc98130856138e4565b611fd385856119b8565b95945050505050565b5f611fe561312b565b5f611fef8361135a565b905080841115612051576040517f284ff66700000000000000000000000000000000000000000000000000000000815273ffffffffffffffffffffffffffffffffffffffff8416600482015260248101859052604481018290526064016112d0565b5f61205b856122ab565b905061159933858388613feb565b7f52c63247e1f47db19d5ce0460030c497f067ca4cebf71ba98eeadabe20bace0480546060917f52c63247e1f47db19d5ce0460030c497f067ca4cebf71ba98eeadabe20bace009161106190615b4e565b5f336110fb818585613671565b6120cf61312b565b5f54790100000000000000000000000000000000000000000000000000900460ff1615612128576040517fcf9c0f0900000000000000000000000000000000000000000000000000000000815260040160405180910390fd5b3373ffffffffffffffffffffffffffffffffffffffff831614612177576040517f03c4f5db00000000000000000000000000000000000000000000000000000000815260040160405180910390fd5b5f6121818461154b565b1115612193576121918384614203565b505b61219c82611691565b8411156122065782846121ae84611691565b6040517fb04d509000000000000000000000000000000000000000000000000000000000815273ffffffffffffffffffffffffffffffffffffffff9093166004840152602483019190915260448201526064016112d0565b6004545f5461223a9173ffffffffffffffffffffffffffffffffffffffff6501000000000090920482169185911687613fa5565b61130a8484848461433a565b73ffffffffffffffffffffffffffffffffffffffff81165f908152600760205260408120546002548114610dd5575f81815260066020908152604080832073ffffffffffffffffffffffffffffffffffffffff87168452600201909152902054610dd7565b5f61102582600161308c565b5f6122c061312b565b5f6122ca83612688565b90508085111561232c576040517ffe9cceec00000000000000000000000000000000000000000000000000000000815273ffffffffffffffffffffffffffffffffffffffff8416600482015260248101869052604481018290526064016112d0565b5f61233686611105565b9050611fd33386868985614537565b7ff0c57e16840df040f15088dc2f81fe391c3923bec73e23a9662efc9c229c6a00805468010000000000000000810460ff16159067ffffffffffffffff165f8115801561238f5750825b90505f8267ffffffffffffffff1660011480156123ab5750303b155b9050811580156123b9575080155b156123f0576040517ff92ee8a900000000000000000000000000000000000000000000000000000000815260040160405180910390fd5b84547fffffffffffffffffffffffffffffffffffffffffffffffff000000000000000016600117855583156124515784547fffffffffffffffffffffffffffffffffffffffffffffff00ffffffffffffffff16680100000000000000001785555b61245f8c8c8b8b8b8b611711565b600160025561246d8a612ed6565b8860405161247a9061541a565b73ffffffffffffffffffffffffffffffffffffffff9091168152602001604051809103905ff0801580156124b0573d5f5f3e3d5ffd5b50600480547fffffffffffffffffffffffff00000000000000000000000000000000000000001673ffffffffffffffffffffffffffffffffffffffff9290921691909117905560405189906125049061541a565b73ffffffffffffffffffffffffffffffffffffffff9091168152602001604051809103905ff08015801561253a573d5f5f3e3d5ffd5b50600580547fffffffffffffffffffffffff00000000000000000000000000000000000000001673ffffffffffffffffffffffffffffffffffffffff9290921691909117905583156125e15784547fffffffffffffffffffffffffffffffffffffffffffffff00ffffffffffffffff168555604051600181527fc7f505b2f371ae2175ee4913f4499e1f2633a7b5936321eed1cdaeb6115181d29060200160405180910390a15b505050505050505050505050565b5f6125f861312b565b5f6126028361290b565b905080851115612664576040517fb94abeec00000000000000000000000000000000000000000000000000000000815273ffffffffffffffffffffffffffffffffffffffff8416600482015260248101869052604481018290526064016112d0565b5f61266e866110e3565b9050611fd3338686848a614537565b5f611025825f6130ec565b5f8054790100000000000000000000000000000000000000000000000000900460ff1680156126d957507fcd5ed15c6e187e77e9aee88184c21f4f2182ab5827cb3b7e07fbedcd63f033005460ff16155b6126e3575f611025565b6110256126ef83611a45565b5f61308c565b73ffffffffffffffffffffffffffffffffffffffff81165f81815260086020908152604080832054808452600683528184209484526003909401909152812054909190611599818385613607565b83421115612780576040517f62791302000000000000000000000000000000000000000000000000000000008152600481018590526024016112d0565b5f7f6e71edae12b1b97f4d1f60370fef10105fa2faae0126114a169c64845d6126c98888886127f78c73ffffffffffffffffffffffffffffffffffffffff165f9081527f5ab42ced628888259c08ac98db1eb0cf702fc1501344311d8b100cd1bfe4bb006020526040902080546001810190915590565b60408051602081019690965273ffffffffffffffffffffffffffffffffffffffff94851690860152929091166060840152608083015260a082015260c0810186905260e0016040516020818303038152906040528051906020012090505f61285e82614639565b90505f61286d82878787614680565b90508973ffffffffffffffffffffffffffffffffffffffff168173ffffffffffffffffffffffffffffffffffffffff16146128f4576040517f4b800e4600000000000000000000000000000000000000000000000000000000815273ffffffffffffffffffffffffffffffffffffffff80831660048301528b1660248201526044016112d0565b6128ff8a8a8a6130da565b50505050505050505050565b5f8054790100000000000000000000000000000000000000000000000000900460ff16801561295c57507fcd5ed15c6e187e77e9aee88184c21f4f2182ab5827cb3b7e07fbedcd63f033005460ff16155b612966575f611025565b61102582611a45565b5f610dd783835f613893565b5f8054790100000000000000000000000000000000000000000000000000900460ff16806129ca57507fcd5ed15c6e187e77e9aee88184c21f4f2182ab5827cb3b7e07fbedcd63f033005460ff165b61170a576129d782611a45565b611025565b5f5f5f612a1f6040518061010001604052805f81526020015f81526020015f81526020015f81526020015f81526020015f81526020015f81526020015f81525090565b600154612a2c81876146ac565b5f612a37828861470d565b90505f612a627f52c63247e1f47db19d5ce0460030c497f067ca4cebf71ba98eeadabe20bace025490565b9050612a6e8289615bb4565b60045490935073ffffffffffffffffffffffffffffffffffffffff165f612a9482611a45565b5f80546040517f70a0823100000000000000000000000000000000000000000000000000000000815273ffffffffffffffffffffffffffffffffffffffff868116600483015293945091926501000000000090910416906370a0823190602401602060405180830381865afa158015612b0f573d5f5f3e3d5ffd5b505050506040513d601f19601f82011682018060405250810190612b339190615af7565b90505f612b58612b44866001615b3b565b612b4f896001615b3b565b8491905f61473f565b905086855f612b93612b6a8685615b3b565b612b75906001615b3b565b612b7f868b615b3b565b612b8a906001615b3b565b8891905f61473f565b90506040518061010001604052808a8c612bad9190615b3b565b81526020018a8152602001878152602001858152602001868152602001828152602001848152602001838152509a5080851115612bf557612bee8186615bb4565b9d50612c0a565b80851015612c0a57612c078582615bb4565b9c505b612c148d8a615b3b565b9b50505050505050505050509193509193565b5f612c3061312b565b6110253383614203565b5f807f237e158222e3e6968b72b9db0d8043aacf074ad9f650f0d1606b4d82ee432c00611d24565b5f54790100000000000000000000000000000000000000000000000000900460ff1615612cbb576040517fcf9c0f0900000000000000000000000000000000000000000000000000000000815260040160405180910390fd5b612cc361312b565b600280545f9081526006602090815260408083203380855294019091528120805491849190612cf28385615bb4565b90915550506004545f54612d2a9173ffffffffffffffffffffffffffffffffffffffff65010000000000909204821691168486613fa5565b600280545f81815260066020908152604080832073ffffffffffffffffffffffffffffffffffffffff88168085529501825291829020549151918252849392917f69fb258dd22920a83a8863be947f39d9987b98b004ff860d24d78967538d5e2991015b60405180910390a4505050565b5f5f612da68361154b565b9050610dd7816110e3565b5f54790100000000000000000000000000000000000000000000000000900460ff1615612e0a576040517fcf9c0f0900000000000000000000000000000000000000000000000000000000815260040160405180910390fd5b612e1261312b565b6002545f908152600660209081526040808320338085526003909101909252822080549192849190612e448385615bb4565b9091555050600454612e6d9073ffffffffffffffffffffffffffffffffffffffff1683856133cc565b6002545f81815260066020908152604080832073ffffffffffffffffffffffffffffffffffffffff871680855260039091018352928190205490519081528493917f34865e459ae19e6d62b2827e0558e83e0011069c831ec3662558b93aa4478f169101612d8e565b612ede613723565b73ffffffffffffffffffffffffffffffffffffffff8116612f2b576040517f14bcf5c800000000000000000000000000000000000000000000000000000000815260040160405180910390fd5b600380547fffffffffffffffffffffffff00000000000000000000000000000000000000001673ffffffffffffffffffffffffffffffffffffffff92909216919091179055565b612f7a613723565b7f237e158222e3e6968b72b9db0d8043aacf074ad9f650f0d1606b4d82ee432c0080547fffffffffffffffffffffffff00000000000000000000000000000000000000001673ffffffffffffffffffffffffffffffffffffffff83169081178255612fe3611d00565b73ffffffffffffffffffffffffffffffffffffffff167f38d16b8cac22d99fc7c124b9cd0de2d3fa1faef420bfe791d8c362d765e2270060405160405180910390a35050565b5f80546005546040517f70a0823100000000000000000000000000000000000000000000000000000000815273ffffffffffffffffffffffffffffffffffffffff91821660048201526501000000000090920416906370a0823190602401610e5f565b5f610dd7613098610dde565b6130a3906001615b3b565b7f52c63247e1f47db19d5ce0460030c497f067ca4cebf71ba98eeadabe20bace02545b6130d1906001615b3b565b8591908561473f565b6130e78383836001614782565b505050565b5f610dd76131187f52c63247e1f47db19d5ce0460030c497f067ca4cebf71ba98eeadabe20bace025490565b613123906001615b3b565b6130c6610dde565b7fcd5ed15c6e187e77e9aee88184c21f4f2182ab5827cb3b7e07fbedcd63f033005460ff1615611358576040517fd93c066500000000000000000000000000000000000000000000000000000000815260040160405180910390fd5b5f61319061312b565b73ffffffffffffffffffffffffffffffffffffffff83165f908152600860205260409020546002548103613208576040517f8572c1c400000000000000000000000000000000000000000000000000000000815273ffffffffffffffffffffffffffffffffffffffff851660048201526024016112d0565b613211846126f5565b5f82815260066020908152604080832073ffffffffffffffffffffffffffffffffffffffff89811685526003909101909252822080549083905560055492549395509261326d9265010000000000909104821691168686613fa5565b8373ffffffffffffffffffffffffffffffffffffffff168573ffffffffffffffffffffffffffffffffffffffff16837f97e51cb7384809a186f5f66727774f4e061708a7133dd467f6eb423ec4ccb8d386856040516132d6929190918252602082015260400190565b60405180910390a4505092915050565b73ffffffffffffffffffffffffffffffffffffffff8381165f9081527f52c63247e1f47db19d5ce0460030c497f067ca4cebf71ba98eeadabe20bace0160209081526040808320938616835292905220547fffffffffffffffffffffffffffffffffffffffffffffffffffffffffffffffff811461130a57818110156133be576040517ffb8f41b200000000000000000000000000000000000000000000000000000000815273ffffffffffffffffffffffffffffffffffffffff8416600482015260248101829052604481018390526064016112d0565b61130a84848484035f614782565b6130e78383836148eb565b6002545f90815260066020908152604080832073ffffffffffffffffffffffffffffffffffffffff871684526003019091528120805486929061341b908490615b3b565b909155505060025473ffffffffffffffffffffffffffffffffffffffff84165f90815260086020526040902054146134765760025473ffffffffffffffffffffffffffffffffffffffff84165f908152600860205260409020555b5f815111801561354357506002546040517f01a2e97e000000000000000000000000000000000000000000000000000000008082529173ffffffffffffffffffffffffffffffffffffffff8616916301a2e97e916134de91339188918b908990600401615bc7565b6020604051808303815f875af11580156134fa573d5f5f3e3d5ffd5b505050506040513d601f19601f8201168201806040525081019061351e9190615c28565b7fffffffff000000000000000000000000000000000000000000000000000000001614155b1561357a576040517f9d77809700000000000000000000000000000000000000000000000000000000815260040160405180910390fd5b6002548273ffffffffffffffffffffffffffffffffffffffff168473ffffffffffffffffffffffffffffffffffffffff167f1fdc681a13d8c5da54e301c7ce6542dcde4581e4725043fdab2db12ddc5745066135d33390565b6040805173ffffffffffffffffffffffffffffffffffffffff9092168252602082018a90520160405180910390a450505050565b5f613613836002541490565b1561361f57505f610dd7565b5f83815260066020526040812054613638906001615b3b565b5f858152600660205260408120600190810154929350909161365991615b3b565b90506136678682848761473f565b9695505050505050565b73ffffffffffffffffffffffffffffffffffffffff83166136c0576040517f96c6fd1e0000000000000000000000000000000000000000000000000000000081525f60048201526024016112d0565b73ffffffffffffffffffffffffffffffffffffffff821661370f576040517fec442f050000000000000000000000000000000000000000000000000000000081525f60048201526024016112d0565b6130e78383836133cc565b5f610e9e6148fe565b3361372c611d00565b73ffffffffffffffffffffffffffffffffffffffff1614611358576040517f118cdaa70000000000000000000000000000000000000000000000000000000081523360048201526024016112d0565b613783614971565b7fcd5ed15c6e187e77e9aee88184c21f4f2182ab5827cb3b7e07fbedcd63f0330080547fffffffffffffffffffffffffffffffffffffffffffffffffffffffffffffff001681557f5db9ee0a495bf2e6ff9c91a7834c1ba4fdd244a5e8aa4e537bd38aeae4b073aa335b60405173ffffffffffffffffffffffffffffffffffffffff9091168152602001611f04565b60405173ffffffffffffffffffffffffffffffffffffffff8381166024830152604482018390526130e791859182169063a9059cbb906064015b604051602081830303815290604052915060e01b6020820180517bffffffffffffffffffffffffffffffffffffffffffffffffffffffff83818316178352505050506149cc565b5f61389f836002541490565b156138ab57505f610dd7565b5f8381526006602052604081206001908101546138c791615b3b565b5f8581526006602052604081205491925090613659906001615b3b565b5f5465010000000000900473ffffffffffffffffffffffffffffffffffffffff1663d505accf8484843560208601356139236060880160408901615c43565b6040517fffffffff0000000000000000000000000000000000000000000000000000000060e088901b16815273ffffffffffffffffffffffffffffffffffffffff95861660048201529490931660248501526044840191909152606483015260ff166084820152606084013560a4820152608084013560c482015260e4015f604051808303815f87803b1580156139b8575f5ffd5b505af11580156139ca573d5f5f3e3d5ffd5b50505f546040517fdd62ed3e00000000000000000000000000000000000000000000000000000000815273ffffffffffffffffffffffffffffffffffffffff878116600483015286811660248301528535945065010000000000909204909116915063dd62ed3e90604401602060405180830381865afa158015613a50573d5f5f3e3d5ffd5b505050506040513d601f19601f82011682018060405250810190613a749190615af7565b146130e7576040517fb78cb0dd00000000000000000000000000000000000000000000000000000000815260040160405180910390fd5b7ff0c57e16840df040f15088dc2f81fe391c3923bec73e23a9662efc9c229c6a005468010000000000000000900460ff16611358576040517fd7e6bcf800000000000000000000000000000000000000000000000000000000815260040160405180910390fd5b613b1a613aab565b6119b48282614a60565b613b2c613aab565b611b1e81614ac3565b613b3d613aab565b611b1e816040518060400160405280600181526020017f3100000000000000000000000000000000000000000000000000000000000000815250614b1a565b613b84613aab565b611358614b8c565b5f5f5f5f5f613b9a866129dc565b93505092509250427f2ba91c5af725b7eb47a99fc37633a131c737733dfb297706e7b11c724250efdb600154888460200151613bf47f52c63247e1f47db19d5ce0460030c497f067ca4cebf71ba98eeadabe20bace025490565b60408051948552602085019390935291830152606082015260800160405180910390a2613c56613c22611d00565b60035460208401515f5465010000000000900473ffffffffffffffffffffffffffffffffffffffff90811693921690613fa5565b6004546040820151613c7e9173ffffffffffffffffffffffffffffffffffffffff1690614bdd565b6005546060820151613ca69173ffffffffffffffffffffffffffffffffffffffff1690614c37565b8060a0015181608001511115613d5257600454613d049073ffffffffffffffffffffffffffffffffffffffff16613cdb611d00565b5f5465010000000000900473ffffffffffffffffffffffffffffffffffffffff16919086613fa5565b60a081015115613d4d5760045460055460a08301515f54613d4d9373ffffffffffffffffffffffffffffffffffffffff6501000000000090920482169390821692911690613fa5565b613e2e565b8060a0015181608001511015613de557613d9c613d6d611d00565b6005545f5465010000000000900473ffffffffffffffffffffffffffffffffffffffff90811692911685613fa5565b608081015115613d4d5760045460055460808301515f54613d4d9373ffffffffffffffffffffffffffffffffffffffff6501000000000090920482169390821692911690613fa5565b608081015115613e2e5760045460055460a08301515f54613e2e9373ffffffffffffffffffffffffffffffffffffffff6501000000000090920482169390821692911690613fa5565b6005546004546080830151606084015160405173ffffffffffffffffffffffffffffffffffffffff9485169493909316927fdcbc1c05240f31ff3ad067ef1ee35ce4997762752e3a095284754544f4c709d792613e9392908252602082015260400190565b60405180910390a360045460055460a08301516040808501518151928352602083015273ffffffffffffffffffffffffffffffffffffffff938416939092169183917ffbde797d201c681b91056529119e0b02407c7bb96a4a2c75c01fc9667232c8db910160405180910390a460a0810151608082015160208301518351613f1b9190615bb4565b613f259190615b3b565b613f2f9190615bb4565b808252600190815560e0820151600280545f908152600660205260408082209390935560c08501518254825292812090930191909155805491613f7183615c5e565b9091555050517f52c63247e1f47db19d5ce0460030c497f067ca4cebf71ba98eeadabe20bace025490969095509350505050565b60405173ffffffffffffffffffffffffffffffffffffffff848116602483015283811660448301526064820183905261130a9186918216906323b872dd9060840161384c565b5f546140189065010000000000900473ffffffffffffffffffffffffffffffffffffffff16853085613fa5565b6140228382614c37565b8273ffffffffffffffffffffffffffffffffffffffff168473ffffffffffffffffffffffffffffffffffffffff167fdcbc1c05240f31ff3ad067ef1ee35ce4997762752e3a095284754544f4c709d7848460405161408a929190918252602082015260400190565b60405180910390a350505050565b7f237e158222e3e6968b72b9db0d8043aacf074ad9f650f0d1606b4d82ee432c0080547fffffffffffffffffffffffff00000000000000000000000000000000000000001681556119b482614c91565b5f807f5ab42ced628888259c08ac98db1eb0cf702fc1501344311d8b100cd1bfe4bb00611a69565b61411861312b565b7fcd5ed15c6e187e77e9aee88184c21f4f2182ab5827cb3b7e07fbedcd63f0330080547fffffffffffffffffffffffffffffffffffffffffffffffffffffffffffffff001660011781557f62e78cea01bee320cd4e420270b5ea74000d11b0c9f74754ebdbfc544b05a258336137ed565b7fa16a46d94261c7517cc8ff89f61c0ce93598e3c849801011dee649a6a557d10280546060917fa16a46d94261c7517cc8ff89f61c0ce93598e3c849801011dee649a6a557d1009161106190615b4e565b60605f7fa16a46d94261c7517cc8ff89f61c0ce93598e3c849801011dee649a6a557d100611050565b73ffffffffffffffffffffffffffffffffffffffff82165f90815260076020526040812054600254810361427b576040517f8572c1c400000000000000000000000000000000000000000000000000000000815273ffffffffffffffffffffffffffffffffffffffff851660048201526024016112d0565b6142848461154b565b5f82815260066020908152604080832073ffffffffffffffffffffffffffffffffffffffff898116855260029091019092528220805492905560055492945090916142d1911685856133cc565b8373ffffffffffffffffffffffffffffffffffffffff168573ffffffffffffffffffffffffffffffffffffffff16837fa58ba2dc206ba708bedff28607ec751812d5b1a8e66b35771034981d56d7613984876040516132d6929190918252602082015260400190565b600280545f90815260066020908152604080832073ffffffffffffffffffffffffffffffffffffffff881684529093019052908120805486929061437f908490615b3b565b909155505060025473ffffffffffffffffffffffffffffffffffffffff84165f90815260076020526040902054146143da5760025473ffffffffffffffffffffffffffffffffffffffff84165f908152600760205260409020555b5f81511180156144a757506002546040517f6d7e2da0000000000000000000000000000000000000000000000000000000008082529173ffffffffffffffffffffffffffffffffffffffff861691636d7e2da09161444291339188918b908990600401615bc7565b6020604051808303815f875af115801561445e573d5f5f3e3d5ffd5b505050506040513d601f19601f820116820180604052508101906144829190615c28565b7fffffffff000000000000000000000000000000000000000000000000000000001614155b156144de576040517f9d77809700000000000000000000000000000000000000000000000000000000815260040160405180910390fd5b6002548273ffffffffffffffffffffffffffffffffffffffff168473ffffffffffffffffffffffffffffffffffffffff167fbb58420bb8ce44e11b84e214cc0de10ce5e7c24d0355b2815c3d758b514cae726135d33390565b8273ffffffffffffffffffffffffffffffffffffffff168573ffffffffffffffffffffffffffffffffffffffff1614614575576145758386836132e6565b61457f8382614bdd565b5f546145ab9065010000000000900473ffffffffffffffffffffffffffffffffffffffff168584613812565b8273ffffffffffffffffffffffffffffffffffffffff168473ffffffffffffffffffffffffffffffffffffffff168673ffffffffffffffffffffffffffffffffffffffff167ffbde797d201c681b91056529119e0b02407c7bb96a4a2c75c01fc9667232c8db858560405161462a929190918252602082015260400190565b60405180910390a45050505050565b5f61102561464561371a565b836040517f19010000000000000000000000000000000000000000000000000000000000008152600281019290925260228201526042902090565b5f5f5f5f61469088888888614d26565b9250925092506146a08282614e19565b50909695505050505050565b5f546146d4906146c89062010000900461ffff16612710615bb4565b8390612710600161473f565b8110156119b4576040517ff93ea0ec00000000000000000000000000000000000000000000000000000000815260040160405180910390fd5b5f828211801561472157505f5461ffff1615155b15611025575f80548484039161159991839161ffff90911690612710905b5f5f61474c868686614f1c565b905061475783615013565b801561477257505f848061476d5761476d615c95565b868809115b15611fd357613667600182615b3b565b7f52c63247e1f47db19d5ce0460030c497f067ca4cebf71ba98eeadabe20bace0073ffffffffffffffffffffffffffffffffffffffff85166147f2576040517fe602df050000000000000000000000000000000000000000000000000000000081525f60048201526024016112d0565b73ffffffffffffffffffffffffffffffffffffffff8416614841576040517f94280d620000000000000000000000000000000000000000000000000000000081525f60048201526024016112d0565b73ffffffffffffffffffffffffffffffffffffffff8086165f9081526001830160209081526040808320938816835292905220839055811561168a578373ffffffffffffffffffffffffffffffffffffffff168573ffffffffffffffffffffffffffffffffffffffff167f8c5be1e5ebec7d5bd14f71427d1e84f3dd0314c0f7b2291e5b200ac8c7c3b925856040516148dc91815260200190565b60405180910390a35050505050565b6148f361312b565b6130e783838361503f565b5f7f8b73c3c69bb8fe3d512ecc4cf759cc79239f7b179b0ffacaa9a75d522b39400f6149286151fe565b614930615279565b60408051602081019490945283019190915260608201524660808201523060a082015260c00160405160208183030381529060405280519060200120905090565b7fcd5ed15c6e187e77e9aee88184c21f4f2182ab5827cb3b7e07fbedcd63f033005460ff16611358576040517f8dfc202b00000000000000000000000000000000000000000000000000000000815260040160405180910390fd5b5f6149ed73ffffffffffffffffffffffffffffffffffffffff8416836152ce565b905080515f14158015614a11575080806020019051810190614a0f9190615cc2565b155b156130e7576040517f5274afe700000000000000000000000000000000000000000000000000000000815273ffffffffffffffffffffffffffffffffffffffff841660048201526024016112d0565b614a68613aab565b7f52c63247e1f47db19d5ce0460030c497f067ca4cebf71ba98eeadabe20bace007f52c63247e1f47db19d5ce0460030c497f067ca4cebf71ba98eeadabe20bace03614ab48482615d25565b506004810161130a8382615d25565b614acb613aab565b73ffffffffffffffffffffffffffffffffffffffff8116611b15576040517f1e4fbdf70000000000000000000000000000000000000000000000000000000081525f60048201526024016112d0565b614b22613aab565b7fa16a46d94261c7517cc8ff89f61c0ce93598e3c849801011dee649a6a557d1007fa16a46d94261c7517cc8ff89f61c0ce93598e3c849801011dee649a6a557d102614b6e8482615d25565b5060038101614b7d8382615d25565b505f8082556001909101555050565b614b94613aab565b7fcd5ed15c6e187e77e9aee88184c21f4f2182ab5827cb3b7e07fbedcd63f0330080547fffffffffffffffffffffffffffffffffffffffffffffffffffffffffffffff00169055565b73ffffffffffffffffffffffffffffffffffffffff8216614c2c576040517f96c6fd1e0000000000000000000000000000000000000000000000000000000081525f60048201526024016112d0565b6119b4825f836133cc565b73ffffffffffffffffffffffffffffffffffffffff8216614c86576040517fec442f050000000000000000000000000000000000000000000000000000000081525f60048201526024016112d0565b6119b45f83836133cc565b7f9016d09d72d40fdae2fd8ceac6b6234c7706214fd39c1cd1e609a0528c19930080547fffffffffffffffffffffffff0000000000000000000000000000000000000000811673ffffffffffffffffffffffffffffffffffffffff848116918217845560405192169182907f8be0079c531659141344cd1fd0a4f28419497f9722a3daafe3b4186f6b6457e0905f90a3505050565b5f80807f7fffffffffffffffffffffffffffffff5d576e7357a4501ddfe92f46681b20a0841115614d5f57505f91506003905082614e0f565b604080515f808252602082018084528a905260ff891692820192909252606081018790526080810186905260019060a0016020604051602081039080840390855afa158015614db0573d5f5f3e3d5ffd5b50506040517fffffffffffffffffffffffffffffffffffffffffffffffffffffffffffffffe0015191505073ffffffffffffffffffffffffffffffffffffffff8116614e0657505f925060019150829050614e0f565b92505f91508190505b9450945094915050565b5f826003811115614e2c57614e2c615e3c565b03614e35575050565b6001826003811115614e4957614e49615e3c565b03614e80576040517ff645eedf00000000000000000000000000000000000000000000000000000000815260040160405180910390fd5b6002826003811115614e9457614e94615e3c565b03614ece576040517ffce698f7000000000000000000000000000000000000000000000000000000008152600481018290526024016112d0565b6003826003811115614ee257614ee2615e3c565b036119b4576040517fd78bce0c000000000000000000000000000000000000000000000000000000008152600481018290526024016112d0565b5f838302817fffffffffffffffffffffffffffffffffffffffffffffffffffffffffffffffff85870982811083820303915050805f03614f6f57838281614f6557614f65615c95565b0492505050610dd7565b808411614fa8576040517f227bc15300000000000000000000000000000000000000000000000000000000815260040160405180910390fd5b5f848688095f868103871696879004966002600389028118808a02820302808a02820302808a02820302808a02820302808a02820302808a02909103029181900381900460010186841190950394909402919094039290920491909117919091029150509392505050565b5f600282600381111561502857615028615e3c565b6150329190615e69565b60ff166001149050919050565b7f52c63247e1f47db19d5ce0460030c497f067ca4cebf71ba98eeadabe20bace0073ffffffffffffffffffffffffffffffffffffffff84166150995781816002015f82825461508e9190615b3b565b909155506151499050565b73ffffffffffffffffffffffffffffffffffffffff84165f908152602082905260409020548281101561511e576040517fe450d38c00000000000000000000000000000000000000000000000000000000815273ffffffffffffffffffffffffffffffffffffffff8616600482015260248101829052604481018490526064016112d0565b73ffffffffffffffffffffffffffffffffffffffff85165f9081526020839052604090209083900390555b73ffffffffffffffffffffffffffffffffffffffff831661517457600281018054839003905561519f565b73ffffffffffffffffffffffffffffffffffffffff83165f9081526020829052604090208054830190555b8273ffffffffffffffffffffffffffffffffffffffff168473ffffffffffffffffffffffffffffffffffffffff167fddf252ad1be2c89b69c2b068fc378daa952ba7f163c4a11628f55a4df523b3ef8460405161408a91815260200190565b5f7fa16a46d94261c7517cc8ff89f61c0ce93598e3c849801011dee649a6a557d10081615229614189565b80519091501561524157805160209091012092915050565b81548015615250579392505050565b7fc5d2460186f7233c927e7db2dcc703c0e500b653ca82273b7bfad8045d85a470935050505090565b5f7fa16a46d94261c7517cc8ff89f61c0ce93598e3c849801011dee649a6a557d100816152a46141da565b8051909150156152bc57805160209091012092915050565b60018201548015615250579392505050565b6060610dd783835f845f5f8573ffffffffffffffffffffffffffffffffffffffff1684866040516152ff9190615eaf565b5f6040518083038185875af1925050503d805f8114615339576040519150601f19603f3d011682016040523d82523d5f602084013e61533e565b606091505b509150915061366786838360608261535e57615359826153d8565b610dd7565b8151158015615382575073ffffffffffffffffffffffffffffffffffffffff84163b155b156153d1576040517f9996b31500000000000000000000000000000000000000000000000000000000815273ffffffffffffffffffffffffffffffffffffffff851660048201526024016112d0565b5080610dd7565b8051156153e85780518082602001fd5b6040517f1425ea4200000000000000000000000000000000000000000000000000000000815260040160405180910390fd5b6103c880615ec683390190565b73ffffffffffffffffffffffffffffffffffffffff81168114611b1e575f5ffd5b5f60208284031215615458575f5ffd5b8135610dd781615427565b7fffffffff0000000000000000000000000000000000000000000000000000000081168114611b1e575f5ffd5b5f602082840312156154a0575f5ffd5b8135610dd781615463565b5f81518084528060208401602086015e5f6020828601015260207fffffffffffffffffffffffffffffffffffffffffffffffffffffffffffffffe0601f83011685010191505092915050565b602081525f610dd760208301846154ab565b5f60208284031215615519575f5ffd5b5035919050565b5f5f60408385031215615531575f5ffd5b823561553c81615427565b946020939093013593505050565b7f4e487b71000000000000000000000000000000000000000000000000000000005f52604160045260245ffd5b5f82601f830112615586575f5ffd5b8135602083015f5f67ffffffffffffffff8411156155a6576155a661554a565b506040517fffffffffffffffffffffffffffffffffffffffffffffffffffffffffffffffe0601f85018116603f0116810181811067ffffffffffffffff821117156155f3576155f361554a565b60405283815290508082840187101561560a575f5ffd5b838360208301375f602085830101528094505050505092915050565b5f5f5f5f60808587031215615639575f5ffd5b84359350602085013561564b81615427565b9250604085013561565b81615427565b9150606085013567ffffffffffffffff811115615676575f5ffd5b61568287828801615577565b91505092959194509250565b5f5f6040838503121561569f575f5ffd5b50508035926020909101359150565b5f5f5f606084860312156156c0575f5ffd5b83356156cb81615427565b925060208401356156db81615427565b929592945050506040919091013590565b5f60a082840312156156fc575f5ffd5b50919050565b5f5f5f5f6101008587031215615716575f5ffd5b84359350602085013561572881615427565b9250604085013567ffffffffffffffff811115615743575f5ffd5b61574f87828801615577565b92505061575f86606087016156ec565b905092959194509250565b803561ffff811681146111b7575f5ffd5b5f5f5f5f5f5f60c08789031215615790575f5ffd5b6157998761576a565b955060208701356157a981615427565b945060408701356157b981615427565b935060608701359250608087013567ffffffffffffffff8111156157db575f5ffd5b6157e789828a01615577565b92505060a087013567ffffffffffffffff811115615803575f5ffd5b61580f89828a01615577565b9150509295509295509295565b5f5f6040838503121561582d575f5ffd5b82359150602083013561583f81615427565b809150509250929050565b7fff000000000000000000000000000000000000000000000000000000000000008816815260e060208201525f61588460e08301896154ab565b828103604084015261589681896154ab565b6060840188905273ffffffffffffffffffffffffffffffffffffffff8716608085015260a0840186905283810360c0850152845180825260208087019350909101905f5b818110156158f85783518352602093840193909201916001016158da565b50909b9a5050505050505050505050565b5f60208284031215615919575f5ffd5b610dd78261576a565b5f5f5f60e08486031215615934575f5ffd5b83359250602084013561594681615427565b915061595585604086016156ec565b90509250925092565b5f5f5f60608486031215615970575f5ffd5b83359250602084013561598281615427565b9150604084013561599281615427565b809150509250925092565b5f5f5f5f5f5f5f60e0888a0312156159b3575f5ffd5b6159bc8861576a565b965060208801356159cc81615427565b955060408801356159dc81615427565b945060608801356159ec81615427565b93506080880135925060a088013567ffffffffffffffff811115615a0e575f5ffd5b615a1a8a828b01615577565b92505060c088013567ffffffffffffffff811115615a36575f5ffd5b615a428a828b01615577565b91505092959891949750929550565b60ff81168114611b1e575f5ffd5b5f5f5f5f5f5f5f60e0888a031215615a75575f5ffd5b8735615a8081615427565b96506020880135615a9081615427565b955060408801359450606088013593506080880135615aae81615a51565b9699959850939692959460a0840135945060c09093013592915050565b5f5f60408385031215615adc575f5ffd5b8235615ae781615427565b9150602083013561583f81615427565b5f60208284031215615b07575f5ffd5b5051919050565b7f4e487b71000000000000000000000000000000000000000000000000000000005f52601160045260245ffd5b8082018082111561102557611025615b0e565b600181811c90821680615b6257607f821691505b6020821081036156fc577f4e487b71000000000000000000000000000000000000000000000000000000005f52602260045260245ffd5b5f60208284031215615ba9575f5ffd5b8151610dd781615a51565b8181038181111561102557611025615b0e565b73ffffffffffffffffffffffffffffffffffffffff8616815273ffffffffffffffffffffffffffffffffffffffff8516602082015283604082015282606082015260a060808201525f615c1d60a08301846154ab565b979650505050505050565b5f60208284031215615c38575f5ffd5b8151610dd781615463565b5f60208284031215615c53575f5ffd5b8135610dd781615a51565b5f7fffffffffffffffffffffffffffffffffffffffffffffffffffffffffffffffff8203615c8e57615c8e615b0e565b5060010190565b7f4e487b71000000000000000000000000000000000000000000000000000000005f52601260045260245ffd5b5f60208284031215615cd2575f5ffd5b81518015158114610dd7575f5ffd5b601f8211156130e757805f5260205f20601f840160051c81016020851015615d065750805b601f840160051c820191505b8181101561168a575f8155600101615d12565b815167ffffffffffffffff811115615d3f57615d3f61554a565b615d5381615d4d8454615b4e565b84615ce1565b6020601f821160018114615da4575f8315615d6e5750848201515b7fffffffffffffffffffffffffffffffffffffffffffffffffffffffffffffffff600385901b1c1916600184901b17845561168a565b5f848152602081207fffffffffffffffffffffffffffffffffffffffffffffffffffffffffffffffe08516915b82811015615df15787850151825560209485019460019092019101615dd1565b5084821015615e2d57868401517fffffffffffffffffffffffffffffffffffffffffffffffffffffffffffffffff600387901b60f8161c191681555b50505050600190811b01905550565b7f4e487b71000000000000000000000000000000000000000000000000000000005f52602160045260245ffd5b5f60ff831680615ea0577f4e487b71000000000000000000000000000000000000000000000000000000005f52601260045260245ffd5b8060ff84160691505092915050565b5f82518060208501845e5f92019182525091905056fe608060405234801561000f575f5ffd5b506040516103c83803806103c883398101604081905261002e9161034c565b6100436001600160a01b038216335f19610049565b506103a7565b604080516001600160a01b038416602482015260448082018490528251808303909101815260649091019091526020810180516001600160e01b0390811663095ea7b360e01b179091526100a1908590839061010d16565b61010757604080516001600160a01b03851660248201525f6044808301919091528251808303909101815260649091019091526020810180516001600160e01b0390811663095ea7b360e01b179091526100fd9186916101ae16565b61010784826101ae565b50505050565b5f5f5f846001600160a01b0316846040516101289190610372565b5f604051808303815f865af19150503d805f8114610161576040519150601f19603f3d011682016040523d82523d5f602084013e610166565b606091505b50915091508180156101905750805115806101905750808060200190518101906101909190610388565b80156101a557505f856001600160a01b03163b115b95945050505050565b5f6101c26001600160a01b03841683610219565b905080515f141580156101e65750808060200190518101906101e49190610388565b155b1561021457604051635274afe760e01b81526001600160a01b03841660048201526024015b60405180910390fd5b505050565b606061022683835f61022d565b9392505050565b6060814710156102525760405163cd78605960e01b815230600482015260240161020b565b5f5f856001600160a01b0316848660405161026d9190610372565b5f6040518083038185875af1925050503d805f81146102a7576040519150601f19603f3d011682016040523d82523d5f602084013e6102ac565b606091505b5090925090506102bd8683836102c7565b9695505050505050565b6060826102dc576102d782610323565b610226565b81511580156102f357506001600160a01b0384163b155b1561031c57604051639996b31560e01b81526001600160a01b038516600482015260240161020b565b5080610226565b8051156103335780518082602001fd5b604051630a12f52160e11b815260040160405180910390fd5b5f6020828403121561035c575f5ffd5b81516001600160a01b0381168114610226575f5ffd5b5f82518060208501845e5f920191825250919050565b5f60208284031215610398575f5ffd5b81518015158114610226575f5ffd5b6015806103b35f395ff3fe60806040525f5ffdfea164736f6c634300081b000aa164736f6c634300081b000a",
    "linkReferences": {}
  },
  "methodIdentifiers": {
    "LIGHT_PROTOCOL_FEES()": "bc0db4a8",
    "LIGHT_PROTOCOL_OWNER()": "f4e99c8f",
    "LIGHT_PROTOCOL_TREASURY()": "0415ebcd",
    "NAME()": "a3f4df7e",
    "VERSION()": "ffa1ad74",
    "createVault(address,uint256,string,string)": "e015319c",
    "getAddress(address,uint256,string,string)": "3740235c",
    "vaultImplementation()": "bba48a90"
  },
  "id": 1
}