{
  "abi": [
    {
      "type": "constructor",
      "inputs": [],
      "stateMutability": "nonpayable"
    },
    {
      "type": "function",
      "name": "LIGHT_PROTOCOL_FEES",
      "inputs": [],
      "outputs": [
        {
          "name": "",
          "type": "uint16",
          "internalType": "uint16"
        }
      ],
      "stateMutability": "view"
    },
    {
      "type": "function",
      "name": "LIGHT_PROTOCOL_OWNER",
      "inputs": [],
      "outputs": [
        {
          "name": "",
          "type": "address",
          "internalType": "address"
        }
      ],
      "stateMutability": "view"
    },
    {
      "type": "function",
      "name": "LIGHT_PROTOCOL_TREASURY",
      "inputs": [],
      "outputs": [
        {
          "name": "",
          "type": "address",
          "internalType": "address"
        }
      ],
      "stateMutability": "view"
    },
    {
      "type": "function",
      "name": "NAME",
      "inputs": [],
      "outputs": [
        {
          "name": "",
          "type": "string",
          "internalType": "string"
        }
      ],
      "stateMutability": "view"
    },
    {
      "type": "function",
      "name": "VERSION",
      "inputs": [],
      "outputs": [
        {
          "name": "",
          "type": "string",
          "internalType": "string"
        }
      ],
      "stateMutability": "view"
    },
    {
      "type": "function",
      "name": "createVault",
      "inputs": [
        {
          "name": "underlying",
          "type": "address",
          "internalType": "address"
        },
        {
          "name": "bootstrapAmount",
          "type": "uint256",
          "internalType": "uint256"
        },
        {
          "name": "name",
          "type": "string",
          "internalType": "string"
        },
        {
          "name": "symbol",
          "type": "string",
          "internalType": "string"
        }
      ],
      "outputs": [
        {
          "name": "ret",
          "type": "address",
          "internalType": "contract LightVault"
        }
      ],
      "stateMutability": "nonpayable"
    },
    {
      "type": "function",
      "name": "getAddress",
      "inputs": [
        {
          "name": "underlying",
          "type": "address",
          "internalType": "contract IERC20"
        },
        {
          "name": "bootstrapAmount",
          "type": "uint256",
          "internalType": "uint256"
        },
        {
          "name": "name",
          "type": "string",
          "internalType": "string"
        },
        {
          "name": "symbol",
          "type": "string",
          "internalType": "string"
        }
      ],
      "outputs": [
        {
          "name": "",
          "type": "address",
          "internalType": "address"
        }
      ],
      "stateMutability": "view"
    },
    {
      "type": "function",
      "name": "vaultImplementation",
      "inputs": [],
      "outputs": [
        {
          "name": "",
          "type": "address",
          "internalType": "contract LightVault"
        }
      ],
      "stateMutability": "view"
    },
    {
      "type": "error",
      "name": "Create2EmptyBytecode",
      "inputs": []
    },
    {
      "type": "error",
      "name": "Create2FailedDeployment",
      "inputs": []
    },
    {
      "type": "error",
      "name": "Create2InsufficientBalance",
      "inputs": [
        {
          "name": "balance",
          "type": "uint256",
          "internalType": "uint256"
        },
        {
          "name": "needed",
          "type": "uint256",
          "internalType": "uint256"
        }
      ]
    },
    {
      "type": "error",
      "name": "TokenAddressZero",
      "inputs": []
    }
  ],
  "bytecode": {
    "object": "0x610100604052600360a052600060c081905260e05234801561002057600080fd5b5060405161002d9061005b565b604051809103906000f080158015610049573d6000803e3d6000fd5b506001600160a01b0316608052610068565b61655580610f7483390190565b60805160a05160c05160e051610e9c6100d860003960008181609201528181610258015261048d0152600081816101b301528181610237015261046c01526000818161016601528181610216015261044b01526000818161013f0152818161036d015261058a0152610e9c6000f3fe608060405234801561001057600080fd5b50600436106100885760003560e01c8063bc0db4a81161005b578063bc0db4a814610161578063e015319c1461019b578063f4e99c8f146101ae578063ffa1ad74146101d557600080fd5b80630415ebcd1461008d5780633740235c146100de578063a3f4df7e146100f1578063bba48a901461013a575b600080fd5b6100b47f000000000000000000000000000000000000000000000000000000000000000081565b60405173ffffffffffffffffffffffffffffffffffffffff90911681526020015b60405180910390f35b6100b46100ec366004610898565b610211565b61012d6040518060400160405280601181526020017f4c696768745661756c74466163746f727900000000000000000000000000000081525081565b6040516100d5919061098b565b6100b47f000000000000000000000000000000000000000000000000000000000000000081565b6101887f000000000000000000000000000000000000000000000000000000000000000081565b60405161ffff90911681526020016100d5565b6100b46101a9366004610898565b6103f8565b6100b47f000000000000000000000000000000000000000000000000000000000000000081565b61012d6040518060400160405280600581526020017f302e312e3000000000000000000000000000000000000000000000000000000081525081565b6000807f00000000000000000000000000000000000000000000000000000000000000007f00000000000000000000000000000000000000000000000000000000000000007f000000000000000000000000000000000000000000000000000000000000000088888888604051602401610291979695949392919061099e565b604080517fffffffffffffffffffffffffffffffffffffffffffffffffffffffffffffffe0818403018152918152602080830180517bffffffffffffffffffffffffffffffffffffffffffffffffffffffff167fb7edf40b0000000000000000000000000000000000000000000000000000000017905290519192506103ee9173ffffffffffffffffffffffffffffffffffffffff89169161033490820161076b565b7fffffffffffffffffffffffffffffffffffffffffffffffffffffffffffffffe082820381018352601f909101166040819052610397907f0000000000000000000000000000000000000000000000000000000000000000908690602001610a35565b604080517fffffffffffffffffffffffffffffffffffffffffffffffffffffffffffffffe0818403018152908290526103d39291602001610a6c565b60405160208183030381529060405280519060200120610651565b9695505050505050565b600073ffffffffffffffffffffffffffffffffffffffff8516610447576040517f81c609f700000000000000000000000000000000000000000000000000000000815260040160405180910390fd5b60007f00000000000000000000000000000000000000000000000000000000000000007f00000000000000000000000000000000000000000000000000000000000000007f0000000000000000000000000000000000000000000000000000000000000000888888886040516024016104c6979695949392919061099e565b604080517fffffffffffffffffffffffffffffffffffffffffffffffffffffffffffffffe0818403018152918152602080830180517bffffffffffffffffffffffffffffffffffffffffffffffffffffffff167fb7edf40b0000000000000000000000000000000000000000000000000000000017905290519192506000919061055190820161076b565b7fffffffffffffffffffffffffffffffffffffffffffffffffffffffffffffffe082820381018352601f9091011660408190526105b4907f0000000000000000000000000000000000000000000000000000000000000000908590602001610a35565b604080517fffffffffffffffffffffffffffffffffffffffffffffffffffffffffffffffe0818403018152908290526105f09291602001610a6c565b604080517fffffffffffffffffffffffffffffffffffffffffffffffffffffffffffffffe0818403018152919052905073ffffffffffffffffffffffffffffffffffffffff87166000610644818385610665565b9998505050505050505050565b600061065e838330610741565b9392505050565b6000834710156106ae576040517fe4bbecac0000000000000000000000000000000000000000000000000000000081524760048201526024810185905260440160405180910390fd5b81516000036106e9576040517f4ca249dc00000000000000000000000000000000000000000000000000000000815260040160405180910390fd5b8282516020840186f5905073ffffffffffffffffffffffffffffffffffffffff811661065e576040517f741752c200000000000000000000000000000000000000000000000000000000815260040160405180910390fd5b6000604051836040820152846020820152828152600b8101905060ff815360559020949350505050565b6103f480610a9c83390190565b73ffffffffffffffffffffffffffffffffffffffff8116811461079a57600080fd5b50565b7f4e487b7100000000000000000000000000000000000000000000000000000000600052604160045260246000fd5b600082601f8301126107dd57600080fd5b813567ffffffffffffffff8111156107f7576107f761079d565b6040517fffffffffffffffffffffffffffffffffffffffffffffffffffffffffffffffe0603f7fffffffffffffffffffffffffffffffffffffffffffffffffffffffffffffffe0601f8501160116810181811067ffffffffffffffff821117156108635761086361079d565b60405281815283820160200185101561087b57600080fd5b816020850160208301376000918101602001919091529392505050565b600080600080608085870312156108ae57600080fd5b84356108b981610778565b935060208501359250604085013567ffffffffffffffff8111156108dc57600080fd5b6108e8878288016107cc565b925050606085013567ffffffffffffffff81111561090557600080fd5b610911878288016107cc565b91505092959194509250565b60005b83811015610938578181015183820152602001610920565b50506000910152565b6000815180845261095981602086016020860161091d565b601f017fffffffffffffffffffffffffffffffffffffffffffffffffffffffffffffffe0169290920160200192915050565b60208152600061065e6020830184610941565b61ffff8816815273ffffffffffffffffffffffffffffffffffffffff8716602082015273ffffffffffffffffffffffffffffffffffffffff8616604082015273ffffffffffffffffffffffffffffffffffffffff8516606082015283608082015260e060a08201526000610a1560e0830185610941565b82810360c0840152610a278185610941565b9a9950505050505050505050565b73ffffffffffffffffffffffffffffffffffffffff83168152604060208201526000610a646040830184610941565b949350505050565b60008351610a7e81846020880161091d565b835190830190610a9281836020880161091d565b0194935050505056fe60806040526040516103f43803806103f483398101604081905261002291610268565b61002c8282610033565b5050610358565b61003c82610092565b6040516001600160a01b038316907fbc7cd75a20ee27fd9adebab32041f755214dbc6bffa90cc0225b39da2e5c2d3b90600090a280511561008657610081828261010e565b505050565b61008e610185565b5050565b806001600160a01b03163b6000036100cd57604051634c9c8ce360e01b81526001600160a01b03821660048201526024015b60405180910390fd5b7f360894a13ba1a3210667c828492db98dca3e2076cc3735a920a3ca505d382bbc80546001600160a01b0319166001600160a01b0392909216919091179055565b6060600080846001600160a01b03168460405161012b919061033c565b600060405180830381855af49150503d8060008114610166576040519150601f19603f3d011682016040523d82523d6000602084013e61016b565b606091505b50909250905061017c8583836101a6565b95945050505050565b34156101a45760405163b398979f60e01b815260040160405180910390fd5b565b6060826101bb576101b682610205565b6101fe565b81511580156101d257506001600160a01b0384163b155b156101fb57604051639996b31560e01b81526001600160a01b03851660048201526024016100c4565b50805b9392505050565b8051156102155780518082602001fd5b604051630a12f52160e11b815260040160405180910390fd5b634e487b7160e01b600052604160045260246000fd5b60005b8381101561025f578181015183820152602001610247565b50506000910152565b6000806040838503121561027b57600080fd5b82516001600160a01b038116811461029257600080fd5b60208401519092506001600160401b038111156102ae57600080fd5b8301601f810185136102bf57600080fd5b80516001600160401b038111156102d8576102d861022e565b604051601f8201601f19908116603f011681016001600160401b03811182821017156103065761030661022e565b60405281815282820160200187101561031e57600080fd5b61032f826020830160208601610244565b8093505050509250929050565b6000825161034e818460208701610244565b9190910192915050565b608e806103666000396000f3fe6080604052600a600c565b005b60186014601a565b605e565b565b600060597f360894a13ba1a3210667c828492db98dca3e2076cc3735a920a3ca505d382bbc5473ffffffffffffffffffffffffffffffffffffffff1690565b905090565b3660008037600080366000845af43d6000803e808015607c573d6000f35b3d6000fdfea164736f6c634300081b000aa164736f6c634300081b000a6080604052348015600f57600080fd5b5060166020565b601c6020565b60d0565b7ff0c57e16840df040f15088dc2f81fe391c3923bec73e23a9662efc9c229c6a00805468010000000000000000900460ff1615606f5760405163f92ee8a960e01b815260040160405180910390fd5b80546001600160401b039081161460cd5780546001600160401b0319166001600160401b0390811782556040519081527fc7f505b2f371ae2175ee4913f4499e1f2633a7b5936321eed1cdaeb6115181d29060200160405180910390a15b50565b616476806100df6000396000f3fe608060405234801561001057600080fd5b50600436106105a05760003560e01c80638456cb59116102ed578063c6d8a07411610191578063de4e099b116100ee578063ebe7ef95116100a2578063f2fde38b1161007c578063f2fde38b14610d46578063f9c5fa4a14610d59578063ffa1ad7414610d6157600080fd5b8063ebe7ef9514610d20578063ef8b30f714610b46578063f0f4426014610d3357600080fd5b8063e30c3978116100d3578063e30c397814610cf2578063e842cb4214610cfa578063eb208c3c14610d0d57600080fd5b8063de4e099b14610c50578063de56603c14610cdf57600080fd5b8063d505accf11610145578063db2088f41161012a578063db2088f414610bc5578063db6b207414610bd8578063dd62ed3e14610beb57600080fd5b8063d505accf14610b9f578063d905777e14610bb257600080fd5b8063cce96c2111610176578063cce96c2114610b59578063ce96cb7714610b79578063d3181f5a14610b8c57600080fd5b8063c6d8a07414610b26578063c6e6f59214610b4657600080fd5b8063a9059cbb1161024a578063b460af94116101fe578063c3702989116101d8578063c370298914610aa1578063c63d75b6146107a3578063c6b61e4c14610aea57600080fd5b8063b460af9414610a68578063b7edf40b14610a7b578063ba08765214610a8e57600080fd5b8063aa9bbc0c1161022f578063aa9bbc0c14610a39578063aff947c414610a42578063b3d7f6b914610a5557600080fd5b8063a9059cbb14610a13578063a91ba92614610a2657600080fd5b80638e005553116102a157806394bf804d1161028657806394bf804d146109bc57806395d89b41146109cf578063a3f4df7e146109d757600080fd5b80638e005553146109965780638e06aafc146109a957600080fd5b806386ef56f5116102d257806386ef56f5146109685780638da5cb5b1461097b5780638df828001461098357600080fd5b80638456cb591461094557806384b0196e1461094d57600080fd5b80633f4ba83a116104545780635466ef17116103b15780636e553f651161036557806379ba50971161033f57806379ba5097146109225780637ecebe001461092a57806380023a691461093d57600080fd5b80636e553f65146108f457806370a0823114610907578063715018a61461091a57600080fd5b806361d027b31161039657806361d027b3146108ae5780636815e738146108ce578063690e7c09146108e157600080fd5b80635466ef17146108715780635c975abb1461088457600080fd5b806347d17d9d116104085780634cdad506116103ed5780634cdad5061461061457806353dc1dd31461081657806353f228671461085e57600080fd5b806347d17d9d146107fb5780634a99c6c11461080357600080fd5b80634375d8cd116104395780634375d8cd146107b657806343d726d6146107e057806344b05fa2146107e857600080fd5b80633f4ba83a1461079b578063402d267d146107a357600080fd5b80631291d4e01161050257806323b872dd116104b6578063313ce5671161049b578063313ce5671461072b5780633644e5151461074b57806338d52e0f1461075357600080fd5b806323b872dd146106f75780633035106b1461070a57600080fd5b806317d6eb81116104e757806317d6eb81146106a857806318160ddd146106bd578063181e7b3b146106e457600080fd5b80631291d4e01461066857806316f79e301461068857600080fd5b806307a2d13a116105595780630a28a4771161053e5780630a28a4771461063a5780630a8810821461064d5780630c5cb5721461065557600080fd5b806307a2d13a14610614578063095ea7b31461062757600080fd5b806301ffc9a71161058a57806301ffc9a7146105d35780630217631e146105f657806306fdde03146105ff57600080fd5b806288d3e5146105a557806301e1d114146105cb575b600080fd5b6105b86105b336600461556a565b610d9d565b6040519081526020015b60405180910390f35b6105b8610e0e565b6105e66105e13660046155b5565b610f7e565b60405190151581526020016105c2565b6105b860015481565b610607611063565b6040516105c29190615640565b6105b8610622366004615653565b61111e565b6105e661063536600461566c565b61112b565b6105b8610648366004615653565b611143565b6105b8611150565b6105b861066336600461556a565b6111e6565b6105b861067636600461556a565b60086020526000908152604090205481565b6105b861069636600461556a565b60076020526000908152604090205481565b6106bb6106b636600461577b565b6111ff565b005b7f52c63247e1f47db19d5ce0460030c497f067ca4cebf71ba98eeadabe20bace02546105b8565b6105b86106f23660046157e7565b611355565b6105e6610705366004615809565b611363565b6000546107189061ffff1681565b60405161ffff90911681526020016105c2565b600054640100000000900460ff1660405160ff90911681526020016105c2565b6105b8611387565b60005465010000000000900473ffffffffffffffffffffffffffffffffffffffff165b60405173ffffffffffffffffffffffffffffffffffffffff90911681526020016105c2565b6106bb611391565b6105b86107b136600461556a565b6113a3565b6000546105e690790100000000000000000000000000000000000000000000000000900460ff1681565b6106bb611427565b6105b86107f636600461556a565b61159a565b6105b86115f1565b6106bb610811366004615862565b611616565b6105b861082436600461556a565b600254600090815260066020908152604080832073ffffffffffffffffffffffffffffffffffffffff909416835260039093019052205490565b6105b861086c36600461556a565b6116e6565b6106bb61087f3660046158e0565b611768565b7fcd5ed15c6e187e77e9aee88184c21f4f2182ab5827cb3b7e07fbedcd63f033005460ff166105e6565b6003546107769073ffffffffffffffffffffffffffffffffffffffff1681565b6105b86108dc36600461556a565b611915565b6106bb6108ef366004615653565b611923565b6105b8610902366004615987565b611a18565b6105b861091536600461556a565b611aa8565b6106bb611afa565b6106bb611b0c565b6105b861093836600461556a565b611b87565b6105b8611b92565b6106bb611bdc565b610955611bec565b6040516105c297969594939291906159b7565b6106bb610976366004615a78565b611ce8565b610776611d6b565b6106bb610991366004615653565b611dad565b6106bb6109a4366004615a78565b611e6f565b6105b86109b7366004615a93565b611f7f565b6105b86109ca366004615987565b612050565b6106076120e0565b6106076040518060400160405280600a81526020017f4c696768745661756c740000000000000000000000000000000000000000000081525081565b6105e6610a2136600461566c565b612131565b6106bb610a3436600461577b565b61213f565b6105b860025481565b6105b8610a5036600461556a565b6122c1565b6105b8610a63366004615653565b612328565b6105b8610a76366004615ad2565b612335565b6106bb610a89366004615b14565b6123c6565b6105b8610a9c366004615ad2565b612678565b6105b8610aaf36600461556a565b60028054600090815260066020908152604080832073ffffffffffffffffffffffffffffffffffffffff909516835293909201909152205490565b610b11610af8366004615653565b6006602052600090815260409020805460019091015482565b604080519283526020830191909152016105c2565b6004546107769073ffffffffffffffffffffffffffffffffffffffff1681565b6105b8610b54366004615653565b612709565b6005546107769073ffffffffffffffffffffffffffffffffffffffff1681565b6105b8610b8736600461556a565b612716565b6105b8610b9a36600461556a565b612786565b6106bb610bad366004615bde565b6127d5565b6105b8610bc036600461556a565b6129a1565b6105b8610bd33660046157e7565b612a07565b6105b8610be636600461556a565b612a15565b6105b8610bf9366004615c4f565b73ffffffffffffffffffffffffffffffffffffffff91821660009081527f52c63247e1f47db19d5ce0460030c497f067ca4cebf71ba98eeadabe20bace016020908152604080832093909416825291909152205490565b610c63610c5e366004615653565b612a77565b6040516105c294939291906000610160820190508582528460208301528360408301528251606083015260208301516080830152604083015160a0830152606083015160c0830152608083015160e083015260a083015161010083015260c083015161012083015260e083015161014083015295945050505050565b6105b8610ced36600461556a565b612cd6565b610776612cea565b6106bb610d08366004615653565b612d13565b6105b8610d1b36600461556a565b612e50565b6106bb610d2e366004615653565b612e67565b6106bb610d4136600461556a565b612f8f565b6106bb610d5436600461556a565b61302b565b6105b86130e2565b6106076040518060400160405280600581526020017f302e312e3000000000000000000000000000000000000000000000000000000081525081565b73ffffffffffffffffffffffffffffffffffffffff81166000908152600860205260408120546002548114610e0457600081815260066020908152604080832073ffffffffffffffffffffffffffffffffffffffff87168452600301909152902054610e07565b60005b9392505050565b60008054790100000000000000000000000000000000000000000000000000900460ff1615610ed7576000546040517f70a082310000000000000000000000000000000000000000000000000000000081523060048201526501000000000090910473ffffffffffffffffffffffffffffffffffffffff16906370a08231906024015b602060405180830381865afa158015610eae573d6000803e3d6000fd5b505050506040513d601f19601f82011682018060405250810190610ed29190615c7d565b905090565b6001546000546040517f70a082310000000000000000000000000000000000000000000000000000000081523060048201526501000000000090910473ffffffffffffffffffffffffffffffffffffffff16906370a0823190602401602060405180830381865afa158015610f50573d6000803e3d6000fd5b505050506040513d601f19601f82011682018060405250810190610f749190615c7d565b610ed29190615cc5565b60007fffffffff0000000000000000000000000000000000000000000000000000000082167f01ffc9a700000000000000000000000000000000000000000000000000000000148061101157507fffffffff0000000000000000000000000000000000000000000000000000000082167f440af65200000000000000000000000000000000000000000000000000000000145b8061105d57507fffffffff0000000000000000000000000000000000000000000000000000000082167f6a6b80af00000000000000000000000000000000000000000000000000000000145b92915050565b606060007f52c63247e1f47db19d5ce0460030c497f067ca4cebf71ba98eeadabe20bace005b905080600301805461109a90615cd8565b80601f01602080910402602001604051908101604052809291908181526020018280546110c690615cd8565b80156111135780601f106110e857610100808354040283529160200191611113565b820191906000526020600020905b8154815290600101906020018083116110f657829003601f168201915b505050505091505090565b600061105d826000613146565b600033611139818585613195565b5060019392505050565b600061105d8260016131a7565b60008054790100000000000000000000000000000000000000000000000000900460ff166111e057600054600480546040517f70a0823100000000000000000000000000000000000000000000000000000000815273ffffffffffffffffffffffffffffffffffffffff9182169281019290925265010000000000909204909116906370a0823190602401610e91565b50600090565b60006111f06131e7565b61105d3383613243565b919050565b6112076131e7565b600054790100000000000000000000000000000000000000000000000000900460ff1615611261576040517fcf9c0f0900000000000000000000000000000000000000000000000000000000815260040160405180910390fd5b3373ffffffffffffffffffffffffffffffffffffffff831614611289576112898233866133a5565b600061129484612786565b11156112a6576112a48384613243565b505b6112af82612a15565b84111561131e5782846112c184612a15565b6040517fb9eb7aa500000000000000000000000000000000000000000000000000000000815273ffffffffffffffffffffffffffffffffffffffff9093166004840152602483019190915260448201526064015b60405180910390fd5b60045461134390839073ffffffffffffffffffffffffffffffffffffffff168661348d565b61134f84848484613498565b50505050565b6000610e07838360006136cf565b6000336113718582856133a5565b61137c85858561373d565b506001949350505050565b6000610ed26137e8565b6113996137f2565b6113a161384a565b565b60008054790100000000000000000000000000000000000000000000000000900460ff1680156113f557507fcd5ed15c6e187e77e9aee88184c21f4f2182ab5827cb3b7e07fbedcd63f033005460ff16155b61140057600061105d565b7fffffffffffffffffffffffffffffffffffffffffffffffffffffffffffffffff92915050565b61142f6137f2565b600054790100000000000000000000000000000000000000000000000000900460ff16611488576040517f782c1e2500000000000000000000000000000000000000000000000000000000815260040160405180910390fd5b611490610e0e565b6000036114c9576040517f61e9d8b300000000000000000000000000000000000000000000000000000000815260040160405180910390fd5b6114d1610e0e565b600155600080547fffffffffffff00ffffffffffffffffffffffffffffffffffffffffffffffffff169055611533611507611d6b565b60015460005465010000000000900473ffffffffffffffffffffffffffffffffffffffff1691906138e1565b427fc33272939f066c227e913a4b3434d860794f185c551685c29451a3a38b9b259c6001546115807f52c63247e1f47db19d5ce0460030c497f067ca4cebf71ba98eeadabe20bace025490565b6040805192835260208301919091520160405180910390a2565b73ffffffffffffffffffffffffffffffffffffffff81166000818152600760209081526040808320548084526006835281842094845260029094019091528120549091906115e9818385613962565b949350505050565b600554600090610ed29073ffffffffffffffffffffffffffffffffffffffff16611aa8565b6000336000546040517fdd62ed3e00000000000000000000000000000000000000000000000000000000815273ffffffffffffffffffffffffffffffffffffffff80841660048301523060248301529293508792650100000000009092049091169063dd62ed3e90604401602060405180830381865afa15801561169e573d6000803e3d6000fd5b505050506040513d601f19601f820116820180604052508101906116c29190615c7d565b10156116d3576116d38130846139b7565b6116df8585838661213f565b5050505050565b60008054790100000000000000000000000000000000000000000000000000900460ff168061173657507fcd5ed15c6e187e77e9aee88184c21f4f2182ab5827cb3b7e07fbedcd63f033005460ff165b611760577fffffffffffffffffffffffffffffffffffffffffffffffffffffffffffffffff61105d565b600092915050565b611770613b87565b610bb861ffff871611156117b0576040517fc9034e1800000000000000000000000000000000000000000000000000000000815260040160405180910390fd5b6000805473ffffffffffffffffffffffffffffffffffffffff86166501000000000081027fffffffffffffff0000000000000000000000000000000000000000ff0000ffff7fffffffffffff00ffffffffffffffffffffffffffffffffffffffffffffff000090931661ffff8b1617790100000000000000000000000000000000000000000000000000179290921691909117630bb8000017909155604080517f313ce567000000000000000000000000000000000000000000000000000000008152905163313ce567916004808201926020929091908290030181865afa1580156118a0573d6000803e3d6000fd5b505050506040513d601f19601f820116820180604052508101906118c49190615d25565b600060046101000a81548160ff021916908360ff1602179055506118e88282613bee565b6118f185613c00565b6118fa82613c11565b611902613c58565b61190c8386611a18565b50505050505050565b600061105d61062283611aa8565b61192b6137f2565b6119336131e7565b600054790100000000000000000000000000000000000000000000000000900460ff161561198d576040517fcf9c0f0900000000000000000000000000000000000000000000000000000000815260040160405180910390fd5b600061199882613c68565b50600080547fffffffffffff00ffffffffffffffffffffffffffffffffffffffffffffffffff167901000000000000000000000000000000000000000000000000001790559050611a146119ea611d6b565b60005465010000000000900473ffffffffffffffffffffffffffffffffffffffff1690308461408b565b5050565b6000611a226131e7565b6000611a2d836113a3565b905080841115611a8f576040517f79012fb200000000000000000000000000000000000000000000000000000000815273ffffffffffffffffffffffffffffffffffffffff841660048201526024810185905260448101829052606401611315565b6000611a9a85612709565b90506115e9338587846140d1565b6000807f52c63247e1f47db19d5ce0460030c497f067ca4cebf71ba98eeadabe20bace005b73ffffffffffffffffffffffffffffffffffffffff90931660009081526020939093525050604090205490565b611b026137f2565b6113a1600061417f565b3380611b16612cea565b73ffffffffffffffffffffffffffffffffffffffff1614611b7b576040517f118cdaa700000000000000000000000000000000000000000000000000000000815273ffffffffffffffffffffffffffffffffffffffff82166004820152602401611315565b611b848161417f565b50565b600061105d826141cf565b60008054790100000000000000000000000000000000000000000000000000900460ff166111e057600454610ed29073ffffffffffffffffffffffffffffffffffffffff16611aa8565b611be46137f2565b6113a16141f8565b600060608082808083817fa16a46d94261c7517cc8ff89f61c0ce93598e3c849801011dee649a6a557d1008054909150158015611c2b57506001810154155b611c91576040517f08c379a000000000000000000000000000000000000000000000000000000000815260206004820152601560248201527f4549503731323a20556e696e697469616c697a656400000000000000000000006044820152606401611315565b611c99614271565b611ca16142c2565b604080516000808252602082019092527f0f000000000000000000000000000000000000000000000000000000000000009c939b5091995046985030975095509350915050565b611cf06137f2565b6127108161ffff161115611d30576040517ff93ea0ec00000000000000000000000000000000000000000000000000000000815260040160405180910390fd5b6000805461ffff90921662010000027fffffffffffffffffffffffffffffffffffffffffffffffffffffffff0000ffff909216919091179055565b6000807f9016d09d72d40fdae2fd8ceac6b6234c7706214fd39c1cd1e609a0528c1993005b5473ffffffffffffffffffffffffffffffffffffffff1692915050565b611db56137f2565b611dbd6131e7565b600054790100000000000000000000000000000000000000000000000000900460ff1615611e17576040517fcf9c0f0900000000000000000000000000000000000000000000000000000000815260040160405180910390fd5b600080611e2383613c68565b91509150427fc33272939f066c227e913a4b3434d860794f185c551685c29451a3a38b9b259c8383604051611e62929190918252602082015260400190565b60405180910390a2505050565b611e776137f2565b600054790100000000000000000000000000000000000000000000000000900460ff16611ed0576040517f782c1e2500000000000000000000000000000000000000000000000000000000815260040160405180910390fd5b610bb861ffff82161115611f10576040517fc9034e1800000000000000000000000000000000000000000000000000000000815260040160405180910390fd5b600080547fffffffffffffffffffffffffffffffffffffffffffffffffffffffffffff00001661ffff83169081179091556040805182815260208101929092527f650c33539188595d37a71b1a08a2fb3ee0728c0a1068d89f573c3fa4b28da22091015b60405180910390a150565b600080336000546040517fdd62ed3e00000000000000000000000000000000000000000000000000000000815273ffffffffffffffffffffffffffffffffffffffff80841660048301523060248301529293508792650100000000009092049091169063dd62ed3e90604401602060405180830381865afa158015612008573d6000803e3d6000fd5b505050506040513d601f19601f8201168201806040525081019061202c9190615c7d565b101561203d5761203d8130856139b7565b6120478585611a18565b95945050505050565b600061205a6131e7565b6000612065836113a3565b9050808411156120c7576040517f284ff66700000000000000000000000000000000000000000000000000000000815273ffffffffffffffffffffffffffffffffffffffff841660048201526024810185905260448101829052606401611315565b60006120d285612328565b90506115e9338583886140d1565b7f52c63247e1f47db19d5ce0460030c497f067ca4cebf71ba98eeadabe20bace0480546060917f52c63247e1f47db19d5ce0460030c497f067ca4cebf71ba98eeadabe20bace009161109a90615cd8565b60003361113981858561373d565b6121476131e7565b600054790100000000000000000000000000000000000000000000000000900460ff16156121a1576040517fcf9c0f0900000000000000000000000000000000000000000000000000000000815260040160405180910390fd5b3373ffffffffffffffffffffffffffffffffffffffff8316146121f0576040517f03c4f5db00000000000000000000000000000000000000000000000000000000815260040160405180910390fd5b60006121fb8461159a565b111561220d5761220b83846142ec565b505b612216826116e6565b841115612280578284612228846116e6565b6040517fb04d509000000000000000000000000000000000000000000000000000000000815273ffffffffffffffffffffffffffffffffffffffff909316600484015260248301919091526044820152606401611315565b6004546000546122b59173ffffffffffffffffffffffffffffffffffffffff650100000000009092048216918591168761408b565b61134f84848484614425565b73ffffffffffffffffffffffffffffffffffffffff81166000908152600760205260408120546002548114610e0457600081815260066020908152604080832073ffffffffffffffffffffffffffffffffffffffff87168452600201909152902054610e07565b600061105d826001613146565b600061233f6131e7565b600061234a83612716565b9050808511156123ac576040517ffe9cceec00000000000000000000000000000000000000000000000000000000815273ffffffffffffffffffffffffffffffffffffffff841660048201526024810186905260448101829052606401611315565b60006123b786611143565b90506120473386868985614629565b7ff0c57e16840df040f15088dc2f81fe391c3923bec73e23a9662efc9c229c6a00805468010000000000000000810460ff16159067ffffffffffffffff166000811580156124115750825b905060008267ffffffffffffffff16600114801561242e5750303b155b90508115801561243c575080155b15612473576040517ff92ee8a900000000000000000000000000000000000000000000000000000000815260040160405180910390fd5b84547fffffffffffffffffffffffffffffffffffffffffffffffff000000000000000016600117855583156124d45784547fffffffffffffffffffffffffffffffffffffffffffffff00ffffffffffffffff16680100000000000000001785555b6124e28c8c8b8b8b8b611768565b60016002556124f08a612f8f565b886040516124fd9061553b565b73ffffffffffffffffffffffffffffffffffffffff9091168152602001604051809103906000f080158015612536573d6000803e3d6000fd5b50600480547fffffffffffffffffffffffff00000000000000000000000000000000000000001673ffffffffffffffffffffffffffffffffffffffff92909216919091179055604051899061258a9061553b565b73ffffffffffffffffffffffffffffffffffffffff9091168152602001604051809103906000f0801580156125c3573d6000803e3d6000fd5b50600580547fffffffffffffffffffffffff00000000000000000000000000000000000000001673ffffffffffffffffffffffffffffffffffffffff92909216919091179055831561266a5784547fffffffffffffffffffffffffffffffffffffffffffffff00ffffffffffffffff168555604051600181527fc7f505b2f371ae2175ee4913f4499e1f2633a7b5936321eed1cdaeb6115181d29060200160405180910390a15b505050505050505050505050565b60006126826131e7565b600061268d836129a1565b9050808511156126ef576040517fb94abeec00000000000000000000000000000000000000000000000000000000815273ffffffffffffffffffffffffffffffffffffffff841660048201526024810186905260448101829052606401611315565b60006126fa8661111e565b9050612047338686848a614629565b600061105d8260006131a7565b60008054790100000000000000000000000000000000000000000000000000900460ff16801561276857507fcd5ed15c6e187e77e9aee88184c21f4f2182ab5827cb3b7e07fbedcd63f033005460ff16155b61277357600061105d565b61105d61277f83611aa8565b6000613146565b73ffffffffffffffffffffffffffffffffffffffff81166000818152600860209081526040808320548084526006835281842094845260039094019091528120549091906115e98183856136cf565b83421115612812576040517f6279130200000000000000000000000000000000000000000000000000000000815260048101859052602401611315565b60007f6e71edae12b1b97f4d1f60370fef10105fa2faae0126114a169c64845d6126c988888861288b8c73ffffffffffffffffffffffffffffffffffffffff1660009081527f5ab42ced628888259c08ac98db1eb0cf702fc1501344311d8b100cd1bfe4bb006020526040902080546001810190915590565b60408051602081019690965273ffffffffffffffffffffffffffffffffffffffff94851690860152929091166060840152608083015260a082015260c0810186905260e00160405160208183030381529060405280519060200120905060006128f38261472c565b9050600061290382878787614774565b90508973ffffffffffffffffffffffffffffffffffffffff168173ffffffffffffffffffffffffffffffffffffffff161461298a576040517f4b800e4600000000000000000000000000000000000000000000000000000000815273ffffffffffffffffffffffffffffffffffffffff80831660048301528b166024820152604401611315565b6129958a8a8a613195565b50505050505050505050565b60008054790100000000000000000000000000000000000000000000000000900460ff1680156129f357507fcd5ed15c6e187e77e9aee88184c21f4f2182ab5827cb3b7e07fbedcd63f033005460ff16155b6129fe57600061105d565b61105d82611aa8565b6000610e0783836000613962565b60008054790100000000000000000000000000000000000000000000000000900460ff1680612a6557507fcd5ed15c6e187e77e9aee88184c21f4f2182ab5827cb3b7e07fbedcd63f033005460ff165b61176057612a7282611aa8565b61105d565b6000806000612ac460405180610100016040528060008152602001600081526020016000815260200160008152602001600081526020016000815260200160008152602001600081525090565b600154612ad181876147a2565b6000612add8288614804565b90506000612b097f52c63247e1f47db19d5ce0460030c497f067ca4cebf71ba98eeadabe20bace025490565b9050612b158289615d42565b60045490935073ffffffffffffffffffffffffffffffffffffffff166000612b3c82611aa8565b600080546040517f70a0823100000000000000000000000000000000000000000000000000000000815273ffffffffffffffffffffffffffffffffffffffff868116600483015293945091926501000000000090910416906370a0823190602401602060405180830381865afa158015612bba573d6000803e3d6000fd5b505050506040513d601f19601f82011682018060405250810190612bde9190615c7d565b90506000612c05612bf0866001615cc5565b612bfb896001615cc5565b8491906000614839565b905086856000612c42612c188685615cc5565b612c23906001615cc5565b612c2d868b615cc5565b612c38906001615cc5565b8891906000614839565b90506040518061010001604052808a8c612c5c9190615cc5565b81526020018a8152602001878152602001858152602001868152602001828152602001848152602001838152509a5080851115612ca457612c9d8186615d42565b9d50612cb9565b80851015612cb957612cb68582615d42565b9c505b612cc38d8a615cc5565b9b50505050505050505050509193509193565b6000612ce06131e7565b61105d33836142ec565b6000807f237e158222e3e6968b72b9db0d8043aacf074ad9f650f0d1606b4d82ee432c00611d90565b600054790100000000000000000000000000000000000000000000000000900460ff1615612d6d576040517fcf9c0f0900000000000000000000000000000000000000000000000000000000815260040160405180910390fd5b612d756131e7565b6002805460009081526006602090815260408083203380855294019091528120805491849190612da58385615d42565b9091555050600454600054612dde9173ffffffffffffffffffffffffffffffffffffffff6501000000000090920482169116848661408b565b60028054600081815260066020908152604080832073ffffffffffffffffffffffffffffffffffffffff88168085529501825291829020549151918252849392917f69fb258dd22920a83a8863be947f39d9987b98b004ff860d24d78967538d5e2991015b60405180910390a4505050565b600080612e5c8361159a565b9050610e078161111e565b600054790100000000000000000000000000000000000000000000000000900460ff1615612ec1576040517fcf9c0f0900000000000000000000000000000000000000000000000000000000815260040160405180910390fd5b612ec96131e7565b6002546000908152600660209081526040808320338085526003909101909252822080549192849190612efc8385615d42565b9091555050600454612f259073ffffffffffffffffffffffffffffffffffffffff16838561348d565b600254600081815260066020908152604080832073ffffffffffffffffffffffffffffffffffffffff871680855260039091018352928190205490519081528493917f34865e459ae19e6d62b2827e0558e83e0011069c831ec3662558b93aa4478f169101612e43565b612f976137f2565b73ffffffffffffffffffffffffffffffffffffffff8116612fe4576040517f14bcf5c800000000000000000000000000000000000000000000000000000000815260040160405180910390fd5b600380547fffffffffffffffffffffffff00000000000000000000000000000000000000001673ffffffffffffffffffffffffffffffffffffffff92909216919091179055565b6130336137f2565b7f237e158222e3e6968b72b9db0d8043aacf074ad9f650f0d1606b4d82ee432c0080547fffffffffffffffffffffffff00000000000000000000000000000000000000001673ffffffffffffffffffffffffffffffffffffffff8316908117825561309c611d6b565b73ffffffffffffffffffffffffffffffffffffffff167f38d16b8cac22d99fc7c124b9cd0de2d3fa1faef420bfe791d8c362d765e2270060405160405180910390a35050565b600080546005546040517f70a0823100000000000000000000000000000000000000000000000000000000815273ffffffffffffffffffffffffffffffffffffffff91821660048201526501000000000090920416906370a0823190602401610e91565b6000610e07613153610e0e565b61315e906001615cc5565b7f52c63247e1f47db19d5ce0460030c497f067ca4cebf71ba98eeadabe20bace02545b61318c906001615cc5565b85919085614839565b6131a2838383600161487e565b505050565b6000610e076131d47f52c63247e1f47db19d5ce0460030c497f067ca4cebf71ba98eeadabe20bace025490565b6131df906001615cc5565b613181610e0e565b7fcd5ed15c6e187e77e9aee88184c21f4f2182ab5827cb3b7e07fbedcd63f033005460ff16156113a1576040517fd93c066500000000000000000000000000000000000000000000000000000000815260040160405180910390fd5b600061324d6131e7565b73ffffffffffffffffffffffffffffffffffffffff831660009081526008602052604090205460025481036132c6576040517f8572c1c400000000000000000000000000000000000000000000000000000000815273ffffffffffffffffffffffffffffffffffffffff85166004820152602401611315565b6132cf84612786565b600082815260066020908152604080832073ffffffffffffffffffffffffffffffffffffffff89811685526003909101909252822080549083905560055492549395509261332c926501000000000090910482169116868661408b565b8373ffffffffffffffffffffffffffffffffffffffff168573ffffffffffffffffffffffffffffffffffffffff16837f97e51cb7384809a186f5f66727774f4e061708a7133dd467f6eb423ec4ccb8d38685604051613395929190918252602082015260400190565b60405180910390a4505092915050565b73ffffffffffffffffffffffffffffffffffffffff83811660009081527f52c63247e1f47db19d5ce0460030c497f067ca4cebf71ba98eeadabe20bace0160209081526040808320938616835292905220547fffffffffffffffffffffffffffffffffffffffffffffffffffffffffffffffff811461134f578181101561347e576040517ffb8f41b200000000000000000000000000000000000000000000000000000000815273ffffffffffffffffffffffffffffffffffffffff841660048201526024810182905260448101839052606401611315565b61134f8484848403600061487e565b6131a28383836149ea565b600254600090815260066020908152604080832073ffffffffffffffffffffffffffffffffffffffff87168452600301909152812080548692906134dd908490615cc5565b909155505060025473ffffffffffffffffffffffffffffffffffffffff84166000908152600860205260409020541461353a5760025473ffffffffffffffffffffffffffffffffffffffff84166000908152600860205260409020555b6000815111801561360b57506002546040517f01a2e97e000000000000000000000000000000000000000000000000000000008082529173ffffffffffffffffffffffffffffffffffffffff8616916301a2e97e916135a391339188918b908990600401615d55565b6020604051808303816000875af11580156135c2573d6000803e3d6000fd5b505050506040513d601f19601f820116820180604052508101906135e69190615db7565b7fffffffff000000000000000000000000000000000000000000000000000000001614155b15613642576040517f9d77809700000000000000000000000000000000000000000000000000000000815260040160405180910390fd5b6002548273ffffffffffffffffffffffffffffffffffffffff168473ffffffffffffffffffffffffffffffffffffffff167f1fdc681a13d8c5da54e301c7ce6542dcde4581e4725043fdab2db12ddc57450661369b3390565b6040805173ffffffffffffffffffffffffffffffffffffffff9092168252602082018a90520160405180910390a450505050565b60006136dc836002541490565b156136e957506000610e07565b600083815260066020526040812054613703906001615cc5565b6000858152600660205260408120600190810154929350909161372591615cc5565b905061373386828487614839565b9695505050505050565b73ffffffffffffffffffffffffffffffffffffffff831661378d576040517f96c6fd1e00000000000000000000000000000000000000000000000000000000815260006004820152602401611315565b73ffffffffffffffffffffffffffffffffffffffff82166137dd576040517fec442f0500000000000000000000000000000000000000000000000000000000815260006004820152602401611315565b6131a283838361348d565b6000610ed26149fd565b336137fb611d6b565b73ffffffffffffffffffffffffffffffffffffffff16146113a1576040517f118cdaa7000000000000000000000000000000000000000000000000000000008152336004820152602401611315565b613852614a71565b7fcd5ed15c6e187e77e9aee88184c21f4f2182ab5827cb3b7e07fbedcd63f0330080547fffffffffffffffffffffffffffffffffffffffffffffffffffffffffffffff001681557f5db9ee0a495bf2e6ff9c91a7834c1ba4fdd244a5e8aa4e537bd38aeae4b073aa335b60405173ffffffffffffffffffffffffffffffffffffffff9091168152602001611f74565b60405173ffffffffffffffffffffffffffffffffffffffff8381166024830152604482018390526131a291859182169063a9059cbb906064015b604051602081830303815290604052915060e01b6020820180517bffffffffffffffffffffffffffffffffffffffffffffffffffffffff8381831617835250505050614acc565b600061396f836002541490565b1561397c57506000610e07565b600083815260066020526040812060019081015461399991615cc5565b60008581526006602052604081205491925090613725906001615cc5565b60005465010000000000900473ffffffffffffffffffffffffffffffffffffffff1663d505accf8484843560208601356139f76060880160408901615dd4565b6040517fffffffff0000000000000000000000000000000000000000000000000000000060e088901b16815273ffffffffffffffffffffffffffffffffffffffff95861660048201529490931660248501526044840191909152606483015260ff166084820152606084013560a4820152608084013560c482015260e401600060405180830381600087803b158015613a8f57600080fd5b505af1158015613aa3573d6000803e3d6000fd5b50506000546040517fdd62ed3e00000000000000000000000000000000000000000000000000000000815273ffffffffffffffffffffffffffffffffffffffff878116600483015286811660248301528535945065010000000000909204909116915063dd62ed3e90604401602060405180830381865afa158015613b2c573d6000803e3d6000fd5b505050506040513d601f19601f82011682018060405250810190613b509190615c7d565b146131a2576040517fb78cb0dd00000000000000000000000000000000000000000000000000000000815260040160405180910390fd5b7ff0c57e16840df040f15088dc2f81fe391c3923bec73e23a9662efc9c229c6a005468010000000000000000900460ff166113a1576040517fd7e6bcf800000000000000000000000000000000000000000000000000000000815260040160405180910390fd5b613bf6613b87565b611a148282614b62565b613c08613b87565b611b8481614bc5565b613c19613b87565b611b84816040518060400160405280600181526020017f3100000000000000000000000000000000000000000000000000000000000000815250614c1d565b613c60613b87565b6113a1614c90565b6000806000806000613c7986612a77565b93505092509250427f2ba91c5af725b7eb47a99fc37633a131c737733dfb297706e7b11c724250efdb600154888460200151613cd37f52c63247e1f47db19d5ce0460030c497f067ca4cebf71ba98eeadabe20bace025490565b60408051948552602085019390935291830152606082015260800160405180910390a2613d36613d01611d6b565b600354602084015160005465010000000000900473ffffffffffffffffffffffffffffffffffffffff9081169392169061408b565b6004546040820151613d5e9173ffffffffffffffffffffffffffffffffffffffff1690614ce1565b6005546060820151613d869173ffffffffffffffffffffffffffffffffffffffff1690614d3d565b8060a0015181608001511115613e3457600454613de59073ffffffffffffffffffffffffffffffffffffffff16613dbb611d6b565b60005465010000000000900473ffffffffffffffffffffffffffffffffffffffff1691908661408b565b60a081015115613e2f5760045460055460a0830151600054613e2f9373ffffffffffffffffffffffffffffffffffffffff650100000000009092048216939082169291169061408b565b613f13565b8060a0015181608001511015613ec957613e7f613e4f611d6b565b60055460005465010000000000900473ffffffffffffffffffffffffffffffffffffffff9081169291168561408b565b608081015115613e2f576004546005546080830151600054613e2f9373ffffffffffffffffffffffffffffffffffffffff650100000000009092048216939082169291169061408b565b608081015115613f135760045460055460a0830151600054613f139373ffffffffffffffffffffffffffffffffffffffff650100000000009092048216939082169291169061408b565b6005546004546080830151606084015160405173ffffffffffffffffffffffffffffffffffffffff9485169493909316927fdcbc1c05240f31ff3ad067ef1ee35ce4997762752e3a095284754544f4c709d792613f7892908252602082015260400190565b60405180910390a360045460055460a08301516040808501518151928352602083015273ffffffffffffffffffffffffffffffffffffffff938416939092169183917ffbde797d201c681b91056529119e0b02407c7bb96a4a2c75c01fc9667232c8db910160405180910390a460a08101516080820151602083015183516140009190615d42565b61400a9190615cc5565b6140149190615d42565b808252600190815560e0820151600280546000908152600660205260408082209390935560c0850151825482529281209093019190915580549161405783615df1565b9091555050517f52c63247e1f47db19d5ce0460030c497f067ca4cebf71ba98eeadabe20bace025490969095509350505050565b60405173ffffffffffffffffffffffffffffffffffffffff848116602483015283811660448301526064820183905261134f9186918216906323b872dd9060840161391b565b6000546140ff9065010000000000900473ffffffffffffffffffffffffffffffffffffffff1685308561408b565b6141098382614d3d565b8273ffffffffffffffffffffffffffffffffffffffff168473ffffffffffffffffffffffffffffffffffffffff167fdcbc1c05240f31ff3ad067ef1ee35ce4997762752e3a095284754544f4c709d78484604051614171929190918252602082015260400190565b60405180910390a350505050565b7f237e158222e3e6968b72b9db0d8043aacf074ad9f650f0d1606b4d82ee432c0080547fffffffffffffffffffffffff0000000000000000000000000000000000000000168155611a1482614d99565b6000807f5ab42ced628888259c08ac98db1eb0cf702fc1501344311d8b100cd1bfe4bb00611acd565b6142006131e7565b7fcd5ed15c6e187e77e9aee88184c21f4f2182ab5827cb3b7e07fbedcd63f0330080547fffffffffffffffffffffffffffffffffffffffffffffffffffffffffffffff001660011781557f62e78cea01bee320cd4e420270b5ea74000d11b0c9f74754ebdbfc544b05a258336138bc565b7fa16a46d94261c7517cc8ff89f61c0ce93598e3c849801011dee649a6a557d10280546060917fa16a46d94261c7517cc8ff89f61c0ce93598e3c849801011dee649a6a557d1009161109a90615cd8565b606060007fa16a46d94261c7517cc8ff89f61c0ce93598e3c849801011dee649a6a557d100611089565b73ffffffffffffffffffffffffffffffffffffffff82166000908152600760205260408120546002548103614365576040517f8572c1c400000000000000000000000000000000000000000000000000000000815273ffffffffffffffffffffffffffffffffffffffff85166004820152602401611315565b61436e8461159a565b600082815260066020908152604080832073ffffffffffffffffffffffffffffffffffffffff898116855260029091019092528220805492905560055492945090916143bc9116858561348d565b8373ffffffffffffffffffffffffffffffffffffffff168573ffffffffffffffffffffffffffffffffffffffff16837fa58ba2dc206ba708bedff28607ec751812d5b1a8e66b35771034981d56d761398487604051613395929190918252602082015260400190565b60028054600090815260066020908152604080832073ffffffffffffffffffffffffffffffffffffffff881684529093019052908120805486929061446b908490615cc5565b909155505060025473ffffffffffffffffffffffffffffffffffffffff8416600090815260076020526040902054146144c85760025473ffffffffffffffffffffffffffffffffffffffff84166000908152600760205260409020555b6000815111801561459957506002546040517f6d7e2da0000000000000000000000000000000000000000000000000000000008082529173ffffffffffffffffffffffffffffffffffffffff861691636d7e2da09161453191339188918b908990600401615d55565b6020604051808303816000875af1158015614550573d6000803e3d6000fd5b505050506040513d601f19601f820116820180604052508101906145749190615db7565b7fffffffff000000000000000000000000000000000000000000000000000000001614155b156145d0576040517f9d77809700000000000000000000000000000000000000000000000000000000815260040160405180910390fd5b6002548273ffffffffffffffffffffffffffffffffffffffff168473ffffffffffffffffffffffffffffffffffffffff167fbb58420bb8ce44e11b84e214cc0de10ce5e7c24d0355b2815c3d758b514cae7261369b3390565b8273ffffffffffffffffffffffffffffffffffffffff168573ffffffffffffffffffffffffffffffffffffffff1614614667576146678386836133a5565b6146718382614ce1565b60005461469e9065010000000000900473ffffffffffffffffffffffffffffffffffffffff1685846138e1565b8273ffffffffffffffffffffffffffffffffffffffff168473ffffffffffffffffffffffffffffffffffffffff168673ffffffffffffffffffffffffffffffffffffffff167ffbde797d201c681b91056529119e0b02407c7bb96a4a2c75c01fc9667232c8db858560405161471d929190918252602082015260400190565b60405180910390a45050505050565b600061105d6147396137e8565b836040517f19010000000000000000000000000000000000000000000000000000000000008152600281019290925260228201526042902090565b60008060008061478688888888614e2f565b9250925092506147968282614f29565b50909695505050505050565b6000546147cb906147bf9062010000900461ffff16612710615d42565b83906127106001614839565b811015611a14576040517ff93ea0ec00000000000000000000000000000000000000000000000000000000815260040160405180910390fd5b6000828211801561481a575060005461ffff1615155b1561105d5760008054848403916115e991839161ffff90911690612710905b60008061484786868661502d565b905061485283615128565b801561486e57506000848061486957614869615e29565b868809115b1561204757613733600182615cc5565b7f52c63247e1f47db19d5ce0460030c497f067ca4cebf71ba98eeadabe20bace0073ffffffffffffffffffffffffffffffffffffffff85166148ef576040517fe602df0500000000000000000000000000000000000000000000000000000000815260006004820152602401611315565b73ffffffffffffffffffffffffffffffffffffffff841661493f576040517f94280d6200000000000000000000000000000000000000000000000000000000815260006004820152602401611315565b73ffffffffffffffffffffffffffffffffffffffff8086166000908152600183016020908152604080832093881683529290522083905581156116df578373ffffffffffffffffffffffffffffffffffffffff168573ffffffffffffffffffffffffffffffffffffffff167f8c5be1e5ebec7d5bd14f71427d1e84f3dd0314c0f7b2291e5b200ac8c7c3b925856040516149db91815260200190565b60405180910390a35050505050565b6149f26131e7565b6131a2838383615155565b60007f8b73c3c69bb8fe3d512ecc4cf759cc79239f7b179b0ffacaa9a75d522b39400f614a28615318565b614a30615394565b60408051602081019490945283019190915260608201524660808201523060a082015260c00160405160208183030381529060405280519060200120905090565b7fcd5ed15c6e187e77e9aee88184c21f4f2182ab5827cb3b7e07fbedcd63f033005460ff166113a1576040517f8dfc202b00000000000000000000000000000000000000000000000000000000815260040160405180910390fd5b6000614aee73ffffffffffffffffffffffffffffffffffffffff8416836153ea565b90508051600014158015614b13575080806020019051810190614b119190615e58565b155b156131a2576040517f5274afe700000000000000000000000000000000000000000000000000000000815273ffffffffffffffffffffffffffffffffffffffff84166004820152602401611315565b614b6a613b87565b7f52c63247e1f47db19d5ce0460030c497f067ca4cebf71ba98eeadabe20bace007f52c63247e1f47db19d5ce0460030c497f067ca4cebf71ba98eeadabe20bace03614bb68482615ec1565b506004810161134f8382615ec1565b614bcd613b87565b73ffffffffffffffffffffffffffffffffffffffff8116611b7b576040517f1e4fbdf700000000000000000000000000000000000000000000000000000000815260006004820152602401611315565b614c25613b87565b7fa16a46d94261c7517cc8ff89f61c0ce93598e3c849801011dee649a6a557d1007fa16a46d94261c7517cc8ff89f61c0ce93598e3c849801011dee649a6a557d102614c718482615ec1565b5060038101614c808382615ec1565b5060008082556001909101555050565b614c98613b87565b7fcd5ed15c6e187e77e9aee88184c21f4f2182ab5827cb3b7e07fbedcd63f0330080547fffffffffffffffffffffffffffffffffffffffffffffffffffffffffffffff00169055565b73ffffffffffffffffffffffffffffffffffffffff8216614d31576040517f96c6fd1e00000000000000000000000000000000000000000000000000000000815260006004820152602401611315565b611a148260008361348d565b73ffffffffffffffffffffffffffffffffffffffff8216614d8d576040517fec442f0500000000000000000000000000000000000000000000000000000000815260006004820152602401611315565b611a146000838361348d565b7f9016d09d72d40fdae2fd8ceac6b6234c7706214fd39c1cd1e609a0528c19930080547fffffffffffffffffffffffff0000000000000000000000000000000000000000811673ffffffffffffffffffffffffffffffffffffffff848116918217845560405192169182907f8be0079c531659141344cd1fd0a4f28419497f9722a3daafe3b4186f6b6457e090600090a3505050565b600080807f7fffffffffffffffffffffffffffffff5d576e7357a4501ddfe92f46681b20a0841115614e6a5750600091506003905082614f1f565b604080516000808252602082018084528a905260ff891692820192909252606081018790526080810186905260019060a0016020604051602081039080840390855afa158015614ebe573d6000803e3d6000fd5b50506040517fffffffffffffffffffffffffffffffffffffffffffffffffffffffffffffffe0015191505073ffffffffffffffffffffffffffffffffffffffff8116614f1557506000925060019150829050614f1f565b9250600091508190505b9450945094915050565b6000826003811115614f3d57614f3d615fda565b03614f46575050565b6001826003811115614f5a57614f5a615fda565b03614f91576040517ff645eedf00000000000000000000000000000000000000000000000000000000815260040160405180910390fd5b6002826003811115614fa557614fa5615fda565b03614fdf576040517ffce698f700000000000000000000000000000000000000000000000000000000815260048101829052602401611315565b6003826003811115614ff357614ff3615fda565b03611a14576040517fd78bce0c00000000000000000000000000000000000000000000000000000000815260048101829052602401611315565b6000838302817fffffffffffffffffffffffffffffffffffffffffffffffffffffffffffffffff85870982811083820303915050806000036150825783828161507857615078615e29565b0492505050610e07565b8084116150bb576040517f227bc15300000000000000000000000000000000000000000000000000000000815260040160405180910390fd5b6000848688096000868103871696879004966002600389028118808a02820302808a02820302808a02820302808a02820302808a02820302808a02909103029181900381900460010186841190950394909402919094039290920491909117919091029150509392505050565b6000600282600381111561513e5761513e615fda565b6151489190616009565b60ff166001149050919050565b7f52c63247e1f47db19d5ce0460030c497f067ca4cebf71ba98eeadabe20bace0073ffffffffffffffffffffffffffffffffffffffff84166151b057818160020160008282546151a59190615cc5565b909155506152629050565b73ffffffffffffffffffffffffffffffffffffffff841660009081526020829052604090205482811015615236576040517fe450d38c00000000000000000000000000000000000000000000000000000000815273ffffffffffffffffffffffffffffffffffffffff861660048201526024810182905260448101849052606401611315565b73ffffffffffffffffffffffffffffffffffffffff851660009081526020839052604090209083900390555b73ffffffffffffffffffffffffffffffffffffffff831661528d5760028101805483900390556152b9565b73ffffffffffffffffffffffffffffffffffffffff831660009081526020829052604090208054830190555b8273ffffffffffffffffffffffffffffffffffffffff168473ffffffffffffffffffffffffffffffffffffffff167fddf252ad1be2c89b69c2b068fc378daa952ba7f163c4a11628f55a4df523b3ef8460405161417191815260200190565b60007fa16a46d94261c7517cc8ff89f61c0ce93598e3c849801011dee649a6a557d10081615344614271565b80519091501561535c57805160209091012092915050565b8154801561536b579392505050565b7fc5d2460186f7233c927e7db2dcc703c0e500b653ca82273b7bfad8045d85a470935050505090565b60007fa16a46d94261c7517cc8ff89f61c0ce93598e3c849801011dee649a6a557d100816153c06142c2565b8051909150156153d857805160209091012092915050565b6001820154801561536b579392505050565b6060610e0783836000846000808573ffffffffffffffffffffffffffffffffffffffff16848660405161541d9190616052565b60006040518083038185875af1925050503d806000811461545a576040519150601f19603f3d011682016040523d82523d6000602084013e61545f565b606091505b509150915061373386838360608261547f5761547a826154f9565b610e07565b81511580156154a3575073ffffffffffffffffffffffffffffffffffffffff84163b155b156154f2576040517f9996b31500000000000000000000000000000000000000000000000000000000815273ffffffffffffffffffffffffffffffffffffffff85166004820152602401611315565b5080610e07565b8051156155095780518082602001fd5b6040517f1425ea4200000000000000000000000000000000000000000000000000000000815260040160405180910390fd5b6103fb8061606f83390190565b73ffffffffffffffffffffffffffffffffffffffff81168114611b8457600080fd5b60006020828403121561557c57600080fd5b8135610e0781615548565b7fffffffff0000000000000000000000000000000000000000000000000000000081168114611b8457600080fd5b6000602082840312156155c757600080fd5b8135610e0781615587565b60005b838110156155ed5781810151838201526020016155d5565b50506000910152565b6000815180845261560e8160208601602086016155d2565b601f017fffffffffffffffffffffffffffffffffffffffffffffffffffffffffffffffe0169290920160200192915050565b602081526000610e0760208301846155f6565b60006020828403121561566557600080fd5b5035919050565b6000806040838503121561567f57600080fd5b823561568a81615548565b946020939093013593505050565b7f4e487b7100000000000000000000000000000000000000000000000000000000600052604160045260246000fd5b600082601f8301126156d857600080fd5b81356020830160008067ffffffffffffffff8411156156f9576156f9615698565b506040517fffffffffffffffffffffffffffffffffffffffffffffffffffffffffffffffe0601f85018116603f0116810181811067ffffffffffffffff8211171561574657615746615698565b60405283815290508082840187101561575e57600080fd5b838360208301376000602085830101528094505050505092915050565b6000806000806080858703121561579157600080fd5b8435935060208501356157a381615548565b925060408501356157b381615548565b9150606085013567ffffffffffffffff8111156157cf57600080fd5b6157db878288016156c7565b91505092959194509250565b600080604083850312156157fa57600080fd5b50508035926020909101359150565b60008060006060848603121561581e57600080fd5b833561582981615548565b9250602084013561583981615548565b929592945050506040919091013590565b600060a0828403121561585c57600080fd5b50919050565b600080600080610100858703121561587957600080fd5b84359350602085013561588b81615548565b9250604085013567ffffffffffffffff8111156158a757600080fd5b6158b3878288016156c7565b9250506158c3866060870161584a565b905092959194509250565b803561ffff811681146111fa57600080fd5b60008060008060008060c087890312156158f957600080fd5b615902876158ce565b9550602087013561591281615548565b9450604087013561592281615548565b935060608701359250608087013567ffffffffffffffff81111561594557600080fd5b61595189828a016156c7565b92505060a087013567ffffffffffffffff81111561596e57600080fd5b61597a89828a016156c7565b9150509295509295509295565b6000806040838503121561599a57600080fd5b8235915060208301356159ac81615548565b809150509250929050565b7fff000000000000000000000000000000000000000000000000000000000000008816815260e0602082015260006159f260e08301896155f6565b8281036040840152615a0481896155f6565b6060840188905273ffffffffffffffffffffffffffffffffffffffff8716608085015260a0840186905283810360c08501528451808252602080870193509091019060005b81811015615a67578351835260209384019390920191600101615a49565b50909b9a5050505050505050505050565b600060208284031215615a8a57600080fd5b610e07826158ce565b600080600060e08486031215615aa857600080fd5b833592506020840135615aba81615548565b9150615ac9856040860161584a565b90509250925092565b600080600060608486031215615ae757600080fd5b833592506020840135615af981615548565b91506040840135615b0981615548565b809150509250925092565b600080600080600080600060e0888a031215615b2f57600080fd5b615b38886158ce565b96506020880135615b4881615548565b95506040880135615b5881615548565b94506060880135615b6881615548565b93506080880135925060a088013567ffffffffffffffff811115615b8b57600080fd5b615b978a828b016156c7565b92505060c088013567ffffffffffffffff811115615bb457600080fd5b615bc08a828b016156c7565b91505092959891949750929550565b60ff81168114611b8457600080fd5b600080600080600080600060e0888a031215615bf957600080fd5b8735615c0481615548565b96506020880135615c1481615548565b955060408801359450606088013593506080880135615c3281615bcf565b9699959850939692959460a0840135945060c09093013592915050565b60008060408385031215615c6257600080fd5b8235615c6d81615548565b915060208301356159ac81615548565b600060208284031215615c8f57600080fd5b5051919050565b7f4e487b7100000000000000000000000000000000000000000000000000000000600052601160045260246000fd5b8082018082111561105d5761105d615c96565b600181811c90821680615cec57607f821691505b60208210810361585c577f4e487b7100000000000000000000000000000000000000000000000000000000600052602260045260246000fd5b600060208284031215615d3757600080fd5b8151610e0781615bcf565b8181038181111561105d5761105d615c96565b73ffffffffffffffffffffffffffffffffffffffff8616815273ffffffffffffffffffffffffffffffffffffffff8516602082015283604082015282606082015260a060808201526000615dac60a08301846155f6565b979650505050505050565b600060208284031215615dc957600080fd5b8151610e0781615587565b600060208284031215615de657600080fd5b8135610e0781615bcf565b60007fffffffffffffffffffffffffffffffffffffffffffffffffffffffffffffffff8203615e2257615e22615c96565b5060010190565b7f4e487b7100000000000000000000000000000000000000000000000000000000600052601260045260246000fd5b600060208284031215615e6a57600080fd5b81518015158114610e0757600080fd5b601f8211156131a257806000526020600020601f840160051c81016020851015615ea15750805b601f840160051c820191505b818110156116df5760008155600101615ead565b815167ffffffffffffffff811115615edb57615edb615698565b615eef81615ee98454615cd8565b84615e7a565b6020601f821160018114615f415760008315615f0b5750848201515b7fffffffffffffffffffffffffffffffffffffffffffffffffffffffffffffffff600385901b1c1916600184901b1784556116df565b6000848152602081207fffffffffffffffffffffffffffffffffffffffffffffffffffffffffffffffe08516915b82811015615f8f5787850151825560209485019460019092019101615f6f565b5084821015615fcb57868401517fffffffffffffffffffffffffffffffffffffffffffffffffffffffffffffffff600387901b60f8161c191681555b50505050600190811b01905550565b7f4e487b7100000000000000000000000000000000000000000000000000000000600052602160045260246000fd5b600060ff831680616043577f4e487b7100000000000000000000000000000000000000000000000000000000600052601260045260246000fd5b8060ff84160691505092915050565b600082516160648184602087016155d2565b919091019291505056fe608060405234801561001057600080fd5b506040516103fb3803806103fb83398101604081905261002f9161035d565b6100456001600160a01b0382163360001961004b565b506103d7565b604080516001600160a01b038416602482015260448082018490528251808303909101815260649091019091526020810180516001600160e01b0390811663095ea7b360e01b179091526100a3908590839061011016565b61010a57604080516001600160a01b038516602482015260006044808301919091528251808303909101815260649091019091526020810180516001600160e01b0390811663095ea7b360e01b179091526101009186916101b816565b61010a84826101b8565b50505050565b6000806000846001600160a01b03168460405161012d9190610386565b6000604051808303816000865af19150503d806000811461016a576040519150601f19603f3d011682016040523d82523d6000602084013e61016f565b606091505b509150915081801561019957508051158061019957508080602001905181019061019991906103b5565b80156101af57506000856001600160a01b03163b115b95945050505050565b60006101cd6001600160a01b03841683610225565b905080516000141580156101f25750808060200190518101906101f091906103b5565b155b1561022057604051635274afe760e01b81526001600160a01b03841660048201526024015b60405180910390fd5b505050565b60606102338383600061023a565b9392505050565b60608147101561025f5760405163cd78605960e01b8152306004820152602401610217565b600080856001600160a01b0316848660405161027b9190610386565b60006040518083038185875af1925050503d80600081146102b8576040519150601f19603f3d011682016040523d82523d6000602084013e6102bd565b606091505b5090925090506102ce8683836102d8565b9695505050505050565b6060826102ed576102e882610334565b610233565b815115801561030457506001600160a01b0384163b155b1561032d57604051639996b31560e01b81526001600160a01b0385166004820152602401610217565b5080610233565b8051156103445780518082602001fd5b604051630a12f52160e11b815260040160405180910390fd5b60006020828403121561036f57600080fd5b81516001600160a01b038116811461023357600080fd5b6000825160005b818110156103a7576020818601810151858301520161038d565b506000920191825250919050565b6000602082840312156103c757600080fd5b8151801515811461023357600080fd5b6016806103e56000396000f3fe6080604052600080fdfea164736f6c634300081b000aa164736f6c634300081b000a",
    "linkReferences": {}
  },
  "methodIdentifiers": {
    "LIGHT_PROTOCOL_FEES()": "bc0db4a8",
    "LIGHT_PROTOCOL_OWNER()": "f4e99c8f",
    "LIGHT_PROTOCOL_TREASURY()": "0415ebcd",
    "NAME()": "a3f4df7e",
    "VERSION()": "ffa1ad74",
    "createVault(address,uint256,string,string)": "e015319c",
    "getAddress(address,uint256,string,string)": "3740235c",
    "vaultImplementation()": "bba48a90"
  },
  "id": 1
}