{
  "abi": [
    {
      "type": "constructor",
      "inputs": [],
      "stateMutability": "nonpayable"
    },
    {
      "type": "function",
      "name": "NAME",
      "inputs": [],
      "outputs": [
        {
          "name": "",
          "type": "string",
          "internalType": "string"
        }
      ],
      "stateMutability": "view"
    },
    {
      "type": "function",
      "name": "VERSION",
      "inputs": [],
      "outputs": [
        {
          "name": "",
          "type": "string",
          "internalType": "string"
        }
      ],
      "stateMutability": "view"
    },
    {
      "type": "function",
      "name": "createTimelockController",
      "inputs": [
        {
          "name": "lightWallet",
          "type": "address",
          "internalType": "address"
        },
        {
          "name": "lightProtocolController",
          "type": "address",
          "internalType": "address"
        },
        {
          "name": "salt",
          "type": "bytes32",
          "internalType": "bytes32"
        }
      ],
      "outputs": [
        {
          "name": "ret",
          "type": "address",
          "internalType": "contract LightTimelockController"
        }
      ],
      "stateMutability": "nonpayable"
    },
    {
      "type": "function",
      "name": "getAddress",
      "inputs": [
        {
          "name": "lightWallet",
          "type": "address",
          "internalType": "address"
        },
        {
          "name": "lightProtocolController",
          "type": "address",
          "internalType": "address"
        },
        {
          "name": "salt",
          "type": "bytes32",
          "internalType": "bytes32"
        }
      ],
      "outputs": [
        {
          "name": "",
          "type": "address",
          "internalType": "address"
        }
      ],
      "stateMutability": "view"
    },
    {
      "type": "function",
      "name": "timelockImplementation",
      "inputs": [],
      "outputs": [
        {
          "name": "",
          "type": "address",
          "internalType": "contract LightTimelockController"
        }
      ],
      "stateMutability": "view"
    },
    {
      "type": "error",
      "name": "LightProtocolControllerAddressZero",
      "inputs": []
    },
    {
      "type": "error",
      "name": "LightWalletAddressZero",
      "inputs": []
    }
  ],
  "bytecode": {
    "object": "0x60a0604052348015600e575f5ffd5b506040516019906042565b604051809103905ff0801580156031573d5f5f3e3d5ffd5b506001600160a01b0316608052604f565b612ef580610a3683390190565b6080516109c16100755f395f8181610106015281816101d201526103d501526109c15ff3fe608060405234801561000f575f5ffd5b5060043610610064575f3560e01c8063a3f4df7e1161004d578063a3f4df7e146100b8578063c5e8f3e514610101578063ffa1ad7414610128575f5ffd5b806349d27e2714610068578063817ec604146100a5575b5f5ffd5b61007b610076366004610510565b610164565b60405173ffffffffffffffffffffffffffffffffffffffff90911681526020015b60405180910390f35b61007b6100b3366004610510565b6102db565b6100f46040518060400160405280601e81526020017f4c6967687454696d656c6f636b436f6e74726f6c6c6572466163746f7279000081525081565b60405161009c9190610595565b61007b7f000000000000000000000000000000000000000000000000000000000000000081565b6100f46040518060400160405280600581526020017f302e312e3000000000000000000000000000000000000000000000000000000081525081565b5f6102d18260405180602001610179906104db565b7fffffffffffffffffffffffffffffffffffffffffffffffffffffffffffffffe082820381018352601f90910116604081905273ffffffffffffffffffffffffffffffffffffffff8089166024830152871660448201527f000000000000000000000000000000000000000000000000000000000000000090606401604080517fffffffffffffffffffffffffffffffffffffffffffffffffffffffffffffffe0818403018152918152602080830180517bffffffffffffffffffffffffffffffffffffffffffffffffffffffff167f485cc95500000000000000000000000000000000000000000000000000000000179052905161027a939291016105a7565b604080517fffffffffffffffffffffffffffffffffffffffffffffffffffffffffffffffe0818403018152908290526102b692916020016105ec565b604051602081830303815290604052805190602001206104ab565b90505b9392505050565b5f73ffffffffffffffffffffffffffffffffffffffff8416610329576040517f7275e10900000000000000000000000000000000000000000000000000000000815260040160405180910390fd5b73ffffffffffffffffffffffffffffffffffffffff8316610376576040517f2d167c4200000000000000000000000000000000000000000000000000000000815260040160405180910390fd5b5f610382858585610164565b905073ffffffffffffffffffffffffffffffffffffffff81163b80156103aa575090506102d4565b60405173ffffffffffffffffffffffffffffffffffffffff80881660248301528616604482015284907f000000000000000000000000000000000000000000000000000000000000000090606401604080517fffffffffffffffffffffffffffffffffffffffffffffffffffffffffffffffe08184030181529181526020820180517bffffffffffffffffffffffffffffffffffffffffffffffffffffffff167f485cc9550000000000000000000000000000000000000000000000000000000017905251610478906104db565b6104839291906105a7565b8190604051809103905ff59050801580156104a0573d5f5f3e3d5ffd5b509695505050505050565b5f6102d48383305f604051836040820152846020820152828152600b8101905060ff815360559020949350505050565b6103b48061060183390190565b803573ffffffffffffffffffffffffffffffffffffffff8116811461050b575f5ffd5b919050565b5f5f5f60608486031215610522575f5ffd5b61052b846104e8565b9250610539602085016104e8565b9150604084013590509250925092565b5f81518084528060208401602086015e5f6020828601015260207fffffffffffffffffffffffffffffffffffffffffffffffffffffffffffffffe0601f83011685010191505092915050565b602081525f6102d46020830184610549565b73ffffffffffffffffffffffffffffffffffffffff83168152604060208201525f6102d16040830184610549565b5f81518060208401855e5f93019283525090919050565b5f6102d16105fa83866105d5565b846105d556fe60806040526040516103b43803806103b48339810160408190526100229161023c565b61002c8282610033565b5050610321565b61003c82610091565b6040516001600160a01b038316907fbc7cd75a20ee27fd9adebab32041f755214dbc6bffa90cc0225b39da2e5c2d3b905f90a280511561008557610080828261010c565b505050565b61008d61017f565b5050565b806001600160a01b03163b5f036100cb57604051634c9c8ce360e01b81526001600160a01b03821660048201526024015b60405180910390fd5b7f360894a13ba1a3210667c828492db98dca3e2076cc3735a920a3ca505d382bbc80546001600160a01b0319166001600160a01b0392909216919091179055565b60605f5f846001600160a01b031684604051610128919061030b565b5f60405180830381855af49150503d805f8114610160576040519150601f19603f3d011682016040523d82523d5f602084013e610165565b606091505b5090925090506101768583836101a0565b95945050505050565b341561019e5760405163b398979f60e01b815260040160405180910390fd5b565b6060826101b5576101b0826101ff565b6101f8565b81511580156101cc57506001600160a01b0384163b155b156101f557604051639996b31560e01b81526001600160a01b03851660048201526024016100c2565b50805b9392505050565b80511561020f5780518082602001fd5b604051630a12f52160e11b815260040160405180910390fd5b634e487b7160e01b5f52604160045260245ffd5b5f5f6040838503121561024d575f5ffd5b82516001600160a01b0381168114610263575f5ffd5b60208401519092506001600160401b0381111561027e575f5ffd5b8301601f8101851361028e575f5ffd5b80516001600160401b038111156102a7576102a7610228565b604051601f8201601f19908116603f011681016001600160401b03811182821017156102d5576102d5610228565b6040528181528282016020018710156102ec575f5ffd5b8160208401602083015e5f602083830101528093505050509250929050565b5f82518060208501845e5f920191825250919050565b60878061032d5f395ff3fe6080604052600a600c565b005b60186014601a565b605d565b565b5f60587f360894a13ba1a3210667c828492db98dca3e2076cc3735a920a3ca505d382bbc5473ffffffffffffffffffffffffffffffffffffffff1690565b905090565b365f5f375f5f365f845af43d5f5f3e8080156076573d5ff35b3d5ffdfea164736f6c634300081b000aa164736f6c634300081b000a60c06040523060805261012c60a052348015610019575f5ffd5b50610022610027565b6100d9565b7ff0c57e16840df040f15088dc2f81fe391c3923bec73e23a9662efc9c229c6a00805468010000000000000000900460ff16156100775760405163f92ee8a960e01b815260040160405180910390fd5b80546001600160401b03908116146100d65780546001600160401b0319166001600160401b0390811782556040519081527fc7f505b2f371ae2175ee4913f4499e1f2633a7b5936321eed1cdaeb6115181d29060200160405180910390a15b50565b60805160a051612de661010f5f395f81816105de0152610d4c01525f8181611a9701528181611ac00152611d170152612de65ff3fe60806040526004361061022c575f3560e01c80638065657f11610131578063b1c5f427116100ac578063d547741f1161007c578063f23a6e6111610062578063f23a6e61146107e1578063f27a0c9214610825578063ffa1ad7414610858575f5ffd5b8063d547741f146107af578063e38335e5146107ce575f5ffd5b8063b1c5f427146106e3578063bc197c8114610702578063c4d252f514610746578063d45c443514610765575f5ffd5b80639f81aed711610101578063a3f4df7e116100e7578063a3f4df7e14610613578063ad3cb1cc14610668578063b08e51c0146106b0575f5ffd5b80639f81aed7146105cd578063a217fddf14610600575f5ffd5b80638065657f146104ec5780638f2a0bb01461050b5780638f61f4f51461052a57806391d148541461055d575f5ffd5b80632f2ff15d116101c15780634f1ef28611610191578063584b153e11610177578063584b153e1461048257806364d62353146104a15780637958004c146104c0575f5ffd5b80634f1ef2861461045b57806352d1902d1461046e575f5ffd5b80632f2ff15d146103df57806331d50750146103fe57806336568abe1461041d578063485cc9551461043c575f5ffd5b806313bc9f20116101fc57806313bc9f20146102e0578063150b7a02146102ff578063248a9ca3146103735780632ab0f529146103c0575f5ffd5b806301d5062a1461023757806301ffc9a71461025857806307bd02651461028c578063134008d3146102cd575f5ffd5b3661023357005b5f5ffd5b348015610242575f5ffd5b5061025661025136600461234b565b6108a0565b005b348015610263575f5ffd5b506102776102723660046123ba565b610974565b60405190151581526020015b60405180910390f35b348015610297575f5ffd5b506102bf7fd8aa0f3194971a2a116679f7c2090f6939c8d4e01a2a8d7e41d55e5351469e6381565b604051908152602001610283565b6102566102db3660046123f9565b610984565b3480156102eb575f5ffd5b506102776102fa366004612460565b610a79565b34801561030a575f5ffd5b5061034261031936600461257d565b7f150b7a0200000000000000000000000000000000000000000000000000000000949350505050565b6040517fffffffff000000000000000000000000000000000000000000000000000000009091168152602001610283565b34801561037e575f5ffd5b506102bf61038d366004612460565b5f9081527f02dd7bc7dec4dceedda775e58dd541e08a116c6c53815c0bd028192f7b626800602052604090206001015490565b3480156103cb575f5ffd5b506102776103da366004612460565b610a9e565b3480156103ea575f5ffd5b506102566103f93660046125e1565b610aa6565b348015610409575f5ffd5b50610277610418366004612460565b610aef565b348015610428575f5ffd5b506102566104373660046125e1565b610b13565b348015610447575f5ffd5b5061025661045636600461260b565b610b71565b610256610469366004612633565b610e60565b348015610479575f5ffd5b506102bf610e7f565b34801561048d575f5ffd5b5061027761049c366004612460565b610ead565b3480156104ac575f5ffd5b506102566104bb366004612460565b610ef2565b3480156104cb575f5ffd5b506104df6104da366004612460565b610faf565b60405161028391906126ab565b3480156104f7575f5ffd5b506102bf6105063660046123f9565b611016565b348015610516575f5ffd5b5061025661052536600461272b565b611054565b348015610535575f5ffd5b506102bf7fb09aa5aeb3702cfd50b6b62bc4532604938f21248a27a1d5ca736082b6819cc181565b348015610568575f5ffd5b506102776105773660046125e1565b5f9182527f02dd7bc7dec4dceedda775e58dd541e08a116c6c53815c0bd028192f7b6268006020908152604080842073ffffffffffffffffffffffffffffffffffffffff93909316845291905290205460ff1690565b3480156105d8575f5ffd5b506102bf7f000000000000000000000000000000000000000000000000000000000000000081565b34801561060b575f5ffd5b506102bf5f81565b34801561061e575f5ffd5b5061065b6040518060400160405280601781526020017f4c6967687454696d656c6f636b436f6e74726f6c6c657200000000000000000081525081565b60405161028391906127e0565b348015610673575f5ffd5b5061065b6040518060400160405280600581526020017f352e302e3000000000000000000000000000000000000000000000000000000081525081565b3480156106bb575f5ffd5b506102bf7ffd643c72710c63c0180259aba6b2d05451e3591a24e58b62239378085726f78381565b3480156106ee575f5ffd5b506102bf6106fd366004612833565b6111f6565b34801561070d575f5ffd5b5061034261071c366004612960565b7fbc197c810000000000000000000000000000000000000000000000000000000095945050505050565b348015610751575f5ffd5b50610256610760366004612460565b61123a565b348015610770575f5ffd5b506102bf61077f366004612460565b5f9081527f9a37c2aa9d186a0969ff8a8267bf4e07e864c2f2768f5040949e28a624fb3600602052604090205490565b3480156107ba575f5ffd5b506102566107c93660046125e1565b61131f565b6102566107dc366004612833565b611362565b3480156107ec575f5ffd5b506103426107fb366004612a0f565b7ff23a6e610000000000000000000000000000000000000000000000000000000095945050505050565b348015610830575f5ffd5b507f9a37c2aa9d186a0969ff8a8267bf4e07e864c2f2768f5040949e28a624fb3601546102bf565b348015610863575f5ffd5b5061065b6040518060400160405280600581526020017f302e312e3000000000000000000000000000000000000000000000000000000081525081565b7fb09aa5aeb3702cfd50b6b62bc4532604938f21248a27a1d5ca736082b6819cc16108ca8161153c565b5f6108d9898989898989611016565b90506108e58184611549565b5f817f4cf4410cc57040e44862ef0f45f3dd5a5e02db8eb8add648d4b0e236f1d07dca8b8b8b8b8b8a60405161092096959493929190612aaa565b60405180910390a3831561096957807f20fda5fd27a1ea7bf5b9567f143ac5470bb059374a27e8f67cb44f946f6d03878560405161096091815260200190565b60405180910390a25b505050505050505050565b5f61097e8261164d565b92915050565b5f80527f52fce5e8a5d0d9e8d1ea29f4525e512e9c27bf92cae50374d497f918ab48f3826020527fdd1864c1ab258d549957f6a4d7e3a5005661df58241dbbc1700fb170ef061546547fd8aa0f3194971a2a116679f7c2090f6939c8d4e01a2a8d7e41d55e5351469e639060ff16610a0057610a0081336116a2565b5f610a0f888888888888611016565b9050610a1b8185611748565b610a27888888886117af565b5f817fc2617efa69bab66782fa219543714338489c4e9e178271560a91b82c3f612b588a8a8a8a604051610a5e9493929190612af4565b60405180910390a3610a6f81611827565b5050505050505050565b5f60025b610a8683610faf565b6003811115610a9757610a9761267e565b1492915050565b5f6003610a7d565b5f8281527f02dd7bc7dec4dceedda775e58dd541e08a116c6c53815c0bd028192f7b6268006020526040902060010154610adf8161153c565b610ae98383611871565b50505050565b5f80610afa83610faf565b6003811115610b0b57610b0b61267e565b141592915050565b73ffffffffffffffffffffffffffffffffffffffff81163314610b62576040517f6697b23200000000000000000000000000000000000000000000000000000000815260040160405180910390fd5b610b6c828261198f565b505050565b7ff0c57e16840df040f15088dc2f81fe391c3923bec73e23a9662efc9c229c6a00805468010000000000000000810460ff16159067ffffffffffffffff165f81158015610bbb5750825b90505f8267ffffffffffffffff166001148015610bd75750303b155b905081158015610be5575080155b15610c1c576040517ff92ee8a900000000000000000000000000000000000000000000000000000000815260040160405180910390fd5b84547fffffffffffffffffffffffffffffffffffffffffffffffff00000000000000001660011785558315610c7d5784547fffffffffffffffffffffffffffffffffffffffffffffff00ffffffffffffffff16680100000000000000001785555b6040805160018082528183019092525f916020808301908036833701905050905087815f81518110610cb157610cb1612b29565b73ffffffffffffffffffffffffffffffffffffffff92909216602092830291909101909101526040805160018082528183019092525f9181602001602082028036833701905050905087815f81518110610d0d57610d0d612b29565b602002602001019073ffffffffffffffffffffffffffffffffffffffff16908173ffffffffffffffffffffffffffffffffffffffff1681525050610d737f000000000000000000000000000000000000000000000000000000000000000083835f611a6b565b610d9d7ffd643c72710c63c0180259aba6b2d05451e3591a24e58b62239378085726f7838a61198f565b50610dc87fd8aa0f3194971a2a116679f7c2090f6939c8d4e01a2a8d7e41d55e5351469e638a611871565b50610df37ffd643c72710c63c0180259aba6b2d05451e3591a24e58b62239378085726f78389611871565b5050508315610e575784547fffffffffffffffffffffffffffffffffffffffffffffff00ffffffffffffffff168555604051600181527fc7f505b2f371ae2175ee4913f4499e1f2633a7b5936321eed1cdaeb6115181d29060200160405180910390a15b50505050505050565b610e68611a7f565b610e7182611b85565b610e7b8282611bc6565b5050565b5f610e88611cff565b507f360894a13ba1a3210667c828492db98dca3e2076cc3735a920a3ca505d382bbc90565b5f5f610eb883610faf565b90506001816003811115610ece57610ece61267e565b1480610eeb57506002816003811115610ee957610ee961267e565b145b9392505050565b7f9a37c2aa9d186a0969ff8a8267bf4e07e864c2f2768f5040949e28a624fb360033308114610f6a576040517fe2850c5900000000000000000000000000000000000000000000000000000000815273ffffffffffffffffffffffffffffffffffffffff821660048201526024015b60405180910390fd5b600182015460408051918252602082018590527f11c24f4ead16507c69ac467fbd5e4eed5fb5c699626d2cc6d66421df253886d5910160405180910390a15060010155565b5f8181527f9a37c2aa9d186a0969ff8a8267bf4e07e864c2f2768f5040949e28a624fb36006020526040812054805f03610feb57505f92915050565b60018103610ffc5750600392915050565b4281111561100d5750600192915050565b50600292915050565b5f86868686868660405160200161103296959493929190612aaa565b6040516020818303038152906040528051906020012090509695505050505050565b7fb09aa5aeb3702cfd50b6b62bc4532604938f21248a27a1d5ca736082b6819cc161107e8161153c565b888714158061108d5750888514155b156110d5576040517fffb03211000000000000000000000000000000000000000000000000000000008152600481018a90526024810186905260448101889052606401610f61565b5f6110e68b8b8b8b8b8b8b8b6111f6565b90506110f28184611549565b5f5b8a8110156111a75780827f4cf4410cc57040e44862ef0f45f3dd5a5e02db8eb8add648d4b0e236f1d07dca8e8e8581811061113157611131612b29565b90506020020160208101906111469190612b56565b8d8d8681811061115857611158612b29565b905060200201358c8c8781811061117157611171612b29565b90506020028101906111839190612b6f565b8c8b60405161119796959493929190612aaa565b60405180910390a36001016110f4565b5083156111e957807f20fda5fd27a1ea7bf5b9567f143ac5470bb059374a27e8f67cb44f946f6d0387856040516111e091815260200190565b60405180910390a25b5050505050505050505050565b5f8888888888888888604051602001611216989796959493929190612ca0565b60405160208183030381529060405280519060200120905098975050505050505050565b7ffd643c72710c63c0180259aba6b2d05451e3591a24e58b62239378085726f7836112648161153c565b7f9a37c2aa9d186a0969ff8a8267bf4e07e864c2f2768f5040949e28a624fb360061128e83610ead565b6112e3578261129d6002611d6e565b6112a76001611d6e565b6040517f5ead8eb50000000000000000000000000000000000000000000000000000000081526004810193909352176024820152604401610f61565b5f838152602082905260408082208290555184917fbaa1eb22f2a492ba1a5fea61b8df4d27c6c8b5f3971e63bb58fa14ff72eedb7091a2505050565b5f8281527f02dd7bc7dec4dceedda775e58dd541e08a116c6c53815c0bd028192f7b62680060205260409020600101546113588161153c565b610ae9838361198f565b5f80527f52fce5e8a5d0d9e8d1ea29f4525e512e9c27bf92cae50374d497f918ab48f3826020527fdd1864c1ab258d549957f6a4d7e3a5005661df58241dbbc1700fb170ef061546547fd8aa0f3194971a2a116679f7c2090f6939c8d4e01a2a8d7e41d55e5351469e639060ff166113de576113de81336116a2565b87861415806113ed5750878414155b15611435576040517fffb03211000000000000000000000000000000000000000000000000000000008152600481018990526024810185905260448101879052606401610f61565b5f6114468a8a8a8a8a8a8a8a6111f6565b90506114528185611748565b5f5b89811015611526575f8b8b8381811061146f5761146f612b29565b90506020020160208101906114849190612b56565b90505f8a8a8481811061149957611499612b29565b905060200201359050365f8a8a868181106114b6576114b6612b29565b90506020028101906114c89190612b6f565b915091506114d8848484846117af565b84867fc2617efa69bab66782fa219543714338489c4e9e178271560a91b82c3f612b588686868660405161150f9493929190612af4565b60405180910390a350505050806001019050611454565b5061153081611827565b50505050505050505050565b61154681336116a2565b50565b7f9a37c2aa9d186a0969ff8a8267bf4e07e864c2f2768f5040949e28a624fb360061157383610aef565b156115bd57826115825f611d6e565b6040517f5ead8eb500000000000000000000000000000000000000000000000000000000815260048101929092526024820152604401610f61565b5f6115e67f9a37c2aa9d186a0969ff8a8267bf4e07e864c2f2768f5040949e28a624fb36015490565b90508083101561162c576040517f543366090000000000000000000000000000000000000000000000000000000081526004810184905260248101829052604401610f61565b6116368342612d65565b5f9485526020929092525060409092209190915550565b5f7fffffffff0000000000000000000000000000000000000000000000000000000082167f4e2312e000000000000000000000000000000000000000000000000000000000148061097e575061097e82611d90565b5f8281527f02dd7bc7dec4dceedda775e58dd541e08a116c6c53815c0bd028192f7b6268006020908152604080832073ffffffffffffffffffffffffffffffffffffffff8516845290915290205460ff16610e7b576040517fe2517d3f00000000000000000000000000000000000000000000000000000000815273ffffffffffffffffffffffffffffffffffffffff8216600482015260248101839052604401610f61565b61175182610a79565b61176057816115826002611d6e565b8015801590611775575061177381610a9e565b155b15610e7b576040517f90a9a61800000000000000000000000000000000000000000000000000000000815260048101829052602401610f61565b5f5f8573ffffffffffffffffffffffffffffffffffffffff168585856040516117d9929190612d9d565b5f6040518083038185875af1925050503d805f8114611813576040519150601f19603f3d011682016040523d82523d5f602084013e611818565b606091505b5091509150610e578282611e26565b7f9a37c2aa9d186a0969ff8a8267bf4e07e864c2f2768f5040949e28a624fb360061185182610a79565b61186057816115826002611d6e565b5f9182526020526040902060019055565b5f8281527f02dd7bc7dec4dceedda775e58dd541e08a116c6c53815c0bd028192f7b6268006020818152604080842073ffffffffffffffffffffffffffffffffffffffff8616855290915282205460ff16611986575f8481526020828152604080832073ffffffffffffffffffffffffffffffffffffffff87168452909152902080547fffffffffffffffffffffffffffffffffffffffffffffffffffffffffffffff001660011790556119223390565b73ffffffffffffffffffffffffffffffffffffffff168373ffffffffffffffffffffffffffffffffffffffff16857f2f8788117e7eff1d82e926ec794901d17c78024a50270940304540a733656f0d60405160405180910390a4600191505061097e565b5f91505061097e565b5f8281527f02dd7bc7dec4dceedda775e58dd541e08a116c6c53815c0bd028192f7b6268006020818152604080842073ffffffffffffffffffffffffffffffffffffffff8616855290915282205460ff1615611986575f8481526020828152604080832073ffffffffffffffffffffffffffffffffffffffff8716808552925280832080547fffffffffffffffffffffffffffffffffffffffffffffffffffffffffffffff0016905551339287917ff6391f5c32d9c69d2a47ea670b442974b53935d1edc7fd64eb21e047a839171b9190a4600191505061097e565b611a73611e42565b610ae984848484611ea9565b3073ffffffffffffffffffffffffffffffffffffffff7f0000000000000000000000000000000000000000000000000000000000000000161480611b4c57507f000000000000000000000000000000000000000000000000000000000000000073ffffffffffffffffffffffffffffffffffffffff16611b337f360894a13ba1a3210667c828492db98dca3e2076cc3735a920a3ca505d382bbc5473ffffffffffffffffffffffffffffffffffffffff1690565b73ffffffffffffffffffffffffffffffffffffffff1614155b15611b83576040517fe07c8dba00000000000000000000000000000000000000000000000000000000815260040160405180910390fd5b565b333014611546576040517fe1258894000000000000000000000000000000000000000000000000000000008152336004820152306024820152604401610f61565b8173ffffffffffffffffffffffffffffffffffffffff166352d1902d6040518163ffffffff1660e01b8152600401602060405180830381865afa925050508015611c4b575060408051601f3d9081017fffffffffffffffffffffffffffffffffffffffffffffffffffffffffffffffe0168201909252611c4891810190612dac565b60015b611c99576040517f4c9c8ce300000000000000000000000000000000000000000000000000000000815273ffffffffffffffffffffffffffffffffffffffff83166004820152602401610f61565b7f360894a13ba1a3210667c828492db98dca3e2076cc3735a920a3ca505d382bbc8114611cf5576040517faa1d49a400000000000000000000000000000000000000000000000000000000815260048101829052602401610f61565b610b6c8383612026565b3073ffffffffffffffffffffffffffffffffffffffff7f00000000000000000000000000000000000000000000000000000000000000001614611b83576040517fe07c8dba00000000000000000000000000000000000000000000000000000000815260040160405180910390fd5b5f816003811115611d8157611d8161267e565b600160ff919091161b92915050565b5f7fffffffff0000000000000000000000000000000000000000000000000000000082167f7965db0b00000000000000000000000000000000000000000000000000000000148061097e57507f01ffc9a7000000000000000000000000000000000000000000000000000000007fffffffff0000000000000000000000000000000000000000000000000000000083161461097e565b606082611e3b57611e3682612088565b61097e565b508061097e565b7ff0c57e16840df040f15088dc2f81fe391c3923bec73e23a9662efc9c229c6a005468010000000000000000900460ff16611b83576040517fd7e6bcf800000000000000000000000000000000000000000000000000000000815260040160405180910390fd5b611eb1611e42565b7f9a37c2aa9d186a0969ff8a8267bf4e07e864c2f2768f5040949e28a624fb3600611edc5f30611871565b5073ffffffffffffffffffffffffffffffffffffffff821615611f0557611f035f83611871565b505b5f5b8451811015611f9357611f537fb09aa5aeb3702cfd50b6b62bc4532604938f21248a27a1d5ca736082b6819cc1868381518110611f4657611f46612b29565b6020026020010151611871565b50611f8a7ffd643c72710c63c0180259aba6b2d05451e3591a24e58b62239378085726f783868381518110611f4657611f46612b29565b50600101611f07565b505f5b8351811015611fde57611fd57fd8aa0f3194971a2a116679f7c2090f6939c8d4e01a2a8d7e41d55e5351469e63858381518110611f4657611f46612b29565b50600101611f96565b5060018101859055604080515f8152602081018790527f11c24f4ead16507c69ac467fbd5e4eed5fb5c699626d2cc6d66421df253886d5910160405180910390a15050505050565b61202f826120ca565b60405173ffffffffffffffffffffffffffffffffffffffff8316907fbc7cd75a20ee27fd9adebab32041f755214dbc6bffa90cc0225b39da2e5c2d3b905f90a280511561208057610b6c8282612198565b610e7b612217565b8051156120985780518082602001fd5b6040517f1425ea4200000000000000000000000000000000000000000000000000000000815260040160405180910390fd5b8073ffffffffffffffffffffffffffffffffffffffff163b5f03612132576040517f4c9c8ce300000000000000000000000000000000000000000000000000000000815273ffffffffffffffffffffffffffffffffffffffff82166004820152602401610f61565b7f360894a13ba1a3210667c828492db98dca3e2076cc3735a920a3ca505d382bbc80547fffffffffffffffffffffffff00000000000000000000000000000000000000001673ffffffffffffffffffffffffffffffffffffffff92909216919091179055565b60605f5f8473ffffffffffffffffffffffffffffffffffffffff16846040516121c19190612dc3565b5f60405180830381855af49150503d805f81146121f9576040519150601f19603f3d011682016040523d82523d5f602084013e6121fe565b606091505b509150915061220e85838361224f565b95945050505050565b3415611b83576040517fb398979f00000000000000000000000000000000000000000000000000000000815260040160405180910390fd5b6060826122645761225f82612088565b610eeb565b8151158015612288575073ffffffffffffffffffffffffffffffffffffffff84163b155b156122d7576040517f9996b31500000000000000000000000000000000000000000000000000000000815273ffffffffffffffffffffffffffffffffffffffff85166004820152602401610f61565b5092915050565b803573ffffffffffffffffffffffffffffffffffffffff81168114612301575f5ffd5b919050565b5f5f83601f840112612316575f5ffd5b50813567ffffffffffffffff81111561232d575f5ffd5b602083019150836020828501011115612344575f5ffd5b9250929050565b5f5f5f5f5f5f5f60c0888a031215612361575f5ffd5b61236a886122de565b965060208801359550604088013567ffffffffffffffff81111561238c575f5ffd5b6123988a828b01612306565b989b979a50986060810135976080820135975060a09091013595509350505050565b5f602082840312156123ca575f5ffd5b81357fffffffff0000000000000000000000000000000000000000000000000000000081168114610eeb575f5ffd5b5f5f5f5f5f5f60a0878903121561240e575f5ffd5b612417876122de565b955060208701359450604087013567ffffffffffffffff811115612439575f5ffd5b61244589828a01612306565b979a9699509760608101359660809091013595509350505050565b5f60208284031215612470575f5ffd5b5035919050565b7f4e487b71000000000000000000000000000000000000000000000000000000005f52604160045260245ffd5b604051601f82017fffffffffffffffffffffffffffffffffffffffffffffffffffffffffffffffe016810167ffffffffffffffff811182821017156124eb576124eb612477565b604052919050565b5f82601f830112612502575f5ffd5b813567ffffffffffffffff81111561251c5761251c612477565b61254d60207fffffffffffffffffffffffffffffffffffffffffffffffffffffffffffffffe0601f840116016124a4565b818152846020838601011115612561575f5ffd5b816020850160208301375f918101602001919091529392505050565b5f5f5f5f60808587031215612590575f5ffd5b612599856122de565b93506125a7602086016122de565b925060408501359150606085013567ffffffffffffffff8111156125c9575f5ffd5b6125d5878288016124f3565b91505092959194509250565b5f5f604083850312156125f2575f5ffd5b82359150612602602084016122de565b90509250929050565b5f5f6040838503121561261c575f5ffd5b612625836122de565b9150612602602084016122de565b5f5f60408385031215612644575f5ffd5b61264d836122de565b9150602083013567ffffffffffffffff811115612668575f5ffd5b612674858286016124f3565b9150509250929050565b7f4e487b71000000000000000000000000000000000000000000000000000000005f52602160045260245ffd5b60208101600483106126e4577f4e487b71000000000000000000000000000000000000000000000000000000005f52602160045260245ffd5b91905290565b5f5f83601f8401126126fa575f5ffd5b50813567ffffffffffffffff811115612711575f5ffd5b6020830191508360208260051b8501011115612344575f5ffd5b5f5f5f5f5f5f5f5f5f60c08a8c031215612743575f5ffd5b893567ffffffffffffffff811115612759575f5ffd5b6127658c828d016126ea565b909a5098505060208a013567ffffffffffffffff811115612784575f5ffd5b6127908c828d016126ea565b90985096505060408a013567ffffffffffffffff8111156127af575f5ffd5b6127bb8c828d016126ea565b9a9d999c50979a969997986060880135976080810135975060a0013595509350505050565b602081525f82518060208401528060208501604085015e5f6040828501015260407fffffffffffffffffffffffffffffffffffffffffffffffffffffffffffffffe0601f83011684010191505092915050565b5f5f5f5f5f5f5f5f60a0898b03121561284a575f5ffd5b883567ffffffffffffffff811115612860575f5ffd5b61286c8b828c016126ea565b909950975050602089013567ffffffffffffffff81111561288b575f5ffd5b6128978b828c016126ea565b909750955050604089013567ffffffffffffffff8111156128b6575f5ffd5b6128c28b828c016126ea565b999c989b509699959896976060870135966080013595509350505050565b5f82601f8301126128ef575f5ffd5b813567ffffffffffffffff81111561290957612909612477565b8060051b612919602082016124a4565b91825260208185018101929081019086841115612934575f5ffd5b6020860192505b8383101561295657823582526020928301929091019061293b565b9695505050505050565b5f5f5f5f5f60a08688031215612974575f5ffd5b61297d866122de565b945061298b602087016122de565b9350604086013567ffffffffffffffff8111156129a6575f5ffd5b6129b2888289016128e0565b935050606086013567ffffffffffffffff8111156129ce575f5ffd5b6129da888289016128e0565b925050608086013567ffffffffffffffff8111156129f6575f5ffd5b612a02888289016124f3565b9150509295509295909350565b5f5f5f5f5f60a08688031215612a23575f5ffd5b612a2c866122de565b9450612a3a602087016122de565b93506040860135925060608601359150608086013567ffffffffffffffff8111156129f6575f5ffd5b81835281816020850137505f602082840101525f60207fffffffffffffffffffffffffffffffffffffffffffffffffffffffffffffffe0601f840116840101905092915050565b73ffffffffffffffffffffffffffffffffffffffff8716815285602082015260a060408201525f612adf60a083018688612a63565b60608301949094525060800152949350505050565b73ffffffffffffffffffffffffffffffffffffffff85168152836020820152606060408201525f612956606083018486612a63565b7f4e487b71000000000000000000000000000000000000000000000000000000005f52603260045260245ffd5b5f60208284031215612b66575f5ffd5b610eeb826122de565b5f5f83357fffffffffffffffffffffffffffffffffffffffffffffffffffffffffffffffe1843603018112612ba2575f5ffd5b83018035915067ffffffffffffffff821115612bbc575f5ffd5b602001915036819003821315612344575f5ffd5b5f8383855260208501945060208460051b820101835f5b86811015612c94577fffffffffffffffffffffffffffffffffffffffffffffffffffffffffffffffe084840301885281357fffffffffffffffffffffffffffffffffffffffffffffffffffffffffffffffe1873603018112612c47575f5ffd5b860160208101903567ffffffffffffffff811115612c63575f5ffd5b803603821315612c71575f5ffd5b612c7c858284612a63565b60209a8b019a90955093909301925050600101612be7565b50909695505050505050565b60a080825281018890525f8960c08301825b8b811015612ced5773ffffffffffffffffffffffffffffffffffffffff612cd8846122de565b16825260209283019290910190600101612cb2565b5083810360208501528881527f07ffffffffffffffffffffffffffffffffffffffffffffffffffffffffffffff891115612d25575f5ffd5b8860051b9150818a60208301370182810360209081016040850152612d4d9082018789612bd0565b60608401959095525050608001529695505050505050565b8082018082111561097e577f4e487b71000000000000000000000000000000000000000000000000000000005f52601160045260245ffd5b818382375f9101908152919050565b5f60208284031215612dbc575f5ffd5b5051919050565b5f82518060208501845e5f92019182525091905056fea164736f6c634300081b000a",
    "linkReferences": {}
  },
  "methodIdentifiers": {
    "NAME()": "a3f4df7e",
    "VERSION()": "ffa1ad74",
    "createTimelockController(address,address,bytes32)": "817ec604",
    "getAddress(address,address,bytes32)": "49d27e27",
    "timelockImplementation()": "c5e8f3e5"
  },
  "id": 1
}