{
  "abi": [
    {
      "type": "function",
      "name": "NAME",
      "inputs": [],
      "outputs": [
        {
          "name": "",
          "type": "string",
          "internalType": "string"
        }
      ],
      "stateMutability": "view"
    },
    {
      "type": "function",
      "name": "VERSION",
      "inputs": [],
      "outputs": [
        {
          "name": "",
          "type": "string",
          "internalType": "string"
        }
      ],
      "stateMutability": "view"
    },
    {
      "type": "function",
      "name": "addOperationRoot",
      "inputs": [
        {
          "name": "operationRoot",
          "type": "tuple",
          "internalType": "struct LightDAG.OperationRoot",
          "components": [
            {
              "name": "root",
              "type": "bytes32",
              "internalType": "bytes32"
            },
            {
              "name": "operations",
              "type": "tuple[]",
              "internalType": "struct LightDAG.Operation[]",
              "components": [
                {
                  "name": "hash",
                  "type": "bytes32",
                  "internalType": "bytes32"
                },
                {
                  "name": "conditionData",
                  "type": "bytes[]",
                  "internalType": "bytes[]"
                },
                {
                  "name": "dependencies",
                  "type": "bytes32[]",
                  "internalType": "bytes32[]"
                },
                {
                  "name": "fallbackOperation",
                  "type": "bytes32",
                  "internalType": "bytes32"
                }
              ]
            }
          ]
        }
      ],
      "outputs": [],
      "stateMutability": "pure"
    }
  ],
  "bytecode": {
    "object": "0x6080604052348015600e575f5ffd5b506105bf8061001c5f395ff3fe608060405234801561000f575f5ffd5b506004361061003f575f3560e01c8063a3f4df7e14610043578063bdc94c4c14610095578063ffa1ad74146100aa575b5f5ffd5b61007f6040518060400160405280600881526020017f4c6967687444414700000000000000000000000000000000000000000000000081525081565b60405161008c919061017b565b60405180910390f35b6100a86100a3366004610323565b6100e6565b005b61007f6040518060400160405280600581526020017f302e312e3000000000000000000000000000000000000000000000000000000081525081565b8051610178576040517f08c379a000000000000000000000000000000000000000000000000000000000815260206004820152602160248201527f4c696768744441473a204f7065726174696f6e20726f6f7420697320656d707460448201527f7900000000000000000000000000000000000000000000000000000000000000606482015260840160405180910390fd5b50565b602081525f82518060208401528060208501604085015e5f6040828501015260407fffffffffffffffffffffffffffffffffffffffffffffffffffffffffffffffe0601f83011684010191505092915050565b7f4e487b71000000000000000000000000000000000000000000000000000000005f52604160045260245ffd5b6040805190810167ffffffffffffffff8111828210171561021e5761021e6101ce565b60405290565b6040516080810167ffffffffffffffff8111828210171561021e5761021e6101ce565b604051601f82017fffffffffffffffffffffffffffffffffffffffffffffffffffffffffffffffe016810167ffffffffffffffff8111828210171561028e5761028e6101ce565b604052919050565b5f67ffffffffffffffff8211156102af576102af6101ce565b5060051b60200190565b5f82601f8301126102c8575f5ffd5b81356102db6102d682610296565b610247565b8082825260208201915060208360051b8601019250858311156102fc575f5ffd5b602085015b83811015610319578035835260209283019201610301565b5095945050505050565b5f60208284031215610333575f5ffd5b67ffffffffffffffff82351115610348575f5ffd5b813582016040818503121561035b575f5ffd5b6103636101fb565b8135815267ffffffffffffffff6020830135111561037f575f5ffd5b60208201358201915084601f830112610396575f5ffd5b6103a36102d68335610296565b82358082526020808301929160051b8501018710156103c0575f5ffd5b602084015b6020853560051b8601018110156105a35767ffffffffffffffff813511156103eb575f5ffd5b8035850160807fffffffffffffffffffffffffffffffffffffffffffffffffffffffffffffffe0828b03011215610420575f5ffd5b610428610224565b6020820135815267ffffffffffffffff60408301351115610447575f5ffd5b602060408301358301018a601f82011261045f575f5ffd5b61046c6102d68235610296565b81358082526020808301929160051b8401018d1015610489575f5ffd5b602083015b6020843560051b8501018110156105515767ffffffffffffffff813511156104b4575f5ffd5b8d603f8235860101126104c5575f5ffd5b602081358501013567ffffffffffffffff8111156104e5576104e56101ce565b61051660207fffffffffffffffffffffffffffffffffffffffffffffffffffffffffffffffe0601f84011601610247565b8181528f6020808486358a01010101111561052f575f5ffd5b816040843588010160208301375f60209282018301528452928301920161048e565b506020840152505067ffffffffffffffff60608301351115610571575f5ffd5b6105848a602060608501358501016102b9565b60408201526080919091013560608201528352602092830192016103c5565b5060208301525094935050505056fea164736f6c634300081b000a",
    "linkReferences": {}
  },
  "methodIdentifiers": {
    "NAME()": "a3f4df7e",
    "VERSION()": "ffa1ad74",
    "addOperationRoot((bytes32,(bytes32,bytes[],bytes32[],bytes32)[]))": "bdc94c4c"
  },
  "id": 0
}